:100000000C9434000C9462000C9451000C94510038
:100010000C9451000C9451000C9451000C9451001C
:100020000C9451000C9451000C9451000C9451000C
:100030000C9451000C9451000C9451000C945100FC
:100040000C9451000C9451000C9451000C945100EC
:100050000C9451000C9451000C9451000C945100DC
:100060000C9451000C94510011241FBECFEFD8E026
:10007000DEBFCDBF11E0A0E0B1E0E0EBFBE002C0ED
:1000800005900D92AC30B107D9F711E0ACE0B1E0CA
:1000900001C01D92AD34B107E1F70E9446040C94F3
:1000A000D6050C94000052985A9AE9E6F0E0808157
:1000B00083608083E89A7894EBE6F0E08081806842
:1000C000808308951F920F920FB60F9211242F93E1
:1000D0003F934F935F936F937F938F939F93AF93D0
:1000E000BF93EF93FF9380E091E00E94FA018DE0CF
:1000F00091E00E94120480934B01FF91EF91BF9118
:10010000AF919F918F917F916F915F914F913F91AF
:100110002F910F900FBE0F901F901895813029F0EE
:1001200039EE380F363038F015C0613011F43E9A90
:1001300008953E98089527B181E090E001C0880FAE
:100140003A95EAF7613011F4822B02C08095822340
:1001500087B908959EEF980F953030F095EF980F7E
:100160009330E0F4865001C0892F4AB121E030E09D
:10017000613049F4B90102C0660F771F8A95E2F732
:10018000CB01842B09C0B90102C0660F771F8A9585
:10019000E2F7CB01809584238AB9089597EF980FF1
:1001A000923020F08E50863010F00895835044B184
:1001B00021E030E0613049F4B90102C0660F771FD9
:1001C0008A95E2F7CB01842B09C0B90102C0660F02
:1001D000771F8A95E2F7CB018095842384B908952F
:1001E000CF93DF93C82FD62F61E00E948E00C130DD
:1001F00029F039EE3C0F363038F015C0D13011F40B
:10020000469A42C0469840C028B181E090E001C0C3
:10021000880F3A95EAF7D13011F4822B02C080950D
:10022000822388B931C08EEF8C0F853030F085EF96
:100230008C0F833090F4C65001C0C82F2BB181E0E1
:1002400090E001C0880FCA95EAF7D13011F4822BF3
:1002500002C0809582238BB917C087EF8C0F823044
:1002600020F0CE50C63010F00FC0C35025B181E051
:1002700090E001C0880FCA95EAF7D13011F4822BC3
:1002800002C08095822385B9DF91CF910895CF93E5
:10029000C82F60E00E948E00C13061F029EE2C0F63
:1002A000263068F486B190E002C0959587952A952E
:1002B000E2F723C086B186FB882780F91FC08EEF46
:1002C0008C0F853030F085EF8C0F833028F4C650CA
:1002D00001C0C82F89B10BC087EF8C0F823028F086
:1002E000CE50C63018F082E009C0C35083B190E010
:1002F00002C095958795CA95E2F78170CF910895D0
:10030000F8948CE284B981E58CBD789408958EBD13
:1003100000000DB407FEFDCF8EB50895FC016115F8
:100320007105A1F080818EBD6150710951F09181FC
:100330000DB407FEFDCF8EB59EBD9081890F8083E1
:10034000F3CF0DB407FEFDCF8EB580830895611500
:10035000710579F0FC0120812EBD6150710931F0E9
:10036000FC0121810DB407FEFDCFF6CF0DB407FED1
:10037000FDCF089560E00C94F00061E00C94F00073
:100380009CB5937F892B8CBD0895811103C08CB5DA
:10039000806202C08CB58F7D8CBD08959CB5282FDE
:1003A00023709C7F922B9CBD9DB582FB882780F992
:1003B0009E7F892B8DBD08959093C5008093C400C6
:1003C000E1ECF0E0808188608083808180618083BF
:1003D00086E08093C20008959091C00095FFFCCF05
:1003E0008093C60008958091C00087FFFCCF809164
:1003F000C60008951F93CF93DF93EC0110E0212FE7
:10040000332727FD3095FE0101900020E9F7319751
:10041000EC1BFD0BE217F30740F0FE01E20FF31FA8
:1004200080810E94EC011F5FEACF8DE00E94EC0109
:100430008AE0DF91CF911F910C94EC0161E088E19B
:100440000E948E00F89480E00E94C00181E00E942A
:10045000C50180E00E94CE01789408950F931F9308
:10046000CF93DF9300D0CDB7DEB7182F062FF894C7
:1004700060E088E10E94F000106819830A8362E05E
:1004800070E0CE0101960E94A70161E088E10E9420
:10049000F00078940F900F90DF91CF911F910F9102
:1004A0000895CF93C82FF89460E088E10E94F0008F
:1004B0008C2F8F770E94870180E00E948701C82FD0
:1004C00061E088E10E94F00078948C2FCF9108952C
:1004D000CF93DF93EC0168818FE20E942E02698145
:1004E00080E3DF91CF910C942E02CF93C82F692F18
:1004F0008CE20E942E026C2F8DE2CF910C942E0282
:10050000CF92DF92EF92FF9220E034E244E759E489
:100510000E94690520E034E244E752E40E94770437
:100520000E94E9046B017C01B7018827992787E0C5
:100530000E942E0299278F2D7E2D6D2D88E00E941E
:100540002E026C2D89E0FF90EF90DF90CF900C94FD
:100550002E02CF93DF9300D0CDB7DEB761E08BE002
:100560000E948E0061E089E10E94F0002FEF8FE38E
:1005700092E0215080409040E1F700C0000060E030
:100580008BE00E94F0002FEF8FE392E0215080403B
:100590009040E1F700C000006FE88CE30E942E025B
:1005A00060E38FE60E942E0265E58AE50E942E0236
:1005B00060E78CE50E942E028DE289838DE48A83B8
:1005C000CE0101960E94680284E090E00E947502CC
:1005D00060E070E089ED93E40E9480020F900F903C
:1005E000DF91CF910895CF93C82F81E00E945102EF
:1005F000837ECC71682F6C2B81E0CF910C942E02FE
:10060000CF93C82F80320CF0CFE181E10E945102DC
:10061000807E9C2FC7FD9F5F9595682F692B81E198
:10062000CF910C942E02CF93C82F811102C06AE1A2
:1006300001C06FE083E10E942E0281E1CC2331F002
:100640000E9451028F71682F606604C00E9451029F
:10065000682F6F7181E1CF910C942E020F931F933D
:10066000CF93FC0120812617E1F1C62F8C01611187
:100670000FC0108265E58AE50E942E0260E78CE5D6
:100680000E942E0284E0CF911F910F910C94F302EF
:10069000613089F465E58AE50E942E0260E78CE509
:1006A0000E942E0280E10E94F30260E485E20E9433
:1006B0002E0280E012C06230A1F46DE58AE50E944E
:1006C0002E026CE78CE50E942E028CE00E94F30261
:1006D00060E085E20E942E0281E00E941303F8018F
:1006E000C083CF911F910F910895CF92DF92EF9227
:1006F000FF920F931F93CF937C01CB01F89460E09E
:100700000E942E0360E088E10E94F00080E00E94D9
:10071000870180E00E948701C82F882391F087011C
:10072000C82EDD24C7FCD094C8018E199F098C15F2
:100730009D053CF480E00E948701F80181938F01C0
:10074000F3CF61E088E10E94F00078948C2FCF9184
:100750001F910F91FF90EF90DF90CF9008950F932E
:100760001F93CF93DF93EC018C010F5F1F4F61E06C
:10077000C8010E942E038FAD882361F01FAEB8011F
:10078000CE0102960E9475038EAF61E0C8010E94FF
:100790002E0381E0DF91CF911F910F910895EF9289
:1007A000FF920F931F93CF93DF9300D0CDB7DEB7A7
:1007B0007C018B01F89460E0C8010E942E0387E25F
:1007C0000E94510287FFFBCF60E088E10E94F000A9
:1007D0001A82198280E8898362E070E0CE01019676
:1007E0000E94A701F70180810E948701F7018181A2
:1007F0000E94870161E088E10E94F000789462E045
:10080000C8010E942E0381E00E9451028C71843045
:10081000D1F70F900F90DF91CF911F910F91FF9023
:10082000EF9008950F931F93CF938C01FC01C0812B
:10083000C13051F488E20E94510282FF05C082E07B
:1008400091E00E94FA010AC0F801C081C13029F488
:1008500060E0C8010E942E0301C0C0E08C2FCF9140
:100860001F910F91089561E083E20E942E0283E2BE
:100870000E94510281FFFBCF84E20E94510299271E
:1008800081950CF490959595879508950E94530055
:100890008FE290E00E94DC010E94800188E1809359
:1008A0000C0110920D0110924A0110924C0188E146
:1008B00090E00E941E0280910C01992787FD90957F
:1008C0000E94A90261E08DE091E00E942E038CE07D
:1008D00091E00E94AF03882321F08EE091E00E9416
:1008E000FA0186E69EE00197F1F70000F0CF0E9442
:1008F0008B040C942F050E94280558F00E942105B6
:1009000040F029F45F3F29F00C94180551110C9424
:1009100063050C941E050E94400568F39923B1F30A
:10092000552391F3951B550BBB27AA276217730715
:10093000840738F09F5F5F4F220F331F441FAA1FA9
:10094000A9F335D00E2E3AF0E0E832D09150504065
:10095000E695001CCAF72BD0FE2F29D0660F771F13
:10096000881FBB1F261737074807AB07B0E809F0F9
:10097000BB0B802DBF01FF2793585F4F3AF09E3F7E
:10098000510578F00C9418050C9463055F3FE4F36F
:10099000983ED4F3869577956795B795F7959F5FC1
:1009A000C9F7880F911D9695879597F90895E1E00D
:1009B000660F771F881FBB1F621773078407BA076C
:1009C00020F0621B730B840BBA0BEE1F88F7E095C7
:1009D00008950E94480588F09F5798F0B92F9927ED
:1009E000B751B0F0E1F0660F771F881F991F1AF01A
:1009F000BA95C9F714C0B13091F00E946205B1E018
:100A000008950C946205672F782F8827B85F39F016
:100A1000B93FCCF3869577956795B395D9F73EF4B2
:100A200090958095709561957F4F8F4F9F4F08955A
:100A300097F99F6780E870E060E008959FEF80EC91
:100A4000089500240A941616170618060906089534
:100A500000240A9412161306140605060895092E9A
:100A60000394000C11F4882352F0BB0F40F4BF2B09
:100A700011F460FF04C06F5F7F4F8F4F9F4F089549
:100A800057FD9058440F551F59F05F3F71F047953F
:100A9000880F97FB991F61F09F3F79F08795089524
:100AA000121613061406551FF2CF4695F1DF08C043
:100AB000161617061806991FF1CF86957105610560
:100AC00008940895E894BB2766277727CB0197F908
:100AD00008950E947C050C942F050E94210538F092
:100AE0000E94280520F0952311F00C9418050C9411
:100AF0001E0511240C9463050E94400570F3959F18
:100B0000C1F3950F50E0551F629FF001729FBB2704
:100B1000F00DB11D639FAA27F00DB11DAA1F649FA0
:100B20006627B00DA11D661F829F2227B00DA11D53
:100B3000621F739FB00DA11D621F839FA00D611DD9
:100B4000221F749F3327A00D611D231F849F600DFA
:100B5000211D822F762F6A2F11249F5750409AF023
:100B6000F1F088234AF0EE0FFF1FBB1F661F771FAF
:100B7000881F91505040A9F79E3F510580F00C947A
:100B800018050C9463055F3FE4F3983ED4F3869513
:100B900077956795B795F795E7959F5FC1F7FE2B1A
:100BA000880F911D9695879597F90895F894FFCF32
:0C0BB00049006E657720646174612000CC
:00000001FF
