:100000000C9434000C9449000C9449000C94490061
:100010000C9449000C9449000C9449000C9449003C
:100020000C9449000C9449000C9449000C9449002C
:100030000C9449000C9449000C9449000C9449001C
:100040000C9449000C9449000C9449000C9449000C
:100050000C9449000C9449000C9449000C944900FC
:100060000C9449000C94490011241FBECFEFD8E036
:10007000DEBFCDBF11E0A0E0B1E0E8E1F7E002C0F3
:1000800005900D92A431B107D9F70E9488000C9415
:100090008A030C9400009093C5008093C400E1ECA7
:1000A000F0E080818860808380818061808386E049
:1000B0008093C20008959091C00095FFFCCF80937B
:1000C000C60008958091C00087FFFCCF8091C600D4
:1000D00008951F93CF93DF93EC0110E0812F9927B0
:1000E00087FD9095FE0101900020E9F73197EC1B08
:1000F000FD0BE817F90740F0FE01E80FF91F8081BA
:100100000E945B001F5FEACFDF91CF911F9108959E
:10011000CF93DF93CDB7DEB7C055D1090FB6F894B2
:10012000DEBF0FBECDBF389A8FE290E00E944B0039
:1001300080E0E82E81E0F82E8E010F5F1F4F0E94B5
:1001400062008823E1F3282F332727FD30953F9362
:100150008F93FF92EF921F930F930E94B900C801F3
:100160000E9469000F900F900F900F900F900F90CA
:10017000E6CFAEE0B0E0EFEBF0E00C9461030D8968
:100180001E8986E08C831A8309838FEF9FE79E8305
:100190008D83AE01475E5F4F6F89788DCE010196EA
:1001A0000E94DB00EF81F885E00FF11F10822E9690
:1001B000E4E00C947D03ACE0B0E0E1EEF0E00C9400
:1001C00053037C016B018A01FC0117821682838133
:1001D00081FFBDC1CE0101964C01F7019381F6016B
:1001E00093FD859193FF81916F01882309F4ABC141
:1001F000853239F493FD859193FF81916F018532AA
:1002000029F4B70190E00E94C302E7CF512C312CB2
:1002100020E02032A0F48B3269F030F4803259F0C3
:10022000833269F420612CC08D3239F0803339F487
:10023000216026C02260246023C0286021C027FDE1
:1002400027C030ED380F3A3078F426FF06C0FAE0C8
:100250005F9E300D1124532E13C08AE0389E300D5E
:100260001124332E20620CC08E3221F426FD6BC186
:10027000206406C08C3611F4206802C0883641F430
:10028000F60193FD859193FF81916F018111C1CF9B
:10029000982F9F7D9554933028F40C5F1F4FFFE3F8
:1002A000F9830DC0833631F0833771F0833509F05F
:1002B0005BC022C0F801808189830E5F1F4F4424F8
:1002C0004394512C540115C03801F2E06F0E711C9B
:1002D000F801A080B18026FF03C0652D70E002C048
:1002E0006FEF7FEFC5012C870E94B8022C018301BC
:1002F0002C852F77222E17C03801F2E06F0E711C6B
:10030000F801A080B18026FF03C0652D70E002C017
:100310006FEF7FEFC5012C870E94AD022C012C8569
:100320002068222E830123FC1BC0832D90E04816F9
:100330005906B0F4B70180E290E00E94C3023A94FB
:10034000F4CFF50127FC859127FE81915F01B7016C
:1003500090E00E94C30231103A94F1E04F1A510824
:100360004114510471F7E5C0843611F0893639F52E
:10037000F80127FF07C060817181828193810C5F42
:100380001F4F08C060817181882777FD8095982F65
:100390000E5F1F4F2F76B22E97FF09C09095809564
:1003A000709561957F4F8F4F9F4F2068B22E2AE046
:1003B00030E0A4010E94F502A82EA81844C0853799
:1003C00029F42F7EB22E2AE030E025C0F22FF97FEB
:1003D000BF2E8F36C1F018F4883579F0B4C080375D
:1003E00019F0883721F0AFC02F2F2061B22EB4FE54
:1003F0000DC08B2D8460B82E09C024FF0AC09F2F2A
:100400009660B92E06C028E030E005C020E130E05B
:1004100002C020E132E0F801B7FE07C060817181BF
:10042000828193810C5F1F4F06C06081718180E0E3
:1004300090E00E5F1F4FA4010E94F502A82EA8189D
:10044000FB2DFF77BF2EB6FE0BC02B2D2E7FA514E4
:1004500050F4B4FE0AC0B2FC08C02B2D2E7E05C09D
:100460007A2C2B2D03C07A2C01C0752C24FF0DC0D3
:10047000FE01EA0DF11D8081803311F4297E09C04F
:1004800022FF06C07394739404C0822F867809F00B
:10049000739423FD13C020FF06C05A2C731418F464
:1004A000530C5718732C731468F4B70180E290E072
:1004B0002C870E94C30273942C85F5CF731410F41B
:1004C000371801C0312C24FF12C0B70180E390E03F
:1004D0002C870E94C3022C8522FF17C021FF03C076
:1004E00088E590E002C088E790E0B7010CC0822F59
:1004F000867859F021FD02C080E201C08BE227FD21
:100500008DE2B70190E00E94C302A51438F4B70150
:1005100080E390E00E94C3025A94F7CFAA94F401BA
:10052000EA0DF11D8081B70190E00E94C302A11085
:10053000F5CF332009F451CEB70180E290E00E945C
:10054000C3023A94F6CFF7018681978102C08FEFFC
:100550009FEF2C96E2E10C946F03FC010590615033
:1005600070400110D8F7809590958E0F9F1F0895C9
:10057000FC016150704001900110D8F78095909572
:100580008E0F9F1F08950F931F93CF93DF93182F04
:10059000092FEB018B8181FD03C08FEF9FEF20C0FE
:1005A00082FF10C04E815F812C813D81421753072D
:1005B0007CF4E881F9819F012F5F3F4F39832883C5
:1005C000108306C0E885F985812F0995892B29F7C5
:1005D0002E813F812F5F3F4F3F832E83812F902FAE
:1005E000DF91CF911F910F910895FA01AA2728302A
:1005F00051F1203181F1E8946F936E7F6E5F7F4FF0
:100600008F4F9F4FAF4FB1E03ED0B4E03CD0670F6B
:10061000781F891F9A1FA11D680F791F8A1F911DBE
:10062000A11D6A0F711D811D911DA11D20D009F40E
:1006300068943F912AE0269F11243019305D319350
:10064000DEF6CF010895462F4770405D4193B3E039
:100650000FD0C9F7F6CF462F4F70405D4A3318F0E0
:10066000495D31FD4052419302D0A9F7EACFB4E091
:10067000A6959795879577956795BA95C9F7009749
:100680006105710508959B01AC010A2E06945795EA
:10069000479537952795BA95C9F7620F731F841F41
:1006A000951FA01D08952F923F924F925F926F92D7
:1006B0007F928F929F92AF92BF92CF92DF92EF92F2
:1006C000FF920F931F93CF93DF93CDB7DEB7CA1B73
:1006D000DB0B0FB6F894DEBF0FBECDBF09942A889E
:1006E000398848885F846E847D848C849B84AA8446
:1006F000B984C884DF80EE80FD800C811B81AA81D3
:10070000B981CE0FD11D0FB6F894DEBF0FBECDBF9D
:08071000ED010895F894FFCFFC
:10071800596F7520656E7465726564203D20256388
:04072800200D0A0096
:00000001FF
