:100000000C9434000C943E000C943E000C943E0082
:100010000C943E000C943E000C943E000C943E0068
:100020000C943E000C943E000C943E000C943E0058
:100030000C943E000C943E000C943E000C943E0048
:100040000C943E000C943E000C943E000C943E0038
:100050000C943E000C943E000C943E000C943E0028
:100060000C943E000C943E0011241FBECFEFD8E04C
:10007000DEBFCDBF0E9440000C94EC000C94000049
:10008000389A509A209A289A8FEF9FE20197F1F7B9
:1000900000C000002898299A8FEF9FE20197F1F79E
:1000A00000C0000029982A9A8FEF9FE20197F1F78C
:1000B00000C000002A982B9A8FEF9FE20197F1F77A
:1000C00000C000002B982C9A8FEF9FE20197F1F768
:1000D00000C000002C982D9A8FEF9FE20197F1F756
:1000E00000C000002D982F9A8FEF9FE20197F1F743
:1000F00000C000002F98409A8FEF9FE20197F1F720
:1001000000C000004098419A8FEF9FE20197F1F7FD
:1001100000C000004198429A8FEF9FE20197F1F7EB
:1001200000C000004298439A8FEF9FE20197F1F7D9
:1001300000C000004398449A8FEF9FE20197F1F7C7
:1001400000C000004498459A8FEF9FE20197F1F7B5
:1001500000C000004598589A8FEF9FE20197F1F791
:1001600000C000005898599A8FEF9FE20197F1F76D
:1001700000C0000059985A9A8FEF9FE20197F1F75B
:1001800000C000005A985B9A8FEF9FE20197F1F749
:1001900000C000005B985C9A8FEF9FE20197F1F737
:1001A00000C000005C985D9A8FEF9FE20197F1F725
:1001B00000C000005D985E9A8FEF9FE20197F1F713
:1001C00000C000005E985F9A8FEF9FE20197F1F701
:0C01D00000C000005F9857CFF894FFCFEC
:00000001FF
