:100000000C9434000C9451000C9451000C94510049
:100010000C9451000C9451000C9451000C9451001C
:100020000C9451000C9451000C9451000C947900E4
:100030000C9451000C9451000C9451000C945100FC
:100040000C9451000C9451000C9451000C945100EC
:100050000C9451000C9453000C9451000C945100DA
:100060000C9451000C94510011241FBECFEFD8E026
:10007000DEBFCDBF11E0A0E0B1E0E8E6F0E102C0F4
:1000800005900D92AA32B107D9F711E0AAE2B1E0CA
:1000900001C01D92AA33B107E1F70E9444030C94FA
:1000A00032080C9400001F920F920FB60F92112489
:1000B0002F933F934F935F936F937F938F939F9370
:1000C000AF93BF93EF93FF938AE291E00E94E80021
:1000D000FF91EF91BF91AF919F918F917F916F9120
:1000E0005F914F913F912F910F900FBE0F901F90F6
:1000F00018951F920F920FB60F9211242F933F93D2
:100100004F935F936F937F938F939F93AF93BF931F
:10011000EF93FF9386E091E00E9498028AE291E0DB
:100120000E948E01FF91EF91BF91AF919F918F91AE
:100130007F916F915F914F913F912F910F900FBEE3
:100140000F901F901895ECE7F0E080818064808329
:10015000808183608083EAE7F0E08081866080832D
:10016000808180688083808188608083E1E8F0E01E
:10017000808188608083EFE6F0E080818260808308
:1001800080EA9CE890938900809388007894089591
:10019000FC0186E292E0948B838B88EE93E0978358
:1001A0008683AAE7B0E08C9180648C9381E082839F
:1001B0008AE08587E1E8F0E08081856080830895AA
:1001C000FC011282E1E8F0E08081887F808308955D
:1001D000EF92FF920F931F93CF93DF93CDB7DEB7CC
:1001E000A8970FB6F894DEBF0FBECDBF8C018091EB
:1001F00078002091790090E0922BF8019183808320
:10020000808191819F938F938BE0E82E81E0F82E7F
:10021000FF92EF92CE0145969F938F930E944A05DD
:10022000F80120813181838994890F900F900F907C
:100230000F900F900F908217930740F583818111E3
:1002400025C0878590898538934000F181E0F801C9
:10025000838382858F5F8287878590899F938F9321
:10026000FF92EF92CE0101967C019F938F930E94A3
:100270004A05C7010E949802F801108A17860F905C
:100280000F900F900F900F900F9016C0F801838180
:10029000813049F420813181838994892817390775
:1002A00010F4138209C0F8018381811105C087858C
:1002B00090890196908B8787F80185858823C1F006
:1002C00020813181848195818217930728F4808170
:1002D0009181958384830CC0F801208131818681CE
:1002E00097812817390720F480819181978386832D
:1002F000F8018281882329F080917A0080648093BC
:100300007A00A8960FB6F894DEBF0FBECDBFDF917E
:10031000CF911F910F91FF90EF900895EF92FF9270
:100320000F931F93CF93DF93CDB7DEB7A8970FB688
:10033000F894DEBF0FBECDBF8C01FC0183858823FE
:1003400071F02385828590E0820F911D46E0489FE1
:100350009001499F300D11243187208709C0F80191
:100360008285FCE08F9FC0011124F801918780876E
:10037000F801808591859F938F9383E191E09F930E
:100380008F937E01F5E1EF0EF11CFF92EF920E9438
:100390004A05C7010E949802F80182850F900F90CC
:1003A0000F900F900F900F90853028F082858387F3
:1003B0008385848704C085E0F80185871386F8016A
:1003C000128685858330B0F1158684819581892BCD
:1003D00021F086819781892B21F486E292E0F80151
:1003E0000AC0F8012481358186819781820F931F8D
:1003F0004E9796958795948B838BF8018389948982
:100400009F938F938DE191E09F938F93CE010196FF
:100410007C019F938F930E944A05C7010E94980216
:10042000F801158214820F900F900F900F900F908B
:100430000F9004C0F80185858F5F8587A8960FB659
:10044000F894DEBF0FBECDBFDF91CF911F910F910A
:10045000FF90EF9008958CE18093B800089510927A
:10046000BC0094EA9093BC009091BC0097FFFCCF35
:100470009091B900987F983011F081E008958093B1
:10048000BB0084E88093BC008091BC0087FFFCCF58
:100490008091B900887F883111F0803471F780E055
:1004A00008958093BB0084E88093BC008091BC00D9
:1004B00087FFFCCF9091B900987F81E0983209F4D2
:1004C00080E0089584E98093BC00089584EC8093D3
:1004D000BC008091BC0087FFFCCF8091BB000895D9
:1004E00084E88093BC008091BC0087FFFCCF8091A2
:1004F000BB0008959093C5008093C400E1ECF0E048
:1005000080818860808380818061808386E08093A1
:10051000C20008959091C00095FFFCCF8093C60063
:1005200008958091C00087FFFCCF8091C600089598
:100530001F93CF93DF93EC0110E0212F332727FD8A
:100540003095FE0101900020E9F73197EC1BFD0B7F
:10055000E217F30740F0FE01E20FF31F80810E94D3
:100560008A021F5FEACF8DE00E948A028AE0DF9153
:10057000CF911F910C948A024F925F926F927F925B
:100580008F929F92AF92BF92CF92DF92EF92FF92A3
:100590000F931F93CF93DF937C012A013B01D22E4F
:1005A000CB01BA010E94C5034B015C018B014AE0FB
:1005B00050E0B701C4010E941A0520E030E0A90113
:1005C000C301B2010E94C00387FF08C077FA70948C
:1005D00077F870940027112708191909E701099085
:1005E0000020E9F72197CE19DF099C2E9394DD278F
:1005F000C7FDD095F701EC0FFD1F8EE28083CD0D76
:10060000D11DD7FCDA95C92CDD24C7FCD094CC15BC
:10061000DD054CF1B801882777FD8095982F0E9461
:10062000FD039B01AC01C301B2010E94530320E012
:1006300030E040E251E40E94AD042B013C010E94F5
:10064000C503DC01CB018C014AE050E0A12CB12CA8
:10065000B5010E941A05F701EC0DFD1DD5018C9125
:1006600080839394D0CFDF91CF911F910F91FF9012
:10067000EF90DF90CF90BF90AF909F908F907F9042
:100680006F905F904F9008958FE290E00E947A0201
:100690000E94A3008AE291E00E94C80080E091E0FD
:1006A0000E949802FFCF5058BB27AA270E946B03D5
:1006B0000C9473040E94650438F00E946C0420F0CE
:1006C00039F49F3F19F426F40C9462040EF4E0957B
:1006D000E7FB0C945C04E92F0E94840458F3BA17DA
:1006E000620773078407950720F079F4A6F50C9448
:1006F000A6040EF4E0950B2EBA2FA02D0B01B90124
:1007000090010C01CA01A0011124FF27591B99F087
:10071000593F50F4503E68F11A16F040A22F232F93
:10072000342F4427585FF3CF469537952795A795E3
:10073000F0405395C9F77EF41F16BA0B620B730B8A
:10074000840BBAF09150A1F0FF0FBB1F661F771FFB
:10075000881FC2F70EC0BA0F621F731F841F48F4B0
:10076000879577956795B795F7959E3F08F0B0CF39
:100770009395880F08F09927EE0F97958795089520
:100780000E94380408F481E008950E94CC03689424
:10079000B1110C94A70408950E948C0488F09F570F
:1007A00098F0B92F9927B751B0F0E1F0660F771F95
:1007B000881F991F1AF0BA95C9F714C0B13091F08B
:1007C0000E94A604B1E008950C94A604672F782F28
:1007D0008827B85F39F0B93FCCF386957795679550
:1007E000B395D9F73EF490958095709561957F4FBC
:1007F0008F4F9F4F0895E89409C097FB3EF4909562
:100800008095709561957F4F8F4F9F4F9923A9F0E9
:10081000F92F96E9BB279395F69587957795679578
:10082000B795F111F8CFFAF4BB0F11F460FF1BC0BC
:100830006F5F7F4F8F4F9F4F16C0882311F096E94F
:1008400011C0772321F09EE8872F762F05C06623FD
:1008500071F096E8862F70E060E02AF09A95660FB6
:10086000771F881FDAF7880F9695879597F908956F
:10087000990F0008550FAA0BE0E8FEEF16161706B1
:10088000E807F907C0F012161306E407F50798F019
:10089000621B730B840B950B39F40A2661F0232B32
:1008A000242B252B21F408950A2609F4A140A695AE
:1008B0008FEF811D811D089597F99F6780E870E093
:1008C00060E008959FEF80EC089500240A941616C6
:1008D000170618060906089500240A94121613062E
:1008E000140605060895092E0394000C11F48823BC
:1008F00052F0BB0F40F4BF2B11F460FF04C06F5FD8
:100900007F4F8F4F9F4F089557FD9058440F551FAD
:1009100059F05F3F71F04795880F97FB991F61F081
:100920009F3F79F087950895121613061406551FF8
:10093000F2CF4695F1DF08C0161617061806991F64
:10094000F1CF86957105610508940895E894BB2759
:1009500066277727CB0197F908950E94C0040C946D
:1009600073040E94650438F00E946C0420F0952303
:1009700011F00C945C040C94620411240C94A704F0
:100980000E94840470F3959FC1F3950F50E0551FAA
:10099000629FF001729FBB27F00DB11D639FAA27D4
:1009A000F00DB11DAA1F649F6627B00DA11D661F23
:1009B000829F2227B00DA11D621F739FB00DA11D44
:1009C000621F839FA00D611D221F749F3327A00DFE
:1009D000611D231F849F600D211D822F762F6A2F9A
:1009E00011249F5750409AF0F1F088234AF0EE0FFF
:1009F000FF1FBB1F661F771F881F91505040A9F72C
:100A00009E3F510580F00C945C040C94A7045F3F5A
:100A1000E4F3983ED4F3869577956795B795F79567
:100A2000E7959F5FC1F7FE2B880F911D96958795DF
:100A300097F908954532510520F4423010F00C9496
:100A40002505FB011082CB010895BB274A3031F404
:100A5000992322F4BDE2909581959F4F0C94310526
:100A6000BB27FB015527AA27880F991FAA1FA41788
:100A700010F0A41B83955051B9F7A05DAA3308F07C
:100A8000A95DA193009779F7B111B1931192CB01B0
:100A90000C945507AEE0B0E0E0E5F5E00C940908F1
:100AA0000D891E8986E08C831A8309838FEF9FE767
:100AB0009E838D83AE01475E5F4F6F89788DCE0137
:100AC00001960E946D052F813885F801E20FF31F12
:100AD00010822E96E4E00C942508ACE0B0E0E3E749
:100AE000F5E00C94FB077C016B018A01FC01178285
:100AF0001682838181FFBDC1CE0101964C01F701B1
:100B00009381F60193FD859193FF81916F01882375
:100B100009F4ABC1853239F493FD859193FF81913E
:100B20006F01853229F4B70190E00E946507E7CF95
:100B3000512C312C20E02032A0F48B3269F030F4BB
:100B4000803259F0833269F420612CC08D3239F043
:100B5000803339F4216026C02260246023C02860DD
:100B600021C027FD27C030ED380F3A3078F426FF3A
:100B700006C0FAE05F9E300D1124532E13C08AE0A8
:100B8000389E300D1124332E20620CC08E3221F499
:100B900026FD6BC1206406C08C3611F4206802C0AB
:100BA000883641F4F60193FD859193FF81916F01A1
:100BB0008111C1CF982F9F7D9554933028F40C5FFD
:100BC0001F4FFFE3F9830DC0833631F0833771F097
:100BD000833509F05BC022C0F801808189830E5FF4
:100BE0001F4F44244394512C540115C03801F2E0A6
:100BF0006F0E711CF801A080B18026FF03C0652D27
:100C000070E002C06FEF7FEFC5012C870E944A079A
:100C10002C0183012C852F77222E17C03801F2E09A
:100C20006F0E711CF801A080B18026FF03C0652DF6
:100C300070E002C06FEF7FEFC5012C870E943F0775
:100C40002C012C852068222E830123FC1BC0832DC0
:100C500090E048165906B0F4B70180E290E00E9497
:100C600065073A94F4CFF50127FC859127FE819121
:100C70005F01B70190E00E94650731103A94F1E0FE
:100C80004F1A51084114510471F7E5C0843611F030
:100C9000893639F5F80127FF07C0608171818281AB
:100CA00093810C5F1F4F08C060817181882777FD99
:100CB0008095982F0E5F1F4F2F76722E97FF09C0D9
:100CC00090958095709561957F4F8F4F9F4F2068CD
:100CD000722E2AE030E0A4010E949D07A82EA818D9
:100CE00044C0853729F42F7EB22E2AE030E025C09B
:100CF000F22FF97FBF2E8F36C1F018F4883579F0C6
:100D0000B4C0803719F0883721F0AFC02F2F206191
:100D1000B22EB4FE0DC08B2D8460B82E09C024FF06
:100D20000AC09F2F9660B92E06C028E030E005C0AB
:100D300020E130E002C020E132E0F801B7FE07C058
:100D400060817181828193810C5F1F4F06C0608139
:100D5000718180E090E00E5F1F4FA4010E949D070B
:100D6000A82EA818FB2DFF777F2E76FE0BC0372DFF
:100D70003E7FA51450F474FE0AC072FC08C0372DE3
:100D80003E7E05C0BA2C372D03C0BA2C01C0B52C4D
:100D900034FF0DC0FE01EA0DF11D8081803311F496
:100DA000397E09C032FF06C0B394B39404C0832FC8
:100DB000867809F0B39433FD13C030FF06C05A2C77
:100DC000B31418F4530C5B18B32CB31468F4B701C4
:100DD00080E290E03C870E946507B3943C85F5CFA4
:100DE000B31410F43B1801C0312C34FF12C0B7010A
:100DF00080E390E03C870E9465073C8532FF17C086
:100E000031FD03C088E790E002C088E590E0B701BB
:100E10000CC0832F867859F031FF02C08BE201C0ED
:100E200080E237FD8DE2B70190E00E946507A514CE
:100E300038F4B70180E390E00E9465075A94F7CF39
:100E4000AA94F401EA0DF11D8081B70190E00E949F
:100E50006507A110F5CF332009F451CEB70180E228
:100E600090E00E9465073A94F6CFF701868197815A
:100E700002C08FEF9FEF2C96E2E10C941708FC0163
:100E80000590615070400110D8F7809590958E0FB5
:100E90009F1F0895FC016150704001900110D8F728
:100EA000809590958E0F9F1F0895DC01FC01672FA0
:100EB00071917723E1F7329704C07C916D93708331
:100EC0006291AE17BF07C8F308950F931F93CF9396
:100ED000DF93FB01238121FD03C08FEF9FEF28C02B
:100EE00022FF16C04681578124813581421753075E
:100EF00044F4A081B1819D012F5F3F4F3183208356
:100F00008C93268137812F5F3F4F3783268310C014
:100F1000EB01092F182F0084F185E02D0995892B0D
:100F2000E1F68E819F8101969F838E83812F902F82
:100F3000DF91CF911F910F910895FA01AA272830D0
:100F400051F1203181F1E8946F936E7F6E5F7F4F96
:100F50008F4F9F4FAF4FB1E03ED0B4E03CD0670F12
:100F6000781F891F9A1FA11D680F791F8A1F911D65
:100F7000A11D6A0F711D811D911DA11D20D009F4B5
:100F800068943F912AE0269F11243019305D3193F7
:100F9000DEF6CF010895462F4770405D4193B3E0E0
:100FA0000FD0C9F7F6CF462F4F70405D4A3318F087
:100FB000495D31FD4052419302D0A9F7EACFB4E038
:100FC000A6959795879577956795BA95C9F70097F0
:100FD0006105710508959B01AC010A2E0694579591
:100FE000479537952795BA95C9F7620F731F841FE8
:100FF000951FA01D08952F923F924F925F926F927E
:101000007F928F929F92AF92BF92CF92DF92EF9298
:10101000FF920F931F93CF93DF93CDB7DEB7CA1B19
:10102000DB0B0FB6F894DEBF0FBECDBF09942A8844
:10103000398848885F846E847D848C849B84AA84EC
:10104000B984C884DF80EE80FD800C811B81AA8179
:10105000B981CE0FD11D0FB6F894DEBF0FBECDBF44
:08106000ED010895F894FFCFA3
:1010680073746172740074696D65006872203A2047
:101078002564000962706D203A2025640074687246
:0A1088006573686F6C642025640036
:00000001FF
