:100000000C9478000C94A6000C9495000C94950028
:100010000C9495000C9495000C9495000C9495000C
:100020000C9495000C9495000C9495000C949500FC
:100030000C9495000C9495000C9495000C949500EC
:100040000C9495000C9495000C9495000C949500DC
:100050000C9495000C9495000C9495000C949500CC
:100060000C9495000C949500084AD73B3BCE016E4A
:1000700084BCBFFDC12F3D6C74319ABD56833DDAFF
:100080003D00C77F11BED9E4BB4C3E916BAAAABE0E
:10009000000000803F05A84CCDB2D44EB93836A937
:1000A000020C50B9918688083CA6AAAA2ABE000074
:1000B00000803F004E414E494E495459494E46CD6D
:1000C000CCCC3D0AD7233C17B7D13877CC2B32950F
:1000D00095E6241FB14F0A000020410000C84200ED
:1000E000401C4620BCBE4CCA1B0E5AAEC59D7400B7
:1000F00011241FBECFEFD8E0DEBFCDBF11E0A0E0DE
:10010000B1E0E0ECF5E202C005900D92AA36B1072D
:10011000D9F722E0AAE6B1E001C01D92A73CB207E0
:10012000E1F70E94E2080C94DE120C940000529851
:100130005A9AE9E6F0E0808183608083E89A7894B7
:10014000EBE6F0E080818068808308951F920F9233
:100150000FB60F9211242F933F934F935F936F939A
:100160007F938F939F93AF93BF93EF93FF93609190
:10017000F80189EF91E00E943C0880933702FF91DB
:10018000EF91BF91AF919F918F917F916F915F910F
:100190004F913F912F910F900FBE0F901F90189588
:1001A0009093C5008093C400E1ECF0E0808188600A
:1001B000808380818061808386E08093C20008957F
:1001C0009091C00095FFFCCF8093C6000895809168
:1001D000C00087FFFCCF8091C60008951F93CF9386
:1001E000DF93EC0110E0812F992787FD9095FE01A8
:1001F00001900020E9F73197EC1BFD0BE817F90798
:1002000040F0FE01E80FF91F80810E94E0001F5FAF
:10021000EACF8DE00E94E0008AE0DF91CF911F914C
:100220000C94E0003F924F925F926F927F928F9278
:100230009F92AF92BF92CF92DF92EF92FF920F9375
:100240001F93CF93DF93EC012A013B01B22ECB0128
:10025000BA010E94B20B6B017C018B014AE050E0B5
:10026000BE01C6010E94250E20E030E0A901C301B5
:10027000B2010E94430B87FF08C077FA709477F8A9
:100280007094002711270C191D09FE010190002010
:10029000E9F73197EC1BFD0B332433943E0E8E2E81
:1002A000992487FC9094FE01E80DF91D8EE280836D
:1002B000E12CF12C8B0C911CB7FC9A94C32CCE0C26
:1002C000DD24C7FCD094BFEFEB1AFB0A8C149D040D
:1002D00044F1B801882777FD8095982F0E94E50B9F
:1002E0009B01AC01C301B2010E947C0A20E030E016
:1002F00040E251E40E94FA0C2B013C010E94B20B37
:10030000DC01CB018C014AE050E0A12CB12CB501FD
:100310000E94250EFE01EC0DFD1DD5018C91808300
:10032000CDCFDF91CF911F910F91FF90EF90DF9094
:10033000CF90BF90AF909F908F907F906F905F9085
:100340004F903F900895813029F039EE380F3630C4
:1003500038F015C0613011F43E9A08953E98089522
:1003600027B181E090E001C0880F3A95EAF761304B
:1003700011F4822B02C08095822387B908959EEFE5
:10038000980F953030F095EF980F9330E0F4865049
:1003900001C0892F4AB121E030E0613049F4B90150
:1003A00002C0660F771F8A95E2F7CB01842B09C044
:1003B000B90102C0660F771F8A95E2F7CB018095DD
:1003C00084238AB9089597EF980F923020F08E50C9
:1003D000863010F00895835044B121E030E0613060
:1003E00049F4B90102C0660F771F8A95E2F7CB0185
:1003F000842B09C0B90102C0660F771F8A95E2F706
:10040000CB018095842384B90895CF93DF93C82FBF
:10041000D62F61E00E94A301C13029F039EE3C0FD4
:10042000363038F015C0D13011F4469A42C04698A3
:1004300040C028B181E090E001C0880F3A95EAF70A
:10044000D13011F4822B02C08095822388B931C04B
:100450008EEF8C0F853030F085EF8C0F833090F469
:10046000C65001C0C82F2BB181E090E001C0880FB9
:10047000CA95EAF7D13011F4822B02C0809582230D
:100480008BB917C087EF8C0F823020F0CE50C6306A
:1004900010F00FC0C35025B181E090E001C0880F7B
:1004A000CA95EAF7D13011F4822B02C080958223DD
:1004B00085B9DF91CF910895CF93C82F60E00E9456
:1004C000A301C13061F029EE2C0F263068F486B10B
:1004D00090E002C0959587952A95E2F723C086B1F2
:1004E00086FB882780F91FC08EEF8C0F853030F097
:1004F00085EF8C0F833028F4C65001C0C82F89B116
:100500000BC087EF8C0F823028F0CE50C63018F029
:1005100082E009C0C35083B190E002C095958795F1
:10052000CA95E2F78170CF9108958F929F92AF9212
:10053000BF92CF92DF92EF92FF920F931F93CF93D0
:10054000DF93CDB7DEB7AC970FB6F894DEBF0FBE22
:10055000CDBF8C0161E171E00E94F00DE0E00097F9
:10056000A9F0FF24F394FE0EEE0FFF0B21E030E024
:100570002C0F3D1FE20FF31F9183808361E171E037
:1005800080E090E00E94F00DEF2DE9CF8B859C85F7
:100590000E94D20DF801E458FF4F8083882309F4AC
:1005A000DFC01AA61BA61CA6E981FA8180818AA752
:1005B00081818BA71FA218A619A682818FA3838190
:1005C00088A71CA21DA21EA284818CA385818DA355
:1005D000CE018A960E94D20DF801E758FF4F808322
:1005E000893010F48F5E01C087508083CE018796DA
:1005F0000E94D20DF801E658FF4F8083CE01849609
:100600000E94D20DF801E558FF4F808319A21AA26B
:100610001BA2EB80FC80F701808189A381818AA3E2
:10062000CE0181960E94D20DD82EC70102960E945B
:10063000CE0D4B015C016D2D772767FD7095872FDF
:10064000972F0E94E50B6B017C0120E030E040E732
:1006500052E4C501B4010E944A0B9B01AC01C701E1
:10066000B6010E947D0A6B017C015801F0E8AF0ED3
:10067000B11CF501608371838283938363E171E030
:100680008D819E810E94F50D892B49F4F7FAF09433
:10069000F7F8F094F501C082D182E282F3821D8ED8
:1006A0001E8E1F8E18A2EF80F884F70180818D8F37
:1006B00081818E8F82818F8FCE014D960E94D20DC7
:1006C000D82EC70103960E94CE0D4B015C016D2D03
:1006D000772767FD7095872F972F0E94E50B6B0199
:1006E0007C0120E030E040E752E4C501B4010E9403
:1006F0004A0B9B01AC01C701B6010E947D0A6B0148
:100700007C015801F4E8AF0EB11CF50160837183E0
:100710008283938365E171E089859A850E94F50D56
:10072000892B49F4F7FAF094F7F8F094F501C082B8
:10073000D182E282F38289899A890E94CE0DF801E2
:10074000E857FF4F60837183828393838D859E85F5
:100750000E94D20DF801E358FF4F808380E001C072
:1007600081E0AC960FB6F894DEBF0FBECDBFDF912F
:10077000CF911F910F91FF90EF90DF90CF90BF909E
:10078000AF909F908F9008958F929F92AF92BF925B
:10079000CF92DF92EF92FF920F931F93CF93DF934D
:1007A0008C01EC01C858DF4F82589F4F7C0186E0D6
:1007B000D82E95E0C92E24E0B22E33E0A32E42E0DD
:1007C000942E882483940E94E7009881911104C09C
:1007D0008432C9F78882F7CF913031F4873411F42D
:1007E0009882F1CF1882EFCF923021F48035D1F783
:1007F000A882E9CF933021F48734A1F7B882E3CF00
:10080000943021F4873471F7C882DDCF953021F41C
:10081000813441F7D882D7CF9630A9F68D3061F078
:10082000F701908121E0290F2083F801E90FF11DE4
:1008300097FDFA958083C7CFC8010E949502188260
:10084000F7011082DF91CF911F910F91FF90EF90F0
:10085000DF90CF90BF90AF909F908F900895EF92D0
:10086000FF920F931F93CF93DF93CDB7DEB7E2973D
:100870000FB6F894DEBF0FBECDBF7C01FC01EC5774
:10088000FF4F408151816281738126E08E010F5FAD
:100890001F4FC8010E94120187E191E00E94EE0003
:1008A000C8010E94EE00F701E058FF4F40815181DE
:1008B0006281738126E0C8010E94120183E291E007
:1008C0000E94EE00C8010E94EE00F701E857FF4FBA
:1008D000408151816281738121E0C8010E9412012F
:1008E0008EE291E00E94EE00C8010E94EE00F70146
:1008F000E558FF4F80811F928F93319780811F921F
:100900008F93319780811F928F9389E391E09F931A
:100910008F931F930F930E945D0EC8010E94EE00FB
:10092000F701E358FF4F80811F928F9381E591E09B
:100930009F938F931F930F930E945D0EC8010E9497
:10094000EE000FB6F894DEBF0FBECDBFE2960FB635
:10095000F894DEBF0FBECDBFDF91CF911F910F91F5
:10096000FF90EF9008952F923F924F925F926F9277
:100970007F928F929F92AF92BF92CF92DF92EF922F
:10098000FF920F931F93CF93DF93CDB7DEB72C97D2
:100990000FB6F894DEBF0FBECDBF1C016A017B010C
:1009A0000D831E832F833887FC01E058FF4F2BED0A
:1009B0003FE049E450E460817181828193810E942B
:1009C000FA0C20E030E044E353E40E944A0B2B0190
:1009D0003C012BED3FE049E450E4C701B6010E9421
:1009E000FA0C20E030E044E353E40E944A0B4B0150
:1009F0005C019B01AC01C301B2010E947C0A20E0B2
:100A000030E040E05FE30E94FA0C0E945D0D6B0154
:100A10007C01C301B2010E94470B2B013C01C501BF
:100A2000B4010E94470B69837A838B839C83F10115
:100A3000EC57FF4F2BED3FE049E450E460817181BA
:100A4000828193810E94FA0C20E030E044E353E479
:100A50000E944A0B4B015C012BED3FE049E450E45E
:100A60006D817E818F8198850E94FA0C20E030E0B4
:100A700044E353E40E944A0B9B01AC01C501B4015D
:100A80000E947C0A20E030E040E05FE30E94FA0C24
:100A90000E945D0D4B015C01A7019601C701B601E3
:100AA0000E94FA0C6B017C0129813A814B815C81A7
:100AB000C301B2010E94FA0CA50194010E94FA0C34
:100AC000A50194010E94FA0C9B01AC01C701B6017B
:100AD0000E947D0A6B017C019B01AC0160E070E02B
:100AE00080E89FE30E947C0A0E94670D9B01AC0195
:100AF000C701B60129873A874B875C870E94670D3B
:100B000029853A854B855C850E94F00A9B01AC01E2
:100B10000E947D0A20E73DE642EC5AE40E94FA0C6E
:100B200020E030E04AE754E40E944A0B2C960FB6CE
:100B3000F894DEBF0FBECDBFDF91CF911F910F9113
:100B4000FF90EF90DF90CF90BF90AF909F908F90ED
:100B50007F906F905F904F903F902F90089561E04D
:100B60000E94A301F89480E00E94C60881E00E94E0
:100B7000CB0880E00E94D4087894089561E00C943A
:100B800005020F931F93CF93DF9300D01F92CDB731
:100B9000DEB7082F162FF89460E0842F4B830E9455
:100BA0000502006809831A8362E070E0CE010196B5
:100BB0000E94AB0861E04B81842F0E94050278946B
:100BC0000F900F900F90DF91CF911F910F9108958B
:100BD000CF93DF93D82FC62FF89460E08C2F0E941C
:100BE00005028D2F8F770E94890880E00E94890876
:100BF000D82F61E08C2F0E94050278948D2FDF9111
:100C0000CF910895EF92FF921F93CF93DF9300D07F
:100C1000CDB7DEB7182F7B01F89460E0822F2A83CE
:100C200049830E940502812F80680E9489084981BA
:100C3000642F772767FD7095C7010E94900861E0D7
:100C40002A81822F0E94050278940F900F90DF91E5
:100C5000CF911F91FF90EF900895CF92DF92FF9276
:100C60000F931F93CF93DF931F92CDB7DEB7D82E8C
:100C7000F62E142F022FF89460E0822F79830E94C1
:100C800005028D2D80680E948908CF2C7981D72E8E
:100C90001F0D1C1539F080E00E948908F601819330
:100CA0006F01F7CF61E0802F0E94050278940F90CA
:100CB000DF91CF911F910F91FF90DF90CF9008951A
:100CC0001F93CF93DF93EC01162F462F68818FE29D
:100CD0000E94C105412F698180E3DF91CF911F916F
:100CE0000C94C105CF93DF93D82FC62F462F692FC1
:100CF0008CE20E94C1054C2F6D2F8DE2DF91CF91C8
:100D00000C94C105CF92DF92EF92FF92CF93C42F44
:100D100020E034E244E759E40E94FA0C20E034E297
:100D200044E752E40E944A0B0E94B70B6B017C011E
:100D3000B701882799274C2F87E00E94C105992782
:100D40008F2D7E2D6D2D4C2F88E00E94C1054C2FDC
:100D50006C2D89E0CF91FF90EF90DF90CF900C94B5
:100D6000C1051F93CF93DF9300D0CDB7DEB7182F07
:100D700061E08BE00E94A30161E089E10E9405022D
:100D800086E69EE00197F1F7000060E08BE00E94AC
:100D9000050286E69EE00197F1F700007894412F66
:100DA0006FE88CE30E94C105412F60E38FE60E944B
:100DB000C105412F65E58AE50E94C105412F60E725
:100DC0008CE50E94C1058DE289838DE48A83612FC1
:100DD000CE0101960E946006612F84E090E00E949F
:100DE0007206412F60E070E089ED93E40E94820674
:100DF0000F900F90DF91CF911F9108951F93CF9384
:100E0000DF931F92CDB7DEB7182F462F81E04983BD
:100E10000E94E805682F637E1C71612B498181E087
:100E20000F90DF91CF911F910C94C1051F93CF9329
:100E3000DF931F92CDB7DEB7462F182F80320CF00C
:100E40001FE1642F81E149830E94E805807E912F94
:100E5000498117FD9F5F692F6595682B81E10F9090
:100E6000DF91CF911F910C94C105CF93DF93D82FC1
:100E7000C62F882311F06FE001C06AE14C2F83E197
:100E80000E94C1056C2F81E1DD2331F00E94E8054D
:100E9000682F6F71606604C00E94E805682F6F714B
:100EA0004C2F81E1DF91CF910C94C1050F931F93DB
:100EB000CF93DF93EC01062F142F8881861709F456
:100EC00044C0611112C0188265E58AE50E94C1051F
:100ED000412F60E78CE50E94C105612F84E0DF911E
:100EE000CF911F910F910C94FE066130A9F465E536
:100EF0008AE50E94C105412F60E78CE50E94C1058B
:100F0000612F80E10E94FE06412F60E485E20E948D
:100F1000C105612F80E016C06230B9F46DE58AE545
:100F20000E94C105412F6CE78CE50E94C105612F2D
:100F30008CE00E94FE06412F60E085E20E94C10520
:100F4000612F81E00E9435070883DF91CF911F91C7
:100F50000F910895CF92DF92EF92FF920F931F931C
:100F6000CF93DF938C01CB01D42EF89460E00E94E4
:100F7000560760E08D2D0E94050280E00E948908DE
:100F800080E00E948908C82E882381F0E801E82EBD
:100F9000FF24E7FCF0949E01201B310B2E153F052A
:100FA0002CF480E00E9489088993F5CF61E08D2DB3
:100FB0000E94050278948C2DDF91CF911F910F91A3
:100FC000FF90EF90DF90CF900895AF92BF92CF92B5
:100FD000DF92EF92FF920F931F93CF93DF9300D096
:100FE000CDB7DEB7B82EA92E7B01C42ED22E8CE34E
:100FF0008417ACF1F894422F60E0C7010E945607B5
:101000006D2D87E20E94E80587FFFACF60E08D2D05
:101010000E94050280E88983CA8262E070E0CE0106
:1010200001960E94AB080B2D1A2DCB0CC01631F087
:10103000F80181918F010E948908F8CF61E08D2D20
:101040000E94050278944D2D62E0C7010E94560768
:101050006D2D81E00E94E8058C718430C9F70F90F6
:101060000F90DF91CF911F910F91FF90EF90DF9044
:10107000CF90BF90AF900895EF92FF921F93CF93C0
:10108000DF931F92CDB7DEB77C01462FFC011081A4
:10109000113061F488E249830E94E805498182FFAA
:1010A00005C08FE591E00E94EE000BC0F701808142
:1010B000823031F460E0C7010E94560711E001C0A0
:1010C00010E0812F0F90DF91CF911F91FF90EF9053
:1010D0000895CF93C82F482F61E083E20E94C10595
:1010E0006C2F83E20E94E80581FFFACF6C2F84E227
:1010F0000E94E805992781950CF490959595879520
:10110000CF910895F8948CE284B981E58CBD7894F0
:1011100008958EBD00000DB407FEFDCF8EB5089575
:10112000FC0161157105B1F080818EBD61507109BE
:101130006115710551F081810DB407FEFDCF9EB59B
:101140008EBD8081890F8083F1CF0DB407FEFDCF66
:101150008EB5808308956115710589F0FC012081A9
:101160002EBD615071096115710531F0FC012181BD
:101170000DB407FEFDCFF4CF0DB407FEFDCF0895EB
:1011800060E00C94050261E00C9405029CB5937F2D
:10119000982B9CBD0895811103C08CB5806202C05C
:1011A0008CB58F7D8CBD08952CB5982F93702C7FB6
:1011B000922B9CBD9DB582FB882780F99E7F892B51
:1011C0008DBD0895CF93DF93CDB7DEB7C65AD10951
:1011D0000FB6F894DEBF0FBECDBF0E9497008FE21E
:1011E00090E00E94D0000E94820888E18093F8017C
:1011F0001092F90110923602109238020E94AF0547
:101200008091F8010E94B1064091F80161E089EFF8
:1012100091E00E9456078E010B591F4F409A40984B
:1012200080913702882309F461C1109237024091FE
:10123000F80169EF71E08AEF91E00E94AA078093BC
:1012400036024091F80161E089EF91E00E94560773
:101250008AEF91E00E94EE00AAEFB1E0F8019F0151
:10126000201B310B8D918A3011F08193F8CFFE0154
:10127000F39681E090E028503E4F0196D901A80FE7
:10128000B91F11964C914A3011F04193F6CFC80125
:101290000E94CE0D6093B9027093BA028093BB0294
:1012A0009093BC02CE01C3960E94CE0D6093BD0206
:1012B0007093BE028093BF029093C0022BED3FE07B
:1012C00049E450E46091EC017091ED018091EE01F0
:1012D0009091EF010E94FA0C20E030E044E353E4E7
:1012E0000E944A0B2B013C01C8010E94CE0D2BED40
:1012F0003FE049E450E40E94FA0C20E030E044E38F
:1013000053E40E944A0B4B015C012BED3FE049E4A2
:1013100050E46091F0017091F1018091F20190919F
:10132000F3010E94FA0C20E030E044E353E40E9411
:101330004A0BC156DF4F688379838A839B83CF59D9
:10134000D040CE01C3960E94CE0DC956DF4F6883B0
:1013500079838A839B83C759D040A5019401C30137
:10136000B2010E947C0A20E030E040E05FE30E948E
:10137000FA0C0E945D0D6B017C01C301B2010E9459
:10138000470B2B013C01C501B4010E94470BC55618
:10139000DF4F688379838A839B83CB59D0402BEDC1
:1013A0003FE049E450E4C956DF4F688179818A8182
:1013B0009B81C759D0400E94FA0C20E030E044E302
:1013C00053E40E944A0B9B01AC01C156DF4F688178
:1013D00079818A819B81CF59D0400E947C0A20E08C
:1013E00030E040E05FE30E94FA0C0E945D0D4B018B
:1013F0005C01A7019601C701B6010E94FA0C6B01BE
:101400007C01C556DF4F288139814A815B81CB59E8
:10141000D040C301B2010E94FA0CA50194010E94C0
:10142000FA0CA50194010E94FA0C9B01AC01C701C2
:10143000B6010E947D0A6B017C019B01AC0160E05A
:1014400070E080E89FE30E947C0A0E94670D9B0188
:10145000AC01C701B601CD55DF4F2883C35AD04038
:10146000CC55DF4F3883C45AD040CB55DF4F48832B
:10147000C55AD040CA55DF4F5883C65AD0400E9443
:10148000670DCD55DF4F2881C35AD040CC55DF4F73
:101490003881C45AD040CB55DF4F4881C55AD0401F
:1014A000CA55DF4F5881C65AD0400E94F00A9B01AE
:1014B000AC010E947D0A20E73DE642EC5AE40E941E
:1014C000FA0C20E030E04AE754E40E944A0BAB01FA
:1014D000BC0126E0CE0101960E94120180E091E05D
:1014E0000E94EE00CE0101960E94EE0086E69EE08C
:1014F0000197F1F7000092CE5058BB27AA270ED0D3
:1015000027C2F0D130F0F5D120F031F49F3F11F433
:101510001EF4C0C10EF4E095E7FBB6C1E92F3AD244
:1015200080F3BA17620773078407950718F071F400
:101530009EF552C20EF4E0950B2EBA2FA02D0B0192
:10154000B90190010C01CA01A0011124FF27591B08
:1015500099F0593F50F4503E68F11A16F040A22F0E
:10156000232F342F4427585FF3CF4695379527957F
:10157000A795F0405395C9F77EF41F16BA0B620B7E
:10158000730B840BBAF09150A1F0FF0FBB1F661FC5
:10159000771F881FC2F70EC0BA0F621F731F841F08
:1015A00048F4879577956795B795F7959E3F08F02E
:1015B000B3CF9395880F08F09927EE0F97958795ED
:1015C000089590D158F080E891E009F49EEF91D110
:1015D00028F040E851E059F45EEF09C05BC1FCC15E
:1015E000E92FE078D7D168F3092E052AC1F3261731
:1015F00037074807590738F00E2E07F8E02569F03D
:10160000E025E0640AC0EF6307F8009407FADB0105
:10161000B9019D01DC01CA01AD01EF934AD098D117
:101620000AD05F91552331F02BED3FE049E450FDA6
:1016300049EC63CF0895DF93DD27B92FBF7740E8EA
:101640005FE31616170648075B0710F4D92FCBD1B6
:101650009F938F937F936F9378D2E8E6F0E01DD14C
:1016600077D12F913F914F915F91D0D1DD2349F0F8
:101670009058A2EA2AED3FE049EC5FE3D0785D277D
:101680004DDFDF9165C1DCD008F481E0089539D1E8
:10169000E3956FC10CD05CC12CD140F023D130F068
:1016A00021F45F3F19F0F0C0511197C1F3C072D11E
:1016B00098F39923C9F35523B1F3951B550BBB2719
:1016C000AA2762177307840738F09F5F5F4F220FC6
:1016D000331F441FAA1FA9F333D00E2E3AF0E0E8BF
:1016E00030D091505040E695001CCAF729D0FE2F0B
:1016F00027D0660F771F881FBB1F2617370748079D
:10170000AB07B0E809F0BB0B802DBF01FF27935852
:101710005F4F2AF09E3F510568F0B6C05EC15F3F43
:10172000ECF3983EDCF3869577956795B795F7953A
:101730009F5FC9F7880F911D9695879597F9089532
:10174000E1E0660F771F881FBB1F621773078407CE
:10175000BA0720F0621B730B840BBA0BEE1F88F7DD
:10176000E095089504D06894B11137C108951AD155
:1017700088F09F5790F0B92F9927B751A0F0D1F07A
:10178000660F771F881F991F1AF0BA95C9F712C004
:10179000B13081F021D1B1E008951EC1672F782FBB
:1017A0008827B85F39F0B93FCCF386957795679570
:1017B000B395D9F73EF490958095709561957F4FDC
:1017C0008F4F9F4F0895E89409C097FB3EF4909582
:1017D0008095709561957F4F8F4F9F4F9923A9F00A
:1017E000F92F96E9BB279395F69587957795679599
:1017F000B795F111F8CFFAF4BB0F11F460FF1BC0DD
:101800006F5F7F4F8F4F9F4F16C0882311F096E96F
:1018100011C0772321F09EE8872F762F05C066231D
:1018200071F096E8862F70E060E02AF09A95660FD6
:10183000771F881FDAF7880F9695879597F908958F
:10184000990F0008550FAA0BE0E8FEEF16161706D1
:10185000E807F907C0F012161306E407F50798F039
:10186000621B730B840B950B39F40A2661F0232B52
:10187000242B252B21F408950A2609F4A140A695CE
:101880008FEF811D811D089597F99F6780E870E0B3
:1018900060E008959FEF80EC0895DF93CF931F934E
:1018A0000F93FF92EF92DF927B018C01689405C049
:1018B000DA2EEF01ABD0FE01E894A5912591359188
:1018C00045915591AEF3EF0129DEFE019701A80184
:1018D000DA9479F7DF90EF90FF900F911F91CF91FD
:1018E000DF91089500240A941616170618060906B3
:1018F000089500240A941216130614060506089586
:10190000C9CF50D0E8F3E894E0E0BB279F57F0F050
:101910002AED3FE049EC06C0EE0FBB0F661F771FB4
:10192000881F28F0B23A62077307840728F0B25A7A
:10193000620B730B840BE3959A9572F7803830F441
:101940009A95BB0F661F771F881FD2F7904802C178
:10195000092E0394000C11F4882352F0BB0F40F4BD
:10196000BF2B11F460FF04C06F5F7F4F8F4F9F4FFD
:101970000895EF93E0FF06C0A2EA2AED3FE049ECAC
:101980005FEBCCDDE5DF0F90039401FC9058E5E9B7
:10199000F0E0F3C057FD9058440F551F59F05F3FDA
:1019A00071F04795880F97FB991F61F09F3F79F081
:1019B00087950895121613061406551FF2CF469503
:1019C000F1DF08C0161617061806991FF1CF869585
:1019D0007105610508940895E894BB276627772769
:1019E000CB0197F908959B01AC0160E070E080E8BD
:1019F0009FE350CE0BD0ACCF75DF28F07ADF18F024
:101A0000952309F041CF46CF1124E7CFC3DFA0F3E0
:101A1000959FD1F3950F50E0551F629FF001729F83
:101A2000BB27F00DB11D639FAA27F00DB11DAA1FA2
:101A3000649F6627B00DA11D661F829F2227B00DEF
:101A4000A11D621F739FB00DA11D621F839FA00D7A
:101A5000611D221F749F3327A00D611D231F849FCA
:101A6000600D211D822F762F6A2F11249F57504021
:101A70008AF0E1F088234AF0EE0FFF1FBB1F661FBC
:101A8000771F881F91505040A9F79E3F510570F075
:101A9000FBCEA3CF5F3FECF3983EDCF386957795C2
:101AA0006795B795F795E7959F5FC1F7FE2B880F70
:101AB000911D9695879597F908959F9322DF0F9032
:101AC00007FCEE5F56CF11F40EF4E4CE41C06ADF9E
:101AD000D0F39923D9F3CEF39F57550B87FF46D008
:101AE0000024A0E640EA900180585695979528F486
:101AF000805C660F771F881F20F02617370748077E
:101B000030F4621B730B840B202931294A2BA695D4
:101B100017940794202531254A2758F7660F771F19
:101B2000881F20F026173707480730F4620B730B25
:101B3000840B200D311D411DA09581F7B901842F23
:101B40009158880F9695879508959B01AC0152CFC7
:101B50009F3F31F0915020F4879577956795B79521
:101B6000880F911D9695879597F90895915050404B
:101B7000660F771F881FD2F708959F938F937F93E7
:101B80006F93FF93EF939B01AC0134DFEF91FF91D3
:101B900084DE2F913F914F915F912CCF662777275D
:101BA0000C945110FC0188279927E8942191203248
:101BB000E9F3293010F02E30C8F32B3241F02D32EA
:101BC00039F4689404C00E943B0E820F911D21914C
:101BD00020532A30C0F31EF4909581959F4F0895AD
:101BE0004AE651E00E94FE0D0895FB01DC018D9153
:101BF000019080190110D9F3990B0895FA01A19170
:101C0000B081009719F41097E1F0CD01DC01CD010E
:101C10000D90002011F4C00113C0FB01219122237B
:101C200019F02015D9F7F3CFFB012191201519F4F4
:101C30001E92119606C02223C1F70D900020A1F735
:101C4000D001FA01A193B08308954532510520F4E3
:101C5000423010F00C94300EFB011082CB0108953D
:101C6000BB274A3031F4992322F4BDE29095819547
:101C70009F4F0C94440E7AE0979F902D879F802D64
:101C8000910D11240895BB27FB015527AA27880F22
:101C9000991FAA1FA41710F0A41B83955051B9F7E0
:101CA000A05DAA3308F0A95DA193009779F7B1115F
:101CB000B1931192CB010C94EA11AEE0B0E0E3E6EF
:101CC000FEE00C94A6120D891E8986E08C831A838F
:101CD00009838FEF9FE79E838D83AE01475E5F4F41
:101CE0006F89788DCE0101960E947F0EEF81F88575
:101CF000E00FF11F10822E96E4E00C94C212ACE0CB
:101D0000B0E0E5E8FEE00C9498127C016B018A01DA
:101D1000FC0117821682838181FFBDC1CE0101962D
:101D20004C01F7019381F60193FD859193FF819119
:101D30006F01882309F4ABC1853239F493FD859195
:101D400093FF81916F01853229F4B70190E00E94E1
:101D5000FA11E7CF512C312C20E02032A0F48B3245
:101D600069F030F4803259F0833269F420612CC07C
:101D70008D3239F0803339F4216026C0226024602E
:101D800023C0286021C027FD27C030ED380F3A302E
:101D900078F426FF06C0FAE05F9E300D1124532E22
:101DA00013C08AE0389E300D1124332E20620CC0FF
:101DB0008E3221F426FD6BC1206406C08C3611F4EE
:101DC000206802C0883641F4F60193FD859193FFA7
:101DD00081916F018111C1CF982F9F7D95549330D0
:101DE00028F40C5F1F4FFFE3F9830DC0833631F0F9
:101DF000833771F0833509F05BC022C0F801808120
:101E000089830E5F1F4F44244394512C540115C005
:101E10003801F2E06F0E711CF801A080B18026FF3E
:101E200003C0652D70E002C06FEF7FEFC5012C8706
:101E30000E94DF112C0183012C852F77222E17C0E1
:101E40003801F2E06F0E711CF801A080B18026FF0E
:101E500003C0652D70E002C06FEF7FEFC5012C87D6
:101E60000E94D4112C012C852068222E830123FC92
:101E70001BC0832D90E048165906B0F4B70180E2EC
:101E800090E00E94FA113A94F4CFF50127FC859175
:101E900027FE81915F01B70190E00E94FA11311095
:101EA0003A94F1E04F1A51084114510471F7E5C01A
:101EB000843611F0893639F5F80127FF07C06081B3
:101EC0007181828193810C5F1F4F08C06081718195
:101ED000882777FD8095982F0E5F1F4F2F76B22EA3
:101EE00097FF09C090958095709561957F4F8F4FB2
:101EF0009F4F2068B22E2AE030E0A4010E942C12ED
:101F0000A82EA81844C0853729F42F7EB22E2AE0C7
:101F100030E025C0F22FF97FBF2E8F36C1F018F4C4
:101F2000883579F0B4C0803719F0883721F0AFC018
:101F30002F2F2061B22EB4FE0DC08B2D8460B82EE1
:101F400009C024FF0AC09F2F9660B92E06C028E062
:101F500030E005C020E130E002C020E132E0F801CD
:101F6000B7FE07C060817181828193810C5F1F4F32
:101F700006C06081718180E090E00E5F1F4FA40178
:101F80000E942C12A82EA818FB2DFF77BF2EB6FE9C
:101F90000BC02B2D2E7FA51450F4B4FE0AC0B2FC4A
:101FA00008C02B2D2E7E05C07A2C2B2D03C07A2C39
:101FB00001C0752C24FF0DC0FE01EA0DF11D8081CA
:101FC000803311F4297E09C022FF06C073947394F4
:101FD00004C0822F867809F0739423FD13C020FF7C
:101FE00006C05A2C731418F4530C5718732C73141E
:101FF00068F4B70180E290E02C870E94FA11739494
:102000002C85F5CF731410F4371801C0312C24FF40
:1020100012C0B70180E390E02C870E94FA112C8552
:1020200022FF17C021FF03C088E590E002C088E7C7
:1020300090E0B7010CC0822F867859F021FD02C0D4
:1020400080E201C08BE227FD8DE2B70190E00E94A3
:10205000FA11A51438F4B70180E390E00E94FA1158
:102060005A94F7CFAA94F401EA0DF11D8081B701CB
:1020700090E00E94FA11A110F5CF332009F451CE5F
:10208000B70180E290E00E94FA113A94F6CFF7018E
:102090008681978102C08FEF9FEF2C96E2E10C942E
:1020A000B412A0E0B0E0E7E5F0E10C949E128B01E1
:1020B0006115710521F0DB018C9311969C93EC0165
:1020C0005E01BFEFAB1ABB0A7501C8808C2D90E092
:1020D0000E94B411892B11F0E501F2CFEDE2CE128E
:1020E00008C07E01F2E0EF0EF11CC980DD24D3941C
:1020F00009C02BE2C21205C07E0142E0E40EF11CD1
:10210000C980D12CE701219743E050E06CEB70E0EF
:10211000CE010E94BC11892BC1F4239645E050E00A
:1021200067EB70E0CE010E94BC11892B09F4259663
:102130000115110519F0D801CD93DC93D11006C11A
:1021400060E070E080E89FE70AC143E050E064EBA4
:1021500070E0CE010E94BC11892B59F401151105C4
:1021600009F4F9C0B2E0EB0EF11CF801F182E08253
:10217000F2C0F70160E070E0CB01C0E0D0E07F0189
:10218000A0EDAA2EAC0C29E02A1530F14D2D4260AD
:10219000B42E2D2D2870D2FE04C0211125C0219609
:1021A00023C021112197A5E0B0E09B01AC010E9462
:1021B0008D12660F771F881F991F6A0D711D811D73
:1021C000911D6839A9E97A078A07A9E19A0760F0A1
:1021D000BD2DB660BB2E08C02EEFA2120AC0D3FCE4
:1021E00050C04D2D4860B42E3196D701CC90DB2CD9
:1021F000C6CF2C2D2F7D253409F043C0A081AD32F0
:1022000041F4BD2DB061DB2E7F0122E0E20EF11C16
:102210000CC07F01AB3231F04FEFE41AF40A21E039
:1022200030E006C0A2E0EA0EF11CA18122E030E01D
:10223000A053AA3018F0E21AF30A23C0F70120E0F5
:1022400030E02038BCE03B075CF4A901440F551F87
:10225000440F551F240F351F220F331F2A0F311D26
:10226000AF014F5F5F4F7A01A081A053AA3010F4F5
:10227000FA01E7CFD4FE03C0319521953109C20F91
:10228000D31FD1FE09C00115110531F0E1E0EE1AAE
:10229000F108D801ED92FC920E94E30B2D2D2370E2
:1022A000233019F04B015C0106C04B015C01B7FA09
:1022B000B094B7F8B09420E030E0A901C501B401B2
:1022C0000E94430B882309F43EC0D7FF06C0D19576
:1022D000C195D10903ED10E002C00BEE10E06801DA
:1022E000B8E1CB1AD10890E2E92EF12CCE15DF052A
:1022F00074F0F8012591359145915491C501B401CF
:102300000E94FA0C4B015C01CE19DF09EFCF04509B
:102310001109F594E7940C151D0541F78A2D880FD6
:102320008B2D881F8F3F49F020E030E0A901C501C7
:10233000B4010E94430B811106C082E290E09093A9
:10234000C6028093C502C501B40109C060E070E017
:1023500080E89FEF04C060E070E080EC9FE7CDB7BD
:10236000DEB7ECE00C94BA129111D4C0803219F0AF
:1023700089508550D0F70895FB01DC014150504051
:1023800088F08D9181341CF08B350CF4805E659162
:1023900061341CF06B350CF4605E861B611171F3C7
:1023A000990B0895881BFCCFFC010590615070408B
:1023B0000110D8F7809590958E0F9F1F0895FC010E
:1023C0006150704001900110D8F7809590958E0F64
:1023D0009F1F0895DC01FC01672F71917723E1F7BE
:1023E000329704C07C916D9370836291AE17BF07E2
:1023F000C8F308950F931F93CF93DF93182F092FDE
:10240000EB018B8181FD03C08FEF9FEF20C082FF26
:1024100010C04E815F812C813D81421753077CF4AF
:10242000E881F9819F012F5F3F4F39832883108313
:1024300006C0E885F985812F0995892B29F72E811A
:102440003F812F5F3F4F3F832E83812F902FDF915E
:10245000CF911F910F910895FA01AA27283051F1C9
:10246000203181F1E8946F936E7F6E5F7F4F8F4FC5
:102470009F4FAF4FB1E03ED0B4E03CD0670F781F24
:10248000891F9A1FA11D680F791F8A1F911DA11D09
:102490006A0F711D811D911DA11D20D009F4689442
:1024A0003F912AE0269F11243019305D3193DEF6EA
:1024B000CF010895462F4770405D4193B3E00FD0A0
:1024C000C9F7F6CF462F4F70405D4A3318F0495D8B
:1024D00031FD4052419302D0A9F7EACFB4E0A6956E
:1024E0009795879577956795BA95C9F70097610590
:1024F000710508959B01AC010A2E069457954795E6
:1025000037952795BA95C9F7620F731F841F951FDA
:10251000A01D08959927882708950E94CF12A59F8E
:10252000900DB49F900DA49F800D911D11240895CE
:102530002F923F924F925F926F927F928F929F92D3
:10254000AF92BF92CF92DF92EF92FF920F931F93C1
:10255000CF93DF93CDB7DEB7CA1BDB0B0FB6F89472
:10256000DEBF0FBECDBF09942A88398848885F84B2
:102570006E847D848C849B84AA84B984C884DF8023
:10258000EE80FD800C811B81AA81B981CE0FD11D07
:102590000FB6F894DEBF0FBECDBFED010895A29F28
:1025A000B001B39FC001A39F700D811D1124911D27
:1025B000B29F700D811D1124911D0895F894FFCFD5
:1025C00044697374616E636520696E206B6D3A2097
:1025D000002C00530057006C6F6E6769747564655A
:1025E0003A20006C617469747564653A2000416C2E
:1025F0007469747564653A2000686F75722025648B
:102600002C206D696E2025642C2073656320256461
:1026100000736174656C6C69746573202564006E69
:0A26200065772064617461200000FA
:00000001FF
