:100000000C9452000C946F000C946F000C946F00D1
:100010000C946F000C946F000C946F000C946F00A4
:100020000C946F000C946F000C946F000C946F0094
:100030000C946F000C946F000C946F000C946F0084
:100040000C946F000C946F000C946F000C946F0074
:100050000C946F000C946F000C946F000C946F0064
:100060000C946F000C946F004E414E494E49545908
:10007000494E46CDCCCC3D0AD7233C17B7D1387773
:10008000CC2B329595E6241FB14F0A000020410089
:1000900000C84200401C4620BCBE4CCA1B0E5AAED3
:1000A000C59D740011241FBECFEFD8E0DEBFCDBFC9
:1000B00013E0A0E0B1E0E2E2FEE102C005900D92A3
:1000C000A434B107D9F727E0A4E4B3E001C01D923E
:1000D000A43DB207E1F70E9416070C940F0F0C9491
:1000E000000060E089E10E949D0361E089E10E94D7
:1000F0009D030E948D0082ED93E00C945602CF93F5
:10010000C82F88E70E94F00280E00E9412038C2F23
:100110000E941203CF910C9423030E94EC028EEAFA
:100120000E947F0085ED0E947F0080E80E947F0092
:1001300088EA0E947F008FE30E947F0083ED0E9487
:100140007F0080E00E947F0080E40E947F008DE8B5
:100150000E947F0084E10E947F0080E20E947F0075
:1001600080E00E947F0081EA0E947F0088EC0E946C
:100170007F008AED0E947F0082E10E947F0081E87B
:100180000E947F008FEC0E947F0089ED0E947F001B
:1001900081EF0E947F008BED0E947F0080E40E942F
:1001A0007F0084EA0E947F0086EA0E947F008FEA37
:1001B0000C947F006034ACF5E82FFF27E7FDF09545
:1001C000562F57704423B1F067FD695F65956595BB
:1001D000659540E86403E00DF11D1124E20FF31F63
:1001E00081E090E0052E01C0880F0A94EAF7908123
:1001F000982B16C067FD695F65956595659540E824
:100200006403E00DF11D1124E20FF31F81E090E083
:10021000052E01C0880F0A94EAF7809590819823F3
:1002200090830895DF92EF92FF920F931F93CF93E5
:10023000DF93E82ED62E8901F12CC42FDD27C7FDD0
:10024000D0952F2D30E02C173D074CF4980141E05C
:100250006D2D8F2D8E0D0E94DA00F394F2CFDF9179
:10026000CF911F910F91FF90EF90DF900895DF9253
:10027000EF92FF920F931F93CF93DF93E82ED62E2A
:100280008901F12CC42FDD27C7FDD0952F2D30E03B
:100290002C173D074CF46F2D6D0D980141E08E2D0C
:1002A0000E94DA00F394F2CFDF91CF911F910F916A
:1002B000FF90EF90DF900895CF92DF92EF92FF9240
:1002C0000F931F93CF93DF93D82FC62FD42EC22E18
:1002D000F42EF81AF394E22EE61A98014F2D0E949C
:1002E000120198014F2D6C2D8D2F0E941201980143
:1002F0004E2D6C2F8D2F0E94370198014E2D6C2FA3
:100300008D2DDF91CF911F910F91FF90EF90DF9096
:10031000CF900C943701AF92BF92CF92DF92EF92C1
:10032000FF920F931F93CF93DF93C82EB62EC42F47
:10033000D22EC81BCF5FD61AD0E0DC1784F410E0B1
:10034000AD2EAC0C1D154CF4612F6B0D9701402F99
:100350008A2D0E94DA001F5FF5CFDF5FEECFDF91BD
:10036000CF911F910F91FF90EF90DF90CF90BF90B2
:10037000AF9008957F928F929F92AF92BF92CF924B
:10038000DF92EF92FF920F931F93CF93DF93D82EBC
:10039000C62ED42FC22FE12CF12CDF150CF450C047
:1003A00098014C2FAF2CAC0C6A2DBD2EBD0C8B2DA3
:1003B0000E94DA0098014C2F8D2E8C0C682D9F2CFA
:1003C0009D0C892D0E94DA0098014C2F682D7D2C00
:1003D0007F18872D0E94DA0098014C2F6A2D8D2CF2
:1003E0008D1A882D0E94DA0098014C2FAC2CAF1882
:1003F0006A2D882D0E94DA0098014C2F8C2C8D1AC2
:10040000682D872D0E94DA0098014C2F682D892DC8
:100410000E94DA0098014C2F6A2D8B2D0E94DA0081
:100420001E1444F0F394E3948F2D880FE80E1E14ED
:100430000CF0B3CFD1508D2F880F8095E80EADCF43
:10044000DF91CF911F910F91FF90EF90DF90CF90B0
:10045000BF90AF909F908F907F900895CF92DF9242
:10046000EF92FF920F931F93CF93DF93E82ED62E38
:10047000F42EC22EE8011F144CF48E012C2D4F2DAA
:100480006D2D8E2D0E94BA01FA94F5CFDF91CF9198
:100490001F910F91FF90EF90DF90CF9008958823E8
:1004A00011F087EA01C086EA0C947F0020E034E076
:1004B000FC01A901119241505040E1F7089590E0EC
:1004C00050E86503800D911D1124280F391F85E028
:1004D000489FA001112440505F4F80E090E0FA0156
:1004E000E80FF91FE05AF1096081F90161939F015A
:1004F00001968530910599F70895CF92DF92FF928A
:100500000F931F93CF93DF931F92CDB7DEB7F62ED5
:100510008901F694F694F6946A01982FF6014191B8
:100520006F01442349F098016F2D892F99830E9410
:100530005F0299819B5FF2CF0F90DF91CF911F9166
:100540000F91FF90DF90CF900895CF92DF92FF92AE
:100550000F931F93CF93DF931F92CDB7DEB7182F62
:1005600081E299830E947F0080E00E947F008FE7F4
:100570000E947F0082E20E947F0080E00E947F0054
:1005800087E00E947F00C12E9981D92E80E4F82E49
:1005900088E70E94F00280E40E94120300E010E06D
:1005A000F601E00FF11F80810E9412030F5F1F4FC1
:1005B00000311105A9F70E942303FA9480E1C80EC7
:1005C000D11CF110E5CF0F90DF91CF911F910F91CA
:1005D000FF90DF90CF9008958CE18093B80008954C
:1005E0001092BC0094EA9093BC009091BC0097FFDD
:1005F000FCCF9091B900987F983011F081E0089578
:100600008093BB0084E88093BC008091BC0087FF8E
:10061000FCCF8091B900887F883111F0803471F768
:1006200080E008958093BB0084E88093BC008091B3
:10063000BC0087FFFCCF9091B900987F81E0983291
:1006400009F480E0089584E98093BC00089584EC67
:100650008093BC008091BC0087FFFCCF8091BB00E1
:10066000089584E88093BC008091BC0087FFFCCF94
:100670008091BB000895813029F039EE380F363073
:1006800038F015C0613011F43E9A08953E980895EF
:1006900027B181E090E001C0880F3A95EAF7613018
:1006A00011F4822B02C08095822387B908959EEFB2
:1006B000980F953030F095EF980F9330E0F4865016
:1006C00001C0892F4AB121E030E0613049F4B9011D
:1006D00002C0660F771F8A95E2F7CB01842B09C011
:1006E000B90102C0660F771F8A95E2F7CB018095AA
:1006F00084238AB9089597EF980F923020F08E5096
:10070000863010F00895835044B121E030E061302C
:1007100049F4B90102C0660F771F8A95E2F7CB0151
:10072000842B09C0B90102C0660F771F8A95E2F7D2
:10073000CB018095842384B90895CF93DF93C82F8C
:10074000D62F61E00E943B03C13029F039EE3C0F07
:10075000363038F015C0D13011F4469A42C0469870
:1007600040C028B181E090E001C0880F3A95EAF7D7
:10077000D13011F4822B02C08095822388B931C018
:100780008EEF8C0F853030F085EF8C0F833090F436
:10079000C65001C0C82F2BB181E090E001C0880F86
:1007A000CA95EAF7D13011F4822B02C080958223DA
:1007B0008BB917C087EF8C0F823020F0CE50C63037
:1007C00010F00FC0C35025B181E090E001C0880F48
:1007D000CA95EAF7D13011F4822B02C080958223AA
:1007E00085B9DF91CF910895CF93C82F60E00E9423
:1007F0003B03C13061F029EE2C0F263068F486B13E
:1008000090E002C0959587952A95E2F723C086B1BE
:1008100086FB882780F91FC08EEF8C0F853030F063
:1008200085EF8C0F833028F4C65001C0C82F89B1E2
:100830000BC087EF8C0F823028F0CE50C63018F0F6
:1008400082E009C0C35083B190E002C095958795BE
:10085000CA95E2F78170CF9108958F929F92AF92DF
:10086000BF92CF92DF92EF92FF920F931F93CF939D
:10087000DF93CDB7DEB7AC970FB6F894DEBF0FBEEF
:10088000CDBF8C016BE173E00E94210AE0E000978C
:10089000A9F0FF24F394FE0EEE0FFF0B21E030E0F1
:1008A0002C0F3D1FE20FF31F918380836BE173E0F8
:1008B00080E090E00E94210AEF2DE9CF8B859C8596
:1008C0000E94030AF801E458FF4F8083882309F44B
:1008D000DFC01AA61BA61CA6E981FA8180818AA71F
:1008E00081818BA71FA218A619A682818FA383815D
:1008F00088A71CA21DA21EA284818CA385818DA322
:10090000CE018A960E94030AF801E758FF4F8083C0
:10091000893010F48F5E01C087508083CE018796A6
:100920000E94030AF801E658FF4F8083CE018496A7
:100930000E94030AF801E558FF4F808319A21AA20A
:100940001BA2CB80DC80F601808189A381818AA3F0
:10095000CE0181960E94030AF82EC60102960E94DB
:10096000FF094B015C016F2D772767FD7095872F7D
:10097000972F0E94EC086B017C0120E030E040E7FB
:1009800052E4C501B4010E9451089B01AC01C701AA
:10099000B6010E94E9076B017C015801F0E8AF0E37
:1009A000B11CF50160837183828393836DE173E0F1
:1009B0008D819E810E94260A892B49F4F7FAF094D2
:1009C000F7F8F094F501C082D182E282F3821D8EA5
:1009D0001E8E1F8E18A2EF80F884F70180818D8F04
:1009E00081818E8F82818F8FCE014D960E94030A66
:1009F000D82EC70103960E94FF094B015C016D2DA3
:100A0000772767FD7095872F972F0E94EC086B0161
:100A10007C0120E030E040E752E4C501B4010E94CF
:100A200051089B01AC01C701B6010E94E9076B01A7
:100A30007C015801F4E8AF0EB11CF50160837183AD
:100A4000828393836FE173E089859A850E94260AE9
:100A5000892B49F4F7FAF094F7F8F094F501C08285
:100A6000D182E282F38289899A890E94FF09F80182
:100A7000E857FF4F60837183828393838D859E85C2
:100A80000E94030AF801E358FF4F808380E001C011
:100A900081E0AC960FB6F894DEBF0FBECDBFDF91FC
:100AA000CF911F910F91FF90EF90DF90CF90BF906B
:100AB000AF909F908F9008958F929F92AF92BF9228
:100AC000CF92DF92EF92FF920F931F93CF93DF931A
:100AD0008C01EC01C858DF4F82589F4F7C0186E0A3
:100AE000D82E95E0C92E24E0B22E33E0A32E42E0AA
:100AF000942E882483940E946306982F28812111C4
:100B000004C08432C1F78882F6CF213031F48734B3
:100B100011F49882F0CF1882EECF223021F4803584
:100B2000D1F7A882E8CF233021F48734A1F7B88227
:100B3000E2CF243021F4873471F7C882DCCF25302E
:100B400021F4813441F7D882D6CF2630A1F68D30FA
:100B500061F0F701808121E0280F2083F801E80F80
:100B6000F11D87FDFA959083C6CFC8010E942D0420
:100B70001882F7011082DF91CF911F910F91FF90A2
:100B8000EF90DF90CF90BF90AF909F908F9008959F
:100B9000EF92FF920F931F93CF93DF93CDB7DEB702
:100BA000E2970FB6F894DEBF0FBECDBF7C01FC010B
:100BB000EC57FF4F408151816281738126E08E01A5
:100BC0000F5F1F4FC8010E948E0681E293E00E94D2
:100BD0006A06C8010E946A06F701E058FF4F40818B
:100BE00051816281738126E0C8010E948E068DE2E8
:100BF00093E00E946A06C8010E946A06F701E8575E
:100C0000FF4F408151816281738121E0C8010E94C0
:100C10008E0688E393E00E946A06C8010E946A0675
:100C2000F701E558FF4F80811F928F9331978081A4
:100C30001F928F93319780811F928F9385EF92E05F
:100C40009F938F931F930F930E948E0AC8010E9457
:100C50006A06F701E358FF4F80811F928F938DE062
:100C600093E09F938F931F930F930E948E0AC80166
:100C70000E946A060FB6F894DEBF0FBECDBFE296A3
:100C80000FB6F894DEBF0FBECDBFDF91CF911F919D
:100C90000F91FF90EF9008959093C5008093C4004A
:100CA000E1ECF0E0808188608083808180618083D6
:100CB00086E08093C20008959091C00095FFFCCF1C
:100CC0008093C60008958091C00087FFFCCF80917B
:100CD000C60008951F93CF93DF93EC0110E0212FFE
:100CE000332727FD3095FE0101900020E9F7319769
:100CF000EC1BFD0BE217F30740F0FE01E20FF31FC0
:100D000080810E945C061F5FEACF8DE00E945C0636
:100D10008AE0DF91CF911F910C945C064F925F9215
:100D20006F927F928F929F92AF92BF92CF92DF92FB
:100D3000EF92FF920F931F93CF93DF937C012A01D1
:100D40003B01D22ECB01BA010E94B9084B015C01D4
:100D50008B014AE050E0B701C4010E94560A20E02E
:100D600030E0A901C301B2010E944D0887FF08C00D
:100D700077FA709477F870940027112708191909E9
:100D8000E70109900020E9F72197CE19DF099C2E91
:100D90009394DD27C7FDD095F701EC0FFD1F8EE280
:100DA0008083CD0DD11DD7FCDA95C92CDD24C7FC7D
:100DB000D094CC15DD054CF1B801882777FD8095DE
:100DC000982F0E94EC089B01AC01C301B2010E9464
:100DD000E80720E030E040E251E40E949C092B014A
:100DE0003C010E94B908DC01CB018C014AE050E0D3
:100DF000A12CB12CB5010E94560AF701EC0DFD1D86
:100E0000D5018C9180839394D0CFDF91CF911F91A6
:100E10000F91FF90EF90DF90CF90BF90AF909F9099
:100E20008F907F906F905F904F900895CF93DF9356
:100E3000CDB7DEB7E2970FB6F894DEBF0FBECDBFD9
:100E40000E9471008FE290E00E944C061092C40351
:100E50001092BE038E010F5F1F4F85EFC82E82E0F8
:100E6000D82E9DE0E92E93E0F92E2FEF8FE794E046
:100E7000215080409040E1F700C0000086E493E0FC
:100E80000E945C0586E493E00E94C80522ED33E0F1
:100E900045EE52E060E085E00E947D0282ED93E045
:100EA0000E94A5024091C6035091C7036091C803F8
:100EB0007091C90326E0C8010E948E0622ED33E03E
:100EC000A80160E082E30E947D0282ED93E00E942F
:100ED000A50222ED33E04AEE52E06AE085E00E948E
:100EE0007D0282ED93E00E94A5024091CA035091D9
:100EF000CB036091CC037091CD0326E0C8010E9422
:100F00008E0622ED33E0A8016AE082E30E947D02B2
:100F100082ED93E00E94A50222ED33E040EF52E023
:100F200064E185E00E947D0282ED93E00E94A502CB
:100F30004091CE035091CF036091D0037091D103C3
:100F400021E0C8010E948E0622ED33E0A80164E191
:100F500082E30E947D0282ED93E00E94A5028091CF
:100F6000C1031F928F938091C0031F928F93809132
:100F7000BF031F928F93DF92CF921F930F930E9414
:100F80008E0A22ED33E0A8016EE185E00E947D0229
:100F90008091C3031F928F93FF92EF921F930F9341
:100FA0000E948E0A22ED33E0A80168E285E00E94EB
:100FB0007D022FEF8FE39BE0215080409040E1F7CE
:100FC00000C000000FB6F894DEBF0FBECDBF4DCFFE
:100FD0005058BB27AA270ED075C166D130F06BD10F
:100FE00020F031F49F3F11F41EF45BC10EF4E09544
:100FF000E7FB51C1E92F77D180F3BA176207730776
:101000008407950718F071F49EF58FC10EF4E095F2
:101010000B2EBA2FA02D0B01B90190010C01CA01B2
:10102000A0011124FF27591B99F0593F50F4503E5D
:1010300068F11A16F040A22F232F342F4427585F4F
:10104000F3CF469537952795A795F0405395C9F767
:101050007EF41F16BA0B620B730B840BBAF091501F
:10106000A1F0FF0FBB1F661F771F881FC2F70EC0BE
:10107000BA0F621F731F841F48F487957795679591
:10108000B795F7959E3F08F0B3CF9395880F08F07A
:101090009927EE0F979587950895D9D008F481E0A8
:1010A00008950CD00FC107D140F0FED030F021F4EC
:1010B0005F3F19F0F0C0511139C1F3C014D198F35A
:1010C0009923C9F35523B1F3951B550BBB27AA27C9
:1010D00062177307840738F09F5F5F4F220F331F3B
:1010E000441FAA1FA9F333D00E2E3AF0E0E830D007
:1010F00091505040E695001CCAF729D0FE2F27D00A
:10110000660F771F881FBB1F261737074807AB07D7
:10111000B0E809F0BB0B802DBF01FF2793585F4F4C
:101120002AF09E3F510568F0B6C000C15F3FECF366
:10113000983EDCF3869577956795B795F7959F5F11
:10114000C9F7880F911D9695879597F90895E1E065
:10115000660F771F881FBB1F621773078407BA07C4
:1011600020F0621B730B840BBA0BEE1F88F7E0951F
:10117000089504D06894B111D9C00895BCD088F006
:101180009F5790F0B92F9927B751A0F0D1F0660F73
:10119000771F881F991F1AF0BA95C9F712C0B1308E
:1011A00081F0C3D0B1E00895C0C0672F782F8827A1
:1011B000B85F39F0B93FCCF3869577956795B395CD
:1011C000D9F73EF490958095709561957F4F8F4F3C
:1011D0009F4F0895E89409C097FB3EF49095809541
:1011E000709561957F4F8F4F9F4F9923A9F0F92FED
:1011F00096E9BB279395F695879577956795B7956B
:10120000F111F8CFFAF4BB0F11F460FF1BC06F5F50
:101210007F4F8F4F9F4F16C0882311F096E911C062
:10122000772321F09EE8872F762F05C0662371F083
:1012300096E8862F70E060E02AF09A95660F771F97
:10124000881FDAF7880F9695879597F90895990F73
:101250000008550FAA0BE0E8FEEF16161706E80780
:10126000F907C0F012161306E407F50798F0621BA1
:10127000730B840B950B39F40A2661F0232B242B76
:10128000252B21F408950A2609F4A140A6958FEF95
:10129000811D811D089597F99F6780E870E060E0E7
:1012A00008959FEF80EC089500240A9416161706FF
:1012B00018060906089500240A9412161306140647
:1012C00005060895092E0394000C11F4882352F0AA
:1012D000BB0F40F4BF2B11F460FF04C06F5F7F4F62
:1012E0008F4F9F4F089557FD9058440F551F59F049
:1012F0005F3F71F04795880F97FB991F61F09F3F03
:1013000079F087950895121613061406551FF2CF2B
:101310004695F1DF08C0161617061806991FF1CF7B
:1013200086957105610508940895E894BB276627A2
:101330007727CB0197F908950BD0C4CFB5DF28F0FC
:10134000BADF18F0952309F0A6CFABCF1124EECF6A
:10135000CADFA0F3959FD1F3950F50E0551F629F10
:10136000F001729FBB27F00DB11D639FAA27F00DFE
:10137000B11DAA1F649F6627B00DA11D661F829F25
:101380002227B00DA11D621F739FB00DA11D621F0A
:10139000839FA00D611D221F749F3327A00D611D27
:1013A000231F849F600D211D822F762F6A2F112409
:1013B0009F5750408AF0E1F088234AF0EE0FFF1F5C
:1013C000BB1F661F771F881F91505040A9F79E3F93
:1013D000510570F060CFAACF5F3FECF3983EDCF38D
:1013E000869577956795B795F795E7959F5FC1F7D0
:1013F000FE2B880F911D9695879597F9089566277E
:1014000077270C94820CFC0188279927E894219176
:101410002032E9F3293010F02E30C8F32B3241F09E
:101420002D3239F4689404C00E946C0A820F911D19
:10143000219120532A30C0F31EF4909581959F4F3F
:10144000089544E453E00E942F0A0895FB01DC0153
:101450008D91019080190110D9F3990B0895FA012B
:10146000A191B081009719F41097E1F0CD01DC0152
:10147000CD010D90002011F4C00113C0FB0121919A
:10148000222319F02015D9F7F3CFFB012191201564
:1014900019F41E92119606C02223C1F70D90002068
:1014A000A1F7D001FA01A193B08308954532510507
:1014B00020F4423010F00C94610AFB011082CB0141
:1014C0000895BB274A3031F4992322F4BDE2909568
:1014D00081959F4F0C94750A7AE0979F902D879F76
:1014E000802D910D11240895BB27FB015527AA27B4
:1014F000880F991FAA1FA41710F0A41B83955051A1
:10150000B9F7A05DAA3308F0A95DA193009779F718
:10151000B111B1931192CB010C941B0EAEE0B0E06F
:10152000E4E9FAE00C94D70E0D891E8986E08C83DD
:101530001A8309838FEF9FE79E838D83AE01475EF9
:101540005F4F6F89788DCE0101960E94B00AEF81BE
:10155000F885E00FF11F10822E96E4E00C94F30E54
:10156000ACE0B0E0E6EBFAE00C94C90E7C016B0154
:101570008A01FC0117821682838181FFBDC1CE01E1
:1015800001964C01F7019381F60193FD859193FF3C
:1015900081916F01882309F4ABC1853239F493FD41
:1015A000859193FF81916F01853229F4B70190E015
:1015B0000E942B0EE7CF512C312C20E02032A0F4DA
:1015C0008B3269F030F4803259F0833269F4206153
:1015D0002CC08D3239F0803339F4216026C022606E
:1015E000246023C0286021C027FD27C030ED380FBC
:1015F0003A3078F426FF06C0FAE05F9E300D1124E1
:10160000532E13C08AE0389E300D1124332E2062F1
:101610000CC08E3221F426FD6BC1206406C08C36CE
:1016200011F4206802C0883641F4F60193FD8591DB
:1016300093FF81916F018111C1CF982F9F7D9554A8
:10164000933028F40C5F1F4FFFE3F9830DC08336FE
:1016500031F0833771F0833509F05BC022C0F801A7
:10166000808189830E5F1F4F44244394512C540181
:1016700015C03801F2E06F0E711CF801A080B18036
:1016800026FF03C0652D70E002C06FEF7FEFC5013C
:101690002C870E94100E2C0183012C852F77222E7F
:1016A00017C03801F2E06F0E711CF801A080B18004
:1016B00026FF03C0652D70E002C06FEF7FEFC5010C
:1016C0002C870E94050E2C012C852068222E830178
:1016D00023FC1BC0832D90E048165906B0F4B701D7
:1016E00080E290E00E942B0E3A94F4CFF50127FCA3
:1016F000859127FE81915F01B70190E00E942B0E3A
:1017000031103A94F1E04F1A51084114510471F725
:10171000E5C0843611F0893639F5F80127FF07C096
:1017200060817181828193810C5F1F4F08C060814D
:101730007181882777FD8095982F0E5F1F4F2F7638
:10174000B22E97FF09C090958095709561957F4F57
:101750008F4F9F4F2068B22E2AE030E0A4010E94F4
:101760005D0EA82EA81844C0853729F42F7EB22E0E
:101770002AE030E025C0F22FF97FBF2E8F36C1F06E
:1017800018F4883579F0B4C0803719F0883721F023
:10179000AFC02F2F2061B22EB4FE0DC08B2D846000
:1017A000B82E09C024FF0AC09F2F9660B92E06C02C
:1017B00028E030E005C020E130E002C020E132E066
:1017C000F801B7FE07C060817181828193810C5F4F
:1017D0001F4F06C06081718180E090E00E5F1F4F57
:1017E000A4010E945D0EA82EA818FB2DFF77BF2E26
:1017F000B6FE0BC02B2D2E7FA51450F4B4FE0AC0EC
:10180000B2FC08C02B2D2E7E05C07A2C2B2D03C0D8
:101810007A2C01C0752C24FF0DC0FE01EA0DF11DCC
:101820008081803311F4297E09C022FF06C07394A1
:10183000739404C0822F867809F0739423FD13C03B
:1018400020FF06C05A2C731418F4530C5718732C2D
:10185000731468F4B70180E290E02C870E942B0E8D
:1018600073942C85F5CF731410F4371801C0312C04
:1018700024FF12C0B70180E390E02C870E942B0E5A
:101880002C8522FF17C021FF03C088E590E002C02D
:1018900088E790E0B7010CC0822F867859F021FDCF
:1018A00002C080E201C08BE227FD8DE2B70190E02B
:1018B0000E942B0EA51438F4B70180E390E00E943B
:1018C0002B0E5A94F7CFAA94F401EA0DF11D8081F2
:1018D000B70190E00E942B0EA110F5CF332009F440
:1018E00051CEB70180E290E00E942B0E3A94F6CFE1
:1018F000F7018681978102C08FEF9FEF2C96E2E17E
:101900000C94E50EA0E0B0E0E8E8FCE00C94CF0E0B
:101910008B016115710521F0DB018C9311969C936D
:10192000EC015E01BFEFAB1ABB0A7501C8808C2DBC
:1019300090E00E94E50D892B11F0E501F2CFEDE278
:10194000CE1208C07E01F2E0EF0EF11CC980DD244A
:10195000D39409C02BE2C21205C07E0142E0E40E1E
:10196000F11CC980D12CE701219743E050E060E7EA
:1019700070E0CE010E94ED0D892BC1F4239645E065
:1019800050E06BE670E0CE010E94ED0D892B09F46A
:1019900025960115110519F0D801CD93DC93D110CE
:1019A00006C160E070E080E89FE70AC143E050E0D4
:1019B00068E670E0CE010E94ED0D892B59F4011507
:1019C000110509F4F9C0B2E0EB0EF11CF801F18247
:1019D000E082F2C0F70160E070E0CB01C0E0D0E04F
:1019E0007F01A0EDAA2EAC0C29E02A1530F14D2D77
:1019F0004260B42E2D2D2870D2FE04C0211125C0C6
:101A0000219623C021112197A5E0B0E09B01AC01F4
:101A10000E94BE0E660F771F881F991F6A0D711DE9
:101A2000811D911D6839A9E97A078A07A9E19A07FA
:101A300060F0BD2DB660BB2E08C02EEFA2120AC00A
:101A4000D3FC50C04D2D4860B42E3196D701CC90B8
:101A5000DB2CC6CF2C2D2F7D253409F043C0A0816F
:101A6000AD3241F4BD2DB061DB2E7F0122E0E20EEC
:101A7000F11C0CC07F01AB3231F04FEFE41AF40AD5
:101A800021E030E006C0A2E0EA0EF11CA18122E0D4
:101A900030E0A053AA3018F0E21AF30A23C0F7018D
:101AA00020E030E02038BCE03B075CF4A901440FA3
:101AB000551F440F551F240F351F220F331F2A0FA8
:101AC000311DAF014F5F5F4F7A01A081A053AA3053
:101AD00010F4FA01E7CFD4FE03C031952195310906
:101AE000C20FD31FD1FE09C00115110531F0E1E08D
:101AF000EE1AF108D801ED92FC920E94EA082D2D11
:101B00002370233019F04B015C0106C04B015C01CE
:101B1000B7FAB094B7F8B09420E030E0A901C5015D
:101B2000B4010E944D08882309F43EC0D7FF06C0C7
:101B3000D195C195D10907E810E002C00FE910E086
:101B40006801B8E1CB1AD10890E2E92EF12CCE154C
:101B5000DF0574F0F8012591359145915491C50147
:101B6000B4010E949C094B015C01CE19DF09EFCF43
:101B700004501109F594E7940C151D0541F78A2DC1
:101B8000880F8B2D881F8F3F49F020E030E0A9019E
:101B9000C501B4010E944D08811106C082E290E0A7
:101BA0009093D3078093D207C501B40109C060E0C8
:101BB00070E080E89FEF04C060E070E080EC9FE799
:101BC000CDB7DEB7ECE00C94EB0E9111D4C08032AF
:101BD00019F089508550D0F70895FB01DC01415080
:101BE000504088F08D9181341CF08B350CF4805E70
:101BF000659161341CF06B350CF4605E861B6111DD
:101C000071F3990B0895881BFCCFFC01059061507E
:101C100070400110D8F7809590958E0F9F1F089502
:101C2000FC016150704001900110D8F780959095AB
:101C30008E0F9F1F0895DC01FC01672F71917723A0
:101C4000E1F7329704C07C916D9370836291AE1777
:101C5000BF07C8F308950F931F93CF93DF93182FF7
:101C6000092FEB018B8181FD03C08FEF9FEF20C017
:101C700082FF10C04E815F812C813D814217530746
:101C80007CF4E881F9819F012F5F3F4F39832883DE
:101C9000108306C0E885F985812F0995892B29F7DE
:101CA0002E813F812F5F3F4F3F832E83812F902FC7
:101CB000DF91CF911F910F910895FA01AA27283043
:101CC00051F1203181F1E8946F936E7F6E5F7F4F09
:101CD0008F4F9F4FAF4FB1E03ED0B4E03CD0670F85
:101CE000781F891F9A1FA11D680F791F8A1F911DD8
:101CF000A11D6A0F711D811D911DA11D20D009F428
:101D000068943F912AE0269F11243019305D319369
:101D1000DEF6CF010895462F4770405D4193B3E052
:101D20000FD0C9F7F6CF462F4F70405D4A3318F0F9
:101D3000495D31FD4052419302D0A9F7EACFB4E0AA
:101D4000A6959795879577956795BA95C9F7009762
:101D50006105710508959B01AC010A2E0694579503
:101D6000479537952795BA95C9F7620F731F841F5A
:101D7000951FA01D08959927882708950E94000F98
:101D8000A59F900DB49F900DA49F800D911D1124CF
:101D900008952F923F924F925F926F927F928F920F
:101DA0009F92AF92BF92CF92DF92EF92FF920F93EA
:101DB0001F93CF93DF93CDB7DEB7CA1BDB0B0FB6F4
:101DC000F894DEBF0FBECDBF09942A8839884888B1
:101DD0005F846E847D848C849B84AA84B984C88447
:101DE000DF80EE80FD800C811B81AA81B981CE0F3E
:101DF000D11D0FB6F894DEBF0FBECDBFED01089523
:101E0000A29FB001B39FC001A39F700D811D11243B
:101E1000911DB29F700D811D1124911D0895F8949C
:021E2000FFCFF2
:101E2200000000000000004F00000007000700143F
:101E32007F147F14242A7F2A1223130864623649EE
:101E42005522500005030000001C224100004122DF
:101E52001C0014083E081408083E08080050300010
:101E6200000808080808006060000020100804024A
:101E72003E5149453E00427F400042615149462160
:101E820041454B311814127F1027454545393C4ACC
:101E9200494930017109050336494949360649491C
:101EA200291E003636000000563600000814224172
:101EB20000141414141400412214080201510906DA
:101EC200324979413E7E1111117E7F494949363EA0
:101ED200414141227F4141221C7F494949417F09B9
:101EE2000909013E4149497A7F0808087F00417F7C
:101EF20041002040413F017F081422417F40404081
:101F0200407F020C027F7F0408107F3E4141413E28
:101F12007F090909063E4151215E7F09192946467A
:101F22004949493101017F01013F4040403F1F20A3
:101F320040201F3F4038403F631408146307087075
:101F420008076151494543007F41410002040810DE
:101F5200200041417F000402010204404040404011
:101F6200010204000020545454787F484444383815
:101F720044444420384444487F3854545418087E1A
:101F8200090102064949493F7F0804047800447D5B
:101F920040002040443D007F1028440000417F4023
:101FA200007C0418047C7C080404783844444438D7
:101FB2007C14141408081414187C7C0804040848BF
:101FC20054545420043F4440203C4040207C1C2078
:101FD20040201C3C4030403C44281028440C5050C7
:101FE200503C4464544C44000836410000007F00D9
:101FF2000000413608000201020402080C0E0C081F
:1020020008183818084C61743A004C6F6E673A0031
:10201200416C743A00686F75722025642C206D69DA
:102022006E2025642C20736563202564007361741F
:10203200656C6C69746573202564002C005300572D
:10204200006C6F6E6769747564653A20006C617428
:1020520069747564653A2000416C746974756465CD
:042062003A20000020
:00000001FF
