:100000000C9434000C9451000C9451000C94510049
:100010000C9451000C9451000C9451000C9451001C
:100020000C9451000C9451000C9451000C9451000C
:100030000C9451000C9451000C9451000C945100FC
:100040000C9451000C9451000C9451000C945100EC
:100050000C9451000C9451000C9451000C945100DC
:100060000C9451000C94510011241FBECFEFD8E026
:10007000DEBFCDBF13E0A0E0B1E0EAE8F3E102C0EB
:1000800005900D92A834B107D9F727E0A8E4B3E0B2
:1000900001C01D92AA34B207E1F70E945D060C94DC
:1000A000C3090C94000060E089E10E94610361E0F3
:1000B00089E10E9461030E946F008AE493E00C943E
:1000C0003802CF93C82F88E70E94C80280E00E94C0
:1000D000EA028C2F0E94EA02CF910C94FB020E944C
:1000E000C4028EEA0E94610085ED0E94610080E8F2
:1000F0000E94610088EA0E9461008FE30E94610013
:1001000083ED0E94610080E00E94610080E40E9413
:1001100061008DE80E94610084E10E94610080E23C
:100120000E94610080E00E94610081EA0E946100FB
:1001300088EC0E9461008AED0E94610082E10E94C9
:10014000610081E80E9461008FEC0E94610089EDEE
:100150000E94610081EF0E9461008BED0E946100AE
:1001600080E40E94610084EA0E94610086EA0E94A5
:1001700061008FEA0C946100F901603494F59927CD
:1001800087FD9095362F37704423A9F067FD695F8E
:1001900065956595659520E86203800D911D112494
:1001A000E80FF91F81E090E001C0880F3A95EAF767
:1001B0009081892B15C067FD695F6595659565958B
:1001C00020E86203800D911D1124E80FF91F81E0E2
:1001D00090E001C0880F3A95EAF7809590818923D5
:1001E00080830895CF92DF92FF920F931F93CF9356
:1001F000DF93D82FF62E6901C0E0042F112707FDE9
:1002000010954C2F50E0401751074CF4960141E0F7
:100210006F2D8C2F8D0F0E94BC00CF5FF2CFDF912E
:10022000CF911F910F91FF90DF90CF900895CF92C3
:10023000DF92FF920F931F93CF93DF93D82FF62E69
:100240006901C0E0042F112707FD10954C2F50E0E5
:10025000401751074CF46C2F6F0D960141E08D2F24
:100260000E94BC00CF5FF2CFDF91CF911F910F9121
:10027000FF90DF90CF900895CF92DF92EF92FF92A0
:100280000F931F93CF93DF93D82FC62FE42EC22E48
:10029000F42EF81AF394D22ED61A98014F2D0E94FC
:1002A000F20098014F2D6C2D8D2F0E94F2009801C5
:1002B0004D2D6C2F8D2F0E94170198014D2D6C2F05
:1002C0008E2DDF91CF911F910F91FF90EF90DF90D6
:1002D000CF900C941701AF92BF92CF92DF92EF9222
:1002E000FF920F931F93CF93DF93D82EC62E570103
:1002F000C42FC81BCF5FF22EF61AD0E0DC1784F4AF
:1003000010E0ED2EED0C1F154CF4612F6C0D9501D6
:10031000402F8E2D0E94BC001F5FF5CFDF5FEECF18
:10032000DF91CF911F910F91FF90EF90DF90CF90D1
:10033000BF90AF9008957F928F929F92AF92BF929D
:10034000CF92DF92EF92FF920F931F93CF93DF93A1
:10035000E82EB62ED42FF22E680110E0C0E0DC1794
:100360000CF450C096014F2DAC2EAB0C6A2D0D2F06
:100370000E0D802F0E94BC0096014F2D8D2E8B0CF0
:10038000682D9C2E9E0C892D0E94BC0096014F2D3D
:10039000682D7E2C7C1A872D0E94BC0096014F2D63
:1003A0006A2D8E2C8D1A882D0E94BC0096014F2D2F
:1003B000AB2CAC1A6A2D882D0E94BC0096014F2DE3
:1003C0008B2C8D1A682D872D0E94BC0096014F2D15
:1003D000682D892D0E94BC0096014F2D6A2D802F1B
:1003E0000E94BC00111644F0CF5F1F5F8C2F880F56
:1003F000180F11160CF0B3CFD1508D2F880F8095A8
:10040000180FADCFDF91CF911F910F91FF90EF901B
:10041000DF90CF90BF90AF909F908F907F90089586
:10042000CF92DF92EF92FF920F931F93CF93DF93C0
:10043000D82FF62EC42FE22E68011C164CF486012C
:100440002E2D4C2F6F2D8D2F0E949B01C150F5CF6B
:10045000DF91CF911F910F91FF90EF90DF90CF90A0
:100460000895882311F087EA01C086EA0C946100A0
:1004700020E034E0FC01A901119241505040E1F725
:10048000089566956695669590E050E8659F800DA5
:10049000911D1124F901E80FF91F85E0489FA00183
:1004A000112480E090E0DC01A40FB51FA05ABF4FDB
:1004B0002C912193019685309105A9F70895EF922B
:1004C000FF920F931F93CF93DF937901162F169509
:1004D00016951695EA01082F4991442339F09701A2
:1004E000612F802F0E9441020B5FF6CFDF91CF91E9
:1004F0001F910F91FF90EF900895CF92DF92FF929E
:100500000F931F93CF93DF931F92CDB7DEB7182FB2
:1005100081E299830E94610080E00E9461008FE780
:100520000E94610082E20E94610080E00E946100FE
:1005300087E00E946100C12E9981D92E80E4F82EB7
:1005400088E70E94C80280E40E94EA0200E010E00E
:10055000F601E00FF11F80810E94EA020F5F1F4F3A
:1005600000311105A9F70E94FB02FA9480E1C80E40
:10057000D11CF110E5CF0F90DF91CF911F910F911A
:10058000FF90DF90CF9008958CE18093B80008959C
:100590001092BC0094EA9093BC009091BC0097FF2D
:1005A000FCCF9091B900987F983011F081E00895C8
:1005B0008093BB0084E88093BC008091BC0087FFDF
:1005C000FCCF8091B900887F883111F0803471F7B9
:1005D00080E008958093BB0084E88093BC00809104
:1005E000BC0087FFFCCF9091B900987F81E09832E2
:1005F00009F480E0089584E98093BC000895813077
:1006000029F039EE380F363038F015C0613011F46A
:100610003E9A08953E98089527B181E090E001C088
:10062000880F3A95EAF7613011F4822B02C0809569
:10063000822387B908959EEF980F953030F095EF9B
:10064000980F9330E0F4865001C0892F4AB121E021
:1006500030E0613049F4B90102C0660F771F8A9516
:10066000E2F7CB01842B09C0B90102C0660F771FE6
:100670008A95E2F7CB01809584238AB9089597EF94
:10068000980F923020F08E50863010F008958350ED
:1006900044B121E030E0613049F4B90102C0660F95
:1006A000771F8A95E2F7CB01842B09C0B90102C0FC
:1006B000660F771F8A95E2F7CB018095842384B972
:1006C0000895CF93DF93C82FD62F61E00E94FF02D9
:1006D000C13029F039EE3C0F363038F015C0D1303A
:1006E00011F4469A42C0469840C028B181E090E09B
:1006F00001C0880F3A95EAF7D13011F4822B02C07D
:100700008095822388B931C08EEF8C0F853030F010
:1007100085EF8C0F833090F4C65001C0C82F2BB1E9
:1007200081E090E001C0880FCA95EAF7D13011F45A
:10073000822B02C0809582238BB917C087EF8C0F64
:10074000823020F0CE50C63010F00FC0C35025B11B
:1007500081E090E001C0880FCA95EAF7D13011F42A
:10076000822B02C08095822385B9DF91CF910895B5
:10077000CF93C82F60E00E94FF02C13061F029EEE4
:100780002C0F263068F486B190E002C095958795CD
:100790002A95E2F723C086B186FB882780F91FC01F
:1007A0008EEF8C0F853030F085EF8C0F833028F47E
:1007B000C65001C0C82F89B10BC087EF8C0F8230A3
:1007C00028F0CE50C63018F082E009C0C35083B183
:1007D00090E002C095958795CA95E2F78170CF9118
:1007E00008950895EF92FF920F931F93CF93DF9395
:1007F000CDB7DEB7E2970FB6F894DEBF0FBECDBF20
:100800008C01FC01ED56FF4F81818F9380818F9386
:10081000349781818F9380818F933C9781818F93CF
:1008200080818F938FEE92E09F938F93CE010196FC
:100830007C019F938F930E94F206C7010E943906A4
:10084000F801EF56FF4F81818F9380818F9334970A
:1008500081818F9380818F933C9781818F93808159
:100860008F9384E093E09F938F93FF92EF920E9487
:10087000F206C7010E943906F801E558FF4F808152
:100880001F928F93319780811F928F933197808130
:100890001F928F9389E193E09F938F93FF92EF9242
:1008A0000E94F206C7010E943906F801E956FF4F7F
:1008B00081818F9380818F93329781818F93808103
:1008C0008F9381E393E09F938F93FF92EF920E9427
:1008D000F2060FB6F894DEBF0FBECDBFC7010E946F
:1008E0003906E2960FB6F894DEBF0FBECDBFDF919A
:1008F000CF911F910F91FF90EF900895CF92DF92CB
:10090000EF92FF920F931F93CF93DF93CDB7DEB794
:10091000EC970FB6F894DEBF0FBECDBF8C0160E43C
:1009200073E00E94B506E0E00097A9F0FF24F3947D
:10093000FE0EEE0FFF0B21E030E02C0F3D1FE20F0B
:10094000F31F9183808360E473E080E090E00E9475
:10095000B506EF2DE9CF8B859C85C09709F4ECC0D7
:100960001AAE1BAE1CAEE981FA8180818AAF81810B
:100970008BAF1FAA18AE19AE82818FAB838188AF6F
:100980001CAA1DAA1EAA84818CAB85818DABCE01C9
:10099000CA960E949706F801E758FF4F8083893076
:1009A00010F48F5E01C087508083CE01C7960E94ED
:1009B0009706F801E658FF4F8083CE01C4960E9447
:1009C0009706F801E558FF4F808319AA1AAA1BAAB7
:1009D000EB81FC81808189AB81818AAB1EA61FA639
:1009E00018AA82818EA783818FA7CE01829625E0E7
:1009F000DC011D922A95E9F725812AA326812BA3E4
:100A000027812CA320852DA30E949706F801EF567D
:100A1000FF4F91838083CE018E960E949706F80146
:100A2000E357FF4F91838083CE01C1960E949706C2
:100A30007C016801B1E8CB0ED11CF6019183808363
:100A400062E473E08D819E810E94BA06892B31F4A5
:100A5000F194E194F108D601ED92FC921FA218A640
:100A600019A61AA6EF81F88580818FA3818188A7B6
:100A7000828189A71BA61CA61DA683818BA78481C2
:100A80008CA77E01BDE1EB0EF11C85E0D7011D9224
:100A90008A95E9F786818D8F87818E8F80858F8FEC
:100AA000818588A3CE018B960E949706F801E157B5
:100AB000FF4F91838083C7010E949706F801ED568E
:100AC000FF4F91838083CE0187960E9497067C0119
:100AD0006801B3E8CB0ED11CF6019183808364E4F6
:100AE00073E089859A850E94BA06892B31F4F194C6
:100AF000E194F108D601ED92FC9266E473E08989F5
:100B00009A890E94B5060E949706F801EB56FF4F9E
:100B10009183808366E473E080E090E00E94B506F4
:100B20000E949706F801E956FF4F91838083C80120
:100B30000E94F20380E001C081E0EC960FB6F894C9
:100B4000DEBF0FBECDBFDF91CF911F910F91FF9000
:100B5000EF90DF90CF9008958F929F92AF92BF92C7
:100B6000CF92DF92EF92FF920F931F93CF93DF9379
:100B70008C01EC01C858DF4F82559F4F7C0186E005
:100B8000D82E95E0C92E24E0B22E33E0A32E42E009
:100B9000942E882483940E943206982F2881211154
:100BA00004C08432C1F78882F6CF213031F4873413
:100BB00011F49882F0CF1882EECF223021F48035E4
:100BC000D1F7A882E8CF233021F48734A1F7B88287
:100BD000E2CF243021F4873471F7C882DCCF25308E
:100BE00021F4813441F7D882D6CF2630A1F68D305A
:100BF00061F0F701808121E0280F2083F801E80FE0
:100C0000F11D87FDFA959083C6CFC8010E94390671
:100C1000C8010E947E041882F7011082DF91CF91F3
:100C20001F910F91FF90EF90DF90CF90BF90AF900A
:100C30009F908F9008959093C5008093C400E1EC3D
:100C4000F0E080818860808380818061808386E09D
:100C50008093C20008959091C00095FFFCCF8093CF
:100C6000C60008958091C00087FFFCCF8091C60028
:100C700008951F93CF93DF93EC0110E0212F3327CA
:100C800027FD3095FE0101900020E9F73197EC1B1C
:100C9000FD0BE217F30740F0FE01E20FF31F808126
:100CA0000E942B061F5FEACF8DE00E942B068AE090
:100CB000DF91CF911F910C942B06CF93DF93CDB78B
:100CC000DEB7C05BD1090FB6F894DEBF0FBECDBF53
:100CD0000E9453008FE290E00E941B06C155DF4F37
:100CE0001882CF5AD040EA961FAEEA97CE010196FD
:100CF0000E94AC05CE57DF4F8881C258D0400E9479
:100D00002B062AE433E045EE52E064E184E10E94E0
:100D10005F028AE493E00E947D022FEF8FEF9CE256
:100D2000215080409040E1F700C00000DFCFFC017F
:100D300088279927E89421912032E9F3293010F08F
:100D40002E30C8F32B3241F02D3239F4689404C0B0
:100D50000E94EA06820F911D219120532A30C0F390
:100D60001EF4909581959F4F089548E453E00E94AA
:100D7000C3060895FB01DC018D91019080190110DB
:100D8000D9F3990B0895FA01A191B081009719F454
:100D90001097E1F0CD01DC01CD010D90002011F4A0
:100DA000C00113C0FB012191222319F02015D9F7AE
:100DB000F3CFFB012191201519F41E92119606C064
:100DC0002223C1F70D900020A1F7D001FA01A193D1
:100DD000B08308957AE0979F902D879F802D910D85
:100DE00011240895AEE0B0E0E8EFF6E00C949A0923
:100DF0000D891E8986E08C831A8309838FEF9FE714
:100E00009E838D83AE01475E5F4F6F89788DCE01E3
:100E100001960E941407EF81F885E00FF11F108200
:100E20002E96E4E00C94B609ACE0B0E0EAE1F7E01D
:100E30000C948C097C016B018A01FC0117821682DB
:100E4000838181FFBDC1CE0101964C01F7019381E1
:100E5000F60193FD859193FF81916F01882309F439
:100E6000ABC1853239F493FD859193FF81916F0178
:100E7000853229F4B70190E00E94FC08E7CF512C9D
:100E8000312C20E02032A0F48B3269F030F4803233
:100E900059F0833269F420612CC08D3239F08033EF
:100EA00039F4216026C02260246023C0286021C05C
:100EB00027FD27C030ED380F3A3078F426FF06C002
:100EC000FAE05F9E300D1124532E13C08AE0389E45
:100ED000300D1124332E20620CC08E3221F426FDF9
:100EE0006BC1206406C08C3611F4206802C08836BD
:100EF00041F4F60193FD859193FF81916F0181117A
:100F0000C1CF982F9F7D9554933028F40C5F1F4FCD
:100F1000FFE3F9830DC0833631F0833771F08335F9
:100F200009F05BC022C0F801808189830E5F1F4FEA
:100F300044244394512C540115C03801F2E06F0E43
:100F4000711CF801A080B18026FF03C0652D70E000
:100F500002C06FEF7FEFC5012C870E94F1082C01C2
:100F600083012C852F77222E17C03801F2E06F0EF7
:100F7000711CF801A080B18026FF03C0652D70E0D0
:100F800002C06FEF7FEFC5012C870E94E6082C019D
:100F90002C852068222E830123FC1BC0832D90E02A
:100FA00048165906B0F4B70180E290E00E94FC08B0
:100FB0003A94F4CFF50127FC859127FE81915F01DA
:100FC000B70190E00E94FC0831103A94F1E04F1A0A
:100FD00051084114510471F7E5C0843611F0893687
:100FE00039F5F80127FF07C0608171818281938103
:100FF0000C5F1F4F08C060817181882777FD809545
:10100000982F0E5F1F4F2F76B22E97FF09C0909535
:101010008095709561957F4F8F4F9F4F2068B22EBE
:101020002AE030E0A4010E942E09A82EA81844C08E
:10103000853729F42F7EB22E2AE030E025C0F22F2A
:10104000F97FBF2E8F36C1F018F4883579F0B4C01F
:10105000803719F0883721F0AFC02F2F2061B22ED2
:10106000B4FE0DC08B2D8460B82E09C024FF0AC0C9
:101070009F2F9660B92E06C028E030E005C020E121
:1010800030E002C020E132E0F801B7FE07C0608125
:101090007181828193810C5F1F4F06C060817181D5
:1010A00080E090E00E5F1F4FA4010E942E09A82E41
:1010B000A818FB2DFF77BF2EB6FE0BC02B2D2E7F61
:1010C000A51450F4B4FE0AC0B2FC08C02B2D2E7E2D
:1010D00005C07A2C2B2D03C07A2C01C0752C24FF5F
:1010E0000DC0FE01EA0DF11D8081803311F4297ECF
:1010F00009C022FF06C07394739404C0822F8678BF
:1011000009F0739423FD13C020FF06C05A2C7314FA
:1011100018F4530C5718732C731468F4B70180E259
:1011200090E02C870E94FC0873942C85F5CF7314F3
:1011300010F4371801C0312C24FF12C0B70180E32E
:1011400090E02C870E94FC082C8522FF17C021FF0D
:1011500003C088E590E002C088E790E0B7010CC0CA
:10116000822F867859F021FD02C080E201C08BE217
:1011700027FD8DE2B70190E00E94FC08A51438F429
:10118000B70180E390E00E94FC085A94F7CFAA943C
:10119000F401EA0DF11D8081B70190E00E94FC0886
:1011A000A110F5CF332009F451CEB70180E290E0D1
:1011B0000E94FC083A94F6CFF7018681978102C01D
:1011C0008FEF9FEF2C96E2E10C94A809FC010590AB
:1011D000615070400110D8F7809590958E0F9F1F39
:1011E0000895FC016150704001900110D8F780957E
:1011F00090958E0F9F1F08950F931F93CF93DF93AA
:10120000182F092FEB018B8181FD03C08FEF9FEF1A
:1012100020C082FF10C04E815F812C813D8142172A
:1012200053077CF4E881F9819F012F5F3F4F398399
:101230002883108306C0E885F985812F0995892BBD
:1012400029F72E813F812F5F3F4F3F832E83812FD0
:10125000902FDF91CF911F910F910895FA01AA2746
:10126000283051F1203181F1E8946F936E7F6E5FE9
:101270007F4F8F4F9F4FAF4FB1E03ED0B4E03CD097
:10128000670F781F891F9A1FA11D680F791F8A1F7A
:10129000911DA11D6A0F711D811D911DA11D20D0E1
:1012A00009F468943F912AE0269F11243019305D9B
:1012B0003193DEF6CF010895462F4770405D41938C
:1012C000B3E00FD0C9F7F6CF462F4F70405D4A33D9
:1012D00018F0495D31FD4052419302D0A9F7EACFA1
:1012E000B4E0A6959795879577956795BA95C9F7D0
:1012F00000976105710508959B01AC010A2E0694C3
:101300005795479537952795BA95C9F7620F731F7B
:10131000841F951FA01D08952F923F924F925F92B8
:101320006F927F928F929F92AF92BF92CF92DF92F5
:10133000EF92FF920F931F93CF93DF93CDB7DEB75A
:10134000CA1BDB0B0FB6F894DEBF0FBECDBF0994EE
:101350002A88398848885F846E847D848C849B8445
:10136000AA84B984C884DF80EE80FD800C811B8153
:10137000AA81B981CE0FD11D0FB6F894DEBF0FBE82
:0A138000CDBFED010895F894FFCFF2
:10138A00000000000000004F0000000700070014E2
:10139A007F147F14242A7F2A122313086462364991
:1013AA005522500005030000001C22410000412282
:1013BA001C0014083E081408083E080800503000B3
:1013CA0000080808080800606000002010080402ED
:1013DA003E5149453E00427F400042615149462103
:1013EA0041454B311814127F1027454545393C4A6F
:1013FA0049493001710905033649494936064949BF
:10140A00291E003636000000563600000814224114
:10141A00001414141414004122140802015109067C
:10142A00324979413E7E1111117E7F494949363E42
:10143A00414141227F4141221C7F494949417F095B
:10144A000909013E4149497A7F0808087F00417F1E
:10145A0041002040413F017F081422417F40404023
:10146A00407F020C027F7F0408107F3E4141413ECB
:10147A007F090909063E4151215E7F09192946461D
:10148A004949493101017F01013F4040403F1F2046
:10149A0040201F3F4038403F631408146307087018
:1014AA0008076151494543007F4141000204081081
:1014BA00200041417F0004020102044040404040B4
:1014CA00010204000020545454787F4844443838B8
:1014DA0044444420384444487F3854545418087EBD
:1014EA00090102064949493F7F0804047800447DFE
:1014FA0040002040443D007F1028440000417F40C6
:10150A00007C0418047C7C08040478384444443879
:10151A007C14141408081414187C7C080404084861
:10152A0054545420043F4440203C4040207C1C201A
:10153A0040201C3C4030403C44281028440C505069
:10154A00503C4464544C44000836410000007F007B
:10155A000000413608000201020402080C0E0C08C1
:10156A0008183818086C696C206265617374004C3D
:10157A006F67202564206C6F675F64656720256448
:10158A002E2564004C6174202564206C61745F64AC
:10159A0065672025642E256400686F7572202564AE
:1015AA002C206D696E2025642C20736563202564C8
:1015BA0000416C7469747564652025642E25640085
:0815CA002C00530057002E0015
:00000001FF
