:100000000C9434000C9451000C9451000C94510049
:100010000C9451000C9451000C9451000C9451001C
:100020000C9451000C9451000C9451000C9451000C
:100030000C9451000C9451000C9451000C945100FC
:100040000C9451000C9451000C9451000C945100EC
:100050000C9451000C9451000C9451000C945100DC
:100060000C9451000C94510011241FBECFEFD8E026
:10007000DEBFCDBF11E0A0E0B1E0E6E6FBE002C0EC
:1000800005900D92AE33B107D9F711E0AEE3B1E0C0
:1000900001C01D92A034B107E1F70E9462020C94E6
:1000A000B1050C9400009093C5008093C400E1EC6E
:1000B000F0E080818860808380818061808386E039
:1000C0008093C20008959091C00095FFFCCF80936B
:1000D000C60008958091C00087FFFCCF8091C600C4
:1000E00008951F93CF93DF93EC0110E0212F332766
:1000F00027FD3095FE0101900020E9F73197EC1BB8
:10010000FD0BE217F30740F0FE01E20FF31F8081C1
:100110000E9463001F5FEACF8DE00E9463008AE0C7
:10012000DF91CF911F910C9463000895EF92FF929D
:100130000F931F93CF93DF93CDB7DEB7E2970FB640
:10014000F894DEBF0FBECDBF8C01FC01E157FF4F1D
:1001500081818F9380818F933C9781818F93808160
:100160008F9380E091E09F938F93CE0101967C0165
:100170009F938F930E94D902C7010E947100F801DA
:10018000E357FF4F81818F9380818F933C978181CB
:100190008F9380818F9382E191E09F938F93FF9261
:1001A000EF920E94D902C7010E947100F801E55840
:1001B000FF4F80811F928F93319780811F928F9381
:1001C000319780811F928F9384E291E09F938F9368
:1001D000FF92EF920E94D902C7010E9471000FB6F0
:1001E000F894DEBF0FBECDBFE2960FB6F894DEBF27
:1001F0000FBECDBFDF91CF911F910F91FF90EF9078
:100200000895AF92BF92CF92DF92EF92FF920F9339
:100210001F93CF93DF93CDB7DEB7EC970FB6F8946B
:10022000DEBF0FBECDBF8C016CE371E00E94A50262
:10023000E0E00097A9F0FF24F394FE0EEE0FFF0B11
:1002400021E030E02C0F3D1FE20FF31F91838083EC
:100250006CE371E080E090E00E94A502EF2DE9CF11
:100260008B859C85C09709F4ACC01AAE1BAE1CAE42
:10027000E981FA8180818AAF81818BAF1FAA18AE94
:1002800019AE82818FAB838188AF1CAA1DAA1EAADA
:1002900084818CAB85818DABCE01CA960E9487028A
:1002A000F801E758FF4F8083893010F48F5E01C05A
:1002B00089508083CE01C7960E948702F801E658D4
:1002C000FF4F8083CE01C4960E948702F801E55853
:1002D000FF4F808319AA1AAA1BAAEB81FC81808197
:1002E00089AB81818AAB5E0135E2A30EB11C88E047
:1002F000D5011D928A95E9F782818DA383818EA312
:1003000085818FA3868188A7878189A780858AA711
:10031000CE01C1960E9487027C016801B1E8CB0E34
:10032000D11CF60191838083C5010E948702F801E8
:10033000E357FF4F918380838D819E8183359105A3
:1003400031F4F194E194F108D601ED92FC921DA6EE
:100350001EA61FA618AAEF81F88580818DA781812E
:100360008EA782818FA77E01BDE1EB0EF11C88E094
:10037000D7011D928A95E9F783818D8F84818E8FB5
:1003800086818F8F878188A3808589A381858AA3B1
:10039000C7010E948702F801E157FF4F91838083D4
:1003A000CE018D960E948702F801ED57FF4F918391
:1003B0008083C7010E947100C8010E94960080E0FE
:1003C00001C081E0EC960FB6F894DEBF0FBECDBF42
:1003D000DF91CF911F910F91FF90EF90DF90CF9021
:1003E000BF90AF9008958F929F92AF92BF92CF929D
:1003F000DF92EF92FF920F931F93CF93DF938C01C5
:10040000EC01C858DF4F82559F4F7C0186E0D82E03
:1004100095E0C92E24E0B22E33E0A32E42E0942EC4
:10042000882483940E946A00982F2881211104C097
:100430008432C1F78882F6CF213031F4873411F449
:100440009882F0CF1882EECF223021F48035D1F798
:10045000A882E8CF233021F48734A1F7B882E2CF15
:10046000243021F4873471F7C882DCCF253021F4A1
:10047000813441F7D882D6CF2630A1F68D3061F095
:10048000F701808121E0280F2083F801E80FF11D9A
:1004900087FDFA959083C6CFC8010E947100C801FC
:1004A0000E9401011882F7011082DF91CF911F9104
:1004B0000F91FF90EF90DF90CF90BF90AF909F9003
:1004C0008F900895CF93DF93CDB7DEB7C85BD10986
:1004D0000FB6F894DEBF0FBECDBF8FE290E00E9452
:1004E0005300C954DF4F1882C75BD040EA961FAE55
:1004F000EA97CE0101960E94F3012FEF8FE790E774
:10050000215080409040E1F700C00000F2CFFC0194
:1005100088279927E89421912032E9F3293010F0B7
:100520002E30C8F32B3241F02D3239F4689404C0D8
:100530000E94D102820F911D219120532A30C0F3D5
:100540001EF4909581959F4F08954EE351E00E94CF
:10055000AA020895FA01A191B081009719F41097A9
:10056000E1F0CD01DC01CD010D90002011F4C001BE
:1005700013C0FB012191222319F02015D9F7F3CFE5
:10058000FB012191201519F41E92119606C0222319
:10059000C1F70D900020A1F7D001FA01A193B0831B
:1005A00008957AE0979F902D879F802D910D1124BB
:1005B0000895AEE0B0E0EFEDF2E00C9488050D890F
:1005C0001E8986E08C831A8309838FEF9FE79E83C1
:1005D0008D83AE01475E5F4F6F89788DCE010196A6
:1005E0000E94FC022F813885F801E20FF31F108270
:1005F0002E96E4E00C94A405ACE0B0E0E2E0F3E079
:100600000C947A057C016B018A01FC011782168229
:10061000838181FFBDC1CE0101964C01F701938119
:10062000F60193FD859193FF81916F01882309F471
:10063000ABC1853239F493FD859193FF81916F01B0
:10064000853229F4B70190E00E94E404E7CF512CF1
:10065000312C20E02032A0F48B3269F030F480326B
:1006600059F0833269F420612CC08D3239F0803327
:1006700039F4216026C02260246023C0286021C094
:1006800027FD27C030ED380F3A3078F426FF06C03A
:10069000FAE05F9E300D1124532E13C08AE0389E7D
:1006A000300D1124332E20620CC08E3221F426FD31
:1006B0006BC1206406C08C3611F4206802C08836F5
:1006C00041F4F60193FD859193FF81916F018111B2
:1006D000C1CF982F9F7D9554933028F40C5F1F4F06
:1006E000FFE3F9830DC0833631F0833771F0833532
:1006F00009F05BC022C0F801808189830E5F1F4F23
:1007000044244394512C540115C03801F2E06F0E7B
:10071000711CF801A080B18026FF03C0652D70E038
:1007200002C06FEF7FEFC5012C870E94D9042C0116
:1007300083012C852F77222E17C03801F2E06F0E2F
:10074000711CF801A080B18026FF03C0652D70E008
:1007500002C06FEF7FEFC5012C870E94CE042C01F1
:100760002C852068222E830123FC1BC0832D90E062
:1007700048165906B0F4B70180E290E00E94E40404
:100780003A94F4CFF50127FC859127FE81915F0112
:10079000B70190E00E94E40431103A94F1E04F1A5E
:1007A00051084114510471F7E5C0843611F08936BF
:1007B00039F5F80127FF07C060817181828193813B
:1007C0000C5F1F4F08C060817181882777FD80957D
:1007D000982F0E5F1F4F2F76722E97FF09C09095AE
:1007E0008095709561957F4F8F4F9F4F2068722E37
:1007F0002AE030E0A4010E941C05A82EA81844C0DD
:10080000853729F42F7EB22E2AE030E025C0F22F62
:10081000F97FBF2E8F36C1F018F4883579F0B4C057
:10082000803719F0883721F0AFC02F2F2061B22E0A
:10083000B4FE0DC08B2D8460B82E09C024FF0AC001
:100840009F2F9660B92E06C028E030E005C020E159
:1008500030E002C020E132E0F801B7FE07C060815D
:100860007181828193810C5F1F4F06C0608171810D
:1008700080E090E00E5F1F4FA4010E941C05A82E8F
:10088000A818FB2DFF777F2E76FE0BC0372D3E7FFD
:10089000A51450F474FE0AC072FC08C0372D3E7EC9
:1008A00005C0BA2C372D03C0BA2C01C0B52C34FFBB
:1008B0000DC0FE01EA0DF11D8081803311F4397EF7
:1008C00009C032FF06C0B394B39404C0832F867866
:1008D00009F0B39433FD13C030FF06C05A2CB31493
:1008E00018F4530C5B18B32CB31468F4B70180E20E
:1008F00090E03C870E94E404B3943C85F5CFB314A8
:1009000010F43B1801C0312C34FF12C0B70180E352
:1009100090E03C870E94E4043C8532FF17C031FD23
:1009200003C088E790E002C088E590E0B7010CC002
:10093000832F867859F031FF02C08BE201C080E23C
:1009400037FD8DE2B70190E00E94E404A51438F46D
:10095000B70180E390E00E94E4045A94F7CFAA9490
:10096000F401EA0DF11D8081B70190E00E94E404DA
:10097000A110F5CF332009F451CEB70180E290E009
:100980000E94E4043A94F6CFF7018681978102C071
:100990008FEF9FEF2C96E2E10C949605FC010590F9
:1009A000615070400110D8F7809590958E0F9F1F71
:1009B0000895FC016150704001900110D8F78095B6
:1009C00090958E0F9F1F08950F931F93CF93DF93E2
:1009D000FB01238121FD03C08FEF9FEF28C022FF81
:1009E00016C046815781248135814217530744F44C
:1009F000A081B1819D012F5F3F4F318320838C9374
:100A0000268137812F5F3F4F3783268310C0EB014C
:100A1000092F182F0084F185E02D0995892BE1F627
:100A20008E819F8101969F838E83812F902FDF91EE
:100A3000CF911F910F910895FA01AA27283051F103
:100A4000203181F1E8946F936E7F6E5F7F4F8F4FFF
:100A50009F4FAF4FB1E03ED0B4E03CD0670F781F5E
:100A6000891F9A1FA11D680F791F8A1F911DA11D43
:100A70006A0F711D811D911DA11D20D009F468947C
:100A80003F912AE0269F11243019305D3193DEF624
:100A9000CF010895462F4770405D4193B3E00FD0DA
:100AA000C9F7F6CF462F4F70405D4A3318F0495DC5
:100AB00031FD4052419302D0A9F7EACFB4E0A695A8
:100AC0009795879577956795BA95C9F700976105CA
:100AD000710508959B01AC010A2E06945795479520
:100AE00037952795BA95C9F7620F731F841F951F15
:100AF000A01D08952F923F924F925F926F927F9226
:100B00008F929F92AF92BF92CF92DF92EF92FF921D
:100B10000F931F93CF93DF93CDB7DEB7CA1BDB0BC9
:100B20000FB6F894DEBF0FBECDBF09942A8839886E
:100B300048885F846E847D848C849B84AA84B98475
:100B4000C884DF80EE80FD800C811B81AA81B98181
:100B5000CE0FD11D0FB6F894DEBF0FBECDBFED0195
:060B60000895F894FFCF98
:100B66004C6F67202564206C6F675F64656720257E
:100B760064004C6174202564206C61745F64656751
:100B860020256400686F75722025642C206D696EBF
:0E0B96002025642C20736563202564002C004C
:00000001FF
