:100000000C9452000C946F000C946F000C946F00D1
:100010000C946F000C946F000C946F000C946F00A4
:100020000C946F000C946F000C946F000C946F0094
:100030000C946F000C946F000C946F000C946F0084
:100040000C946F000C946F000C946F000C946F0074
:100050000C946F000C946F000C946F000C946F0064
:100060000C946F000C946F004E414E494E49545908
:10007000494E46CDCCCC3D0AD7233C17B7D1387773
:10008000CC2B329595E6241FB14F0A000020410089
:1000900000C84200401C4620BCBE4CCA1B0E5AAED3
:1000A000C59D740011241FBECFEFD8E0DEBFCDBFC9
:1000B00011E0A0E0B1E0E0EAF5E102C005900D92A8
:1000C000AE34B107D9F711E0AEE4B1E001C01D9242
:1000D000A235B107E1F70E945A030C94CE0A0C94A2
:1000E00000009093C5008093C400E1ECF0E08081B3
:1000F0008860808380818061808386E08093C200F5
:1001000008959091C00095FFFCCF8093C60008959C
:100110008091C00087FFFCCF8091C60008951F9397
:10012000CF93DF93EC0110E0212F332727FD30958B
:10013000FE0101900020E9F73197EC1BFD0BE2175F
:10014000F30740F0FE01E20FF31F80810E9481005F
:100150001F5FEACF8DE00E9481008AE0DF91CF919E
:100160001F910C9481004F925F926F927F928F92B9
:100170009F92AF92BF92CF92DF92EF92FF920F9336
:100180001F93CF93DF937C012A013B01D22ECB0139
:10019000BA010E9467044B015C018B014AE050E008
:1001A000B701C4010E94130620E030E0A901C30199
:1001B000B2010E94F00387FF08C077FA709477F8C5
:1001C00070940027112708191909E70109900020E8
:1001D000E9F72197CE19DF099C2E9394DD27C7FDFF
:1001E000D095F701EC0FFD1F8EE28083CD0DD11D60
:1001F000D7FCDA95C92CDD24C7FCD094CC15DD05DD
:100200004CF1B801882777FD8095982F0E949F04B4
:100210009B01AC01C301B2010E94830320E030E0E6
:1002200040E251E40E944F052B013C010E9467040B
:10023000DC01CB018C014AE050E0A12CB12CB501CE
:100240000E941306F701EC0DFD1DD5018C918083F2
:100250009394D0CFDF91CF911F910F91FF90EF90AA
:10026000DF90CF90BF90AF909F908F907F906F90D6
:100270005F904F9008958F929F92AF92BF92CF92CE
:10028000DF92EF92FF920F931F93CF93DF93CDB73F
:10029000DEB7AC970FB6F894DEBF0FBECDBF8C01B2
:1002A00060E071E00E94DE05E0E00097A9F0FF2425
:1002B000F394FE0EEE0FFF0B21E030E02C0F3D1FFC
:1002C000E20FF31F9183808360E071E080E090E0B3
:1002D0000E94DE05EF2DE9CF8B859C850E94C0052D
:1002E000F801E458FF4F8083882309F4DFC01AA681
:1002F0001BA61CA6E981FA8180818AA781818BA730
:100300001FA218A619A682818FA3838188A71CA289
:100310001DA21EA284818CA385818DA3CE018A9605
:100320000E94C005F801E758FF4F8083893010F420
:100330008F5E01C087508083CE0187960E94C005E2
:10034000F801E658FF4F8083CE0184960E94C005D5
:10035000F801E558FF4F808319A21AA21BA2CB8097
:10036000DC80F601808189A381818AA3CE018196F8
:100370000E94C005F82EC60102960E94BC054B01E2
:100380005C016F2D772767FD7095872F972F0E944F
:100390009F046B017C0120E030E040E752E4C5019E
:1003A000B4010E94F5039B01AC01C701B6010E9494
:1003B00084036B017C015801F0E8AF0EB11CF5011C
:1003C000608371838283938362E071E08D819E817B
:1003D0000E94E305892B49F4F7FAF094F7F8F094BA
:1003E000F501C082D182E282F3821D8E1E8E1F8EA5
:1003F00018A2EF80F884F70180818D8F81818E8F24
:1004000082818F8FCE014D960E94C005D82EC701E4
:1004100003960E94BC054B015C016D2D772767FD9B
:100420007095872F972F0E949F046B017C0120E01D
:1004300030E040E752E4C501B4010E94F5039B019E
:10044000AC01C701B6010E9484036B017C01580115
:10045000F4E8AF0EB11CF50160837183828393834E
:1004600064E071E089859A850E94E305892B49F44F
:10047000F7FAF094F7F8F094F501C082D182E282A5
:10048000F38289899A890E94BC05F801E857FF4FD9
:1004900060837183828393838D859E850E94C005CE
:1004A000F801E358FF4F808380E001C081E0AC9603
:1004B0000FB6F894DEBF0FBECDBFDF91CF911F9175
:1004C0000F91FF90EF90DF90CF90BF90AF909F90F3
:1004D0008F9008958F929F92AF92BF92CF92DF92AA
:1004E000EF92FF920F931F93CF93DF938C01EC0158
:1004F000C858DF4F82589F4F7C0186E0D82E95E088
:10050000C92E24E0B22E33E0A32E42E0942E88249C
:1005100083940E948800982F2881211104C084327E
:10052000C1F78882F6CF213031F4873411F49882F4
:10053000F0CF1882EECF223021F48035D1F7A88297
:10054000E8CF233021F48734A1F7B882E2CF2430FA
:1005500021F4873471F7C882DCCF253021F481344F
:1005600041F7D882D6CF2630A1F68D3061F0F70161
:10057000808121E0280F2083F801E80FF11D87FD1D
:10058000FA959083C6CFC8010E943B011882F701FB
:100590001082DF91CF911F910F91FF90EF90DF902C
:1005A000CF90BF90AF909F908F900895EF92FF9261
:1005B0000F931F93CF93DF93CDB7DEB7E2970FB6BC
:1005C000F894DEBF0FBECDBF7C01FC01EC57FF4F9E
:1005D000408151816281738126E08E010F5F1F4F40
:1005E000C8010E94B30086E091E00E948F00C8011C
:1005F0000E948F00F701E058FF4F408151816281D6
:10060000738126E0C8010E94B30082E191E00E945C
:100610008F00C8010E948F00F701E857FF4F40810B
:1006200051816281738121E0C8010E94B3008DE194
:1006300091E00E948F00C8010E948F00F701E558E9
:10064000FF4F80811F928F93319780811F928F93EC
:10065000319780811F928F9388E291E09F938F93CF
:100660001F930F930E944B06C8010E948F00F70151
:10067000E358FF4F80811F928F9380E491E09F9316
:100680008F931F930F930E944B06C8010E948F0007
:100690000FB6F894DEBF0FBECDBFE2960FB6F8944A
:1006A000DEBF0FBECDBFDF91CF911F910F91FF90A5
:1006B000EF900895CF93DF93CDB7DEB7C15BD1093B
:1006C0000FB6F894DEBF0FBECDBF8FE290E00E9460
:1006D0007100C455DF4F1882CC5AD040EA961FAE45
:1006E000EA97CE0101960E946A02CE0101960E940D
:1006F000D6022FEF8FEF9CE2215080409040E1F72F
:1007000000C00000EECF5058BB27AA270E949B03D1
:100710000C9415050E94070538F00E940E0520F084
:1007200039F49F3F19F426F40C9404050EF4E09577
:10073000E7FB0C94FE04E92F0E94260558F3BA1734
:10074000620773078407950720F079F4A6F50C94E7
:1007500048050EF4E0950B2EBA2FA02D0B01B90120
:1007600090010C01CA01A0011124FF27591B99F027
:10077000593F50F4503E68F11A16F040A22F232F33
:10078000342F4427585FF3CF469537952795A79583
:10079000F0405395C9F77EF41F16BA0B620B730B2A
:1007A000840BBAF09150A1F0FF0FBB1F661F771F9B
:1007B000881FC2F70EC0BA0F621F731F841F48F450
:1007C000879577956795B795F7959E3F08F0B0CFD9
:1007D0009395880F08F09927EE0F979587950895C0
:1007E0000E94DA0408F481E008950E9409040C9440
:1007F00015050E940E0558F00E94070540F029F4E7
:100800005F3F29F00C94FE0451110C9449050C949F
:1008100004050E94260568F39923B1F3552391F34B
:10082000951B550BBB27AA2762177307840738F05F
:100830009F5F5F4F220F331F441FAA1FA9F335D0BC
:100840000E2E3AF0E0E832D091505040E695001C70
:10085000CAF72BD0FE2F29D0660F771F881FBB1F2A
:10086000261737074807AB07B0E809F0BB0B802D08
:10087000BF01FF2793585F4F3AF09E3F510578F034
:100880000C94FE040C9449055F3FE4F3983ED4F3C6
:10089000869577956795B795F7959F5FC9F7880F08
:1008A000911D9695879597F90895E1E0660F771F5A
:1008B000881FBB1F621773078407BA0720F0621BEB
:1008C000730B840BBA0BEE1F88F7E09508950E9416
:1008D0006E046894B1110C94490508950E942E0588
:1008E00088F09F5798F0B92F9927B751B0F0E1F0F1
:1008F000660F771F881F991F1AF0BA95C9F714C0A1
:10090000B13091F00E944805B1E008950C9448057B
:10091000672F782F8827B85F39F0B93FCCF38695D9
:1009200077956795B395D9F73EF490958095709536
:1009300061957F4F8F4F9F4F0895E89409C097FBB3
:100940003EF490958095709561957F4F8F4F9F4FA6
:100950009923A9F0F92F96E9BB279395F6958795EA
:1009600077956795B795F111F8CFFAF4BB0F11F4AD
:1009700060FF1BC06F5F7F4F8F4F9F4F16C0882354
:1009800011F096E911C0772321F09EE8872F762F8A
:1009900005C0662371F096E8862F70E060E02AF0CB
:1009A0009A95660F771F881FDAF7880F96958795B7
:1009B00097F90895990F0008550FAA0BE0E8FEEF8C
:1009C00016161706E807F907C0F012161306E40713
:1009D000F50798F0621B730B840B950B39F40A260C
:1009E00061F0232B242B252B21F408950A2609F4EA
:1009F000A140A6958FEF811D811D089597F99F67EE
:100A000080E870E060E008959FEF80EC0895002496
:100A10000A941616170618060906089500240A9463
:100A200012161306140605060895092E0394000CE9
:100A300011F4882352F0BB0F40F4BF2B11F460FF78
:100A400004C06F5F7F4F8F4F9F4F089557FD9058A1
:100A5000440F551F59F05F3F71F04795880F97FB82
:100A6000991F61F09F3F79F087950895121613063C
:100A70001406551FF2CF4695F1DF08C0161617066B
:100A80001806991FF1CF86957105610508940895A0
:100A9000E894BB2766277727CB0197F908950E9432
:100AA00062050C9415050E94070538F00E940E059A
:100AB00020F0952311F00C94FE040C9404051124ED
:100AC0000C9449050E94260570F3959FC1F3950F7C
:100AD00050E0551F629FF001729FBB27F00DB11DC2
:100AE000639FAA27F00DB11DAA1F649F6627B00D52
:100AF000A11D661F829F2227B00DA11D621F739F3B
:100B0000B00DA11D621F839FA00D611D221F749F48
:100B10003327A00D611D231F849F600D211D822F8F
:100B2000762F6A2F11249F5750409AF0F1F08823B6
:100B30004AF0EE0FFF1FBB1F661F771F881F9150E3
:100B40005040A9F79E3F510580F00C94FE040C9490
:100B500049055F3FE4F3983ED4F386957795679512
:100B6000B795F795E7959F5FC1F7FE2B880F911D0D
:100B70009695879597F90895662777270C944008EE
:100B8000FC0188279927E89421912032E9F3293044
:100B900010F02E30C8F32B3241F02D3239F4689426
:100BA00004C00E942906820F911D219120532A30F2
:100BB000C0F31EF4909581959F4F08954EE451E047
:100BC0000E94EC050895FB01DC018D9101908019D4
:100BD0000110D9F3990B0895FA01A191B081009702
:100BE00019F41097E1F0CD01DC01CD010D9000204A
:100BF00011F4C00113C0FB012191222319F020152B
:100C0000D9F7F3CFFB012191201519F41E9211960B
:100C100006C02223C1F70D900020A1F7D001FA01F0
:100C2000A193B08308954532510520F4423010F06D
:100C30000C941E06FB011082CB010895BB274A309D
:100C400031F4992322F4BDE2909581959F4F0C9445
:100C500032067AE0979F902D879F802D910D112469
:100C60000895BB27FB015527AA27880F991FAA1FA4
:100C7000A41710F0A41B83955051B9F7A05DAA33B7
:100C800008F0A95DA193009779F7B111B193119282
:100C9000CB010C94D409AEE0B0E0E1E5F6E00C94B1
:100CA000960A0D891E8986E08C831A8309838FEF4B
:100CB0009FE79E838D83AE01475E5F4F6F89788D7E
:100CC000CE0101960E946E062F813885F801E20F51
:100CD000F31F10822E96E4E00C94B20AACE0B0E070
:100CE000E4E7F6E00C94880A7C016B018A01FC01C0
:100CF00017821682838181FFBDC1CE0101964C010E
:100D0000F7019381F60193FD859193FF81916F0126
:100D1000882309F4ABC1853239F493FD859193FFA3
:100D200081916F01853229F4B70190E00E94E409B6
:100D3000E7CF512C312C20E02032A0F48B3269F027
:100D400030F4803259F0833269F420612CC08D3246
:100D500039F0803339F4216026C02260246023C03A
:100D6000286021C027FD27C030ED380F3A3078F4D5
:100D700026FF06C0FAE05F9E300D1124532E13C0EB
:100D80008AE0389E300D1124332E20620CC08E3242
:100D900021F426FD6BC1206406C08C3611F4206856
:100DA00002C0883641F4F60193FD859193FF81914D
:100DB0006F018111C1CF982F9F7D9554933028F4F6
:100DC0000C5F1F4FFFE3F9830DC0833631F083378B
:100DD00071F0833509F05BC022C0F80180818983FE
:100DE0000E5F1F4F44244394512C540115C0380109
:100DF000F2E06F0E711CF801A080B18026FF03C0E5
:100E0000652D70E002C06FEF7FEFC5012C870E9457
:100E1000C9092C0183012C852F77222E17C0380198
:100E2000F2E06F0E711CF801A080B18026FF03C0B4
:100E3000652D70E002C06FEF7FEFC5012C870E9427
:100E4000BE092C012C852068222E830123FC1BC0A7
:100E5000832D90E048165906B0F4B70180E290E087
:100E60000E94E4093A94F4CFF50127FC859127FE0E
:100E700081915F01B70190E00E94E40931103A943A
:100E8000F1E04F1A51084114510471F7E5C084365E
:100E900011F0893639F5F80127FF07C060817181AB
:100EA000828193810C5F1F4F08C060817181882708
:100EB00077FD8095982F0E5F1F4F2F76722E97FF2C
:100EC00009C090958095709561957F4F8F4F9F4F8A
:100ED0002068722E2AE030E0A4010E941C0AA82E8D
:100EE000A81844C0853729F42F7EB22E2AE030E0BE
:100EF00025C0F22FF97FBF2E8F36C1F018F4883548
:100F000079F0B4C0803719F0883721F0AFC02F2FA7
:100F10002061B22EB4FE0DC08B2D8460B82E09C0A6
:100F200024FF0AC09F2F9660B92E06C028E030E04B
:100F300005C020E130E002C020E132E0F801B7FE58
:100F400007C060817181828193810C5F1F4F06C051
:100F50006081718180E090E00E5F1F4FA4010E94CC
:100F60001C0AA82EA818FB2DFF777F2E76FE0BC03B
:100F7000372D3E7FA51450F474FE0AC072FC08C0E1
:100F8000372D3E7E05C0BA2C372D03C0BA2C01C0C8
:100F9000B52C34FF0DC0FE01EA0DF11D80818033B8
:100FA00011F4397E09C032FF06C0B394B39404C073
:100FB000832F867809F0B39433FD13C030FF06C049
:100FC0005A2CB31418F4530C5B18B32CB31468F4F4
:100FD000B70180E290E03C870E94E409B3943C852D
:100FE000F5CFB31410F43B1801C0312C34FF12C0FC
:100FF000B70180E390E03C870E94E4093C8532FF22
:1010000017C031FD03C088E790E002C088E590E09A
:10101000B7010CC0832F867859F031FF02C08BE2F4
:1010200001C080E237FD8DE2B70190E00E94E40943
:10103000A51438F4B70180E390E00E94E4095A94C3
:10104000F7CFAA94F401EA0DF11D8081B70190E079
:101050000E94E409A110F5CF332009F451CEB70165
:1010600080E290E00E94E4093A94F6CFF70186818D
:10107000978102C08FEF9FEF2C96E2E10C94A40AB7
:10108000A0E0B0E0E6E4F8E00C948C0AEC017B010F
:101090006115710519F0DB018D939C938E010F5F33
:1010A0001F4F7880872D90E00E949D09892B11F0B9
:1010B000E801F4CFBDE27B1205C00F5F1F4F7980BE
:1010C000C1E008C0EBE27E1204C08E010E5F1F4F2C
:1010D0007980C0E06801F1E0CF1AD10843E050E028
:1010E00060E770E0C6010E94A609892BF1F468014F
:1010F00022E0C20ED11C45E050E06BE670E0C60174
:101100000E94A609892B21F4680187E0C80ED11C32
:10111000E114F10419F0D701CD92DC92C111FFC0A6
:1011200060E070E080E89FE703C143E050E068E6DC
:1011300070E0C6010E94A609892B51F4E114F10464
:1011400009F4F2C00E5F1F4FF70111830083ECC05A
:10115000680160E070E0CB0100E010E0F601D0ED46
:10116000D70DDA3058F52C2F2260622E2C2F2870E4
:10117000C2FF05C0211128C00F5F1F4F25C02223C9
:1011800011F001501109A5E0B0E09B01AC010E94F3
:101190007D0A4B015C01880C991CAA1CBB1CC50173
:1011A000B4016D0F711D811D911D6839A9E97A0780
:1011B0008A07A9E19A0740F0C66005C0DE3F51F4F6
:1011C000C3FD44C0C8606C2EBFEFCB1ADB0A708031
:1011D000C62DC4CF2D2F2F7D2531C1F540814D3235
:1011E00011F4C06106C04B3221F0319621E030E0AD
:1011F00006C03296D60111964C9122E030E0A0ED67
:10120000A40FAA3018F0E21BF30B20C040E050E01E
:101210004038BCE05B075CF49A01220F331F220FB9
:10122000331F420F531F440F551F4A0F511D319654
:10123000DF0111972C91A0EDA20FAA3048F3C4FF53
:1012400003C0519541955109040F151FC1FF07C0F7
:10125000E114F10421F03197D701ED93FC930E9442
:101260009D04C370C33019F06B017C0106C06B0193
:101270007C01F7FAF094F7F8F09420E030E0A9014F
:10128000C701B6010E94F003882309F445C017FF87
:1012900006C0119501951109C7E8D0E002C0CFE959
:1012A000D0E05E01B8E1AB1AB1084601BE2DAF2D0A
:1012B00090E2E92EF12C0E151F0584F0FE01259118
:1012C000359145915491B4018B2F9A2F0E944F056F
:1012D0004B01B82FA92F0E191F09EDCF2497F594B4
:1012E000E794CA15DB0539F76401EB2EFA2E8E2D33
:1012F000880F8F2D881F8F3F49F020E030E0A90133
:10130000C701B6010E94F003811106C082E290E09D
:101310009093510180935001C701B60109C060E06C
:1013200070E080E89FEF04C060E070E080EC9FE731
:10133000CDB7DEB7EEE00C94A80A91110C947A0AAE
:10134000803219F089508550C8F70895FB01DC01FF
:101350004150504088F08D9181341CF08B350CF455
:10136000805E659161341CF06B350CF4605E861B09
:10137000611171F3990B0895881BFCCFFC01059056
:10138000615070400110D8F7809590958E0F9F1F87
:101390000895FC016150704001900110D8F78095CC
:1013A00090958E0F9F1F0895DC01FC01672F7191AE
:1013B0007723E1F7329704C07C916D93708362913B
:1013C000AE17BF07C8F308950F931F93CF93DF9312
:1013D000FB01238121FD03C08FEF9FEF28C022FF77
:1013E00016C046815781248135814217530744F442
:1013F000A081B1819D012F5F3F4F318320838C936A
:10140000268137812F5F3F4F3783268310C0EB0142
:10141000092F182F0084F185E02D0995892BE1F61D
:101420008E819F8101969F838E83812F902FDF91E4
:10143000CF911F910F910895FA01AA27283051F1F9
:10144000203181F1E8946F936E7F6E5F7F4F8F4FF5
:101450009F4FAF4FB1E03ED0B4E03CD0670F781F54
:10146000891F9A1FA11D680F791F8A1F911DA11D39
:101470006A0F711D811D911DA11D20D009F4689472
:101480003F912AE0269F11243019305D3193DEF61A
:10149000CF010895462F4770405D4193B3E00FD0D0
:1014A000C9F7F6CF462F4F70405D4A3318F0495DBB
:1014B00031FD4052419302D0A9F7EACFB4E0A6959E
:1014C0009795879577956795BA95C9F700976105C0
:1014D000710508959B01AC010A2E06945795479516
:1014E00037952795BA95C9F7620F731F841F951F0B
:1014F000A01D08959927882708950E94BF0AA59FD7
:10150000900DB49F900DA49F800D911D11240895FE
:101510002F923F924F925F926F927F928F929F9203
:10152000AF92BF92CF92DF92EF92FF920F931F93F1
:10153000CF93DF93CDB7DEB7CA1BDB0B0FB6F894A2
:10154000DEBF0FBECDBF09942A88398848885F84E2
:101550006E847D848C849B84AA84B984C884DF8053
:10156000EE80FD800C811B81AA81B981CE0FD11D37
:101570000FB6F894DEBF0FBECDBFED010895A29F58
:10158000B001B39FC001A39F700D811D1124911D57
:10159000B29F700D811D1124911D0895F894FFCF05
:1015A0002C00530057006C6F6E6769747564653A60
:1015B00020006C617469747564653A2000416C7434
:1015C00069747564653A2000686F75722025642C13
:1015D000206D696E2025642C2073656320256400CE
:0E15E000736174656C6C69746573202564001A
:00000001FF
