:100000000C9478000C9429020C949E010C947701B6
:100010000C9495000C9444010C9495000C9495005C
:100020000C9495000C9495000C9495000C94DB01B5
:100030000C9495000C9495000C9495000C949500EC
:100040000C9495000C9495000C9495000C949500DC
:100050000C9495000C94B5010C9495000C949500AB
:100060000C9495000C949500084AD73B3BCE016E4A
:1000700084BCBFFDC12F3D6C74319ABD56833DDAFF
:100080003D00C77F11BED9E4BB4C3E916BAAAABE0E
:10009000000000803F05A84CCDB2D44EB93836A937
:1000A000020C50B9918688083CA6AAAA2ABE000074
:1000B00000803F004E414E494E495459494E46CD6D
:1000C000CCCC3D0AD7233C17B7D13877CC2B32950F
:1000D00095E6241FB14F0A000020410000C84200ED
:1000E000401C4620BCBE4CCA1B0E5AAEC59D7400B7
:1000F00011241FBECFEFD8E0DEBFCDBF13E0A0E0DC
:10010000B1E0E8E5F6E302C005900D92AA37B10729
:10011000D9F718E0AAE7B3E001C01D92A333B107F5
:10012000E1F70E9460100C942A1B0C940000EF92DF
:10013000FF920F931F93CF93DF938FE290E00E9483
:10014000660260E089E10E943E098FEF97E4019723
:10015000F1F700C0000061E089E10E943E090E94C1
:100160007D0688EE93E00E9446085E9A5F9A289A80
:10017000EDE6F0E080818064808380818068808308
:10018000E8E6F0E0808184608083CBE6D0E088817F
:10019000816088838081816080838BEDE82E83E09D
:1001A000F82EF70110821092D6038CE08093D703CB
:1001B0001092D8031092D90353985B9A09E610E085
:1001C000F80180818C608083E99A0E940F0B0E9465
:1001D0001D0A5298389A5A9AF80180818360808368
:1001E000E89A888180688883C8EED7E088E18883B0
:1001F000198218A21AA2F70110820E942A0D0E94E9
:1002000004108881DF91CF911F910F91FF90EF90A3
:100210000C942C0E809100018823A9F1109200010A
:1002200080E094E0E8EEF3E0DF019C011D922150B4
:100230003040E1F7CF010E94950886E69EE00197E5
:10024000F1F7000010920A0880910101813071F0ED
:10025000833021F48AE793E00C94450A843011F04E
:10026000823041F48AE793E00E945B0A4091E807FC
:1002700060E005C0853039F44091E80761E089EE1F
:1002800097E00C94D80E08951F920F920FB60F921C
:1002900011248F939F9381E0809300014E9910C0A9
:1002A000809101018F5F8093010183E397E00197C3
:1002B000F1F74E9BFECF83E397E00197F1F710C073
:1002C0004F990EC080910101815009F485E080931F
:1002D000010183E397E00197F1F74F9BFECFEBCF4E
:1002E0009F918F910F900FBE0F901F9018951F92A6
:1002F0000F920FB60F9211248F939F9391E09093DA
:100300000001189914C0809101018F5F863018F4A4
:100310008093010102C09093010183E397E001976C
:10032000F1F7189BFECF83E397E00197F1F79F91D8
:100330008F910F900FBE0F901F9018951F920F92E4
:100340000FB60F9211248F939F9380918C039091FD
:100350008D03019690938D0380938C039F918F91D1
:100360000F900FBE0F901F9018951F920F920FB60F
:100370000F9211242F933F934F935F936F937F932B
:100380008F939F93AF93BF93EF93FF938AE793E08D
:100390000E945E0AFF91EF91BF91AF919F918F9163
:1003A0007F916F915F914F913F912F910F900FBE71
:1003B0000F901F9018951F920F920FB60F92112455
:1003C0002F933F934F935F936F937F938F939F935D
:1003D000AF93BF93EF93FF938091DA03811120C015
:1003E0008091D9038B5F8C3318F48093D90307C0B5
:1003F0001092D9038091D8038F5F8093D8038091A6
:10040000D8038C3338F01092D8038091D7038F5FD4
:100410008093D7038091D703883110F01092D703CF
:1004200080910101833021F48AE793E00E94B60AAB
:10043000FF91EF91BF91AF919F918F917F916F91BC
:100440005F914F913F912F910F900FBE0F901F9092
:1004500018951F920F920FB60F9211242F933F936E
:100460004F935F936F937F938F939F93AF93BF93BC
:10047000EF93FF938BE493E00E9484028091E9075D
:10048000823049F46091E80789EE97E00E94C10F3D
:1004900080930A080AC0813041F46091E80789EE30
:1004A00097E00E94C10F80930908FF91EF91BF91DF
:1004B000AF919F918F917F916F915F914F913F91FC
:1004C0002F910F900FBE0F901F9018959093C5001D
:1004D0008093C400E1ECF0E08081886080838081BB
:1004E0008061808386E08093C20008959091C0006F
:1004F00095FFFCCF8093C60008958091C00087FFD0
:10050000FCCF8091C60008951F93CF93DF93EC0139
:1005100010E0812F992787FD9095FE010190002022
:10052000E9F73197EC1BFD0BE817F90740F0FE01E6
:10053000E80FF91F80810E9476021F5FEACF8DE0ED
:100540000E9476028AE0DF91CF911F910C9476028F
:100550003F924F925F926F927F928F929F92AF9253
:10056000BF92CF92DF92EF92FF920F931F93CF93A0
:10057000DF93EC012A013B01B22ECB01BA010E94AC
:10058000C8136B017C018B014AE050E0BE01C6013B
:100590000E946F1620E030E0A901C301B2010E9461
:1005A0004C1387FF08C077FA709477F8709400278F
:1005B00011270C191D09FE0101900020E9F7319760
:1005C000EC1BFD0B332433943E0E8E2E992487FCB6
:1005D0009094FE01E80DF91D8EE28083E12CF12C50
:1005E0008B0C911CB7FC9A94C32CCE0CDD24C7FC59
:1005F000D094BFEFEB1AFB0A8C149D0444F1B801B0
:10060000882777FD8095982F0E9400149B01AC01EC
:10061000C301B2010E946D1220E030E040E251E4DB
:100620000E941E152B013C010E94C813DC01CB0166
:100630008C014AE050E0A12CB12CB5010E946F164C
:10064000FE01EC0DFD1DD5018C918083CDCFDF9196
:10065000CF911F910F91FF90EF90DF90CF90BF90BF
:10066000AF909F908F907F906F905F904F903F9052
:1006700008954E990EC08FEF93E20197F1F700C0F5
:1006800000004E9BFECF8FEF93E20197F1F700C081
:10069000000008954F925F926F927F928F929F9287
:1006A000AF92BF92CF92DF92EF92FF920F931F9380
:1006B000CF93DF93CDB7DEB7A2970FB6F894DEBF26
:1006C0000FBECDBF8C01F89469E473E00E94281638
:1006D000E0E00097A9F0FF24F394FE0EEE0FFF0B6D
:1006E00021E030E02C0F3D1FE20FF31F9183808348
:1006F00069E473E080E090E00E942816EF2DE9CFD6
:100700008B859C850E940A16F801E65BFF4F7F01EE
:10071000892B19F4108281E0DDC018A219A21AA257
:10072000E981FA81808188A3818189A31D8E1E8E33
:100730001F8E82818D8F83818E8F1A8E1B8E1C8ED1
:1007400084818A8F85818B8FCE0180960E940A16C4
:10075000F801E95BFF4F8083893010F48F5E01C0A0
:1007600087508083CE014D960E940A16F801E85BFF
:10077000FF4F8083CE014A960E940A16F801E75B7C
:10078000FF4F80831F8A188E198EAB80BC80F501C5
:1007900080818F8B8181888FCE0147960E940A16B7
:1007A000D82EC50102960E9406164B015C016D2DE4
:1007B000772767FD7095872F972F0E9400142B01D4
:1007C0003C0120E030E040E752E4C501B4010E9462
:1007D00056139B01AC01C301B2010E946E124B0182
:1007E0005C016801FCE4CF0ED11CF60160837183CB
:1007F000828393836EE473E08D819E810E9438161C
:10080000892B49F4B7FAB094B7F8B094F601808216
:100810009182A282B3821B8A1C8A1D8A1E8ACF8083
:10082000D884F60180818B8B81818C8B82818D8B2A
:10083000CE0143960E940A16B82EC60103960E9466
:1008400006162B013C016B2D772767FD7095872FCE
:10085000972F0E9400144B015C0120E030E040E73C
:1008600052E4C301B2010E9456139B01AC01C501C1
:10087000B4010E946E124B015C016801F0E5CF0EDD
:10088000D11CF601608371838283938360E573E0FA
:1008900089859A850E943816892B49F4B7FAB09455
:1008A000B7F8B094F60180829182A282B3828989DE
:1008B0009A890E940616F801EC5AFF4F60837183F3
:1008C000828393838D859E850E940A16F70180831B
:1008D000789480E0A2960FB6F894DEBF0FBECDBF2D
:1008E000DF91CF911F910F91FF90EF90DF90CF900C
:1008F000BF90AF909F908F907F906F905F904F9040
:1009000008958F929F92AF92BF92CF92DF92EF9213
:10091000FF920F931F93CF93DF938C01F894EC0118
:10092000CA5BDF4F855B9F4F7C0186E0D82E95E048
:10093000C92E24E0B22E33E0A32E42E0942E882468
:1009400083940E947D02982F2881211104C0843253
:10095000C1F78882F6CF213031F4873411F49882C0
:10096000F0CF1882EECF223021F48035D1F7A88263
:10097000E8CF233021F48734A1F7B882E2CF2430C6
:1009800021F4873471F7C882DCCF253021F481341B
:1009900041F7D882D6CF2630A1F68D3061F0F7012D
:1009A000808121E0280F2083F801E80FF11D87FDE9
:1009B000FA959083C6CF7894C8010E944A031882A2
:1009C000F7011082DF91CF911F910F91FF90EF906F
:1009D000DF90CF90BF90AF909F908F900895EF924F
:1009E000FF920F931F93CF93DF93CDB7DEB76E9730
:1009F0000FB6F894DEBF0FBECDBF7C01FC01E05BFB
:100A0000FF4F408151816281738126E08E010F5F2B
:100A10001F4FC8010E94A80282E593E00E94840251
:100A2000C8010E948402F701E45BFF4F40815181BD
:100A30006281738126E0C8010E94A80287E593E0E5
:100A40000E948402C8010E948402F701EC5AFF4F01
:100A5000408151816281738121E0C8010E94A80216
:100A60008CE593E00E948402C8010E948402F70191
:100A7000E75BFF4F80811F928F93319780811F9298
:100A80008F93319780811F928F9381E693E09F939C
:100A90008F931F930F930E94A716C8010E94840290
:100AA000F701E65BFF4F80811F928F9384E393E011
:100AB0009F938F931F930F930E94A716C8010E94C4
:100AC00084020FB6F894DEBF0FBECDBF6E960FB690
:100AD000F894DEBF0FBECDBFDF91CF911F910F9174
:100AE000FF90EF9008952F923F924F925F926F92F6
:100AF0007F928F929F92AF92BF92CF92DF92EF92AE
:100B0000FF920F931F93CF93DF93CDB7DEB72C9750
:100B10000FB6F894DEBF0FBECDBF1C016A017B018A
:100B20000D831E832F833887FC01E45BFF4F2BED81
:100B30003FE049E450E460817181828193810E94A9
:100B40001E1520E030E044E353E40E9456132B01CD
:100B50003C012BED3FE049E450E4C701B6010E949F
:100B60001E1520E030E044E353E40E9456134B018D
:100B70005C019B01AC01C301B2010E946D1220E037
:100B800030E040E05FE30E941E150E948B156B0170
:100B90007C01C301B2010E9451132B013C01C5012C
:100BA000B4010E94511369837A838B839C83F10182
:100BB000E05BFF4F2BED3FE049E450E46081718141
:100BC000828193810E941E1520E030E044E353E4CB
:100BD0000E9456134B015C012BED3FE049E450E4C9
:100BE0006D817E818F8198850E941E1520E030E006
:100BF00044E353E40E9456139B01AC01C501B401C8
:100C00000E946D1220E030E040E05FE30E941E157C
:100C10000E948B154B015C01A7019601C701B6012B
:100C20000E941E156B017C0129813A814B815C81F8
:100C3000C301B2010E941E15A50194010E941E1558
:100C4000A50194010E941E159B01AC01C701B601CC
:100C50000E946E126B017C019B01AC0160E070E0B0
:100C600080E89FE30E946D120E9499159B01AC01E0
:100C7000C701B60129873A874B875C870E9499157F
:100C800029853A854B855C850E94ED129B01AC015C
:100C90000E946E1220E73DE642EC5AE40E941E15C7
:100CA00020E030E04AE754E40E9456132C960FB639
:100CB000F894DEBF0FBECDBFDF91CF911F910F9192
:100CC000FF90EF90DF90CF90BF90AF909F908F906C
:100CD0007F906F905F904F903F902F900895CF93AB
:100CE000C82F88E70E94D20980E00E94F4098C2F67
:100CF0000E94F409CF910C94050A0E94CE098EEA55
:100D00000E946F0685ED0E946F0680E80E946F06C4
:100D100088EA0E946F068FE30E946F0683ED0E94AF
:100D20006F0680E00E946F0680E40E946F068DE8E7
:100D30000E946F0684E10E946F0680E20E946F06A7
:100D400080E00E946F0681EA0E946F0688EC0E9494
:100D50006F068AED0E946F0682E10E946F0681E8AD
:100D60000E946F068FEC0E946F0689ED0E946F064D
:100D700081EF0E946F068BED0E946F0680E40E9457
:100D80006F0684EA0E946F0686EA0E946F068FEA69
:100D90000C946F066034ACF5E82FFF27E7FDF09563
:100DA000562F57704423B1F067FD695F65956595CF
:100DB000659540E86403E00DF11D1124E20FF31F77
:100DC00081E090E0052E01C0880F0A94EAF7908137
:100DD000982B16C067FD695F65956595659540E838
:100DE0006403E00DF11D1124E20FF31F81E090E098
:100DF000052E01C0880F0A94EAF780959081982308
:100E000090830895DF92EF92FF920F931F93CF93F9
:100E1000DF93E82ED62E8901F12CC42FDD27C7FDE4
:100E2000D0952F2D30E02C173D074CF4980141E070
:100E30006D2D8F2D8E0D0E94CA06F394F2CFDF9197
:100E4000CF911F910F91FF90EF90DF900895DF9267
:100E5000EF92FF920F931F93CF93DF93E82ED62E3E
:100E60008901F12CC42FDD27C7FDD0952F2D30E04F
:100E70002C173D074CF46F2D6D0D980141E08E2D20
:100E80000E94CA06F394F2CFDF91CF911F910F9188
:100E9000FF90EF90DF900895CF92DF92EF92FF9254
:100EA0000F931F93CF93DF93D82FC62FD42EC22E2C
:100EB000F42EF81AF394E22EE61A98014F2D0E94B0
:100EC000020798014F2D6C2D8D2F0E94020798016B
:100ED0004E2D6C2F8D2F0E94270798014E2D6C2FC1
:100EE0008D2DDF91CF911F910F91FF90EF90DF90AB
:100EF000CF900C942707AF92BF92CF92DF92EF92E0
:100F0000FF920F931F93CF93DF93C82EB62EC42F5B
:100F1000D22EC81BCF5FD61AD0E0DC1784F410E0C5
:100F2000AD2EAC0C1D154CF4612F6B0D9701402FAD
:100F30008A2D0E94CA061F5FF5CFDF5FEECFDF91DB
:100F4000CF911F910F91FF90EF90DF90CF90BF90C6
:100F5000AF9008957F928F929F92AF92BF92CF925F
:100F6000DF92EF92FF920F931F93CF93DF93D82ED0
:100F7000C62ED42FC22FE12CF12CDF150CF450C05B
:100F800098014C2FAF2CAC0C6A2DBD2EBD0C8B2DB7
:100F90000E94CA0698014C2F8D2E8C0C682D9F2C18
:100FA0009D0C892D0E94CA0698014C2F682D7D2C1E
:100FB0007F18872D0E94CA0698014C2F6A2D8D2C10
:100FC0008D1A882D0E94CA0698014C2FAC2CAF18A0
:100FD0006A2D882D0E94CA0698014C2F8C2C8D1AE0
:100FE000682D872D0E94CA0698014C2F682D892DE7
:100FF0000E94CA0698014C2F6A2D8B2D0E94CA06AA
:101000001E1444F0F394E3948F2D880FE80E1E1401
:101010000CF0B3CFD1508D2F880F8095E80EADCF57
:10102000DF91CF911F910F91FF90EF90DF90CF90C4
:10103000BF90AF909F908F907F900895CF92DF9256
:10104000EF92FF920F931F93CF93DF93E82ED62E4C
:10105000F42EC22EE8011F144CF48E012C2D4F2DBE
:101060006D2D8E2D0E94AA07FA94F5CFDF91CF91B6
:101070001F910F91FF90EF90DF90CF9008958823FC
:1010800011F087EA01C086EA0C946F0620E034E094
:10109000FC01A901119241505040E1F7089590E000
:1010A00050E86503800D911D1124280F391F85E03C
:1010B000489FA00111244E5F5E4F80E090E0FA014E
:1010C000E80FF91FE05AF1096081F90161939F016E
:1010D00001968530910599F70895CF92DF92FF929E
:1010E0000F931F93CF93DF931F92CDB7DEB7F62EEA
:1010F0008901F694F694F6946A01982FF6014191CD
:101100006F01442349F098016F2D892F99830E9424
:101110004F0899819B5FF2CF0F90DF91CF911F9184
:101120000F91FF90DF90CF900895CF92DF92FF92C2
:101130000F931F93CF93DF931F92CDB7DEB7182F76
:1011400081E299830E946F0680E00E946F068FE71C
:101150000E946F0682E20E946F0680E00E946F0686
:1011600087E00E946F06C12E9981D92E80E4F82E67
:1011700088E70E94D20980E40E94F40900E010E0B0
:10118000F601E00FF11F80810E94F4090F5F1F4FED
:1011900000311105A9F70E94050AFA9480E1C80EF2
:1011A000D11CF110E5CF0F90DF91CF911F910F91DE
:1011B000FF90DF90CF900895813029F039EE380FFD
:1011C000363038F015C0613011F43E9A08953E98DB
:1011D000089527B181E090E001C0880F3A95EAF7C1
:1011E000613011F4822B02C08095822387B9089563
:1011F0009EEF980F953030F095EF980F9330E0F414
:10120000865001C0892F4AB121E030E0613049F4B5
:10121000B90102C0660F771F8A95E2F7CB01842BD4
:1012200009C0B90102C0660F771F8A95E2F7CB01AA
:10123000809584238AB9089597EF980F923020F013
:101240008E50863010F00895835044B121E030E094
:10125000613049F4B90102C0660F771F8A95E2F741
:10126000CB01842B09C0B90102C0660F771F8A9594
:10127000E2F7CB018095842384B90895CF93DF935F
:10128000C82FD62F61E00E94DC08C13029F039EE6A
:101290003C0F363038F015C0D13011F4469A42C0B8
:1012A000469840C028B181E090E001C0880F3A958F
:1012B000EAF7D13011F4822B02C08095822388B9DD
:1012C00031C08EEF8C0F853030F085EF8C0F83307E
:1012D00090F4C65001C0C82F2BB181E090E001C04E
:1012E000880FCA95EAF7D13011F4822B02C080959D
:1012F00082238BB917C087EF8C0F823020F0CE503D
:10130000C63010F00FC0C35025B181E090E001C09D
:10131000880FCA95EAF7D13011F4822B02C080956C
:10132000822385B9DF91CF910895CF93C82F60E0D4
:101330000E94DC08C13061F029EE2C0F263068F4E1
:1013400086B190E002C0959587952A95E2F723C073
:1013500086B186FB882780F91FC08EEF8C0F853001
:1013600030F085EF8C0F833028F4C65001C0C82FB1
:1013700089B10BC087EF8C0F823028F0CE50C63079
:1013800018F082E009C0C35083B190E002C0959587
:101390008795CA95E2F78170CF9108958CE180938B
:1013A000B80008951092BC0094EA9093BC0090910C
:1013B000BC0097FFFCCF9091B900987F983011F056
:1013C00081E008958093BB0084E88093BC00809105
:1013D000BC0087FFFCCF8091B900887F883111F075
:1013E000803471F780E008958093BB0084E8809397
:1013F000BC008091BC0087FFFCCF9091B900987F22
:1014000081E0983209F480E0089584E98093BC007B
:10141000089584EC8093BC008091BC0087FFFCCFD2
:101420008091BB00089584E88093BC008091BC004B
:1014300087FFFCCF8091BB000895ECE7F0E080814E
:1014400080648083808183608083EAE7F0E080812C
:1014500086608083808180688083808188608083CB
:10146000E1E8F0E0808188608083AFE6B0E08C91B5
:1014700082608C9380EA9CE8909389008093880036
:1014800080818560808378940895FC0186E292E0F3
:10149000918B808B88EE93E09783868311861286EA
:1014A00081E082838AE083871086EAE7F0E080812A
:1014B000806480830895FC0112820895FC0180916C
:1014C00078002091790090E0922B91838083208195
:1014D000318180899189805B9F4F8217930780F4C7
:1014E000838181110DC08485958581389C4040F0B1
:1014F00081E0838381858F5F81871586148616C07E
:101500008381813071F4208131818089918928170C
:10151000390738F484859585813B944010F0138217
:1015200005C08485958501969587848720813181C2
:10153000848195818217930728F480819181958316
:1015400084830BC0208131818681978128173907D8
:1015500020F480819181978386838281882329F07A
:1015600080917A00806480937A000895FC018285DE
:10157000882351F02285818590E0820F911D982F5C
:10158000990F890F880F05C081859CE0899F802D68
:10159000112480878185853018F08185828703C07A
:1015A00085E083871286118683858823E9F0138678
:1015B00084819581892B21F086819781892B19F46B
:1015C00086E292E008C08481958126813781820F6E
:1015D000931F96958795918B808B1582148288EE48
:1015E00093E097838683089583858F5F838708952B
:1015F000CF93DF9300D0CDB7DEB74A8369830E94D3
:10160000D2096981862F0E94F4094A81842F0E94A1
:10161000F4090F900F90DF91CF910C94050A539825
:101620005B9AE9E6F0E080818C608083E99AF89427
:101630000E94CE0948E36FE186ED0E94F80A40EC73
:1016400060E286ED0E94F80A4AE066E086ED0E94BC
:10165000F80A40E46CE086ED0E94F80A4FE067E08B
:1016600086ED0E94F80A4FE068E086ED0E94F80AD5
:1016700042EB6AE086ED0E94F80A789408957F9222
:101680008F929F92AF92BF92CF92DF92EF92FF9292
:101690000F931F93CF93DF9362E3762E812C912CCF
:1016A000A12CB12C00E010E0C0E0D0E08CE30E945F
:1016B000D20988E20E94F4098DE30E94D2090E94B7
:1016C000090AC82E0E94090A282F332727FD3095C2
:1016D000322F2227DD24C7FCD094C22AD32A0E94AD
:1016E000090AF82E0E94130A992787FD9095982FD2
:1016F00088272F2D332727FD30957C01E22AF32AF6
:101700000E94050A8C149D042CF0C016D1061CF40E
:10171000860101C04601AE14BF042CF0EC16FD0694
:101720001CF4E70101C057017A947110BFCFA401E6
:10173000400F511F57FF02C04F5F5F4F8A01159541
:101740000795C5018C0F9D1F97FD0196EC01D5955E
:10175000C795412F65E08CE30E94F80A402F66E0B0
:101760008CE30E94F80A4D2F67E08CE30E94F80A90
:101770004C2F68E08CE3DF91CF911F910F91FF9088
:10178000EF90DF90CF90BF90AF909F908F907F9021
:101790000C94F80ACF92DF92EF92FF920F931F936F
:1017A000CF93DF938C01EB018CE30E94D20988E296
:1017B0000E94F4098DE30E94D2090E94090AF82EC2
:1017C0000E94090A282F332727FD3095322F222720
:1017D0006F2D772767FD70956901C62AD72A0E9469
:1017E000090AE82E0E94130A282F332727FD309577
:1017F000322F2227FF24E7FCF094E22AF32A0E94EA
:10180000050AB601882777FD8095982F0E9400145D
:1018100029E23CE54FE05EE30E941E1520E030E047
:101820004AE754E40E945613F8016083718382836F
:101830009383B701882777FD8095982F0E94001425
:1018400029E23CE54FE05EE30E941E1520E030E017
:101850004AE754E40E945613688379838A839B8302
:10186000DF91CF911F910F91FF90EF90DF90CF907C
:1018700008958F929F92AF92BF92CF92DF92EF9294
:10188000FF920F931F93CF93DF935C017B018A013B
:10189000F89486ED0E94D20988E20E94F40987ED4F
:1018A0000E94D2090E94090A882E0E94090A282F44
:1018B000332727FD3095322F2227992487FC9094D7
:1018C000822A932A0E94090AC82E0E94090A282FF8
:1018D000332727FD3095322F2227DD24C7FCD094F3
:1018E000C22AD32A0E94090AC82F0E94130A282F4D
:1018F000332727FD3095322F2227DD27C7FDD095CE
:10190000C22BD32B0E94050AB40160577E4F882753
:1019100077FD8095982F0E94001423E23BED49E764
:101920005DE30E941E1520E030E04AE754E40E9487
:101930005613F5016083718382839383B6016C5ED5
:101940007F4F882777FD8095982F0E94001423E20F
:101950003BED49E75DE30E941E1520E030E04AE7D9
:1019600054E40E945613F70160837183828393834A
:10197000BE01882777FD8095982F0E94001423E2EE
:101980003BED49E75DE30E941E1520E030E04AE7A9
:1019900054E40E945613F801608371838283938319
:1019A0007894DF91CF911F910F91FF90EF90DF908E
:1019B000CF90BF90AF909F908F9008950F931F93FB
:1019C000CF93DF93EC01F89486ED0E94D20985E174
:1019D0000E94F40987ED0E94D2090E94130A182F71
:1019E0000E94130A682F772767FD7095762F662768
:1019F000212F332727FD30958B01022B132B0E94BB
:101A0000050AB801882777FD8095982F0E94001459
:101A100020E030E040E05EE30E941E1520E030E070
:101A200048EC51E40E946E1226E636E646EE5FE38D
:101A30000E941E1520E030E040E052E40E946E1249
:101A4000688379838A839B837894DF91CF911F91F8
:101A50000F91089561E00E94DC08F89480E00E94F4
:101A6000441081E00E94491080E00E945210789456
:101A7000089561E00C943E090F931F93CF93DF9379
:101A800000D01F92CDB7DEB7182F062FF89460E074
:101A9000842F4B830E943E09106819830A8362E0F9
:101AA00070E0CE0101960E942B1061E04B81842FE3
:101AB0000E943E0978940F900F900F90DF91CF9184
:101AC0001F910F910895CF93DF93D82FC62FF894CD
:101AD00060E08C2F0E943E098D2F8F770E940B10A3
:101AE00080E00E940B10D82F61E08C2F0E943E09ED
:101AF00078948D2FDF91CF910895EF92FF921F93ED
:101B0000CF93DF9300D0CDB7DEB7182F7B01F894C9
:101B100060E0822F2A8349830E943E09812F8068DA
:101B20000E940B104981642F772767FD7095C701CC
:101B30000E94121061E02A81822F0E943E0978944F
:101B40000F900F90DF91CF911F91FF90EF9008952C
:101B5000EF92FF920F931F93CF93DF9300D0CDB7F7
:101B6000DEB7F82E162F022FF89460E0822F4983FB
:101B70007A830E943E098F2D80680E940B10E12E0F
:101B80007A81F72E4981140F1E1539F080E00E94EA
:101B90000B10F70181937F01F7CF61E0802F0E9446
:101BA0003E0978940F900F90DF91CF911F910F9184
:101BB000FF90EF9008951F93CF93DF93EC01162FC2
:101BC000462F68818FE20E943C0D412F698180E39E
:101BD000DF91CF911F910C943C0DCF93DF93D82FC1
:101BE000C62F462F692F8CE20E943C0D4C2F6D2F83
:101BF0008DE2DF91CF910C943C0DCF92DF92EF926A
:101C0000FF92CF93C42F20E034E244E759E40E94CE
:101C10001E1520E034E244E752E40E9456130E946D
:101C2000CF136B017C01B701882799274C2F87E0E0
:101C30000E943C0D99278F2D7E2D6D2D4C2F88E015
:101C40000E943C0D4C2F6C2D89E0CF91FF90EF90BE
:101C5000DF90CF900C943C0D1F93CF93DF9300D077
:101C6000CDB7DEB7182F61E08BE00E94DC0861E0A1
:101C700089E10E943E092FEF8FE392E021508040DE
:101C80009040E1F700C0000060E08BE00E943E0958
:101C90002FEF8FE392E0215080409040E1F700C0A9
:101CA0000000412F6FE88CE30E943C0D412F60E360
:101CB0008FE60E943C0D412F65E58AE50E943C0DB0
:101CC000412F60E78CE50E943C0D8DE289838DE415
:101CD0008A83612FCE0101960E94DB0D612F84E083
:101CE00090E00E94ED0D412F60E070E089ED93E4FB
:101CF0000E94FD0D0F900F90DF91CF911F910895DD
:101D00001F93CF93DF931F92CDB7DEB7182F462FC7
:101D100081E049830E94630D837E612F6C71682B83
:101D2000498181E00F90DF91CF911F910C943C0D80
:101D30001F93CF93DF931F92CDB7DEB7462F182F97
:101D400080320CF01FE1642F81E149830E94630D12
:101D5000807E912F498117FD9F5F9595682F692B94
:101D600081E10F90DF91CF911F910C943C0DCF93A7
:101D7000DF93D82FC62F811102C06AE101C06FE046
:101D80004C2F83E10E943C0D6C2F81E1DD2331F06B
:101D90000E94630D8F71682F606604C00E94630DFE
:101DA000682F6F714C2F81E1DF91CF910C943C0D26
:101DB0000F931F93CF93DF93FC012081261709F423
:101DC00048C0C42FD62F8C01611112C0108265E566
:101DD0008AE50E943C0D4C2F60E78CE50E943C0D8B
:101DE0006C2F84E0DF91CF911F910F910C94800EA6
:101DF0006130A9F465E58AE50E943C0D4C2F60E74F
:101E00008CE50E943C0D6C2F80E10E94800E4C2FCF
:101E100060E485E20E943C0D6C2F80E016C06230C9
:101E2000C1F46DE58AE50E943C0D4C2F6CE78CE512
:101E30000E943C0D6C2F8CE00E94800E4C2F60E0C5
:101E400085E20E943C0D6C2F81E00E94B70EF801E4
:101E5000D083DF91CF911F910F910895CF92DF92A0
:101E6000EF92FF920F931F93CF93DF937C01CB01EF
:101E7000D42FF89460E00E94D80E60E08D2F0E946D
:101E80003E0980E00E940B1080E00E940B10C82FDA
:101E9000882391F08701C82EDD24C7FCD094C801A7
:101EA0008E199F098C159D053CF480E00E940B1053
:101EB000F80181938F01F3CF61E08D2F0E943E09DD
:101EC00078948C2FDF91CF911F910F91FF90EF901D
:101ED000DF90CF900895AF92BF92CF92DF92EF92B2
:101EE000FF920F931F93CF93DF9300D0CDB7DEB750
:101EF0004F31D4F5122FD42E5B01C92E082FF89440
:101F0000422F60E0C5010E94D80E612F87E20E9437
:101F1000630D87FFFACF60E0812F0E943E0980E8C1
:101F20008983DA8262E070E0CE0101960E942B1074
:101F3000E02EFC2C0D0D0E1531F0F70181917F0183
:101F40000E940B10F8CF61E0812F0E943E09789427
:101F5000412F62E0C5010E94D80E612F81E00E94EE
:101F6000630D8C718430C9F70F900F90DF91CF9182
:101F70001F910F91FF90EF90DF90CF90BF90AF90A7
:101F800008950F931F93CF93DF9300D0CDB7DEB7A3
:101F90008C01462FFC019081913031F0F801808155
:101FA000823061F090E00FC088E24A8399830E94FA
:101FB000630D4A81998182FFF1CF05C060E0C801BD
:101FC0000E94D80E91E0892F0F900F90DF91CF9152
:101FD0001F910F910895CF93C82F482F61E083E29E
:101FE0000E943C0D6C2F83E20E94630D81FFFACFAB
:101FF0006C2F84E20E94630D992781950CF49095D3
:1020000095958795CF910895F8948CE284B981E5F0
:102010008CBD789408958EBD00000DB407FEFDCFF1
:102020008EB50895FC0161157105A1F080818EBD0A
:102030006150710951F091810DB407FEFDCF8EB54D
:102040009EBD9081890F8083F3CF0DB407FEFDCF35
:102050008EB5808308956115710579F0FC012081AA
:102060002EBD6150710931F0FC0121810DB407FED4
:10207000FDCFF6CF0DB407FEFDCF089560E00C94C0
:102080003E0961E00C943E099CB5937F892B8CBD81
:102090000895811103C08CB5806202C08CB58F7D1C
:1020A0008CBD08959CB5282F23709C7F922B9CBDDE
:1020B0009DB582FB882780F99E7F892B8DBD089571
:1020C000CF93DF93CDB7DEB72F970FB6F894DEBF6F
:1020D0000FBECDBF0E94970078942BE0C22E28E05F
:1020E000D22E37E1232E02E218E04FE0E42E43E047
:1020F000F42ECE0101965C01812C54E0952E67EF01
:10210000462E62E0562E77EE672E72E0772E89E833
:1021100093E10197F1F780910101813009F06DC0E1
:102120000E940A0180E993E00E948104C5010E9497
:10213000DE0CE8EEF3E0DF01C4011D920197E9F740
:102140009FE0392ED801E32D1D92EA95E9F78091A1
:10215000D9031F928F938091D8031F928F93809100
:10216000D7031F928F937F926F92DF92CF920E943C
:10217000A71628EE33E04BE058E06EE182E30E94C0
:102180006D08D601E22D1D92EA95E9F7D801E32DFD
:102190001D92EA95E9F749815A816B817C8122E0A1
:1021A00082E298E00E94A80260EF72E08BE098E083
:1021B0000E94411662E278E08BE098E00E942D16C2
:1021C00028EE33E04BE058E068E285E00E946D08BD
:1021D000D8011D923A94E9F7809101011F928F93E3
:1021E000FF92EF921F930F930E94A71628EE33E001
:1021F00042E258E062E38EE6EAC08230B9F40E941F
:102200000A0180918D038F9380918C038F935F924D
:102210004F92DF92CF920E94A71688EE93E00E9421
:10222000460828EE33E04BE058E019C0833009F54A
:102230000E940A01809182031F928F93A2E0B3E073
:10224000BF93AF93BF92AF920E94A716E8EEF3E060
:10225000DF01C4011D920197E9F79F01A5016EE11D
:1022600085E00E946D088FE0D8011D928A95E9F7FC
:102270009EC0843009F0B7C00E940A0180E993E053
:102280000E94810480E993E00E9481048FE0382E4F
:10229000D801E32D1D92EA95E9F74091E0035091B2
:1022A000E1036091E2037091E30326E082E298E0AB
:1022B0000E94A80262E173E08BE098E00E94411660
:1022C00062E278E08BE098E00E942D1628EE33E081
:1022D0004BE058E065E085E00E946D08D801E32DF1
:1022E0001D92EA95E9F74091DC035091DD0360917E
:1022F000DE037091DF0326E082E298E00E94A802EC
:102300006EE173E08BE098E00E94411662E278E0B3
:102310008BE098E00E942D1628EE33E04BE058E069
:1023200064E185E00E946D08D801E32D1D92EA95D5
:10233000E9F74091E4035091E5036091E603709161
:10234000E70321E082E298E00E94A80269E273E0DC
:102350008BE098E00E94411662E278E08BE098E022
:102360000E942D1628EE33E04BE058E063E285E052
:102370000E946D08D801E32D1D92EA95E9F780913E
:10238000DA031F928F93A4E3B3E0BF93AF93DF927E
:10239000CF920E94A71628EE33E04BE058E062E3AC
:1023A00085E00E946D08D8011D923A94E9F780916A
:1023B00001011F928F93FF92EF921F930F930E9440
:1023C000A71628EE33E042E258E062E388E70E9475
:1023D0006D0888EE93E00E9495080FB6F894DEBF72
:1023E0000FBECDBF94CE853009F091CE0E940A0178
:1023F00080E993E00E948104F1E0F093E907D601BF
:10240000E22D1D92EA95E9F762E473E08BE098E033
:102410000E94411628EE33E04BE058E06EE185E083
:102420000E946D08809109088823A9F1109209087B
:102430004091E80769EE77E08AEE97E00E942E0F60
:10244000809308084091E80761E089EE97E00E94D8
:10245000D80E69E473E08AEE97E00E942816E0E067
:10246000009789F0332433943E0EEE0FFF0BEA0DF4
:10247000FB1D9183808369E473E080E090E00E941B
:102480002816E32DEDCF49815A8128EE33E06EE125
:1024900082E30E946D088FE0D8011D928A95E9F7CA
:1024A000809101011F928F93FF92EF921F930F93E0
:1024B0000E94A71628EE33E042E258E062E388E784
:1024C0000E946D0888EE93E00E9495080F900F908F
:1024D0000F900F900F900F901ACE5058BB27AA273D
:1024E0000E9485120C94C8140E948F1438F00E9428
:1024F000961420F039F49F3F19F426F40C946514D7
:102500000EF4E095E7FB0C945F14E92F0E94ED14A4
:1025100058F3BA17620773078407950720F079F418
:10252000A6F50C940F150EF4E0950B2EBA2FA02DE6
:102530000B01B90190010C01CA01A0011124FF2770
:10254000591B99F0593F50F4503E68F11A16F0406B
:10255000A22F232F342F4427585FF3CF469537956A
:102560002795A795F0405395C9F77EF41F16BA0B2F
:10257000620B730B840BBAF09150A1F0FF0FBB1FDD
:10258000661F771F881FC2F70EC0BA0F621F731F26
:10259000841F48F4879577956795B795F7959E3F83
:1025A00008F0B0CF9395880F08F09927EE0F979514
:1025B000879508950E948F1460F080E891E009F4F7
:1025C0009EEF0E94961428F040E851E071F45EEF0F
:1025D0000CC00C9465140C940F15E92FE0780E9440
:1025E000ED1440F3092E052AB1F3261737074807E3
:1025F000590738F00E2E07F8E02569F0E025E06471
:102600000AC0EF6307F8009407FADB01B9019D01E6
:10261000DC01CA01AD01EF930E946D130E94C81442
:102620000E941D135F91552339F02BED3FE049E4E3
:1026300050FD49EC0C946E120895DF93DD27B92FFD
:10264000BF7740E85FE31616170648075B0718F4E4
:10265000D92F0E9416159F938F937F936F930E949B
:10266000D915E8E6F0E00E9468140E94C8142F9182
:102670003F914F915F910E943115DD2351F09058A9
:10268000A2EA2AED3FE049EC5FE3D0785D270E94A3
:102690008512DF910C94C8140E943B1408F481E069
:1026A00008950E949F14E3950C94D9140E946A1314
:1026B0000C94C8140E94961458F00E948F1440F095
:1026C00029F45F3F29F00C945F1451110C941015FC
:1026D0000C9465140E94ED1468F39923B1F355230B
:1026E00091F3951B550BBB27AA2762177307840725
:1026F00038F09F5F5F4F220F331F441FAA1FA9F3BB
:1027000035D00E2E3AF0E0E832D091505040E695A8
:10271000001CCAF72BD0FE2F29D0660F771F881F09
:10272000BB1F261737074807AB07B0E809F0BB0BFC
:10273000802DBF01FF2793585F4F3AF09E3F510510
:1027400078F00C945F140C9410155F3FE4F3983EFE
:10275000D4F3869577956795B795F7959F5FC9F7F9
:10276000880F911D9695879597F90895E1E0660F7A
:10277000771F881FBB1F621773078407BA0720F0F3
:10278000621B730B840BBA0BEE1F88F7E09508955C
:102790000E94CF136894B1110C94101508950E94F3
:1027A000F51488F09F5798F0B92F9927B751B0F0DA
:1027B000E1F0660F771F881F991F1AF0BA95C9F7C5
:1027C00014C0B13091F00E940F15B1E008950C943F
:1027D0000F15672F782F8827B85F39F0B93FCCF3F2
:1027E000869577956795B395D9F73EF49095809542
:1027F000709561957F4F8F4F9F4F0895E89409C062
:1028000097FB3EF490958095709561957F4F8F4F23
:102810009F4F9923A9F0F92F96E9BB279395F69539
:10282000879577956795B795F111F8CFFAF4BB0FB7
:1028300011F460FF1BC06F5F7F4F8F4F9F4F16C01B
:10284000882311F096E911C0772321F09EE8872FA5
:10285000762F05C0662371F096E8862F70E060E061
:102860002AF09A95660F771F881FDAF7880F9695DA
:10287000879597F90895990F0008550FAA0BE0E87E
:10288000FEEF16161706E807F907C0F01216130632
:10289000E407F50798F0621B730B840B950B39F472
:1028A0000A2661F0232B242B252B21F408950A26D8
:1028B00009F4A140A6958FEF811D811D089597F918
:1028C0009F6780E870E060E008959FEF80EC0895D6
:1028D000DF93CF931F930F93FF92EF92DF927B01D1
:1028E0008C01689406C0DA2EEF010E943115FE01BA
:1028F000E894A5912591359145915591A6F3EF0165
:102900000E948512FE019701A801DA9469F7DF9011
:10291000EF90FF900F911F91CF91DF9108950024C8
:102920000A941616170618060906089500240A9434
:10293000121613061406050608950C9465140E94D9
:10294000F514D8F3E894E0E0BB279F57F0F02AEDA8
:102950003FE049EC06C0EE0FBB0F661F771F881FD4
:1029600028F0B23A62077307840728F0B25A620B64
:10297000730B840BE3959A9572F7803830F49A952F
:10298000BB0F661F771F881FD2F790480C94DF1586
:10299000092E0394000C11F4882352F0BB0F40F46D
:1029A000BF2B11F460FF04C06F5F7F4F8F4F9F4FAD
:1029B0000895EF93E0FF07C0A2EA2AED3FE049EC5B
:1029C0005FEB0E9485120E94C8140F90039401FCD3
:1029D0009058E5E9F0E00C94F21557FD9058440F3B
:1029E000551F59F05F3F71F04795880F97FB991F6E
:1029F00061F09F3F79F0879508951216130614062B
:102A0000551FF2CF4695F1DF08C0161617061806B7
:102A1000991FF1CF86957105610508940895E89492
:102A2000BB2766277727CB0197F908959B01AC0157
:102A300060E070E080E89FE30C9456130E9431152B
:102A40000C94C8140E948F1438F00E94961420F041
:102A5000952311F00C945F140C94651411240C94BC
:102A600010150E94ED1470F3959FC1F3950F50E07F
:102A7000551F629FF001729FBB27F00DB11D639F30
:102A8000AA27F00DB11DAA1F649F6627B00DA11DD6
:102A9000661F829F2227B00DA11D621F739FB00D7C
:102AA000A11D621F839FA00D611D221F749F3327EC
:102AB000A00D611D231F849F600D211D822F762F85
:102AC0006A2F11249F5750409AF0F1F088234AF062
:102AD000EE0FFF1FBB1F661F771F881F91505040CE
:102AE000A9F79E3F510580F00C945F140C941015CB
:102AF0005F3FE4F3983ED4F3869577956795B79555
:102B0000F795E7959F5FC1F7FE2B880F911D96956E
:102B1000879597F908959F930E949F140F9007FC43
:102B2000EE5F0C94D91419F416F40C9465140C94FB
:102B3000DD150E94F514B8F39923C9F3B6F39F5736
:102B4000550B87FF0E94EB150024A0E640EA900198
:102B500080585695979528F4805C660F771F881FDC
:102B600020F026173707480730F4621B730B840BDD
:102B7000202931294A2BA695179407942025312521
:102B80004A2758F7660F771F881F20F02617370748
:102B9000480730F4620B730B840B200D311D411D6F
:102BA000A09581F7B901842F9158880F9695879544
:102BB00008959B01AC010C941E159F3F31F091507C
:102BC00020F4879577956795B795880F911D969511
:102BD000879597F9089591505040660F771F881F89
:102BE000D2F708959F938F937F936F93FF93EF9303
:102BF0009B01AC010E941E15EF91FF910E94681489
:102C00002F913F914F915F910C941E156627772766
:102C10000C949C18FC0188279927E8942191203274
:102C2000E9F3293010F02E30C8F32B3241F02D3269
:102C300039F4689404C00E948516820F911D219179
:102C400020532A30C0F31EF4909581959F4F08952C
:102C50004EE853E00E9448160895FB01DC010D90F8
:102C60000020E9F7119701900D920020E1F70895F7
:102C7000FB01DC018D91019080190110D9F3990BB2
:102C80000895FB01DC0101900D920020E1F7089509
:102C9000FA01A191B081009719F41097E1F0CD01EC
:102CA000DC01CD010D90002011F4C00113C0FB0127
:102CB0002191222319F02015D9F7F3CFFB0121919F
:102CC000201519F41E92119606C02223C1F70D900B
:102CD0000020A1F7D001FA01A193B08308954532F5
:102CE000510520F4423010F00C947A16FB0110824A
:102CF000CB010895BB274A3031F4992322F4BDE279
:102D0000909581959F4F0C948E167AE0979F902D09
:102D1000879F802D910D11240895BB27FB01552716
:102D2000AA27880F991FAA1FA41710F0A41B839528
:102D30005051B9F7A05DAA3308F0A95DA19300979F
:102D400079F7B111B1931192CB010C94301AAEE026
:102D5000B0E0EDEAF6E10C94F21A0D891E8986E0E6
:102D60008C831A8309838FEF9FE79E838D83AE0147
:102D7000475E5F4F6F89788DCE0101960E94CA161B
:102D80002F813885F801E20FF31F10822E96E4E0C0
:102D90000C940E1BACE0B0E0E0EDF6E10C94E41A0C
:102DA0007C016B018A01FC0117821682838181FFFD
:102DB000BDC1CE0101964C01F7019381F60193FD4F
:102DC000859193FF81916F01882309F4ABC185320E
:102DD00039F493FD859193FF81916F01853229F438
:102DE000B70190E00E94401AE7CF512C312C20E02F
:102DF0002032A0F48B3269F030F4803259F0833203
:102E000069F420612CC08D3239F0803339F42160AF
:102E100026C02260246023C0286021C027FD27C06F
:102E200030ED380F3A3078F426FF06C0FAE05F9EA6
:102E3000300D1124532E13C08AE0389E300D11241A
:102E4000332E20620CC08E3221F426FD6BC120642B
:102E500006C08C3611F4206802C0883641F4F601B1
:102E600093FD859193FF81916F018111C1CF982FBF
:102E70009F7D9554933028F40C5F1F4FFFE3F98337
:102E80000DC0833631F0833771F0833509F05BC0B4
:102E900022C0F801808189830E5F1F4F4424439430
:102EA000512C540115C03801F2E06F0E711CF8016D
:102EB000A080B18026FF03C0652D70E002C06FEFD7
:102EC0007FEFC5012C870E94251A2C0183012C85D8
:102ED0002F77222E17C03801F2E06F0E711CF80117
:102EE000A080B18026FF03C0652D70E002C06FEFA7
:102EF0007FEFC5012C870E941A1A2C012C852068AF
:102F0000222E830123FC1BC0832D90E04816590616
:102F1000B0F4B70180E290E00E94401A3A94F4CFF6
:102F2000F50127FC859127FE81915F01B70190E0B3
:102F30000E94401A31103A94F1E04F1A510841149E
:102F4000510471F7E5C0843611F0893639F5F8017E
:102F500027FF07C060817181828193810C5F1F4FC1
:102F600008C060817181882777FD8095982F0E5F5A
:102F70001F4F2F76722E97FF09C090958095709500
:102F800061957F4F8F4F9F4F2068722E2AE030E06F
:102F9000A4010E94781AA82EA81844C0853729F4E5
:102FA0002F7EB22E2AE030E025C0F22FF97FBF2E0F
:102FB0008F36C1F018F4883579F0B4C0803719F035
:102FC000883721F0AFC02F2F2061B22EB4FE0DC084
:102FD0008B2D8460B82E09C024FF0AC09F2F9660F5
:102FE000B92E06C028E030E005C020E130E002C084
:102FF00020E132E0F801B7FE07C060817181828173
:1030000093810C5F1F4F06C06081718180E090E06A
:103010000E5F1F4FA4010E94781AA82EA818FB2D3E
:10302000FF777F2E76FE0BC0372D3E7FA51450F420
:1030300074FE0AC072FC08C0372D3E7E05C0BA2C53
:10304000372D03C0BA2C01C0B52C34FF0DC0FE01D2
:10305000EA0DF11D8081803311F4397E09C032FF01
:1030600006C0B394B39404C0832F867809F0B39458
:1030700033FD13C030FF06C05A2CB31418F4530CA0
:103080005B18B32CB31468F4B70180E290E03C877E
:103090000E94401AB3943C85F5CFB31410F43B184A
:1030A00001C0312C34FF12C0B70180E390E03C87AF
:1030B0000E94401A3C8532FF17C031FD03C088E7EB
:1030C00090E002C088E590E0B7010CC0832F8678BD
:1030D00059F031FF02C08BE201C080E237FD8DE282
:1030E000B70190E00E94401AA51438F4B70180E3BC
:1030F00090E00E94401A5A94F7CFAA94F401EA0D86
:10310000F11D8081B70190E00E94401AA110F5CF17
:10311000332009F451CEB70180E290E00E94401ABA
:103120003A94F6CFF7018681978102C08FEF9FEF27
:103130002C96E2E10C94001BA0E0B0E0E2EAF8E19A
:103140000C94E81AEC017B016115710519F0DB01A3
:103150008D939C938E010F5F1F4F7880872D90E099
:103160000E94F919892B11F0E801F4CFBDE27B121E
:1031700005C00F5F1F4F7980C1E008C0EBE27E12EF
:1031800004C08E010E5F1F4F7980C0E06801F1E03E
:10319000CF1AD10843E050E06CEB70E0C6010E940A
:1031A000021A892BF1F4680122E0C20ED11C45E01D
:1031B00050E067EB70E0C6010E94021A892B21F4EF
:1031C000680187E0C80ED11CE114F10419F0D701A1
:1031D000CD92DC92C111FFC060E070E080E89FE713
:1031E00003C143E050E064EB70E0C6010E94021AA4
:1031F000892B51F4E114F10409F4F2C00E5F1F4F62
:10320000F70111830083ECC0680160E070E0CB013E
:1032100000E010E0F601D0EDD70DDA3058F52C2F94
:103220002260622E2C2F2870C2FF05C0211128C0F9
:103230000F5F1F4F25C0222311F001501109A5E097
:10324000B0E09B01AC010E94D91A4B015C01880CD3
:10325000991CAA1CBB1CC501B4016D0F711D811DF9
:10326000911D6839A9E97A078A07A9E19A0740F010
:10327000C66005C0DE3F51F4C3FD44C0C8606C2E7B
:10328000BFEFCB1ADB0A7080C62DC4CF2D2F2F7D48
:103290002531C1F540814D3211F4C06106C04B3279
:1032A00021F0319621E030E006C03296D601119629
:1032B0004C9122E030E0A0EDA40FAA3018F0E21B00
:1032C000F30B20C040E050E04038BCE05B075CF40A
:1032D0009A01220F331F220F331F420F531F440F37
:1032E000551F4A0F511D3196DF0111972C91A0ED0A
:1032F000A20FAA3048F3C4FF03C05195419551096C
:10330000040F151FC1FF07C0E114F10421F031972C
:10331000D701ED93FC930E94FE13C370C33019F0E4
:103320006B017C0106C06B017C01F7FAF094F7F8A1
:10333000F09420E030E0A901C701B6010E944C13CF
:10334000882309F445C017FF06C01195019511099E
:10335000C3EDD0E002C0CBEED0E05E01B8E1AB1A25
:10336000B1084601BE2DAF2D90E2E92EF12C0E15CD
:103370001F0584F0FE012591359145915491B401CA
:103380008B2F9A2F0E941E154B01B82FA92F0E19B3
:103390001F09EDCF2497F594E794CA15DB0539F79B
:1033A0006401EB2EFA2E8E2D880F8F2D881F8F3FF4
:1033B00049F020E030E0A901C701B6010E944C139A
:1033C000811106C082E290E0909332088093310828
:1033D000C701B60109C060E070E080E89FEF04C05B
:1033E00060E070E080EC9FE7CDB7DEB7EEE00C94D4
:1033F000041B91110C94D61A803219F08950855013
:10340000C8F70895FB01DC014150504088F08D91D0
:1034100081341CF08B350CF4805E659161341CF0B6
:103420006B350CF4605E861B611171F3990B089586
:10343000881BFCCFFC010590615070400110D8F74B
:10344000809590958E0F9F1F0895FC0161507040EC
:1034500001900110D8F7809590958E0F9F1F0895C9
:10346000DC01FC01672F71917723E1F7329704C0EB
:103470007C916D9370836291AE17BF07C8F3089576
:103480000F931F93CF93DF93FB01238121FD03C093
:103490008FEF9FEF28C022FF16C0468157812481FD
:1034A00035814217530744F4A081B1819D012F5FFC
:1034B0003F4F318320838C93268137812F5F3F4F8D
:1034C0003783268310C0EB01092F182F0084F18564
:1034D000E02D0995892BE1F68E819F8101969F83CE
:1034E0008E83812F902FDF91CF911F910F9108959F
:1034F000FA01AA27283051F1203181F1E8946F9325
:103500006E7F6E5F7F4F8F4F9F4FAF4FB1E03ED0CA
:10351000B4E03CD0670F781F891F9A1FA11D680F68
:10352000791F8A1F911DA11D6A0F711D811D911D9B
:10353000A11D20D009F468943F912AE0269F112410
:103540003019305D3193DEF6CF010895462F477074
:10355000405D4193B3E00FD0C9F7F6CF462F4F70CF
:10356000405D4A3318F0495D31FD4052419302D02D
:10357000A9F7EACFB4E0A6959795879577956795D3
:10358000BA95C9F700976105710508959B01AC01D3
:103590000A2E06945795479537952795BA95C9F7FA
:1035A000620F731F841F951FA01D089599278827F8
:1035B00008950E941B1BA59F900DB49F900DA49F82
:1035C000800D911D112408952F923F924F925F928A
:1035D0006F927F928F929F92AF92BF92CF92DF9223
:1035E000EF92FF920F931F93CF93DF93CDB7DEB788
:1035F000CA1BDB0B0FB6F894DEBF0FBECDBF09941C
:103600002A88398848885F846E847D848C849B8472
:10361000AA84B984C884DF80EE80FD800C811B8180
:10362000AA81B981CE0FD11D0FB6F894DEBF0FBEAF
:10363000CDBFED010895A29FB001B39FC001A39F2C
:10364000700D811D1124911DB29F700D811D1124DB
:08365000911D0895F894FFCFCD
:103658000101000000000000004F00000007000703
:1036680000147F147F14242A7F2A1223130864620B
:1036780036495522500005030000001C2241000075
:1036880041221C0014083E081408083E080800508F
:1036980030000008080808080060600000201008D2
:1036A80004023E5149453E00427F40004261514973
:1036B800462141454B311814127F1027454545399D
:1036C8003C4A4949300171090503364949493606DA
:1036D8004949291E003636000000563600000814F5
:1036E8002241001414141414004122140802015138
:1036F8000906324979413E7E1111117E7F494949B7
:10370800363E414141227F4141221C7F494949417E
:103718007F090909013E4149497A7F0808087F0065
:10372800417F41002040413F017F081422417F40F2
:103738004040407F020C027F7F0408107F3E4141D9
:10374800413E7F090909063E4151215E7F09192939
:1037580046464949493101017F01013F4040403F08
:103768001F2040201F3F4038403F63140814630760
:10377800087008076151494543007F414100020430
:103788000810200041417F0004020102044040402B
:103798004040010204000020545454787F484444B7
:1037A800383844444420384444487F3854545418E2
:1037B800087E090102064949493F7F080404780048
:1037C800447D40002040443D007F102844000041D3
:1037D8007F40007C0418047C7C0804047838444446
:1037E80044387C14141408081414187C7C08040445
:1037F800084854545420043F4440203C4040207C16
:103808001C2040201C3C4030403C44281028440CDC
:103818005050503C4464544C440008364100000069
:103828007F000000413608000201020402080C0E65
:103838000C08081838180825643A25643A256400E5
:1038480074656D703A20007374657073203A202592
:10385800640048656172742052617465203A2025BD
:1038680064004C6F6E6769747564653A20004C613A
:103878007469747564653A2000416C746974756480
:10388800653A2000736174656C6C697465732025F2
:103898006400646973743A20002C004920005300C6
:1038A80057006C6F6E20006C61742000416C7420AE
:1038B80000686F75722025642C206D696E20256460
:0A38C8002C207365632025640000C6
:00000001FF
