:100000000C9478000C94E2010C947B010C94540144
:100010000C9495000C941F010C9495000C94950081
:100020000C9495000C9495000C9495000C94B801D8
:100030000C9495000C9495000C9495000C949500EC
:100040000C9495000C9495000C9495000C949500DC
:100050000C9495000C9492010C9495000C949500CE
:100060000C9495000C949500084AD73B3BCE016E4A
:1000700084BCBFFDC12F3D6C74319ABD56833DDAFF
:100080003D00C77F11BED9E4BB4C3E916BAAAABE0E
:10009000000000803F05A84CCDB2D44EB93836A937
:1000A000020C50B9918688083CA6AAAA2ABE000074
:1000B00000803F004E414E494E495459494E46CD6D
:1000C000CCCC3D0AD7233C17B7D13877CC2B32950F
:1000D00095E6241FB14F0A000020410000C84200ED
:1000E000401C4620BCBE4CCA1B0E5AAEC59D7400B7
:1000F00011241FBECFEFD8E0DEBFCDBF13E0A0E0DC
:10010000B1E0E8ECF9E302C005900D92A437B10725
:10011000D9F718E0A4E7B3E001C01D92A731B107F9
:10012000E1F70E944F100C94E21C0C9400000F9316
:100130001F93CF93DF938FE290E00E94280260E04C
:1001400089E10E94F4088FEF97E40197F1F700C06E
:10015000000061E089E10E94F4080E9440068EECF4
:1001600093E00E9409085E9A5F9A289AEDE6F0E013
:10017000808180648083808180688083E8E6F0E00D
:10018000808184608083CBE6D0E088818160888331
:100190008081816080838CE08093BE031092BF03D6
:1001A0001092C00353985B9A09E610E0F801808131
:1001B0008C608083E99A0E94B70A0E94D30986E086
:1001C00098E00E94FB095298389A5A9AF801808167
:1001D00083608083E89A888180688883EEECF7E00A
:1001E000108210A288E10E94190D0E94F30F88E18D
:1001F0000E941B0E48E161E08EEC97E0DF91CF9109
:100200001F910F910C94C70E809100018823B1F0CB
:100210001092000180E094E0EEECF3E0DF019C013D
:100220001D9221503040E1F7CF010E944B0886E635
:100230009EE00197F1F700001092EE0708951F92DB
:100240000F920FB60F9211248F939F9381E08093AA
:1002500000014E9912C080910101853019F486E0A9
:100260008093010183E397E00197F1F74E9BFECF66
:1002700083E397E00197F1F710C04F990EC080918A
:100280000101815009F485E08093010183E397E047
:100290000197F1F74F9BFECFEBCF9F918F910F907E
:1002A0000FBE0F901F9018951F920F920FB60F92CE
:1002B00011248F939F9391E090930001189914C09B
:1002C000809101018F5F863018F48093010102C094
:1002D0009093010183E397E00197F1F7189BFECF1C
:1002E00083E397E00197F1F79F918F910F900FBEF5
:1002F0000F901F9018951F920F920FB60F92112416
:100300008F939F93809174039091750301969093BE
:100310007503809374039F918F910F900FBE0F9080
:100320001F9018951F920F920FB60F9211242F93C2
:100330003F934F935F936F937F938F939F93AF936D
:10034000BF93EF93FF9386E098E00E94120AFF911B
:10035000EF91BF91AF919F918F917F916F915F913D
:100360004F913F912F910F900FBE0F901F901895B6
:100370001F920F920FB60F9211242F933F934F931A
:100380005F936F937F938F939F93AF93BF93EF93FD
:10039000FF9380910101833021F486E098E00E9470
:1003A0006A0AFF91EF91BF91AF919F918F917F91D9
:1003B0006F915F914F913F912F910F900FBE0F90D2
:1003C0001F9018951F920F920FB60F9211242F9322
:1003D0003F934F935F936F937F938F939F93AF93CD
:1003E000BF93CF93EF93FF938AE593E00E94460279
:1003F000C091CE07C23041F468E18EEC97E00E94D4
:10040000B00F8093EE0712C0C13081F468E18EEC2A
:1004100097E00E94B00F8093ED0780910101863034
:1004200029F086E080930101C0930001FF91EF91D4
:10043000CF91BF91AF919F918F917F916F915F917C
:100440004F913F912F910F900FBE0F901F901895D5
:100450009093C5008093C400E1ECF0E08081886057
:10046000808380818061808386E08093C2000895CC
:100470009091C00095FFFCCF8093C60008958091B5
:10048000C00087FFFCCF8091C60008951F93CF93D3
:10049000DF93EC0110E0812F992787FD9095FE01F5
:1004A00001900020E9F73197EC1BFD0BE817F907E5
:1004B00040F0FE01E80FF91F80810E9438021F5FA3
:1004C000EACF8DE00E9438028AE0DF91CF911F9140
:1004D0000C9438023F924F925F926F927F928F926C
:1004E0009F92AF92BF92CF92DF92EF92FF920F93C3
:1004F0001F93CF93DF93EC012A013B01B22ECB0176
:10050000BA010E9469156B017C018B014AE050E041
:10051000BE01C6010E94271820E030E0A901C301F6
:10052000B2010E94ED1487FF08C077FA709477F843
:100530007094002711270C191D09FE01019000205D
:10054000E9F73197EC1BFD0B332433943E0E8E2ECE
:10055000992487FC9094FE01E80DF91D8EE28083BA
:10056000E12CF12C8B0C911CB7FC9A94C32CCE0C73
:10057000DD24C7FCD094BFEFEB1AFB0A8C149D045A
:1005800044F1B801882777FD8095982F0E94A11526
:100590009B01AC01C301B2010E940E1420E030E0C7
:1005A00040E251E40E94C4162B013C010E946915EF
:1005B000DC01CB018C014AE050E0A12CB12CB5014B
:1005C0000E942718FE01EC0DFD1DD5018C91808342
:1005D000CDCFDF91CF911F910F91FF90EF90DF90E2
:1005E000CF90BF90AF909F908F907F906F905F90D3
:1005F0004F903F9008954E990EC08FEF93E2019770
:10060000F1F700C000004E9BFECF8FEF93E2019701
:10061000F1F700C0000008952F923F924F925F9231
:100620006F927F928F929F92AF92BF92CF92DF9202
:10063000EF92FF920F931F93CF93DF93CDB7DEB767
:1006400067970FB6F894DEBF0FBECDBF7C01F8945C
:1006500060E573E00E94CE1760E573E080E090E013
:100660000E94CE17E0E00097A1F011E01E0FEE0F00
:10067000FF0B21E030E02C0F3D1FE20FF31F9183B1
:10068000808360E573E080E090E00E94CE17E12F68
:10069000EACF2D803E806DE573E0C1010E94D31743
:1006A000F701E75BFF4F4F01892B19F4108281E0BE
:1006B000EAC08E010D5E1F4F85E0F80111928A9508
:1006C000E9F7C980DA80F60180818B8B81818C8B80
:1006D000C8010E94B017F701EA5BFF4F80838930A1
:1006E00010F48F5E01C08750808385E0782EF8017A
:1006F000272D11922A95E9F7B6016E5F7F4F42E0F0
:1007000050E0C8010E94F117C8010E94B017F7011C
:10071000E95BFF4F8083F801272D11922A95E9F7B5
:10072000B6016C5F7F4F42E050E0C8010E94F117B4
:10073000C8010E94B017F701E85BFF4F8083F80102
:1007400011927A94E9F76B807C8042E050E0B3012B
:10075000C8010E94F117C8010E94B0176C01C301C3
:1007600002960E94AC172B013C01B601882777FD49
:100770008095982F0E94A1155B016C0120E030E06C
:1007800040E752E4C301B2010E94F7149B01AC019F
:10079000C601B5010E940F142B013C016701FAE468
:1007A000CF0ED11CF601608371838283938368E549
:1007B00073E0C1010E94D317892B49F477FA709432
:1007C00077F87094F601408251826282738285E0EC
:1007D000F80111928A95E9F7CF80D88443E050E080
:1007E000B601C8010E94F117C8010E94B0178C0120
:1007F000C60103960E94AC172B013C01B801882763
:1008000077FD8095982F0E94A1155B016C0120E077
:1008100030E040E752E4C301B2010E94F7149B01AB
:10082000AC01C601B5010E940F142B013C018701E8
:10083000025B1F4FF801608371838283938364E5B9
:1008400073E089859A850E94D317892B49F477FA3A
:10085000709477F87094F8014082518262827382BA
:1008600089899A890E94AC17F701EE5AFF4F60837D
:100870007183828393838D859E850E94B017F401D6
:100880008083789480E067960FB6F894DEBF0FBE41
:10089000CDBFDF91CF911F910F91FF90EF90DF902F
:1008A000CF90BF90AF909F908F907F906F905F9010
:1008B0004F903F902F9008950F931F93CF93DF9306
:1008C0008C01F89486E4F80111928A95E9F7D0E05A
:1008D000C0E00E943F02873419F4CC2319F102C012
:1008E0008D3011F0D534A1F4C13099F745E050E0D6
:1008F0006FE573E0C8010E94E317892B41F7C80137
:100900000E940C037894DF91CF911F910F9108956D
:10091000C130F9F6F801ED0FF11DD7FDFA9580838E
:10092000DF5FD7CFC1E0DECFDF92EF92FF920F9370
:100930001F93CF93DF93CDB7DEB764970FB6F894CC
:10094000DEBF0FBECDBF7C01F89484E1D82E8E01AE
:100950000F5F1F4FF8018D2D11928A95E9F7F7016E
:10096000E25BFF4F408151816281738126E0C801C3
:100970000E946A0285E693E00E944602C8010E9436
:100980004602F8018D2D11928A95E9F7F701E65B91
:10099000FF4F408151816281738126E0C8010E942E
:1009A0006A028AE693E00E944602C8010E9446025B
:1009B000F8018D2D11928A95E9F7F701EE5AFF4F54
:1009C000408151816281738121E0C8010E946A02E5
:1009D0008FE693E00E944602C8010E944602F80199
:1009E0008D2D11928A95E9F7F701E85BFF4F808121
:1009F0001F928F93319780811F928F9331978081BF
:100A00001F928F9387EE92E09F938F931F930F9384
:100A10000E945F18C8010E944602F8011192DA9400
:100A2000E9F7F701E75BFF4F80811F928F9382E226
:100A300093E09F938F931F930F930E945F18C801B9
:100A40000E94460278940FB6F894DEBF0FBECDBF69
:100A500064960FB6F894DEBF0FBECDBFDF91CF9185
:100A60001F910F91FF90EF90DF9008952F923F928A
:100A70004F925F926F927F928F929F92AF92BF92AE
:100A8000CF92DF92EF92FF920F931F93CF93DF935A
:100A9000CDB7DEB72C970FB6F894DEBF0FBECDBF33
:100AA0001C016A017B010D831E832F833887FC01A3
:100AB000E65BFF4F2BED3FE049E450E4608171813C
:100AC000828193810E94C41620E030E044E353E425
:100AD0000E94F7142B013C012BED3FE049E450E468
:100AE000C701B6010E94C41620E030E044E353E49D
:100AF0000E94F7144B015C019B01AC01C301B201E0
:100B00000E940E1420E030E040E05FE30E94C41633
:100B10000E9431176B017C01C301B2010E94F214E3
:100B20002B013C01C501B4010E94F21469837A8350
:100B30008B839C83F101E25BFF4F2BED3FE049E4A7
:100B400050E460817181828193810E94C41620E00B
:100B500030E044E353E40E94F7144B015C012BEDB9
:100B60003FE049E450E46D817E818F8198850E9449
:100B7000C41620E030E044E353E40E94F7149B01E4
:100B8000AC01C501B4010E940E1420E030E040E049
:100B90005FE30E94C4160E9431174B015C01A7015C
:100BA0009601C701B6010E94C4166B017C01298120
:100BB0003A814B815C81C301B2010E94C416A50138
:100BC00094010E94C416A50194010E94C4169B01C1
:100BD000AC01C701B6010E940F146B017C019B019F
:100BE000AC0160E070E080E89FE30E940E140E9478
:100BF0003F179B01AC01C701B60129873A874B8794
:100C00005C870E943F1729853A854B855C850E9449
:100C10008E149B01AC010E940F1420E73DE642ECCC
:100C20005AE40E94C41620E030E04AE754E40E94EF
:100C3000F7142C960FB6F894DEBF0FBECDBFDF9130
:100C4000CF911F910F91FF90EF90DF90CF90BF90C9
:100C5000AF909F908F907F906F905F904F903F905C
:100C60002F900895CF93C82F88E70E94880980E0CD
:100C70000E94AA098C2F0E94AA09CF910C94BB094B
:100C80000E9484098EEA0E94320685ED0E94320697
:100C900080E80E94320688EA0E9432068FE30E94B2
:100CA000320683ED0E94320680E00E94320680E424
:100CB0000E9432068DE80E94320684E10E943206CC
:100CC00080E20E94320680E00E94320681EA0E94A1
:100CD000320688EC0E9432068AED0E94320682E1DA
:100CE0000E94320681E80E9432068FEC0E94320692
:100CF00089ED0E94320681EF0E9432068BED0E9440
:100D0000320680E40E94320684EA0E94320686EAB5
:100D10000E9432068FEA0C943206F901603494F591
:100D2000992787FD9095362F37704423A9F067FDEA
:100D3000695F65956595659520E86203800D911D55
:100D40001124E80FF91F81E090E001C0880F3A9567
:100D5000EAF79081892B15C067FD695F65956595F8
:100D6000659520E86203800D911D1124E80FF91F9D
:100D700081E090E001C0880F3A95EAF78095908174
:100D8000892380830895CF92DF92FF920F931F9360
:100D9000CF93DF93D82FF62E6901C0E0042F1127DF
:100DA00007FD10954C2F50E0401751074CF4960169
:100DB00041E06F2D8C2F8D0F0E948D06CF5FF2CFFB
:100DC000DF91CF911F910F91FF90DF90CF90089509
:100DD000CF92DF92FF920F931F93CF93DF93D82F81
:100DE000F62E6901C0E0042F112707FD10954C2F46
:100DF00050E0401751074CF46C2F6F0D960141E005
:100E00008D2F0E948D06CF5FF2CFDF91CF911F9182
:100E10000F91FF90DF90CF900895CF92DF92EF92E5
:100E2000FF920F931F93CF93DF93D82FC62FE42EFB
:100E3000C22EF42EF81AF394D22ED61A98014F2D02
:100E40000E94C30698014F2D6C2D8D2F0E94C30662
:100E500098014D2D6C2F8D2F0E94E80698014D2D85
:100E60006C2F8E2DDF91CF911F910F91FF90EF90FE
:100E7000DF90CF900C94E806AF92BF92CF92DF92B2
:100E8000EF92FF920F931F93CF93DF93D82EC62E2E
:100E90005701C42FC81BCF5FF22EF61AD0E0DC1723
:100EA00084F410E0ED2EED0C1F154CF4612F6C0D49
:100EB0009501402F8E2D0E948D061F5FF5CFDF5FBD
:100EC000EECFDF91CF911F910F91FF90EF90DF90C8
:100ED000CF90BF90AF9008957F928F929F92AF92E4
:100EE000BF92CF92DF92EF92FF920F931F93CF9317
:100EF000DF93E82EB62ED42FF22E680110E0C0E06A
:100F0000DC170CF450C096014F2DAC2EAB0C6A2DA3
:100F10000D2F0E0D802F0E948D0696014F2D8D2EC8
:100F20008B0C682D9C2E9E0C892D0E948D0696019F
:100F30004F2D682D7E2C7C1A872D0E948D069601E0
:100F40004F2D6A2D8E2C8D1A882D0E948D069601AC
:100F50004F2DAB2CAC1A6A2D882D0E948D06960160
:100F60004F2D8B2C8D1A682D872D0E948D06960192
:100F70004F2D682D892D0E948D0696014F2D6A2DCB
:100F8000802F0E948D06111644F0CF5F1F5F8C2FBB
:100F9000880F180F11160CF0B3CFD1508D2F880F7A
:100FA0008095180FADCFDF91CF911F910F91FF90DA
:100FB000EF90DF90CF90BF90AF909F908F907F90F9
:100FC0000895CF92DF92EF92FF920F931F93CF93EA
:100FD000DF93D82FF62EC42FE22E68011C164CF496
:100FE00086012E2D4C2F6F2D8D2F0E946C07C15026
:100FF000F5CFDF91CF911F910F91FF90EF90DF9090
:10100000CF900895882311F087EA01C086EA0C94F6
:10101000320620E034E0FC01A90111924150504019
:10102000E1F7089590E050E86503800D911D1124CB
:10103000F901E80FF91F85E0489FA001112480E025
:1010400090E0DC01A40FB51FAE59BF4F2C91219346
:10105000019685309105A9F70895EF92FF920F93BD
:101060001F93CF93DF937901162F1695169516953A
:10107000EA01082F4991442339F09701612F802F0D
:101080000E9412080B5FF6CFDF91CF911F910F9155
:10109000FF90EF900895CF92DF92FF920F931F93EE
:1010A000CF93DF931F92CDB7DEB7182F81E29983DC
:1010B0000E94320680E00E9432068FE70E943206CC
:1010C00082E20E94320680E00E94320687E00E949F
:1010D0003206C12E9981D92E80E4F82E88E70E942D
:1010E000880980E40E94AA0900E010E0F601E00F00
:1010F000F11F80810E94AA090F5F1F4F0031110567
:10110000A9F70E94BB09FA9480E1C80ED11CF11026
:10111000E5CF0F90DF91CF911F910F91FF90DF905E
:10112000CF900895813029F039EE380F363038F0FD
:1011300015C0613011F43E9A08953E98089527B184
:1011400081E090E001C0880F3A95EAF7613011F430
:10115000822B02C08095822387B908959EEF980F55
:10116000953030F095EF980F9330E0F4865001C041
:10117000892F4AB121E030E0613049F4B90102C061
:10118000660F771F8A95E2F7CB01842B09C0B9015E
:1011900002C0660F771F8A95E2F7CB018095842302
:1011A0008AB9089597EF980F923020F08E508630CC
:1011B00010F00895835044B121E030E0613049F4EB
:1011C000B90102C0660F771F8A95E2F7CB01842B25
:1011D00009C0B90102C0660F771F8A95E2F7CB01FB
:1011E0008095842384B90895CF93DF93C82FD62F99
:1011F00061E00E949208C13029F039EE3C0F363090
:1012000038F015C0D13011F4469A42C0469840C01B
:1012100028B181E090E001C0880F3A95EAF7D1301B
:1012200011F4822B02C08095822388B931C08EEFE1
:101230008C0F853030F085EF8C0F833090F4C650E2
:1012400001C0C82F2BB181E090E001C0880FCA9582
:10125000EAF7D13011F4822B02C0809582238BB93A
:1012600017C087EF8C0F823020F0CE50C63010F0C0
:101270000FC0C35025B181E090E001C0880FCA952E
:10128000EAF7D13011F4822B02C08095822385B910
:10129000DF91CF910895CF93C82F60E00E9492080C
:1012A000C13061F029EE2C0F263068F486B190E051
:1012B00002C0959587952A95E2F723C086B186FBF3
:1012C000882780F91FC08EEF8C0F853030F085EFB6
:1012D0008C0F833028F4C65001C0C82F89B10BC0D1
:1012E00087EF8C0F823028F0CE50C63018F082E0A5
:1012F00009C0C35083B190E002C095958795CA9507
:10130000E2F78170CF9108958CE18093B800089541
:101310001092BC0094EA9093BC009091BC0097FF9F
:10132000FCCF9091B900987F983011F081E008953A
:101330008093BB0084E88093BC008091BC0087FF51
:10134000FCCF8091B900887F883111F0803471F72B
:1013500080E008958093BB0084E88093BC00809176
:10136000BC0087FFFCCF9091B900987F81E0983254
:1013700009F480E0089584E98093BC00089584EC2A
:101380008093BC008091BC0087FFFCCF8091BB00A4
:10139000089584E88093BC008091BC0087FFFCCF57
:1013A0008091BB000895ECE7F0E080818064808349
:1013B000808183608083EAE7F0E0808186608083BB
:1013C000808180688083808188608083E1E8F0E0AC
:1013D000808188608083AFE6B0E08C9182608C93DE
:1013E00080EA9CE8909389008093880080818560E2
:1013F000808378940895FC0186E292E09687858741
:1014000088EE93E0908787831382148281E0808343
:101410001282EAE7F0E08081806480830895FC0115
:1014200010820895FC01809178002091790090E06D
:10143000922B948783872385348585859685865A64
:101440009F4F8217930780F4818181110DC08185A0
:10145000928581389C4040F081E0818383818F5F59
:1014600083831286118616C08181813071F42385B1
:101470003485858596852817390738F481859285C6
:101480008D3D954010F0118205C0818592850196B1
:10149000928781872385348585819681821793077A
:1014A00028F483859485968385830BC023853485B2
:1014B000878190852817390720F483859485908744
:1014C00087838081882329F080917A0080648093CB
:1014D0007A000895FC018481882359F02481838156
:1014E00090E0820F911D982F990F980F990F92837A
:1014F00006C093818CE0989F802D11248283838184
:10150000853018F08381848301C014821382858121
:101510009681892B71F087819085892B51F02581E7
:10152000368187819085820F931F96958795968740
:1015300085871682158288EE93E0908787830895C9
:10154000CF93DF9300D0CDB7DEB74A8369830E9483
:1015500088096981862F0E94AA094A81842F0E94E6
:10156000AA090F900F90DF91CF910C94BB0953986B
:101570005B9AE9E6F0E080818C608083E99AF894D8
:101580000E94840948E36FE186ED0E94A00A40ECC6
:1015900060E286ED0E94A00A4AE066E086ED0E94C5
:1015A000A00A40E46CE086ED0E94A00A4FE067E0EC
:1015B00086ED0E94A00A4FE068E086ED0E94A00A36
:1015C00042EB6AE086ED0E94A00A40E062E28CE312
:1015D0000E94A00A789408957F928F929F92AF9272
:1015E000BF92CF92DF92EF92FF920F931F93CF9310
:1015F000DF9362E3762E812C912CA12CB12C00E09C
:1016000010E0C0E0D0E08CE30E94880988E20E94EC
:10161000AA098DE30E9488090E94BF09C82E0E9472
:10162000BF09282F332727FD3095322F2227DD24AD
:10163000C7FCD094C22AD32A0E94BF09F82E0E9468
:10164000C909992787FD9095982F88272F2D332733
:1016500027FD30957C01E22AF32A0E94BB098C14F5
:101660009D042CF0C016D1061CF4860101C0460171
:10167000AE14BF042CF0EC16FD061CF4E70101C00B
:1016800057017A947110BFCFA401400F511F57FF2B
:1016900002C04F5F5F4F8A0115950795C5018C0FFA
:1016A0009D1F97FD0196EC01D595C795412F65E0EB
:1016B0008CE30E94A00A402F66E08CE30E94A00AFF
:1016C0004D2F67E08CE30E94A00A4C2F68E08CE36A
:1016D000DF91CF911F910F91FF90EF90DF90CF900E
:1016E000BF90AF909F908F907F900C94A00ACF9264
:1016F000DF92EF92FF920F931F93CF93DF937C01C2
:101700008B01F8948CE30E94880988E20E94AA0960
:101710008DE30E9488090E94BF09C82F0E94BF095B
:101720006C2F70E06B01D82A0E94BF09C82F0E945D
:10173000C909D0E0D82B0E94BB09B601882777FDE4
:101740008095982F0E94A11528E03CEA4CE15EE3C9
:101750000E94C41620E030E04AE754E40E94F714E7
:10176000F7016083718382839383BE01882777FDAD
:101770008095982F0E94A11528E03CEA4CE15EE399
:101780000E94C41620E030E04AE754E40E94F714B7
:10179000F80160837183828393837894DF91CF9182
:1017A0001F910F91FF90EF90DF90CF900895CF920F
:1017B000DF92EF92FF920F931F93CF93DF93CDB7FA
:1017C000DEB728970FB6F894DEBF0FBECDBF8C01F1
:1017D000BE016F5F7F4FCE0105960E94770B2D8172
:1017E0003E814F81588569817A818B819C810E94DD
:1017F0008E1428E03CE547E55EE30E940F146B0180
:101800007C0120E030E0A9010E94ED1428E23FE0D5
:1018100049EC50E487FF05C0C701B6010E940F14D0
:1018200014C0C701B6010E94B716181634F0F801AB
:10183000C082D182E282F3820DC028E23FE049EC0F
:1018400050E4C701B6010E940E14F8016083718351
:10185000828393832DEE3EE245E652E4F8016081F7
:101860007181828193810E94C416F8016083718323
:101870008283938328960FB6F894DEBF0FBECDBF48
:10188000DF91CF911F910F91FF90EF90DF90CF905C
:1018900008958F929F92AF92BF92CF92DF92EF9274
:1018A000FF920F931F93CF93DF935C017B01EA01BB
:1018B000F89486ED0E94880988E20E94AA0987EDC3
:1018C0000E9488090E94BF09882E0E94BF09912C9E
:1018D000982A0E94BF09C82E0E94BF09D12CD82A7D
:1018E0000E94BF09182F0E94C909082F0E94BB0936
:1018F000B40160577E4F80E090E00E949F1523E284
:101900003BED49E75DE30E94C41620E030E04AE782
:1019100054E40E94F714F5016083718382839383FA
:10192000B6016C5E7F4F80E090E00E949F1523E23D
:101930003BED49E75DE30E94C41620E030E04AE752
:1019400054E40E94F714F7016083718382839383C8
:10195000612F70E0702B80E090E00E949F1523E2E1
:101960003BED49E75DE30E94C41620E030E04AE722
:1019700054E40E94F714688379838A839B83789464
:10198000DF91CF911F910F91FF90EF90DF90CF905B
:10199000BF90AF909F908F9008950F931F93CF9318
:1019A000DF93EC01F89486ED0E94880985E10E949E
:1019B000AA0987ED0E9488090E94C909182F0E9470
:1019C000C909682F772767FD7095762F6627212F25
:1019D000332727FD30958B01022B132B0E94BB0967
:1019E000B801882777FD8095982F0E94A11520E0E7
:1019F00030E040E05EE30E94C41620E030E040EEBC
:101A000051E40E940F1426E636E646EE5FE30E949C
:101A1000C41620E030E040E052E40E940F146883D6
:101A200079838A839B837894DF91CF911F910F9163
:101A3000089561E00E949208F89480E00E943310BB
:101A400081E00E94381080E00E944110789408954F
:101A500061E00C94F4080F931F93CF93DF9300D0B1
:101A60001F92CDB7DEB7182F062FF89460E0842FB1
:101A70004B830E94F408106819830A8362E070E0C7
:101A8000CE0101960E941A1061E04B81842F0E94C2
:101A9000F40878940F900F900F90DF91CF911F91E1
:101AA0000F910895CF93DF93D82FC62FF89460E05D
:101AB0008C2F0E94F4088D2F8F770E94FA0F80E000
:101AC0000E94FA0FD82F61E08C2F0E94F4087894BE
:101AD0008D2FDF91CF910895EF92FF921F93CF93B7
:101AE000DF9300D0CDB7DEB7182F7B01F89460E00C
:101AF000822F2A8349830E94F408812F80680E94E4
:101B0000FA0F4981642F772767FD7095C7010E94FE
:101B1000011061E02A81822F0E94F40878940F90CE
:101B20000F90DF91CF911F91FF90EF900895EF926A
:101B3000FF920F931F93CF93DF9300D0CDB7DEB703
:101B4000F82E162F022FF89460E0822F49837A83B3
:101B50000E94F4088F2D80680E94FA0FE12E7A818E
:101B6000F72E4981140F1E1539F080E00E94FA0FFC
:101B7000F70181937F01F7CF61E0802F0E94F40885
:101B800078940F900F90DF91CF911F910F91FF905C
:101B9000EF9008951F93CF93DF93EC01162F462FFC
:101BA00068818FE20E942B0D412F698180E3DF91D4
:101BB000CF911F910C942B0DCF93DF93D82FC62F6D
:101BC000462F692F8CE20E942B0D4C2F6D2F8DE23A
:101BD000DF91CF910C942B0DCF92DF92EF92FF9279
:101BE000CF93C42F20E034E244E759E40E94C416A6
:101BF00020E034E244E752E40E94F7140E9470159A
:101C00006B017C01B701882799274C2F87E00E9440
:101C10002B0D99278F2D7E2D6D2D4C2F88E00E9446
:101C20002B0D4C2F6C2D89E0CF91FF90EF90DF9022
:101C3000CF900C942B0D1F93CF93DF9300D0CDB793
:101C4000DEB7182F61E08BE00E94920861E089E125
:101C50000E94F4082FEF8FE392E0215080409040E3
:101C6000E1F700C0000060E08BE00E94F4082FEF75
:101C70008FE392E0215080409040E1F700C00000E7
:101C8000412F6FE88CE30E942B0D412F60E38FE61C
:101C90000E942B0D412F65E58AE50E942B0D412FF7
:101CA00060E78CE50E942B0D8DE589838EE28A83A7
:101CB000612FCE0101960E94CA0D612F84E090E051
:101CC0000E94DC0D412F60E070E089ED93E40E94FA
:101CD000EC0D0F900F90DF91CF911F9108951F93FE
:101CE000CF93DF931F92CDB7DEB7182F462F81E039
:101CF00049830E94520D837E612F6C71682B49814C
:101D000081E00F90DF91CF911F910C942B0D1F93C9
:101D1000CF93DF931F92CDB7DEB7462F182F8032B7
:101D20000CF01FE1642F81E149830E94520D807EF7
:101D3000912F498117FD9F5F9595682F692B81E150
:101D40000F90DF91CF911F910C942B0DCF93DF93C8
:101D5000D82FC62F811102C06AE101C06FE04C2F5D
:101D600083E10E942B0D6C2F81E1DD2331F00E9475
:101D7000520D8F71682F606604C00E94520D682F4B
:101D80006F714C2F81E1DF91CF910C942B0D0F934C
:101D90001F93CF93DF93FC012081261709F448C0DD
:101DA000C42FD62F8C01611112C0108265E58AE51F
:101DB0000E942B0D4C2F60E78CE50E942B0D6C2FA1
:101DC00084E0DF91CF911F910F910C946F0E6130E1
:101DD000A9F465E58AE50E942B0D4C2F60E78CE5A0
:101DE0000E942B0D6C2F80E10E946F0E4C2F60E43F
:101DF00085E20E942B0D6C2F80E016C06230C1F48A
:101E00006DE58AE50E942B0D4C2F6CE78CE50E9456
:101E10002B0D6C2F8CE00E946F0E4C2F60E085E242
:101E20000E942B0D6C2F81E00E94A60EF801D0833A
:101E3000DF91CF911F910F910895CF92DF92EF9292
:101E4000FF920F931F93CF93DF937C01CB01D42F8D
:101E5000F89460E00E94C70E60E08D2F0E94F408A5
:101E600080E00E94FA0F80E00E94FA0FC82F8823BA
:101E700091F08701C82EDD24C7FCD094C8018E19CB
:101E80009F098C159D053CF480E00E94FA0FF80133
:101E900081938F01F3CF61E08D2F0E94F408789435
:101EA0008C2FDF91CF911F910F91FF90EF90DF90DA
:101EB000CF900895AF92BF92CF92DF92EF92FF92B0
:101EC0000F931F93CF93DF9300D0CDB7DEB74F3181
:101ED000D4F5122FD42E5B01C92E082FF894422F6F
:101EE00060E0C5010E94C70E612F87E20E94520D7B
:101EF00087FFFACF60E0812F0E94F40880E8898391
:101F0000DA8262E070E0CE0101960E941A10E02EA3
:101F1000FC2C0D0D0E1531F0F70181917F010E940F
:101F2000FA0FF8CF61E0812F0E94F4087894412FD6
:101F300062E0C5010E94C70E612F81E00E94520D30
:101F40008C718430C9F70F900F90DF91CF911F9162
:101F50000F91FF90EF90DF90CF90BF90AF900895DA
:101F60000F931F93CF93DF9300D0CDB7DEB78C01D3
:101F7000462FFC019081913031F0F8018081823050
:101F800061F090E00FC088E24A8399830E94520D6D
:101F90004A81998182FFF1CF05C060E0C8010E94AB
:101FA000C70E91E0892F0F900F90DF91CF911F9175
:101FB0000F910895CF93C82F482F61E083E20E94CC
:101FC0002B0D6C2F83E20E94520D81FFFACF6C2FF4
:101FD00084E20E94520D992781950CF49095959575
:101FE0008795CF910895F8948CE284B981E58CBDF2
:101FF000789408958EBD00000DB407FEFDCF8EB518
:102000000895FC0161157105A1F080818EBD6150BC
:10201000710951F091810DB407FEFDCF8EB59EBDC3
:102020009081890F8083F3CF0DB407FEFDCF8EB56D
:10203000808308956115710579F0FC0120812EBD22
:102040006150710931F0FC0121810DB407FEFDCF13
:10205000F6CF0DB407FEFDCF089560E00C94F408B0
:1020600061E00C94F4089CB5937F892B8CBD089596
:10207000811103C08CB5806202C08CB58F7D8CBD90
:1020800008959CB5282F23709C7F922B9CBD9DB5F5
:1020900082FB882780F99E7F892B8DBD0895CF9381
:1020A000DF93CDB7DEB728970FB6F894DEBF0FBE2B
:1020B000CDBF0E94970078948FEEE82E87E0F82E2F
:1020C00097E1592E2FEFC22E22E0D22E37EF232E8A
:1020D00032E0332E47EE642E42E0742E81E197E227
:1020E0000197F1F780910101813009F07EC00E94D3
:1020F000040188E793E00E945C04EEECF3E0DF016A
:1021000020E034E01D9221503040E1F7CE010196ED
:102110000E94D70BD701E52D1D92EA95E9F7498179
:102120005A816B817C8123E08FEE97E00E946A02E6
:102130002EEC33E04FEE57E065E08AE00E942D0878
:10214000CE0101960E94CD0CD701E52D1D92EA9596
:10215000E9F78091C0031F928F938091BF031F9274
:102160008F938091BE031F928F937F926F92FF9205
:10217000EF920E945F182EEC33E04FEE57E06EE1D5
:1021800082E30E942D08D701E52D1D92EA95E9F71B
:1021900060EF72E08FEE97E00E94DC1749815A8170
:1021A0006B817C8122E085EF97E00E946A022EEC31
:1021B00033E04FEE57E068E285E00E942D08D7013A
:1021C000E52D1D92EA95E9F7809101011F928F9309
:1021D000DF92CF92FF92EF920E945F182EEC33E0D5
:1021E0004FEE57E062E38EE6F9C08230A9F40E9418
:1021F0000401809175038F93809174038F933F92B4
:102200002F92FF92EF920E945F188EEC93E00E9453
:1022100009082EEC33E020C0833009F044C00E944E
:102220000401D701E52D1D92EA95E9F78091080890
:102230001F928F93A2E0B3E0BF93AF93FF92EF9210
:102240000E945F18EEECF3E0DF0120E034E01D9225
:1022500021503040E1F79F014FEE57E06EE185E0FD
:102260000E942D08D701E52D1D92EA95E9F780918E
:1022700001011F928F93DF92CF92FF92EF920E9403
:102280005F182EEC33E04FEE57E062E388E70E94E0
:102290002D088EEC93E00E944B080FB6F894DEBF39
:1022A0000FBECDBF1BCF843009F0ACC00E9404012B
:1022B00088E793E00E945C0488E793E00E945C0456
:1022C000D701E52D1D92EA95E9F76AE073E08FEEFC
:1022D00097E00E94DC174091C6035091C7036091BC
:1022E000C8037091C90326E085EF97E00E946A0257
:1022F0002EEC33E04FEE57E065E085E00E942D08BC
:10230000D701E52D1D92EA95E9F761E173E08FEEC3
:1023100097E00E94DC174091C2035091C303609183
:10232000C4037091C50326E084EF97E00E946A021F
:102330002EEC33E04FEE57E064E185E00E942D087B
:10234000D701E52D1D92EA95E9F767E173E08FEE7D
:1023500097E00E94DC174091CA035091CB03609133
:10236000CC037091CD0321E089EF97E00E946A02CF
:102370002EEC33E04FEE57E063E285E00E942D083B
:10238000D701E52D1D92EA95E9F78091C1031F92CF
:102390008F93A2E2B3E0BF93AF93FF92EF920E94BC
:1023A0005F182EEC33E04FEE57E062E385E00E94C9
:1023B0002D08D701E52D1D92EA95E9F780910101DD
:1023C0001F928F93DF92CF92FF92EF920E945F183D
:1023D0002EEC33E04FEE57E062E388E70E942D08D1
:1023E0000FB6F894DEBF0FBECDBF8091C10381113F
:1023F00020C00EEC13E021E042E06AE088E70E9492
:10240000E10717C08530D1F40E940401D701E52D02
:102410001D92EA95E9F760E373E08FEE97E00E9482
:10242000DC172EEC33E04FEE57E06EE185E00E94C2
:102430002D088EEC93E00E944B0850CE863009F0B8
:102440004DCE0E94040188E793E00E945C048091D5
:10245000CE07813099F4D701E52D1D92EA95E9F771
:1024600064E473E08FEE97E00E94DC172EEC33E01B
:102470004FEE57E065E085E00E942D088091ED0762
:10248000882309F44DC11092ED0748E16EEC77E026
:102490008FEC97E00E941D0F48E161E08EEC97E021
:1024A0000E94C70E60E573E08FEC97E00E94CE17A4
:1024B000E0E00097A9F0BB24B394BE0EEE0FFF0B33
:1024C00021E030E02C0F3D1FE20FF31F918380834A
:1024D00060E573E080E090E00E94CE17EB2DE9CF3D
:1024E0008B809C80C4010E94AC176D837E838F8398
:1024F0009887A980BA80C5010E94AC17AB01BC01C6
:102500000D811E812F81388588E793E00E94360572
:10251000AB01BC01D701E52D1D92EA95E9F726E054
:102520008FEE97E00E946A022EEC33E04FEE57E008
:1025300065E08CE30E942D082091C2033091C30313
:102540004091C4035091C5032D833E834F83588728
:10255000C5010E94AC179B01AC016D817E818F810A
:1025600098850E94ED14181624F18091C60390916D
:10257000C703A091C803B091C9039C01AD015F7767
:102580002D833E834F8358878B819C810E94AC179B
:102590009B01AC015F776D817E818F8198850E9460
:1025A000B71687FD06C00EEC13E021E045E064E1BC
:1025B000B4C08091C2039091C303A091C403B091B1
:1025C000C5038D839E83AF83B887C5010E94AC1776
:1025D0009B01AC016D817E818F8198850E94ED14F5
:1025E00018161CF18091C6039091C703A091C803EF
:1025F000B091C9039C01AD015F772D833E834F836A
:102600005887C4010E94AC179B01AC015F776D81B4
:102610007E818F8198850E94ED1487FF06C00EECA5
:1026200013E021E045E064E13BC08091C20390915A
:10263000C303A091C403B091C5038D839E83AF8370
:10264000B887C5010E94AC179B01AC016D817E81EA
:102650008F8198850E94B716181624F58091C603BD
:102660009091C703A091C803B091C9039C01AD012B
:102670005F772D833E834F835887C4010E94AC1738
:102680009B01AC015F776D817E818F8198850E946F
:10269000ED1487FF07C00EEC13E021E045E068E28F
:1026A0008DE23CC08091C2039091C303A091C4030A
:1026B000B091C5038D839E83AF83B887C5010E9407
:1026C000AC179B01AC016D817E818F8198850E9442
:1026D000B71618162CF58091C6039091C703A091E8
:1026E000C803B091C9039C01AD015F772D833E8380
:1026F0004F835887C4010E94AC179B01AC015F77E0
:102700006D817E818F8198850E94B71687FD08C0F4
:102710000EEC13E021E045E068E28BE40E94E10763
:10272000D701E52D1D92EA95E9F762E573E08FEE9A
:1027300097E00E94DC172EEC33E04FEE57E06AE0A2
:102740008CE30E942D088EEC93E00E944B08D70189
:10275000E52D1D92EA95E9F764E573E08FEE97E0C9
:102760000E94DC172EEC33E04FEE57E06EE18EE175
:102770000E942D088EEC93E00E944B08D701E52DB6
:102780001D92EA95E9F766E573E08FEE97E00E9407
:10279000DC172EEC33E04FEE57E06EE18AE50E9445
:1027A0002D088EEC93E00E944B08D701E52D1D9279
:1027B000EA95E9F768E573E08FEE97E00E94DC1791
:1027C0002EEC33E04FEE57E062E38CE30E942D08DD
:1027D0008EEC93E00E944B08D701E52D1D92EA95FF
:1027E000E9F7809101011F928F93DF92CF92FF92C0
:1027F000EF920E945F182EEC33E04FEE57E062E359
:1028000088E70E942D088EEC93E00E944B080F9001
:102810000F900F900F900F900F9060CC5058BB27E7
:10282000AA270E9426140C9469160E94301638F0CC
:102830000E94371620F039F49F3F19F426F40C94C7
:1028400006160EF4E095E7FB0C940016E92F0E94A3
:102850008E1658F3BA17620773078407950720F09E
:1028600079F4A6F50C94B0160EF4E0950B2EBA2F61
:10287000A02D0B01B90190010C01CA01A001112486
:10288000FF27591B99F0593F50F4503E68F11A1632
:10289000F040A22F232F342F4427585FF3CF4695C3
:1028A00037952795A795F0405395C9F77EF41F16E5
:1028B000BA0B620B730B840BBAF09150A1F0FF0FAF
:1028C000BB1F661F771F881FC2F70EC0BA0F621F9B
:1028D000731F841F48F4879577956795B795F7958B
:1028E0009E3F08F0B0CF9395880F08F09927EE0F20
:1028F0009795879508950E94301660F080E891E0E2
:1029000009F49EEF0E94371628F040E851E071F478
:102910005EEF0CC00C9406160C94B016E92FE0780C
:102920000E948E1640F3092E052AB1F326173707A9
:102930004807590738F00E2E07F8E02569F0E02522
:10294000E0640AC0EF6307F8009407FADB01B901FD
:102950009D01DC01CA01AD01EF930E940E150E949A
:1029600069160E94BE145F91552339F02BED3FE0AC
:1029700049E450FD49EC0C940F140895DF93DD27D2
:10298000B92FBF7740E85FE31616170648075B07C5
:1029900018F4D92F0E94BC169F938F937F936F9347
:1029A0000E947F17E8E6F0E00E9409160E9469166F
:1029B0002F913F914F915F910E94D716DD2351F0E7
:1029C0009058A2EA2AED3FE049EC5FE3D0785D271A
:1029D0000E942614DF910C9469160E94DC1508F4FD
:1029E00081E008950E944016E3950C947A160E94A7
:1029F0000B150C9469160E94371658F00E94301679
:102A000040F029F45F3F29F00C94001651110C940A
:102A1000B1160C9406160E948E1668F39923B1F332
:102A2000552391F3951B550BBB27AA2762177307F4
:102A3000840738F09F5F5F4F220F331F441FAA1F88
:102A4000A9F335D00E2E3AF0E0E832D09150504044
:102A5000E695001CCAF72BD0FE2F29D0660F771FF2
:102A6000881FBB1F261737074807AB07B0E809F0D8
:102A7000BB0B802DBF01FF2793585F4F3AF09E3F5D
:102A8000510578F00C9400160C94B1165F3FE4F3F6
:102A9000983ED4F3869577956795B795F7959F5FA0
:102AA000C9F7880F911D9695879597F90895E1E0EC
:102AB000660F771F881FBB1F621773078407BA074B
:102AC00020F0621B730B840BBA0BEE1F88F7E095A6
:102AD00008950E9470156894B1110C94B116089570
:102AE0000E94961688F09F5798F0B92F9927B751F2
:102AF000B0F0E1F0660F771F881F991F1AF0BA95A2
:102B0000C9F714C0B13091F00E94B016B1E0089539
:102B10000C94B016672F782F8827B85F39F0B93F2B
:102B2000CCF3869577956795B395D9F73EF4909554
:102B30008095709561957F4F8F4F9F4F0895E894D2
:102B400009C097FB3EF490958095709561957F4FF5
:102B50008F4F9F4F9923A9F0F92F96E9BB279395A3
:102B6000F695879577956795B795F111F8CFFAF4B3
:102B7000BB0F11F460FF1BC06F5F7F4F8F4F9F4FE4
:102B800016C0882311F096E911C0772321F09EE842
:102B9000872F762F05C0662371F096E8862F70E0A8
:102BA00060E02AF09A95660F771F881FDAF7880F82
:102BB0009695879597F90895990F0008550FAA0BD8
:102BC000E0E8FEEF16161706E807F907C0F0121640
:102BD0001306E407F50798F0621B730B840B950B43
:102BE00039F40A2661F0232B242B252B21F4089598
:102BF0000A2609F4A140A6958FEF811D811D089535
:102C000097F99F6780E870E060E008959FEF80EC9F
:102C10000895DF93CF931F930F93FF92EF92DF926C
:102C20007B018C01689406C0DA2EEF010E94D71652
:102C3000FE01E894A5912591359145915591A6F312
:102C4000EF010E942614FE019701A801DA9469F7AA
:102C5000DF90EF90FF900F911F91CF91DF9108953A
:102C600000240A941616170618060906089500246B
:102C70000A94121613061406050608950C940616F7
:102C80000E949616D8F3E894E0E0BB279F57F0F037
:102C90002AED3FE049EC06C0EE0FBB0F661F771F21
:102CA000881F28F0B23A62077307840728F0B25AE7
:102CB000620B730B840BE3959A9572F7803830F4AE
:102CC0009A95BB0F661F771F881FD2F790480C9408
:102CD0008517092E0394000C11F4882352F0BB0FC2
:102CE00040F4BF2B11F460FF04C06F5F7F4F8F4F24
:102CF0009F4F0895EF93E0FF07C0A2EA2AED3FE05F
:102D000049EC5FEB0E9426140E9469160F90039411
:102D100001FC9058E5E9F0E00C94981757FD9058A5
:102D2000440F551F59F05F3F71F04795880F97FB8F
:102D3000991F61F09F3F79F0879508951216130649
:102D40001406551FF2CF4695F1DF08C01616170678
:102D50001806991FF1CF86957105610508940895AD
:102D6000E894BB2766277727CB0197F908950E943F
:102D7000DC1508F48FEF08959B01AC0160E070E072
:102D800080E89FE30C94F7140E94D7160C94691600
:102D90000E94301638F00E94371620F0952311F06B
:102DA0000C9400160C94061611240C94B1160E9473
:102DB0008E1670F3959FC1F3950F50E0551F629FDB
:102DC000F001729FBB27F00DB11D639FAA27F00D84
:102DD000B11DAA1F649F6627B00DA11D661F829FAB
:102DE0002227B00DA11D621F739FB00DA11D621F90
:102DF000839FA00D611D221F749F3327A00D611DAD
:102E0000231F849F600D211D822F762F6A2F11248E
:102E10009F5750409AF0F1F088234AF0EE0FFF1FC1
:102E2000BB1F661F771F881F91505040A9F79E3F18
:102E3000510580F00C9400160C94B1165F3FE4F33A
:102E4000983ED4F3869577956795B795F795E7956E
:102E50009F5FC1F7FE2B880F911D9695879597F977
:102E600008959F930E9440160F9007FCEE5F0C940C
:102E70007A1619F416F40C9406160C9483170E9413
:102E80009616B8F39923C9F3B6F39F57550B87FFEE
:102E90000E9491170024A0E640EA900180585695C0
:102EA000979528F4805C660F771F881F20F02617FF
:102EB0003707480730F4621B730B840B2029312934
:102EC0004A2BA69517940794202531254A2758F7B1
:102ED000660F771F881F20F026173707480730F442
:102EE000620B730B840B200D311D411DA09581F7E2
:102EF000B901842F9158880F9695879508959B0165
:102F0000AC010C94C4169F3F31F0915020F487958A
:102F100077956795B795880F911D9695879597F941
:102F2000089591505040660F771F881FD2F708957B
:102F30009F938F937F936F93FF93EF939B01AC01CC
:102F40000E94C416EF91FF910E9409162F913F91A4
:102F50004F915F910C94C416662777270C94541AEE
:102F6000FC0188279927E89421912032E9F3293040
:102F700010F02E30C8F32B3241F02D3239F4689422
:102F800004C00E943D18820F911D219120532A30C8
:102F9000C0F31EF4909581959F4F089546E753E046
:102FA0000E9400180895FB01DC018D9101908019A9
:102FB0000110D9F3990B0895FB01DC0101900D92EA
:102FC0000020E1F70895FB01DC014150504030F052
:102FD0008D910190801919F40020B9F7881B990B85
:102FE0000895FB01DC014150504048F001900D92E2
:102FF0000020C9F701C01D9241505040E0F70895EC
:10300000FA01A191B081009719F41097E1F0CD0178
:10301000DC01CD010D90002011F4C00113C0FB01B3
:103020002191222319F02015D9F7F3CFFB0121912B
:10303000201519F41E92119606C02223C1F70D9097
:103040000020A1F7D001FA01A193B0830895453281
:10305000510520F4423010F00C943218FB0110821C
:10306000CB010895BB274A3031F4992322F4BDE205
:10307000909581959F4F0C9446187AE0979F902DDC
:10308000879F802D910D11240895BB27FB015527A3
:10309000AA27880F991FAA1FA41710F0A41B8395B5
:1030A0005051B9F7A05DAA3308F0A95DA19300972C
:1030B00079F7B111B1931192CB010C94E81BAEE0FA
:1030C000B0E0E5E6F8E10C94AA1C0D891E8986E0C3
:1030D0008C831A8309838FEF9FE79E838D83AE01D4
:1030E000475E5F4F6F89788DCE0101960E948218EE
:1030F0002F813885F801E20FF31F10822E96E4E04D
:103100000C94C61CACE0B0E0E8E8F8E10C949C1C20
:103110007C016B018A01FC0117821682838181FF89
:10312000BDC1CE0101964C01F7019381F60193FDDB
:10313000859193FF81916F01882309F4ABC185329A
:1031400039F493FD859193FF81916F01853229F4C4
:10315000B70190E00E94F81BE7CF512C312C20E002
:103160002032A0F48B3269F030F4803259F083328F
:1031700069F420612CC08D3239F0803339F421603C
:1031800026C02260246023C0286021C027FD27C0FC
:1031900030ED380F3A3078F426FF06C0FAE05F9E33
:1031A000300D1124532E13C08AE0389E300D1124A7
:1031B000332E20620CC08E3221F426FD6BC12064B8
:1031C00006C08C3611F4206802C0883641F4F6013E
:1031D00093FD859193FF81916F018111C1CF982F4C
:1031E0009F7D9554933028F40C5F1F4FFFE3F983C4
:1031F0000DC0833631F0833771F0833509F05BC041
:1032000022C0F801808189830E5F1F4F44244394BC
:10321000512C540115C03801F2E06F0E711CF801F9
:10322000A080B18026FF03C0652D70E002C06FEF63
:103230007FEFC5012C870E94DD1B2C0183012C85AB
:103240002F77222E17C03801F2E06F0E711CF801A3
:10325000A080B18026FF03C0652D70E002C06FEF33
:103260007FEFC5012C870E94D21B2C012C85206882
:10327000222E830123FC1BC0832D90E048165906A3
:10328000B0F4B70180E290E00E94F81B3A94F4CFCA
:10329000F50127FC859127FE81915F01B70190E040
:1032A0000E94F81B31103A94F1E04F1A5108411472
:1032B000510471F7E5C0843611F0893639F5F8010B
:1032C00027FF07C060817181828193810C5F1F4F4E
:1032D00008C060817181882777FD8095982F0E5FE7
:1032E0001F4F2F76722E97FF09C09095809570958D
:1032F00061957F4F8F4F9F4F2068722E2AE030E0FC
:10330000A4010E94301CA82EA81844C0853729F4B7
:103310002F7EB22E2AE030E025C0F22FF97FBF2E9B
:103320008F36C1F018F4883579F0B4C0803719F0C1
:10333000883721F0AFC02F2F2061B22EB4FE0DC010
:103340008B2D8460B82E09C024FF0AC09F2F966081
:10335000B92E06C028E030E005C020E130E002C010
:1033600020E132E0F801B7FE07C0608171818281FF
:1033700093810C5F1F4F06C06081718180E090E0F7
:103380000E5F1F4FA4010E94301CA82EA818FB2D11
:10339000FF777F2E76FE0BC0372D3E7FA51450F4AD
:1033A00074FE0AC072FC08C0372D3E7E05C0BA2CE0
:1033B000372D03C0BA2C01C0B52C34FF0DC0FE015F
:1033C000EA0DF11D8081803311F4397E09C032FF8E
:1033D00006C0B394B39404C0832F867809F0B394E5
:1033E00033FD13C030FF06C05A2CB31418F4530C2D
:1033F0005B18B32CB31468F4B70180E290E03C870B
:103400000E94F81BB3943C85F5CFB31410F43B181D
:1034100001C0312C34FF12C0B70180E390E03C873B
:103420000E94F81B3C8532FF17C031FD03C088E7BE
:1034300090E002C088E590E0B7010CC0832F867849
:1034400059F031FF02C08BE201C080E237FD8DE20E
:10345000B70190E00E94F81BA51438F4B70180E38F
:1034600090E00E94F81B5A94F7CFAA94F401EA0D59
:10347000F11D8081B70190E00E94F81BA110F5CFEB
:10348000332009F451CEB70180E290E00E94F81B8E
:103490003A94F6CFF7018681978102C08FEF9FEFB4
:1034A0002C96E2E10C94B81CA0E0B0E0EAE5FAE169
:1034B0000C94A01CEC017B016115710519F0DB0176
:1034C0008D939C938E010F5F1F4F7880872D90E026
:1034D0000E94B11B892B11F0E801F4CFBDE27B12F1
:1034E00005C00F5F1F4F7980C1E008C0EBE27E127C
:1034F00004C08E010E5F1F4F7980C0E06801F1E0CB
:10350000CF1AD10843E050E06CEB70E0C6010E9496
:10351000BA1B892BF1F4680122E0C20ED11C45E0F0
:1035200050E067EB70E0C6010E94BA1B892B21F4C2
:10353000680187E0C80ED11CE114F10419F0D7012D
:10354000CD92DC92C111FFC060E070E080E89FE79F
:1035500003C143E050E064EB70E0C6010E94BA1B77
:10356000892B51F4E114F10409F4F2C00E5F1F4FEE
:10357000F70111830083ECC0680160E070E0CB01CB
:1035800000E010E0F601D0EDD70DDA3058F52C2F21
:103590002260622E2C2F2870C2FF05C0211128C086
:1035A0000F5F1F4F25C0222311F001501109A5E024
:1035B000B0E09B01AC010E94911C4B015C01880CA6
:1035C000991CAA1CBB1CC501B4016D0F711D811D86
:1035D000911D6839A9E97A078A07A9E19A0740F09D
:1035E000C66005C0DE3F51F4C3FD44C0C8606C2E08
:1035F000BFEFCB1ADB0A7080C62DC4CF2D2F2F7DD5
:103600002531C1F540814D3211F4C06106C04B3205
:1036100021F0319621E030E006C03296D6011196B5
:103620004C9122E030E0A0EDA40FAA3018F0E21B8C
:10363000F30B20C040E050E04038BCE05B075CF496
:103640009A01220F331F220F331F420F531F440FC3
:10365000551F4A0F511D3196DF0111972C91A0ED96
:10366000A20FAA3048F3C4FF03C0519541955109F8
:10367000040F151FC1FF07C0E114F10421F03197B9
:10368000D701ED93FC930E949F15C370C33019F0CE
:103690006B017C0106C06B017C01F7FAF094F7F82E
:1036A000F09420E030E0A901C701B6010E94ED14BA
:1036B000882309F445C017FF06C01195019511092B
:1036C000C3EDD0E002C0CBEED0E05E01B8E1AB1AB2
:1036D000B1084601BE2DAF2D90E2E92EF12C0E155A
:1036E0001F0584F0FE012591359145915491B40157
:1036F0008B2F9A2F0E94C4164B01B82FA92F0E1999
:103700001F09EDCF2497F594E794CA15DB0539F727
:103710006401EB2EFA2E8E2D880F8F2D881F8F3F80
:1037200049F020E030E0A901C701B6010E94ED1484
:10373000811106C082E290E09093160880931508EC
:10374000C701B60109C060E070E080E89FEF04C0E7
:1037500060E070E080EC9FE7CDB7DEB7EEE00C9460
:10376000BC1C91110C948E1C803219F0895085502C
:10377000C8F70895FB01DC014150504088F08D915D
:1037800081341CF08B350CF4805E659161341CF043
:103790006B350CF4605E861B611171F3990B089513
:1037A000881BFCCFFC010590615070400110D8F7D8
:1037B000809590958E0F9F1F0895FC016150704079
:1037C00001900110D8F7809590958E0F9F1F089556
:1037D000DC01FC01672F71917723E1F7329704C078
:1037E0007C916D9370836291AE17BF07C8F3089503
:1037F0000F931F93CF93DF93FB01238121FD03C020
:103800008FEF9FEF28C022FF16C046815781248189
:1038100035814217530744F4A081B1819D012F5F88
:103820003F4F318320838C93268137812F5F3F4F19
:103830003783268310C0EB01092F182F0084F185F0
:10384000E02D0995892BE1F68E819F8101969F835A
:103850008E83812F902FDF91CF911F910F9108952B
:10386000FA01AA27283051F1203181F1E8946F93B1
:103870006E7F6E5F7F4F8F4F9F4FAF4FB1E03ED057
:10388000B4E03CD0670F781F891F9A1FA11D680FF5
:10389000791F8A1F911DA11D6A0F711D811D911D28
:1038A000A11D20D009F468943F912AE0269F11249D
:1038B0003019305D3193DEF6CF010895462F477001
:1038C000405D4193B3E00FD0C9F7F6CF462F4F705C
:1038D000405D4A3318F0495D31FD4052419302D0BA
:1038E000A9F7EACFB4E0A695979587957795679560
:1038F000BA95C9F700976105710508959B01AC0160
:103900000A2E06945795479537952795BA95C9F786
:10391000620F731F841F951FA01D08959927882784
:1039200008950E94D31CA59F900DB49F900DA49F55
:10393000800D911D112408952F923F924F925F9216
:103940006F927F928F929F92AF92BF92CF92DF92AF
:10395000EF92FF920F931F93CF93DF93CDB7DEB714
:10396000CA1BDB0B0FB6F894DEBF0FBECDBF0994A8
:103970002A88398848885F846E847D848C849B84FF
:10398000AA84B984C884DF80EE80FD800C811B810D
:10399000AA81B981CE0FD11D0FB6F894DEBF0FBE3C
:1039A000CDBFED010895A29FB001B39FC001A39FB9
:1039B000700D811D1124911DB29F700D811D112468
:0839C000911D0895F894FFCF5A
:1039C8000101000000000000004F00000007000790
:1039D80000147F147F14242A7F2A12231308646298
:1039E80036495522500005030000001C2241000002
:1039F80041221C0014083E081408083E080800501C
:103A0800300000080808080800606000002010085E
:103A180004023E5149453E00427F400042615149FF
:103A2800462141454B311814127F10274545453929
:103A38003C4A494930017109050336494949360666
:103A48004949291E00363600000056360000081481
:103A580022410014141414140041221408020151C4
:103A68000906324979413E7E1111117E7F49494943
:103A7800363E414141227F4141221C7F494949410B
:103A88007F090909013E4149497A7F0808087F00F2
:103A9800417F41002040413F017F081422417F407F
:103AA8004040407F020C027F7F0408107F3E414166
:103AB800413E7F090909063E4151215E7F091929C6
:103AC80046464949493101017F01013F4040403F95
:103AD8001F2040201F3F4038403F631408146307ED
:103AE800087008076151494543007F4141000204BD
:103AF8000810200041417F000402010204404040B8
:103B08004040010204000020545454787F48444443
:103B1800383844444420384444487F38545454186E
:103B2800087E090102064949493F7F0804047800D4
:103B3800447D40002040443D007F1028440000415F
:103B48007F40007C0418047C7C08040478384444D2
:103B580044387C14141408081414187C7C080404D1
:103B6800084854545420043F4440203C4040207CA2
:103B78001C2040201C3C4030403C44281028440C69
:103B88005050503C4464544C4400083641000000F6
:103B98007F000000413608000201020402080C0EF2
:103BA8000C08081838180825643A25643A25640072
:103BB80074656D703A20007374657073203A20251F
:103BC800640042504D3A202564006C6F6E673A20BD
:103BD800006C61743A2000616C7469747564653AAC
:103BE8002000736174656C6C6974657320256400CA
:103BF80072656420627574746F6E20746F207472BD
:103C080061636B006469737420286B6D293A200026
:103C18002C004E0057004500530049200030004753
:103C280050474741006C6F6E20006C617420004162
:043C38006C74200088
:00000001FF
