:100000000C9478000C94E2010C947B010C94540144
:100010000C9495000C941F010C9495000C94950081
:100020000C9495000C9495000C9495000C94B801D8
:100030000C9495000C9495000C9495000C949500EC
:100040000C9495000C9495000C9495000C949500DC
:100050000C9495000C9492010C9495000C949500CE
:100060000C9495000C949500084AD73B3BCE016E4A
:1000700084BCBFFDC12F3D6C74319ABD56833DDAFF
:100080003D00C77F11BED9E4BB4C3E916BAAAABE0E
:10009000000000803F05A84CCDB2D44EB93836A937
:1000A000020C50B9918688083CA6AAAA2ABE000074
:1000B00000803F004E414E494E495459494E46CD6D
:1000C000CCCC3D0AD7233C17B7D13877CC2B32950F
:1000D00095E6241FB14F0A000020410000C84200ED
:1000E000401C4620BCBE4CCA1B0E5AAEC59D7400B7
:1000F00011241FBECFEFD8E0DEBFCDBF13E0A0E0DC
:10010000B1E0E4E4F6E302C005900D92AC36B1072D
:10011000D9F728E0ACE6B3E001C01D92AE31B207DA
:10012000E1F70E9408100C94201B0C9400000F9320
:100130001F93CF93DF938FE290E00E94280260E04C
:1001400089E10E94F4088FEF97E40197F1F700C06E
:10015000000061E089E10E94F4080E94400686ECFC
:1001600093E00E9409085E9A5F9A289AEDE6F0E013
:10017000808180648083808180688083E8E6F0E00D
:10018000808184608083CBE6D0E088818160888331
:100190008081816080838CE08093B6031092B703E6
:1001A0001092B80353985B9A09E610E0F801808139
:1001B0008C608083E99A0E94B70A0E94D3098DE07F
:1001C00098E00E94FB095298389A5A9AF801808167
:1001D00083608083E89A8881806888831092C6074C
:1001E0001092E60788E10E94D20C0E94AC0F88E1D1
:1001F0000E94D40D48E161E086EC97E0DF91CF9159
:100200001F910F910C94800E809100018823B1F012
:100210001092000180E094E0E6ECF3E0DF019C0145
:100220001D9221503040E1F7CF010E944B0886E635
:100230009EE00197F1F700001092E60708951F92E3
:100240000F920FB60F9211248F939F9381E08093AA
:1002500000014E9912C080910101853019F486E0A9
:100260008093010183E397E00197F1F74E9BFECF66
:1002700083E397E00197F1F710C04F990EC080918A
:100280000101815009F485E08093010183E397E047
:100290000197F1F74F9BFECFEBCF9F918F910F907E
:1002A0000FBE0F901F9018951F920F920FB60F92CE
:1002B00011248F939F9391E090930001189914C09B
:1002C000809101018F5F863018F48093010102C094
:1002D0009093010183E397E00197F1F7189BFECF1C
:1002E00083E397E00197F1F79F918F910F900FBEF5
:1002F0000F901F9018951F920F920FB60F92112416
:100300008F939F9380916C0390916D0301969093CE
:100310006D0380936C039F918F910F900FBE0F9090
:100320001F9018951F920F920FB60F9211242F93C2
:100330003F934F935F936F937F938F939F93AF936D
:10034000BF93EF93FF938DE098E00E94120AFF9114
:10035000EF91BF91AF919F918F917F916F915F913D
:100360004F913F912F910F900FBE0F901F901895B6
:100370001F920F920FB60F9211242F933F934F931A
:100380005F936F937F938F939F93AF93BF93EF93FD
:10039000FF9380910101833021F48DE098E00E9469
:1003A0006A0AFF91EF91BF91AF919F918F917F91D9
:1003B0006F915F914F913F912F910F900FBE0F90D2
:1003C0001F9018951F920F920FB60F9211242F9322
:1003D0003F934F935F936F937F938F939F93AF93CD
:1003E000BF93CF93EF93FF938DE493E00E94460277
:1003F000C091C607C23041F468E186EC97E00E94E4
:10040000690F8093E60712C0C13081F468E186EC81
:1004100097E00E94690F8093E50780910101863083
:1004200029F086E080930101C0930001FF91EF91D4
:10043000CF91BF91AF919F918F917F916F915F917C
:100440004F913F912F910F900FBE0F901F901895D5
:100450009093C5008093C400E1ECF0E08081886057
:10046000808380818061808386E08093C2000895CC
:100470009091C00095FFFCCF8093C60008958091B5
:10048000C00087FFFCCF8091C60008951F93CF93D3
:10049000DF93EC0110E0812F992787FD9095FE01F5
:1004A00001900020E9F73197EC1BFD0BE817F907E5
:1004B00040F0FE01E80FF91F80810E9438021F5FA3
:1004C000EACF8DE00E9438028AE0DF91CF911F9140
:1004D0000C9438023F924F925F926F927F928F926C
:1004E0009F92AF92BF92CF92DF92EF92FF920F93C3
:1004F0001F93CF93DF93EC012A013B01B22ECB0176
:10050000BA010E94C5136B017C018B014AE050E0E7
:10051000BE01C6010E94671620E030E0A901C301B8
:10052000B2010E94561387FF08C077FA709477F8DB
:100530007094002711270C191D09FE01019000205D
:10054000E9F73197EC1BFD0B332433943E0E8E2ECE
:10055000992487FC9094FE01E80DF91D8EE28083BA
:10056000E12CF12C8B0C911CB7FC9A94C32CCE0C73
:10057000DD24C7FCD094BFEFEB1AFB0A8C149D045A
:1005800044F1B801882777FD8095982F0E94F813D1
:100590009B01AC01C301B2010E948F1220E030E048
:1005A00040E251E40E940D152B013C010E94C5134D
:1005B000DC01CB018C014AE050E0A12CB12CB5014B
:1005C0000E946716FE01EC0DFD1DD5018C91808304
:1005D000CDCFDF91CF911F910F91FF90EF90DF90E2
:1005E000CF90BF90AF909F908F907F906F905F90D3
:1005F0004F903F9008954E990EC08FEF93E2019770
:10060000F1F700C000004E9BFECF8FEF93E2019701
:10061000F1F700C0000008952F923F924F925F9231
:100620006F927F928F929F92AF92BF92CF92DF9202
:10063000EF92FF920F931F93CF93DF93CDB7DEB767
:1006400067970FB6F894DEBF0FBECDBF7C01F8945C
:100650006BE473E00E9403166BE473E080E090E0CB
:100660000E940316E0E00097A1F011E01E0FEE0FCC
:10067000FF0B21E030E02C0F3D1FE20FF31F9183B1
:1006800080836BE473E080E090E00E940316E12F2A
:10069000EACF2D803E8060E573E0C1010E94131611
:1006A000F701E75BFF4F4F01892B19F4108281E0BE
:1006B000EAC08E010D5E1F4F85E0F80111928A9508
:1006C000E9F7C980DA80F60180818B8B81818C8B80
:1006D000C8010E94E515F701EA5BFF4F808389306E
:1006E00010F48F5E01C08750808385E0782EF8017A
:1006F000272D11922A95E9F7B6016E5F7F4F42E0F0
:1007000050E0C8010E943116C8010E94E515F701AA
:10071000E95BFF4F8083F801272D11922A95E9F7B5
:10072000B6016C5F7F4F42E050E0C8010E94311675
:10073000C8010E94E515F701E85BFF4F8083F801CF
:1007400011927A94E9F76B807C8042E050E0B3012B
:10075000C8010E943116C8010E94E5156C01C30151
:1007600002960E94E1152B013C01B601882777FD16
:100770008095982F0E94F8135B016C0120E030E017
:1007800040E752E4C301B2010E945D139B01AC013A
:10079000C601B5010E9490122B013C016701FAE4E9
:1007A000CF0ED11CF601608371838283938362E54F
:1007B00073E0C1010E941316892B49F477FA7094F3
:1007C00077F87094F601408251826282738285E0EC
:1007D000F80111928A95E9F7CF80D88443E050E080
:1007E000B601C8010E943116C8010E94E5158C01AE
:1007F000C60103960E94E1152B013C01B801882730
:1008000077FD8095982F0E94F8135B016C0120E022
:1008100030E040E752E4C301B2010E945D139B0146
:10082000AC01C601B5010E9490122B013C01870169
:10083000025B1F4FF801608371838283938364E5B9
:1008400073E089859A850E941316892B49F477FAFB
:10085000709477F87094F8014082518262827382BA
:1008600089899A890E94E115F701EE5AFF4F60834A
:100870007183828393838D859E850E94E515F401A3
:100880008083789480E067960FB6F894DEBF0FBE41
:10089000CDBFDF91CF911F910F91FF90EF90DF902F
:1008A000CF90BF90AF909F908F907F906F905F9010
:1008B0004F903F902F9008950F931F93CF93DF9306
:1008C0008C01F89486E4F80111928A95E9F7D0E05A
:1008D000C0E00E943F02873419F4CC2319F102C012
:1008E0008D3011F0D534A1F4C13099F745E050E0D6
:1008F00066E573E0C8010E942316892B41F7C80101
:100900000E940C037894DF91CF911F910F9108956D
:10091000C130F9F6F801ED0FF11DD7FDFA9580838E
:10092000DF5FD7CFC1E0DECFDF92EF92FF920F9370
:100930001F93CF93DF93CDB7DEB764970FB6F894CC
:10094000DEBF0FBECDBF7C01F89484E1D82E8E01AE
:100950000F5F1F4FF8018D2D11928A95E9F7F7016E
:10096000E25BFF4F408151816281738126E0C801C3
:100970000E946A028CE593E00E944602C8010E9430
:100980004602F8018D2D11928A95E9F7F701E65B91
:10099000FF4F408151816281738126E0C8010E942E
:1009A0006A0281E693E00E944602C8010E94460264
:1009B000F8018D2D11928A95E9F7F701EE5AFF4F54
:1009C000408151816281738121E0C8010E946A02E5
:1009D00086E693E00E944602C8010E944602F801A2
:1009E0008D2D11928A95E9F7F701E85BFF4F808121
:1009F0001F928F93319780811F928F9331978081BF
:100A00001F928F9387EE92E09F938F931F930F9384
:100A10000E949F16C8010E944602F8011192DA94C2
:100A2000E9F7F701E75BFF4F80811F928F9382E226
:100A300093E09F938F931F930F930E949F16C8017B
:100A40000E94460278940FB6F894DEBF0FBECDBF69
:100A500064960FB6F894DEBF0FBECDBFDF91CF9185
:100A60001F910F91FF90EF90DF9008952F923F928A
:100A70004F925F926F927F928F929F92AF92BF92AE
:100A8000CF92DF92EF92FF920F931F93CF93DF935A
:100A9000CDB7DEB72C970FB6F894DEBF0FBECDBF33
:100AA0001C016A017B010D831E832F833887FC01A3
:100AB000E65BFF4F2BED3FE049E450E4608171813C
:100AC000828193810E940D1520E030E044E353E4DD
:100AD0000E945D132B013C012BED3FE049E450E403
:100AE000C701B6010E940D1520E030E044E353E455
:100AF0000E945D134B015C019B01AC01C301B2017B
:100B00000E948F1220E030E040E05FE30E940D156C
:100B10000E9470156B017C01C301B2010E945A133F
:100B20002B013C01C501B4010E945A1369837A83E9
:100B30008B839C83F101E25BFF4F2BED3FE049E4A7
:100B400050E460817181828193810E940D1520E0C3
:100B500030E044E353E40E945D134B015C012BED54
:100B60003FE049E450E46D817E818F8198850E9449
:100B70000D1520E030E044E353E40E945D139B0137
:100B8000AC01C501B4010E948F1220E030E040E0CA
:100B90005FE30E940D150E9470154B015C01A701D7
:100BA0009601C701B6010E940D156B017C012981D8
:100BB0003A814B815C81C301B2010E940D15A501F0
:100BC00094010E940D15A50194010E940D159B0131
:100BD000AC01C701B6010E9490126B017C019B0120
:100BE000AC0160E070E080E89FE30E948F120E94F9
:100BF0007A159B01AC01C701B60129873A874B875B
:100C00005C870E947A1529853A854B855C850E9410
:100C100003139B01AC010E94901220E73DE642ECD9
:100C20005AE40E940D1520E030E04AE754E40E94A7
:100C30005D132C960FB6F894DEBF0FBECDBFDF91CB
:100C4000CF911F910F91FF90EF90DF90CF90BF90C9
:100C5000AF909F908F907F906F905F904F903F905C
:100C60002F900895CF93C82F88E70E94880980E0CD
:100C70000E94AA098C2F0E94AA09CF910C94BB094B
:100C80000E9484098EEA0E94320685ED0E94320697
:100C900080E80E94320688EA0E9432068FE30E94B2
:100CA000320683ED0E94320680E00E94320680E424
:100CB0000E9432068DE80E94320684E10E943206CC
:100CC00080E20E94320680E00E94320681EA0E94A1
:100CD000320688EC0E9432068AED0E94320682E1DA
:100CE0000E94320681E80E9432068FEC0E94320692
:100CF00089ED0E94320681EF0E9432068BED0E9440
:100D0000320680E40E94320684EA0E94320686EAB5
:100D10000E9432068FEA0C943206F901603494F591
:100D2000992787FD9095362F37704423A9F067FDEA
:100D3000695F65956595659520E86203800D911D55
:100D40001124E80FF91F81E090E001C0880F3A9567
:100D5000EAF79081892B15C067FD695F65956595F8
:100D6000659520E86203800D911D1124E80FF91F9D
:100D700081E090E001C0880F3A95EAF78095908174
:100D8000892380830895CF92DF92FF920F931F9360
:100D9000CF93DF93D82FF62E6901C0E0042F1127DF
:100DA00007FD10954C2F50E0401751074CF4960169
:100DB00041E06F2D8C2F8D0F0E948D06CF5FF2CFFB
:100DC000DF91CF911F910F91FF90DF90CF90089509
:100DD000CF92DF92FF920F931F93CF93DF93D82F81
:100DE000F62E6901C0E0042F112707FD10954C2F46
:100DF00050E0401751074CF46C2F6F0D960141E005
:100E00008D2F0E948D06CF5FF2CFDF91CF911F9182
:100E10000F91FF90DF90CF900895CF92DF92EF92E5
:100E2000FF920F931F93CF93DF93D82FC62FE42EFB
:100E3000C22EF42EF81AF394D22ED61A98014F2D02
:100E40000E94C30698014F2D6C2D8D2F0E94C30662
:100E500098014D2D6C2F8D2F0E94E80698014D2D85
:100E60006C2F8E2DDF91CF911F910F91FF90EF90FE
:100E7000DF90CF900C94E806AF92BF92CF92DF92B2
:100E8000EF92FF920F931F93CF93DF93D82EC62E2E
:100E90005701C42FC81BCF5FF22EF61AD0E0DC1723
:100EA00084F410E0ED2EED0C1F154CF4612F6C0D49
:100EB0009501402F8E2D0E948D061F5FF5CFDF5FBD
:100EC000EECFDF91CF911F910F91FF90EF90DF90C8
:100ED000CF90BF90AF9008957F928F929F92AF92E4
:100EE000BF92CF92DF92EF92FF920F931F93CF9317
:100EF000DF93E82EB62ED42FF22E680110E0C0E06A
:100F0000DC170CF450C096014F2DAC2EAB0C6A2DA3
:100F10000D2F0E0D802F0E948D0696014F2D8D2EC8
:100F20008B0C682D9C2E9E0C892D0E948D0696019F
:100F30004F2D682D7E2C7C1A872D0E948D069601E0
:100F40004F2D6A2D8E2C8D1A882D0E948D069601AC
:100F50004F2DAB2CAC1A6A2D882D0E948D06960160
:100F60004F2D8B2C8D1A682D872D0E948D06960192
:100F70004F2D682D892D0E948D0696014F2D6A2DCB
:100F8000802F0E948D06111644F0CF5F1F5F8C2FBB
:100F9000880F180F11160CF0B3CFD1508D2F880F7A
:100FA0008095180FADCFDF91CF911F910F91FF90DA
:100FB000EF90DF90CF90BF90AF909F908F907F90F9
:100FC0000895CF92DF92EF92FF920F931F93CF93EA
:100FD000DF93D82FF62EC42FE22E68011C164CF496
:100FE00086012E2D4C2F6F2D8D2F0E946C07C15026
:100FF000F5CFDF91CF911F910F91FF90EF90DF9090
:10100000CF900895882311F087EA01C086EA0C94F6
:10101000320620E034E0FC01A90111924150504019
:10102000E1F7089590E050E86503800D911D1124CB
:10103000F901E80FF91F85E0489FA001112480E025
:1010400090E0DC01A40FB51FAE59BF4F2C91219346
:10105000019685309105A9F70895EF92FF920F93BD
:101060001F93CF93DF937901162F1695169516953A
:10107000EA01082F4991442339F09701612F802F0D
:101080000E9412080B5FF6CFDF91CF911F910F9155
:10109000FF90EF900895CF92DF92FF920F931F93EE
:1010A000CF93DF931F92CDB7DEB7182F81E29983DC
:1010B0000E94320680E00E9432068FE70E943206CC
:1010C00082E20E94320680E00E94320687E00E949F
:1010D0003206C12E9981D92E80E4F82E88E70E942D
:1010E000880980E40E94AA0900E010E0F601E00F00
:1010F000F11F80810E94AA090F5F1F4F0031110567
:10110000A9F70E94BB09FA9480E1C80ED11CF11026
:10111000E5CF0F90DF91CF911F910F91FF90DF905E
:10112000CF900895813029F039EE380F363038F0FD
:1011300015C0613011F43E9A08953E98089527B184
:1011400081E090E001C0880F3A95EAF7613011F430
:10115000822B02C08095822387B908959EEF980F55
:10116000953030F095EF980F9330E0F4865001C041
:10117000892F4AB121E030E0613049F4B90102C061
:10118000660F771F8A95E2F7CB01842B09C0B9015E
:1011900002C0660F771F8A95E2F7CB018095842302
:1011A0008AB9089597EF980F923020F08E508630CC
:1011B00010F00895835044B121E030E0613049F4EB
:1011C000B90102C0660F771F8A95E2F7CB01842B25
:1011D00009C0B90102C0660F771F8A95E2F7CB01FB
:1011E0008095842384B90895CF93DF93C82FD62F99
:1011F00061E00E949208C13029F039EE3C0F363090
:1012000038F015C0D13011F4469A42C0469840C01B
:1012100028B181E090E001C0880F3A95EAF7D1301B
:1012200011F4822B02C08095822388B931C08EEFE1
:101230008C0F853030F085EF8C0F833090F4C650E2
:1012400001C0C82F2BB181E090E001C0880FCA9582
:10125000EAF7D13011F4822B02C0809582238BB93A
:1012600017C087EF8C0F823020F0CE50C63010F0C0
:101270000FC0C35025B181E090E001C0880FCA952E
:10128000EAF7D13011F4822B02C08095822385B910
:10129000DF91CF910895CF93C82F60E00E9492080C
:1012A000C13061F029EE2C0F263068F486B190E051
:1012B00002C0959587952A95E2F723C086B186FBF3
:1012C000882780F91FC08EEF8C0F853030F085EFB6
:1012D0008C0F833028F4C65001C0C82F89B10BC0D1
:1012E00087EF8C0F823028F0CE50C63018F082E0A5
:1012F00009C0C35083B190E002C095958795CA9507
:10130000E2F78170CF9108958CE18093B800089541
:101310001092BC0094EA9093BC009091BC0097FF9F
:10132000FCCF9091B900987F983011F081E008953A
:101330008093BB0084E88093BC008091BC0087FF51
:10134000FCCF8091B900887F883111F0803471F72B
:1013500080E008958093BB0084E88093BC00809176
:10136000BC0087FFFCCF9091B900987F81E0983254
:1013700009F480E0089584E98093BC00089584EC2A
:101380008093BC008091BC0087FFFCCF8091BB00A4
:10139000089584E88093BC008091BC0087FFFCCF57
:1013A0008091BB000895ECE7F0E080818064808349
:1013B000808183608083EAE7F0E0808186608083BB
:1013C000808180688083808188608083E1E8F0E0AC
:1013D000808188608083AFE6B0E08C9182608C93DE
:1013E00080EA9CE8909389008093880080818560E2
:1013F000808378940895FC0186E292E09687858741
:1014000088EE93E0908787831382148281E0808343
:101410001282EAE7F0E08081806480830895FC0115
:1014200010820895FC01809178002091790090E06D
:10143000922B948783872385348585859685865A64
:101440009F4F8217930780F4818181110DC08185A0
:10145000928581389C4040F081E0818383818F5F59
:1014600083831286118616C08181813071F42385B1
:101470003485858596852817390738F481859285C6
:101480008D3D954010F0118205C0818592850196B1
:10149000928781872385348585819681821793077A
:1014A00028F483859485968385830BC023853485B2
:1014B000878190852817390720F483859485908744
:1014C00087838081882329F080917A0080648093CB
:1014D0007A000895FC018481882359F02481838156
:1014E00090E0820F911D982F990F980F990F92837A
:1014F00006C093818CE0989F802D11248283838184
:10150000853018F08381848301C014821382858121
:101510009681892B71F087819085892B51F02581E7
:10152000368187819085820F931F96958795968740
:1015300085871682158288EE93E0908787830895C9
:10154000CF93DF9300D0CDB7DEB74A8369830E9483
:1015500088096981862F0E94AA094A81842F0E94E6
:10156000AA090F900F90DF91CF910C94BB0953986B
:101570005B9AE9E6F0E080818C608083E99AF894D8
:101580000E94840948E36FE186ED0E94A00A40ECC6
:1015900060E286ED0E94A00A4AE066E086ED0E94C5
:1015A000A00A40E46CE086ED0E94A00A4FE067E0EC
:1015B00086ED0E94A00A4FE068E086ED0E94A00A36
:1015C00042EB6AE086ED0E94A00A789408957F922B
:1015D0008F929F92AF92BF92CF92DF92EF92FF9243
:1015E0000F931F93CF93DF9362E3762E812C912C80
:1015F000A12CB12C00E010E0C0E0D0E08CE30E9410
:10160000880988E20E94AA098DE30E9488090E9445
:10161000BF09C82E0E94BF09282F332727FD309508
:10162000322F2227DD24C7FCD094C22AD32A0E945D
:10163000BF09F82E0E94C909992787FD9095982F18
:1016400088272F2D332727FD30957C01E22AF32AA6
:101650000E94BB098C149D042CF0C016D1061CF40A
:10166000860101C04601AE14BF042CF0EC16FD0645
:101670001CF4E70101C057017A947110BFCFA40197
:10168000400F511F57FF02C04F5F5F4F8A011595F2
:101690000795C5018C0F9D1F97FD0196EC01D5950F
:1016A000C795412F65E08CE30E94A00A402F66E0B9
:1016B0008CE30E94A00A4D2F67E08CE30E94A00AF1
:1016C0004C2F68E08CE3DF91CF911F910F91FF9039
:1016D000EF90DF90CF90BF90AF909F908F907F90D2
:1016E0000C94A00ACF92DF92EF92FF920F931F9378
:1016F000CF93DF938C01EB018CE30E94880988E291
:101700000E94AA098DE30E9488090E94BF09F82E51
:101710000E94BF09282F332727FD3095322F22271B
:101720006F2D772767FD70956901C62AD72A0E9419
:10173000BF09E82E0E94C909282F332727FD3095BD
:10174000322F2227FF24E7FCF094E22AF32A0E949A
:10175000BB09B601882777FD8095982F0E94F81362
:1017600029E23CE54FE05EE30E940D1520E030E009
:101770004AE754E40E945D13F80160837183828319
:101780009383B701882777FD8095982F0E94F813DF
:1017900029E23CE54FE05EE30E940D1520E030E0D9
:1017A0004AE754E40E945D13688379838A839B83AC
:1017B000DF91CF911F910F91FF90EF90DF90CF902D
:1017C00008958F929F92AF92BF92CF92DF92EF9245
:1017D000FF920F931F93CF93DF935C017B018A01EC
:1017E000F89486ED0E94880988E20E94AA0987ED94
:1017F0000E9488090E94BF09882E0E94BF09282FD5
:10180000332727FD3095322F2227992487FC909487
:10181000822A932A0E94BF09C82E0E94BF09282F3E
:10182000332727FD3095322F2227DD24C7FCD094A3
:10183000C22AD32A0E94BF09C82F0E94C909282F93
:10184000332727FD3095322F2227DD27C7FDD0957E
:10185000C22BD32B0E94BB09B40160577E4F88274F
:1018600077FD8095982F0E94F81323E23BED49E71E
:101870005DE30E940D1520E030E04AE754E40E9449
:101880005D13F5016083718382839383B6016C5E7F
:101890007F4F882777FD8095982F0E94F81323E2C9
:1018A0003BED49E75DE30E940D1520E030E04AE79B
:1018B00054E40E945D13F7016083718382839383F4
:1018C000BE01882777FD8095982F0E94F81323E2A8
:1018D0003BED49E75DE30E940D1520E030E04AE76B
:1018E00054E40E945D13F8016083718382839383C3
:1018F0007894DF91CF911F910F91FF90EF90DF903F
:10190000CF90BF90AF909F908F9008950F931F93AB
:10191000CF93DF93EC01F89486ED0E94880985E16E
:101920000E94AA0987ED0E9488090E94C909182F00
:101930000E94C909682F772767FD7095762F662763
:10194000212F332727FD30958B01022B132B0E946B
:10195000BB09B801882777FD8095982F0E94F8135E
:1019600020E030E040E05EE30E940D1520E030E032
:1019700040EE51E40E94901226E636E646EE5FE322
:101980000E940D1520E030E040E052E40E949012E9
:10199000688379838A839B837894DF91CF911F91A9
:1019A0000F91089561E00E949208F89480E00E94EF
:1019B000EC0F81E00E94F10F80E00E94FA0F789412
:1019C000089561E00C94F4080F931F93CF93DF9375
:1019D00000D01F92CDB7DEB7182F062FF89460E025
:1019E000842F4B830E94F408106819830A8362E0F5
:1019F00070E0CE0101960E94D30F61E04B81842FED
:101A00000E94F40878940F900F900F90DF91CF917F
:101A10001F910F910895CF93DF93D82FC62FF8947D
:101A200060E08C2F0E94F4088D2F8F770E94B30FF7
:101A300080E00E94B30FD82F61E08C2F0E94F40841
:101A400078948D2FDF91CF910895EF92FF921F939D
:101A5000CF93DF9300D0CDB7DEB7182F7B01F8947A
:101A600060E0822F2A8349830E94F408812F8068D6
:101A70000E94B30F4981642F772767FD7095C701D6
:101A80000E94BA0F61E02A81822F0E94F4087894A4
:101A90000F900F90DF91CF911F91FF90EF900895DD
:101AA000EF92FF920F931F93CF93DF9300D0CDB7A8
:101AB000DEB7F82E162F022FF89460E0822F4983AC
:101AC0007A830E94F4088F2D80680E94B30FE12E64
:101AD0007A81F72E4981140F1E1539F080E00E949B
:101AE000B30FF70181937F01F7CF61E0802F0E9450
:101AF000F40878940F900F90DF91CF911F910F9180
:101B0000FF90EF9008951F93CF93DF93EC01162F72
:101B1000462F68818FE20E94E40C412F698180E3A7
:101B2000DF91CF911F910C94E40CCF93DF93D82FCA
:101B3000C62F462F692F8CE20E94E40C4C2F6D2F8C
:101B40008DE2DF91CF910C94E40CCF92DF92EF9273
:101B5000FF92CF93C42F20E034E244E759E40E947F
:101B60000D1520E034E244E752E40E945D130E9428
:101B7000CA136B017C01B701882799274C2F87E096
:101B80000E94E40C99278F2D7E2D6D2D4C2F88E01F
:101B90000E94E40C4C2F6C2D89E0CF91FF90EF90C8
:101BA000DF90CF900C94E40C1F93CF93DF9300D081
:101BB000CDB7DEB7182F61E08BE00E94920861E09C
:101BC00089E10E94F4082FEF8FE392E021508040DA
:101BD0009040E1F700C0000060E08BE00E94F40854
:101BE0002FEF8FE392E0215080409040E1F700C05A
:101BF0000000412F6FE88CE30E94E40C412F60E36A
:101C00008FE60E94E40C412F65E58AE50E94E40C12
:101C1000412F60E78CE50E94E40C8DE589838EE21C
:101C20008A83612FCE0101960E94830D612F84E08B
:101C300090E00E94950D412F60E070E089ED93E403
:101C40000E94A50D0F900F90DF91CF911F910895E5
:101C50001F93CF93DF931F92CDB7DEB7182F462F78
:101C600081E049830E940B0D837E612F6C71682B8C
:101C7000498181E00F90DF91CF911F910C94E40C8A
:101C80001F93CF93DF931F92CDB7DEB7462F182F48
:101C900080320CF01FE1642F81E149830E940B0D1B
:101CA000807E912F498117FD9F5F9595682F692B45
:101CB00081E10F90DF91CF911F910C94E40CCF93B1
:101CC000DF93D82FC62F811102C06AE101C06FE0F7
:101CD0004C2F83E10E94E40C6C2F81E1DD2331F075
:101CE0000E940B0D8F71682F606604C00E940B0D5F
:101CF000682F6F714C2F81E1DF91CF910C94E40C30
:101D00000F931F93CF93DF93FC012081261709F4D3
:101D100048C0C42FD62F8C01611112C0108265E516
:101D20008AE50E94E40C4C2F60E78CE50E94E40CED
:101D30006C2F84E0DF91CF911F910F910C94280EAE
:101D40006130A9F465E58AE50E94E40C4C2F60E758
:101D50008CE50E94E40C6C2F80E10E94280E4C2F31
:101D600060E485E20E94E40C6C2F80E016C06230D3
:101D7000C1F46DE58AE50E94E40C4C2F6CE78CE51C
:101D80000E94E40C6C2F8CE00E94280E4C2F60E027
:101D900085E20E94E40C6C2F81E00E945F0EF80146
:101DA000D083DF91CF911F910F910895CF92DF9251
:101DB000EF92FF920F931F93CF93DF937C01CB01A0
:101DC000D42FF89460E00E94800E60E08D2F0E9476
:101DD000F40880E00E94B30F80E00E94B30FC82F88
:101DE000882391F08701C82EDD24C7FCD094C80158
:101DF0008E199F098C159D053CF480E00E94B30F5D
:101E0000F80181938F01F3CF61E08D2F0E94F408D8
:101E100078948C2FDF91CF911F910F91FF90EF90CD
:101E2000DF90CF900895AF92BF92CF92DF92EF9262
:101E3000FF920F931F93CF93DF9300D0CDB7DEB700
:101E40004F31D4F5122FD42E5B01C92E082FF894F0
:101E5000422F60E0C5010E94800E612F87E20E9440
:101E60000B0D87FFFACF60E0812F0E94F40880E815
:101E70008983DA8262E070E0CE0101960E94D30F7E
:101E8000E02EFC2C0D0D0E1531F0F70181917F0134
:101E90000E94B30FF8CF61E0812F0E94F40878947C
:101EA000412F62E0C5010E94800E612F81E00E94F7
:101EB0000B0D8C718430C9F70F900F90DF91CF918B
:101EC0001F910F91FF90EF90DF90CF90BF90AF9058
:101ED00008950F931F93CF93DF9300D0CDB7DEB754
:101EE0008C01462FFC019081913031F0F801808106
:101EF000823061F090E00FC088E24A8399830E94AB
:101F00000B0D4A81998182FFF1CF05C060E0C801C5
:101F10000E94800E91E0892F0F900F90DF91CF915A
:101F20001F910F910895CF93C82F482F61E083E24E
:101F30000E94E40C6C2F83E20E940B0D81FFFACF0C
:101F40006C2F84E20E940B0D992781950CF49095DB
:101F500095958795CF910895F8948CE284B981E5A1
:101F60008CBD789408958EBD00000DB407FEFDCFA2
:101F70008EB50895FC0161157105A1F080818EBDBB
:101F80006150710951F091810DB407FEFDCF8EB5FE
:101F90009EBD9081890F8083F3CF0DB407FEFDCFE6
:101FA0008EB5808308956115710579F0FC0120815B
:101FB0002EBD6150710931F0FC0121810DB407FE85
:101FC000FDCFF6CF0DB407FEFDCF089560E00C9471
:101FD000F40861E00C94F4089CB5937F892B8CBDC8
:101FE0000895811103C08CB5806202C08CB58F7DCD
:101FF0008CBD08959CB5282F23709C7F922B9CBD8F
:102000009DB582FB882780F99E7F892B8DBD089521
:10201000CF93DF9300D000D0CDB7DEB70E949700FA
:1020200078948EEFE82E87E0F82E9FE0392E2FEF80
:10203000A22E22E0B22E37EEC32E37E0D32E47E198
:10204000242E412C54E0552E67EF862E62E0962E0A
:1020500077EE672E72E0772E81E197E20197009785
:10206000E9F780910101813009F06EC00E940401FE
:1020700080E793E00E945C04CE0101960E94860CEA
:10208000E6ECF3E0DF0192011D9221503040E1F7D0
:10209000D701E32D1D92EA95E9F78091B8031F92CD
:1020A0008F938091B7031F928F938091B6031F92F5
:1020B0008F937F926F92DF92CF920E949F1626ECB1
:1020C00033E047EE57E06EE182E30E942D08D6012F
:1020D000E22D1D92EA95E9F7D701E32D1D92EA95CD
:1020E000E9F749815A816B817C8122E08EEF97E08C
:1020F0000E946A0260EF72E087EE97E00E941C1671
:102100006EEF77E087EE97E00E94081626EC33E04A
:1021100047EE57E068E285E00E942D08D701E32DE5
:102120001D92EA95E9F7809101011F928F93BF926A
:10213000AF92FF92EF920E949F1626EC33E04EEF93
:1021400057E062E38EE641C1823091F50E940401BE
:1021500080916D038F9380916C038F939F928F92E8
:10216000DF92CF920E949F1686EC93E00E940908AE
:1021700026EC33E047EE57E06EE185E00E942D0843
:10218000D701E32D1D92EA95E9F7809101011F9295
:102190008F93BF92AF92FF92EF920E949F1626EC10
:1021A00033E04EEF57E062E388E70E942D0856C007
:1021B000833009F05DC00E940401D601E22D1D921A
:1021C000EA95E9F7D701E32D1D92EA95E9F78091A9
:1021D0000F081F928F93A2E0B3E0BF93AF93DF92FB
:1021E000CF920E949F16E6ECF3E0DF0192011D9270
:1021F00021503040E1F79F0147EE57E06EE185E066
:102200000E942D08D601E22D1D92EA95E9F78091F2
:1022100001011F928F93BF92AF92DF92CF920E94E3
:102220009F1626EC33E047EE57E062E388E70E9412
:102230002D08D601E22D1D92EA95E9F780911A0842
:1022400090911B089F938F93BF92AF92DF92CF9292
:102250000E949F1687EE97E00E94460286EC93E06C
:102260000E944B080FB6F894DEBF0FBECDBFF4CE70
:10227000843009F0BEC00E94040180E793E00E9410
:102280005C0480E793E00E945C04D701E32D1D927B
:10229000EA95E9F74091BE035091BF036091C003F6
:1022A0007091C10326E08EEF97E00E946A026AE017
:1022B00073E087EE97E00E941C166EEF77E087EEE2
:1022C00097E00E94081626EC33E047EE57E065E001
:1022D00085E00E942D08D701E32D1D92EA95E9F7CC
:1022E0004091BA035091BB036091BC037091BD0350
:1022F00026E08EEF97E00E946A0261E173E087EECC
:1023000097E00E941C166EEF77E087EE97E00E9440
:10231000081626EC33E047EE57E064E185E00E94C2
:102320002D08D701E32D1D92EA95E9F74091C203EC
:102330005091C3036091C4037091C50321E08EEFF7
:1023400097E00E946A0267E173E087EE97E00E94DF
:102350001C166EEF77E087EE97E00E94081626ECD9
:1023600033E047EE57E063E285E00E942D08D70195
:10237000E32D1D92EA95E9F78091B9031F928F939F
:10238000A2E2B3E0BF93AF93DF92CF920E949F1679
:1023900026EC33E047EE57E062E385E00E942D082B
:1023A000D701E32D1D92EA95E9F7809101011F9273
:1023B0008F93BF92AF92FF92EF920E949F1626ECEE
:1023C00033E04EEF57E062E388E70E942D080FB636
:1023D000F894DEBF0FBECDBF8091B903811120C03C
:1023E00006EC13E021E042E06AE088E70E94E107A2
:1023F00017C08530D1F40E940401D601E22D1D9250
:10240000EA95E9F760E373E087EE97E00E941C1617
:1024100026EC33E047EE57E06EE185E00E942D08A0
:1024200086EC93E00E944B0817CE863009F014CE5C
:102430000E94040180E793E00E945C048091C6073B
:10244000813099F4D601E22D1D92EA95E9F764E412
:1024500073E087EE97E00E941C1626EC33E047EE0F
:1024600057E06EE185E00E942D088091E507882302
:10247000A1F11092E50748E166EC77E087EC97E080
:102480000E94D60E48E161E086EC97E00E94800E43
:102490006BE473E087EC97E00E940316E0E000979E
:1024A000A1F011E01E0FEE0FFF0B21E030E02C0F2A
:1024B0003D1FE20FF31F918380836BE473E080E0A4
:1024C00090E00E940316E12FEACF49815A8126EC61
:1024D00033E06EE182E30E942D08D701E32D1D92C7
:1024E000EA95E9F7809101011F928F93BF92AF9215
:1024F000FF92EF920E949F1626EC33E04EEF57E0DA
:1025000062E388E70E942D0886EC93E00E944B0866
:102510000F900F900F900F900F900F909DCD5058EF
:10252000BB27AA270ED027C2F0D130F0F5D120F07A
:1025300031F49F3F11F41EF4C0C10EF4E095E7FBA7
:10254000B6C1E92F3AD280F3BA176207730784073E
:10255000950718F071F49EF552C20EF4E0950B2E1B
:10256000BA2FA02D0B01B90190010C01CA01A001E5
:102570001124FF27591B99F0593F50F4503E68F140
:102580001A16F040A22F232F342F4427585FF3CF81
:10259000469537952795A795F0405395C9F77EF452
:1025A0001F16BA0B620B730B840BBAF09150A1F09B
:1025B000FF0FBB1F661F771F881FC2F70EC0BA0F21
:1025C000621F731F841F48F4879577956795B795A9
:1025D000F7959E3F08F0B3CF9395880F08F09927A1
:1025E000EE0F97958795089590D158F080E891E087
:1025F00009F49EEF91D128F040E851E059F45EEFE4
:1026000009C05BC1FCC1E92FE078D7D168F3092E7E
:10261000052AC1F3261737074807590738F00E2E49
:1026200007F8E02569F0E025E0640AC0EF6307F8E9
:10263000009407FADB01B9019D01DC01CA01AD017B
:10264000EF934AD098D10AD05F91552331F02BED0A
:102650003FE049E450FD49EC63CF0895DF93DD2767
:10266000B92FBF7740E85FE31616170648075B07E8
:1026700010F4D92FCBD19F938F937F936F9378D200
:10268000E8E6F0E01DD177D12F913F914F915F9116
:10269000D0D1DD2349F09058A2EA2AED3FE049EC81
:1026A0005FE3D0785D274DDFDF9165C1DCD008F4B2
:1026B00081E0089539D1E3956FC10CD05CC12CD174
:1026C00040F023D130F021F45F3F19F0F0C05111F8
:1026D00097C1F3C072D198F39923C9F35523B1F38D
:1026E000951B550BBB27AA2762177307840738F081
:1026F0009F5F5F4F220F331F441FAA1FA9F333D0E0
:102700000E2E3AF0E0E830D091505040E695001C93
:10271000CAF729D0FE2F27D0660F771F881FBB1F4F
:10272000261737074807AB07B0E809F0BB0B802D29
:10273000BF01FF2793585F4F2AF09E3F510568F075
:10274000B6C05EC15F3FECF3983EDCF386957795AB
:102750006795B795F7959F5FC9F7880F911D969577
:10276000879597F90895E1E0660F771F881FBB1FD3
:10277000621773078407BA0720F0621B730B840B80
:10278000BA0BEE1F88F7E095089504D06894B11154
:1027900037C108951AD188F09F5790F0B92F992723
:1027A000B751A0F0D1F0660F771F881F991F1AF05C
:1027B000BA95C9F712C0B13081F021D1B1E00895C6
:1027C0001EC1672F782F8827B85F39F0B93FCCF347
:1027D000869577956795B395D9F73EF49095809552
:1027E000709561957F4F8F4F9F4F0895E89409C072
:1027F00097FB3EF490958095709561957F4F8F4F34
:102800009F4F9923A9F0F92F96E9BB279395F69549
:10281000879577956795B795F111F8CFFAF4BB0FC7
:1028200011F460FF1BC06F5F7F4F8F4F9F4F16C02B
:10283000882311F096E911C0772321F09EE8872FB5
:10284000762F05C0662371F096E8862F70E060E071
:102850002AF09A95660F771F881FDAF7880F9695EA
:10286000879597F90895990F0008550FAA0BE0E88E
:10287000FEEF16161706E807F907C0F01216130642
:10288000E407F50798F0621B730B840B950B39F482
:102890000A2661F0232B242B252B21F408950A26E8
:1028A00009F4A140A6958FEF811D811D089597F928
:1028B0009F6780E870E060E008959FEF80EC0895E6
:1028C000DF93CF931F930F93FF92EF92DF927B01E1
:1028D0008C01689405C0DA2EEF01ABD0FE01E894BC
:1028E000A5912591359145915591AEF3EF0129DEE2
:1028F000FE019701A801DA9479F7DF90EF90FF903D
:102900000F911F91CF91DF91089500240A9416161C
:10291000170618060906089500240A9412161306CD
:10292000140605060895C9CF50D0E8F3E894E0E016
:10293000BB279F57F0F02AED3FE049EC06C0EE0FB1
:10294000BB0F661F771F881F28F0B23A6207730714
:10295000840728F0B25A620B730B840BE3959A95A7
:1029600072F7803830F49A95BB0F661F771F881F67
:10297000D2F7904802C1092E0394000C11F4882369
:1029800052F0BB0F40F4BF2B11F460FF04C06F5F27
:102990007F4F8F4F9F4F0895EF93E0FF06C0A2EA4D
:1029A0002AED3FE049EC5FEBCCDDE5DF0F900394CF
:1029B00001FC9058E5E9F0E0F3C057FD9058440F52
:1029C000551F59F05F3F71F04795880F97FB991F8E
:1029D00061F09F3F79F0879508951216130614064B
:1029E000551FF2CF4695F1DF08C0161617061806D8
:1029F000991FF1CF86957105610508940895E894B3
:102A0000BB2766277727CB0197F908959B01AC0177
:102A100060E070E080E89FE350CE0BD0ACCF75DF74
:102A200028F07ADF18F0952309F041CF46CF112422
:102A3000E7CFC3DFA0F3959FD1F3950F50E0551F6B
:102A4000629FF001729FBB27F00DB11D639FAA2703
:102A5000F00DB11DAA1F649F6627B00DA11D661F52
:102A6000829F2227B00DA11D621F739FB00DA11D73
:102A7000621F839FA00D611D221F749F3327A00D2D
:102A8000611D231F849F600D211D822F762F6A2FC9
:102A900011249F5750408AF0E1F088234AF0EE0F4E
:102AA000FF1FBB1F661F771F881F91505040A9F75B
:102AB0009E3F510570F0FBCEA3CF5F3FECF3983EF5
:102AC000DCF3869577956795B795F795E7959F5FC2
:102AD000C1F7FE2B880F911D9695879597F908955C
:102AE0009F9322DF0F9007FCEE5F56CF11F40EF498
:102AF000E4CE41C06ADFD0F39923D9F3CEF39F57D8
:102B0000550B87FF46D00024A0E640EA900180588C
:102B10005695979528F4805C660F771F881F20F0E4
:102B200026173707480730F4621B730B840B2029E4
:102B300031294A2BA69517940794202531254A2739
:102B400058F7660F771F881F20F0261737074807AA
:102B500030F4620B730B840B200D311D411DA095C9
:102B600081F7B901842F9158880F9695879508951C
:102B70009B01AC0152CF9F3F31F0915020F48795DB
:102B800077956795B795880F911D9695879597F9D5
:102B9000089591505040660F771F881FD2F708950F
:102BA0009F938F937F936F93FF93EF939B01AC0160
:102BB00034DFEF91FF9184DE2F913F914F915F9130
:102BC0002CCF662777270C949318FC018827992728
:102BD000E89421912032E9F3293010F02E30C8F327
:102BE0002B3241F02D3239F4689404C00E947D16D6
:102BF000820F911D219120532A30C0F31EF490952D
:102C000081959F4F08954EE653E00E944016089527
:102C1000FB01DC010D900020E9F7119701900D9266
:102C20000020E1F70895FB01DC018D9101908019EE
:102C30000110D9F3990B0895FB01DC0101900D926D
:102C40000020E1F70895FB01DC014150504030F0D5
:102C50008D910190801919F40020B9F7881B990B08
:102C60000895FB01DC014150504048F001900D9265
:102C70000020C9F701C01D9241505040E0F708956F
:102C8000FA01A191B081009719F41097E1F0CD01FC
:102C9000DC01CD010D90002011F4C00113C0FB0137
:102CA0002191222319F02015D9F7F3CFFB012191AF
:102CB000201519F41E92119606C02223C1F70D901B
:102CC0000020A1F7D001FA01A193B0830895453205
:102CD000510520F4423010F00C947216FB01108262
:102CE000CB010895BB274A3031F4992322F4BDE289
:102CF000909581959F4F0C9486167AE0979F902D22
:102D0000879F802D910D11240895BB27FB01552726
:102D1000AA27880F991FAA1FA41710F0A41B839538
:102D20005051B9F7A05DAA3308F0A95DA1930097AF
:102D300079F7B111B1931192CB010C942C1AAEE03A
:102D4000B0E0E5EAF6E10C94E81A0D891E8986E008
:102D50008C831A8309838FEF9FE79E838D83AE0157
:102D6000475E5F4F6F89788DCE0101960E94C11634
:102D7000EF81F885E00FF11F10822E96E4E00C94AD
:102D8000041BACE0B0E0E7ECF6E10C94DA1A7C014D
:102D90006B018A01FC0117821682838181FFBDC10C
:102DA000CE0101964C01F7019381F60193FD8591C7
:102DB00093FF81916F01882309F4ABC1853239F407
:102DC00093FD859193FF81916F01853229F4B701BD
:102DD00090E00E943C1AE7CF512C312C20E02032A9
:102DE000A0F48B3269F030F4803259F0833269F408
:102DF00020612CC08D3239F0803339F4216026C037
:102E00002260246023C0286021C027FD27C030ED48
:102E1000380F3A3078F426FF06C0FAE05F9E300D96
:102E20001124532E13C08AE0389E300D1124332E06
:102E300020620CC08E3221F426FD6BC1206406C0D6
:102E40008C3611F4206802C0883641F4F60193FDF7
:102E5000859193FF81916F018111C1CF982F9F7D43
:102E60009554933028F40C5F1F4FFFE3F9830DC096
:102E7000833631F0833771F0833509F05BC022C0AF
:102E8000F801808189830E5F1F4F44244394512CA5
:102E9000540115C03801F2E06F0E711CF801A080DA
:102EA000B18026FF03C0652D70E002C06FEF7FEF99
:102EB000C5012C870E94211A2C0183012C852F77B4
:102EC000222E17C03801F2E06F0E711CF801A080AD
:102ED000B18026FF03C0652D70E002C06FEF7FEF69
:102EE000C5012C870E94161A2C012C852068222EE1
:102EF000830123FC1BC0832D90E048165906B0F4D3
:102F0000B70180E290E00E943C1A3A94F4CFF501B8
:102F100027FC859127FE81915F01B70190E00E9417
:102F20003C1A31103A94F1E04F1A510841145104FF
:102F300071F7E5C0843611F0893639F5F80127FFBD
:102F400007C060817181828193810C5F1F4F08C02F
:102F500060817181882777FD8095982F0E5F1F4FC4
:102F60002F76B22E97FF09C0909580957095619548
:102F70007F4F8F4F9F4F2068B22E2AE030E0A40190
:102F80000E946E1AA82EA81844C0853729F42F7EF7
:102F9000B22E2AE030E025C0F22FF97FBF2E8F3607
:102FA000C1F018F4883579F0B4C0803719F088374B
:102FB00021F0AFC02F2F2061B22EB4FE0DC08B2D9B
:102FC0008460B82E09C024FF0AC09F2F9660B92ED6
:102FD00006C028E030E005C020E130E002C020E17A
:102FE00032E0F801B7FE07C0608171818281938170
:102FF0000C5F1F4F06C06081718180E090E00E5F22
:103000001F4FA4010E946E1AA82EA818FB2DFF774F
:10301000BF2EB6FE0BC02B2D2E7FA51450F4B4FE90
:103020000AC0B2FC08C02B2D2E7E05C07A2C2B2D99
:1030300003C07A2C01C0752C24FF0DC0FE01EA0DDF
:10304000F11D8081803311F4297E09C022FF06C062
:103050007394739404C0822F867809F0739423FDCF
:1030600013C020FF06C05A2C731418F4530C5718C1
:10307000732C731468F4B70180E290E02C870E94EF
:103080003C1A73942C85F5CF731410F4371801C0D3
:10309000312C24FF12C0B70180E390E02C870E94FE
:1030A0003C1A2C8522FF17C021FF03C088E590E061
:1030B00002C088E790E0B7010CC0822F867859F0F3
:1030C00021FD02C080E201C08BE227FD8DE2B70145
:1030D00090E00E943C1AA51438F4B70180E390E018
:1030E0000E943C1A5A94F7CFAA94F401EA0DF11DFC
:1030F0008081B70190E00E943C1AA110F5CF3320E7
:1031000009F451CEB70180E290E00E943C1A3A9453
:10311000F6CFF7018681978102C08FEF9FEF2C9643
:10312000E2E10C94F61AA0E0B0E0E9E9F8E10C94D1
:10313000E01A8B016115710521F0DB018C9311966A
:103140009C93EC015E01BFEFAB1ABB0A7501C8800E
:103150008C2D90E00E94F619892B11F0E501F2CF39
:10316000EDE2CE1208C07E01F2E0EF0EF11CC98044
:10317000DD24D39409C02BE2C21205C07E0142E0D7
:10318000E40EF11CC980D12CE701219743E050E007
:103190006CEB70E0CE010E94FE19892BC1F42396DE
:1031A00045E050E067EB70E0CE010E94FE19892BEC
:1031B00009F425960115110519F0D801CD93DC937A
:1031C000D11006C160E070E080E89FE70AC143E0EB
:1031D00050E064EB70E0CE010E94FE19892B59F497
:1031E0000115110509F4F9C0B2E0EB0EF11CF8016C
:1031F000F182E082F2C0F70160E070E0CB01C0E054
:10320000D0E07F01A0EDAA2EAC0C29E02A1530F108
:103210004D2D4260B42E2D2D2870D2FE04C02111F8
:1032200025C0219623C021112197A5E0B0E09B0184
:10323000AC010E94CF1A660F771F881F991F6A0D75
:10324000711D811D911D6839A9E97A078A07A9E1D5
:103250009A0760F0BD2DB660BB2E08C02EEFA212FB
:103260000AC0D3FC50C04D2D4860B42E3196D70112
:10327000CC90DB2CC6CF2C2D2F7D253409F043C0FC
:10328000A081AD3241F4BD2DB061DB2E7F0122E083
:10329000E20EF11C0CC07F01AB3231F04FEFE41AAB
:1032A000F40A21E030E006C0A2E0EA0EF11CA181A0
:1032B00022E030E0A053AA3018F0E21AF30A23C04B
:1032C000F70120E030E02038BCE03B075CF4A901C6
:1032D000440F551F440F551F240F351F220F331F56
:1032E0002A0F311DAF014F5F5F4F7A01A081A053BC
:1032F000AA3010F4FA01E7CFD4FE03C0319521952E
:103300003109C20FD31FD1FE09C00115110531F0DB
:10331000E1E0EE1AF108D801ED92FC920E94F6135A
:103320002D2D2370233019F04B015C0106C04B0199
:103330005C01B7FAB094B7F8B09420E030E0A9018E
:10334000C501B4010E945613882309F43EC0D7FF7B
:1033500006C0D195C195D10903ED10E002C00BEE76
:1033600010E06801B8E1CB1AD10890E2E92EF12C07
:10337000CE15DF0574F0F8012591359145915491F2
:10338000C501B4010E940D154B015C01CE19DF0986
:10339000EFCF04501109F594E7940C151D0541F782
:1033A0008A2D880F8B2D881F8F3F49F020E030E059
:1033B000A901C501B4010E945613811106C082E221
:1033C00090E090931D0880931C08C501B40109C0CA
:1033D00060E070E080E89FEF04C060E070E080ECA7
:1033E0009FE7CDB7DEB7ECE00C94FC1A9111D4C086
:1033F000803219F089508550D0F70895FB01DC0127
:103400004150504088F08D9181341CF08B350CF484
:10341000805E659161341CF06B350CF4605E861B38
:10342000611171F3990B0895881BFCCFFC01059085
:10343000615070400110D8F7809590958E0F9F1FB6
:103440000895FC016150704001900110D8F78095FB
:1034500090958E0F9F1F0895DC01FC01672F7191DD
:103460007723E1F7329704C07C916D93708362916A
:10347000AE17BF07C8F308950F931F93CF93DF9341
:10348000182F092FEB018B8181FD03C08FEF9FEF78
:1034900020C082FF10C04E815F812C813D81421788
:1034A00053077CF4E881F9819F012F5F3F4F3983F7
:1034B0002883108306C0E885F985812F0995892B1B
:1034C00029F72E813F812F5F3F4F3F832E83812F2E
:1034D000902FDF91CF911F910F910895FA01AA27A4
:1034E000283051F1203181F1E8946F936E7F6E5F47
:1034F0007F4F8F4F9F4FAF4FB1E03ED0B4E03CD0F5
:10350000670F781F891F9A1FA11D680F791F8A1FD7
:10351000911DA11D6A0F711D811D911DA11D20D03E
:1035200009F468943F912AE0269F11243019305DF8
:103530003193DEF6CF010895462F4770405D4193E9
:10354000B3E00FD0C9F7F6CF462F4F70405D4A3336
:1035500018F0495D31FD4052419302D0A9F7EACFFE
:10356000B4E0A6959795879577956795BA95C9F72D
:1035700000976105710508959B01AC010A2E069420
:103580005795479537952795BA95C9F7620F731FD9
:10359000841F951FA01D08959927882708950E94CC
:1035A000111BA59F900DB49F900DA49F800D911DA0
:1035B000112408952F923F924F925F926F927F92C3
:1035C0008F929F92AF92BF92CF92DF92EF92FF9233
:1035D0000F931F93CF93DF93CDB7DEB7CA1BDB0BDF
:1035E0000FB6F894DEBF0FBECDBF09942A88398884
:1035F00048885F846E847D848C849B84AA84B9848B
:10360000C884DF80EE80FD800C811B81AA81B98196
:10361000CE0FD11D0FB6F894DEBF0FBECDBFED01AA
:103620000895A29FB001B39FC001A39F700D811D9B
:103630001124911DB29F700D811D1124911D0895BB
:04364000F894FFCF2C
:103644000101000000000000004F00000007000717
:1036540000147F147F14242A7F2A1223130864621F
:1036640036495522500005030000001C2241000089
:1036740041221C0014083E081408083E08080050A3
:1036840030000008080808080060600000201008E6
:1036940004023E5149453E00427F40004261514987
:1036A400462141454B311814127F102745454539B1
:1036B4003C4A4949300171090503364949493606EE
:1036C4004949291E00363600000056360000081409
:1036D400224100141414141400412214080201514C
:1036E4000906324979413E7E1111117E7F494949CB
:1036F400363E414141227F4141221C7F4949494193
:103704007F090909013E4149497A7F0808087F0079
:10371400417F41002040413F017F081422417F4006
:103724004040407F020C027F7F0408107F3E4141ED
:10373400413E7F090909063E4151215E7F0919294D
:1037440046464949493101017F01013F4040403F1C
:103754001F2040201F3F4038403F63140814630774
:10376400087008076151494543007F414100020444
:103774000810200041417F0004020102044040403F
:103784004040010204000020545454787F484444CB
:10379400383844444420384444487F3854545418F6
:1037A400087E090102064949493F7F08040478005C
:1037B400447D40002040443D007F102844000041E7
:1037C4007F40007C0418047C7C080404783844445A
:1037D40044387C14141408081414187C7C08040459
:1037E400084854545420043F4440203C4040207C2A
:1037F4001C2040201C3C4030403C44281028440CF1
:103804005050503C4464544C44000836410000007D
:103814007F000000413608000201020402080C0E79
:103824000C08081838180825643A25643A256400F9
:1038340074656D703A20007374657073203A2025A6
:10384400640042504D3A202564004C6F6E673A2064
:10385400006C61743A2000616C7469747564653A33
:103864002000736174656C6C697465732025640051
:1038740072656420627574746F6E20746F20747244
:1038840061636B00646973743A20002C0049200062
:103894003000530057004750474741006C6F6E207B
:0C38A400006C61742000416C7420000076
:00000001FF
