:100000000C9434000C9451000C9451000C94530047
:100010000C9451000C9451000C9451000C9451001C
:100020000C9451000C9451000C9451000C9451000C
:100030000C9451000C9451000C9451000C945100FC
:100040000C9451000C9451000C9451000C945100EC
:100050000C9451000C9451000C9451000C945100DC
:100060000C9451000C94510011241FBECFEFD8E026
:10007000DEBFCDBF11E0A0E0B1E0E0E5FDE002C0F1
:1000800005900D92A834B107D9F711E0A8E4B1E0CA
:1000900001C01D92A838B107E1F70E94FA040C9440
:1000A000A6060C9400001F920F920FB60F92112417
:1000B0002F933F934F935F936F937F938F939F9370
:1000C000AF93BF93EF93FF9380E091E00E94E10133
:1000D0008AE00E944301813061F480E091E00E9457
:1000E000E1016091480189E491E00E9496028093C9
:1000F0008701FF91EF91BF91AF919F918F917F9178
:100100006F915F914F913F912F910F900FBE0F9084
:100110001F901895813029F039EE380F363038F0BD
:1001200015C0613011F43E9A08953E98089527B1A4
:1001300081E090E001C0880F3A95EAF7613011F450
:10014000822B02C08095822387B908959EEF980F75
:10015000953030F095EF980F9330E0F4865001C061
:10016000892F4AB121E030E0613049F4B90102C081
:10017000660F771F8A95E2F7CB01842B09C0B9017E
:1001800002C0660F771F8A95E2F7CB018095842322
:100190008AB9089597EF980F923020F08E508630EC
:1001A00010F00895835044B121E030E0613049F40B
:1001B000B90102C0660F771F8A95E2F7CB01842B45
:1001C00009C0B90102C0660F771F8A95E2F7CB011B
:1001D0008095842384B90895CF93DF93C82FD62FB9
:1001E00061E00E948A00C13029F039EE3C0F3630C0
:1001F00038F015C0D13011F4469A42C0469840C03C
:1002000028B181E090E001C0880F3A95EAF7D1303B
:1002100011F4822B02C08095822388B931C08EEF01
:100220008C0F853030F085EF8C0F833090F4C65002
:1002300001C0C82F2BB181E090E001C0880FCA95A2
:10024000EAF7D13011F4822B02C0809582238BB95A
:1002500017C087EF8C0F823020F0CE50C63010F0E0
:100260000FC0C35025B181E090E001C0880FCA954E
:10027000EAF7D13011F4822B02C08095822385B930
:10028000DF91CF910895CF93C82F60E00E948A003C
:10029000C13021F089EE8C0F863010F488B114C083
:1002A0008EEF8C0F853020F085EF8C0F833010F4AB
:1002B0008BB10AC087EF8C0F823018F0CE50C63059
:1002C00010F485B101C001C081E0CF910895F89488
:1002D0008CE284B981E58CBD789408958EBD0000D0
:1002E0000DB407FEFDCF8EB50895FC0161157105B3
:1002F000A1F080818EBD6150710951F091810DB4E2
:1003000007FEFDCF8EB59EBD9081890F8083F3CF10
:100310000DB407FEFDCF8EB580830895611571057C
:1003200079F0FC0120812EBD6150710931F0FC0192
:1003300021810DB407FEFDCFF6CF0DB407FEFDCF32
:10034000089560E00C94EC0061E00C94EC009CB526
:10035000937F892B8CBD0895811103C08CB5806279
:1003600002C08CB58F7D8CBD08959CB5282F23705D
:100370009C7F922B9CBD9DB582FB882780F99E7F38
:10038000892B8DBD08959093C5008093C400E1EC46
:10039000F0E080818860808380818061808386E056
:1003A0008093C20008959091C00095FFFCCF809388
:1003B000C60008958091C00087FFFCCF8091C600E1
:1003C00008951F93CF93DF93EC0110E0212F332783
:1003D00027FD3095FE0101900020E9F73197EC1BD5
:1003E000FD0BE217F30740F0FE01E20FF31F8081DF
:1003F0000E94D3011F5FEACFDF91CF911F91089533
:10040000CF92DF92EF92FF920F931F93CF93DF93E0
:100410007C01D42FF89460E0842F0E94EC0080E0EF
:100420000E946E0180E00E946E01C82F882391F027
:100430008701C82EDD24C7FCD094C8018E199F09FE
:100440008C159D053CF480E00E946E01F8018193BB
:100450008F01F3CF61E08D2F0E94EC0078948C2FF8
:10046000DF91CF911F910F91FF90EF90DF90CF9090
:10047000089561E00E948A00F89480E00E94A7013C
:1004800081E00E94AC0180E00E94B501789408955B
:1004900061E00C94EC000F931F93CF93DF9300D097
:1004A0001F92CDB7DEB7182F062FF89460E0842F87
:1004B0004B830E94EC00106819830A8362E070E0AD
:1004C000CE0101960E948E0161E04B81842F0E9433
:1004D000EC0078940F900F900F90DF91CF911F91C7
:1004E0000F9108950F931F93CF93DF9300D0CDB753
:1004F000DEB7182F062FF89460E0802F0E94EC00E2
:100500001F7719831A8262E070E0CE0101960E9483
:10051000750161E0802F0E94EC0078948A810F9031
:100520000F90DF91CF911F910F9108950F931F931B
:10053000CF93DF931F92CDB7DEB78C018EE091E0B1
:1005400069830E94E101F80110816981113011F085
:1005500010E009C088E20E94720282FFF9CF81E2B6
:1005600091E00E94E101812F0F90DF91CF911F91C7
:100570000F910895EF92FF921F93CF93DF9300D0D6
:10058000CDB7DEB7182F7B01F89460E0822F2A8365
:1005900049830E94EC00812F80680E946E0149818E
:1005A000642F772767FD7095C7010E94750161E090
:1005B0002A81822F0E94EC0078940F900F90DF9197
:1005C000CF911F91FF90EF900895EF92FF920F93BC
:1005D0001F93CF93DF9300D0CDB7DEB7F82E162F41
:1005E000022FF89460E0822F49837A830E94EC0006
:1005F0008F2D80680E946E01E12E7A81F72E49814D
:10060000140F1E1539F080E00E946E01F7018193EE
:100610007F01F7CF61E0802F0E94EC0078940F906B
:100620000F90DF91CF911F910F91FF90EF90089560
:100630001F93CF93DF93EC01162F462F68818FE233
:100640000E944B02412F698180E3DF91CF911F917E
:100650000C944B02CF93DF93D82FC62F462F692FD0
:100660008CE20E944B024C2F6D2F8DE2DF91CF91D7
:100670000C944B02CF92DF92EF92FF92CF93C42F54
:1006800020E034E244E759E40E94390620E034E2F5
:1006900044E752E40E9447050E94B9056B017C01C2
:1006A000B701882799274C2F87E00E944B02992792
:1006B0008F2D7E2D6D2D4C2F88E00E944B024C2FEC
:1006C0006C2D89E0CF91FF90EF90DF90CF900C944C
:1006D0004B021F93CF93DF9300D0CDB7DEB7182F17
:1006E00061E08BE00E948A0061E089E10E94EC00F9
:1006F0002FEF8FE392E0215080409040E1F700C05F
:10070000000060E08BE00E94EC002FEF8FE392E0AE
:10071000215080409040E1F700C00000412F6FE879
:100720008CE30E944B02412F60E38FE60E944B0254
:10073000412F65E58AE50E944B02412F60E78CE579
:100740000E944B028DE289838DE48A83612FCE0162
:1007500001960E941803612F84E090E00E942A0312
:10076000412F60E070E089ED93E40E943A030F901E
:100770000F90DF91CF911F9108951F93CF93DF9337
:100780001F92CDB7DEB7182F462F81E049830E9414
:100790007202837E612F6C71682B498181E00F901A
:1007A000DF91CF911F910C944B02682F81E00E9442
:1007B0007202992787FD90950E94E1018BE291E0FA
:1007C0000C94E1011F93CF93DF931F92CDB7DEB757
:1007D000462F182F80320CF01FE1642F81E14983EE
:1007E0000E947202807E912F498117FD9F5F95952F
:1007F000682F692B81E10F90DF91CF911F910C94AD
:100800004B02CF93DF93D82FC62F811102C06AE12C
:1008100001C06FE04C2F83E10E944B026C2F81E1FD
:10082000DD2331F00E9472028F71682F606604C070
:100830000E947202682F6F714C2F81E1DF91CF917E
:100840000C944B020F931F93CF93DF93FC012081F5
:10085000261709F448C0C42FD62F8C01611112C08D
:10086000108265E58AE50E944B024C2F60E78CE51B
:100870000E944B026C2F84E0DF91CF911F910F916A
:100880000C94BD036130A9F465E58AE50E944B0232
:100890004C2F60E78CE50E944B026C2F80E10E9498
:1008A000BD034C2F60E485E20E944B026C2F80E078
:1008B00016C06230C1F46DE58AE50E944B024C2FF0
:1008C0006CE78CE50E944B026C2F8CE00E94BD030C
:1008D0004C2F60E085E20E944B026C2F81E00E9469
:1008E0000104F801D083DF91CF911F910F910895FA
:1008F000AF92BF92CF92DF92EF92FF920F931F932E
:10090000CF93DF9300D0CDB7DEB74D330CF04CC0A2
:10091000122FB42E6B01A92E082FF894422F60E0FD
:10092000C6010E942204612F87E20E94720260E0E9
:10093000812F0E94EC0080E88983BA8262E070E037
:10094000CE0101960E948E01E02EFA2C0B0D0E15A1
:1009500071F05701F70181917F01992787FD9095EB
:100960000E94D301F50180810E946E01F0CF61E009
:10097000812F0E94EC007894412F62E0C6010E9412
:1009800022048AE00E944301811105C08EE291E0B9
:100990000E94E101F6CF84E391E00E94E101412F42
:1009A00060E0C6010E9422040F900F90DF91CF916A
:1009B0001F910F91FF90EF90DF90CF90BF90AF907D
:1009C0000895CF93C82F482F61E083E20E944B0225
:1009D0006C2F83E20E94720281FFFACF6C2F84E2B7
:1009E0000E947202992781950CF4909595958795B0
:1009F000CF91089588E180934801109249011092A7
:100A000086011092870178948FE290E00E94C301E2
:100A10000E946701809148010E943902809148013B
:100A20000E9469034091480161E089E491E00E94DD
:100A3000220480918701882301F11092870140915F
:100A4000480169E471E08AE491E00E940002809329
:100A500086014091480161E089E491E00E9422040E
:100A60008AE491E00E94E1012FEF8FE796E12150A7
:100A700080409040E1F700C000002FEF8FE796E143
:100A8000215080409040E1F700C00000D2CF0E948A
:100A90005B050C94FF050E94F80558F00E94F105D3
:100AA00040F029F45F3F29F00C94E80551110C94B3
:100AB00033060C94EE050E94100668F39923B1F3F7
:100AC000552391F3951B550BBB27AA276217730774
:100AD000840738F09F5F5F4F220F331F441FAA1F08
:100AE000A9F335D00E2E3AF0E0E832D091505040C4
:100AF000E695001CCAF72BD0FE2F29D0660F771F72
:100B0000881FBB1F261737074807AB07B0E809F057
:100B1000BB0B802DBF01FF2793585F4F3AF09E3FDC
:100B2000510578F00C94E8050C9433065F3FE4F32C
:100B3000983ED4F3869577956795B795F7959F5F1F
:100B4000C9F7880F911D9695879597F90895E1E06B
:100B5000660F771F881FBB1F621773078407BA07CA
:100B600020F0621B730B840BBA0BEE1F88F7E09525
:100B700008950E94180688F09F5798F0B92F99277A
:100B8000B751B0F0E1F0660F771F881F991F1AF078
:100B9000BA95C9F714C0B13091F00E943206B1E0A5
:100BA00008950C943206672F782F8827B85F39F0A4
:100BB000B93FCCF3869577956795B395D9F73EF411
:100BC00090958095709561957F4F8F4F9F4F0895B9
:100BD00097F99F6780E870E060E008959FEF80ECF0
:100BE000089500240A941616170618060906089593
:100BF00000240A9412161306140605060895092EF9
:100C00000394000C11F4882352F0BB0F40F4BF2B67
:100C100011F460FF04C06F5F7F4F8F4F9F4F0895A7
:100C200057FD9058440F551F59F05F3F71F047959D
:100C3000880F97FB991F61F09F3F79F08795089582
:100C4000121613061406551FF2CF4695F1DF08C0A1
:100C5000161617061806991FF1CF869571056105BE
:100C600008940895E894BB2766277727CB0197F966
:100C700008950E944C060C94FF050E94F10538F07F
:100C80000E94F80520F0952311F00C94E8050C94CF
:100C9000EE0511240C9433060E94100670F3959F04
:100CA000C1F3950F50E0551F629FF001729FBB2763
:100CB000F00DB11D639FAA27F00DB11DAA1F649FFF
:100CC0006627B00DA11D661F829F2227B00DA11DB2
:100CD000621F739FB00DA11D621F839FA00D611D38
:100CE000221F749F3327A00D611D231F849F600D59
:100CF000211D822F762F6A2F11249F5750409AF082
:100D0000F1F088234AF0EE0FFF1FBB1F661F771F0D
:100D1000881F91505040A9F79E3F510580F00C94D8
:100D2000E8050C9433065F3FE4F3983ED4F38695D0
:100D300077956795B795F795E7959F5FC1F7FE2B78
:100D4000880F911D9695879597F90895F894FFCF90
:100D5000676F7420736F6D657468696E6700696E84
:100D6000746572727570742068616E64656C65720A
:100D7000006E657720646174612000200A0073743E
:100D800075636B00202121215061636B65742053D2
:080D9000656E74212121200091
:00000001FF
