:100000000C9434000C9462000C9451000C94510038
:100010000C9451000C9451000C9451000C9451001C
:100020000C9451000C9451000C9451000C9451000C
:100030000C9451000C9451000C9451000C945100FC
:100040000C9451000C9451000C9451000C945100EC
:100050000C9451000C9451000C9451000C945100DC
:100060000C9451000C94510011241FBECFEFD8E026
:10007000DEBFCDBF11E0A0E0B1E0E6E3FDE002C0ED
:1000800005900D92AA30B107D9F711E0AAE0B1E0CE
:1000900001C01D92AB34B107E1F70E94FB040C9440
:1000A00099060C94000052985A9AE9E6F0E0808193
:1000B00083608083E89A7894EBE6F0E08081806842
:1000C000808308951F920F920FB60F9211242F93E1
:1000D0003F934F935F936F937F938F939F93AF93D0
:1000E000BF93EF93FF9360910A018BE091E00E9430
:1000F000B30480934901FF91EF91BF91AF919F911C
:100100008F917F916F915F914F913F912F910F90C0
:100110000FBE0F901F901895813029F039EE380FDF
:10012000363038F015C0613011F43E9A08953E988B
:10013000089527B181E090E001C0880F3A95EAF771
:10014000613011F4822B02C08095822387B9089513
:100150009EEF980F953030F095EF980F9330E0F4C4
:10016000865001C0892F4AB121E030E0613049F466
:10017000B90102C0660F771F8A95E2F7CB01842B85
:1001800009C0B90102C0660F771F8A95E2F7CB015B
:10019000809584238AB9089597EF980F923020F0C4
:1001A0008E50863010F00895835044B121E030E045
:1001B000613049F4B90102C0660F771F8A95E2F7F2
:1001C000CB01842B09C0B90102C0660F771F8A9545
:1001D000E2F7CB018095842384B90895CF93DF9310
:1001E000C82FD62F61E00E948C00C13029F039EE73
:1001F0003C0F363038F015C0D13011F4469A42C069
:10020000469840C028B181E090E001C0880F3A953F
:10021000EAF7D13011F4822B02C08095822388B98D
:1002200031C08EEF8C0F853030F085EF8C0F83302E
:1002300090F4C65001C0C82F2BB181E090E001C0FE
:10024000880FCA95EAF7D13011F4822B02C080954D
:1002500082238BB917C087EF8C0F823020F0CE50ED
:10026000C63010F00FC0C35025B181E090E001C04E
:10027000880FCA95EAF7D13011F4822B02C080951D
:10028000822385B9DF91CF910895CF93C82F60E085
:100290000E948C00C13061F029EE2C0F263068F4EA
:1002A00086B190E002C0959587952A95E2F723C024
:1002B00086B186FB882780F91FC08EEF8C0F8530B2
:1002C00030F085EF8C0F833028F4C65001C0C82F62
:1002D00089B10BC087EF8C0F823028F0CE50C6302A
:1002E00018F082E009C0C35083B190E002C0959538
:1002F0008795CA95E2F78170CF910895F8948CE2C2
:1003000084B981E58CBD789408958EBD00000DB44C
:1003100007FEFDCF8EB50895FC0161157105A1F0B2
:1003200080818EBD6150710951F091810DB407FE3D
:10033000FDCF8EB59EBD9081890F8083F3CF0DB424
:1003400007FEFDCF8EB5808308956115710579F0A4
:10035000FC0120812EBD6150710931F0FC01218129
:100360000DB407FEFDCFF6CF0DB407FEFDCF089507
:1003700060E00C94EE0061E00C94EE009CB5937F7D
:10038000892B8CBD0895811103C08CB5806202C099
:100390008CB58F7D8CBD08959CB5282F23709C7FD4
:1003A000922B9CBD9DB582FB882780F99E7F892B6F
:1003B0008DBD08959093C5008093C400E1ECF0E0FA
:1003C00080818860808380818061808386E08093E3
:1003D000C20008959091C00095FFFCCF8093C600A5
:1003E00008958091C00087FFFCCF8091C6000895DA
:1003F0001F93CF93DF93EC0110E0212F332727FDCC
:100400003095FE0101900020E9F73197EC1BFD0BC0
:10041000E217F30740F0FE01E20FF31F80810E9414
:10042000EA011F5FEACF8DE00E94EA018AE0DF91D6
:10043000CF911F910C94EA0161E00E948C00F89426
:1004400080E00E94BE0181E00E94C30180E00E9422
:10045000CC017894089561E00C94EE000F931F9303
:10046000CF93DF9300D01F92CDB7DEB7182F062FA2
:10047000F89460E0842F4B830E94EE00106819838B
:100480000A8362E070E0CE0101960E94A50161E05E
:100490004B81842F0E94EE0078940F900F900F9064
:1004A000DF91CF911F910F910895CF93DF93D82FB4
:1004B000C62FF89460E08C2F0E94EE008D2F8F776E
:1004C0000E94850180E00E948501D82F61E08C2F79
:1004D0000E94EE0078948D2FDF91CF910895EF92D6
:1004E000FF921F93CF93DF9300D0CDB7DEB7182FC5
:1004F0007B01F89460E0822F2A8349830E94EE00FA
:10050000812F80680E9485014981642F772767FDCC
:100510007095C7010E948C0161E02A81822F0E94A0
:10052000EE0078940F900F90DF91CF911F91FF9084
:10053000EF900895EF92FF920F931F93CF93DF9365
:1005400000D0CDB7DEB7F82E162F022FF89460E05A
:10055000822F49837A830E94EE008F2D80680E944B
:100560008501E12E7A81F72E4981140F1E1539F08D
:1005700080E00E948501F70181937F01F7CF61E060
:10058000802F0E94EE0078940F900F90DF91CF9112
:100590001F910F91FF90EF9008951F93CF93DF93DA
:1005A000EC01162F462F68818FE20E942E02412F08
:1005B000698180E3DF91CF911F910C942E02CF933C
:1005C000DF93D82FC62F462F692F8CE20E942E0270
:1005D0004C2F6D2F8DE2DF91CF910C942E02CF9294
:1005E000DF92EF92FF92CF93C42F20E034E244E7F2
:1005F00059E40E942C0620E034E244E752E40E94D1
:100600003A050E94AC056B017C01B7018827992748
:100610004C2F87E00E942E0299278F2D7E2D6D2D65
:100620004C2F88E00E942E024C2F6C2D89E0CF9138
:10063000FF90EF90DF90CF900C942E021F93CF93FA
:10064000DF9300D0CDB7DEB7182F61E08BE00E94BA
:100650008C0061E089E10E94EE002FEF8FE392E0D1
:10066000215080409040E1F700C0000060E08BE046
:100670000E94EE002FEF8FE392E0215080409040E7
:10068000E1F700C00000412F6FE88CE30E942E02CA
:10069000412F60E38FE60E942E02412F65E58AE537
:1006A0000E942E02412F60E78CE50E942E028DE20F
:1006B00089838DE48A83612FCE0101960E94CD0249
:1006C000612F84E090E00E94DF02412F60E070E043
:1006D00089ED93E40E94EF020F900F90DF91CF918C
:1006E0001F9108951F93CF93DF931F92CDB7DEB76D
:1006F000182F462F81E049830E945502837E612F87
:100700006C71682B498181E00F90DF91CF911F912F
:100710000C942E021F93CF93DF931F92CDB7DEB7B9
:10072000462F182F80320CF01FE1642F81E149839E
:100730000E945502807E912F498117FD9F5F9595FC
:10074000682F692B81E10F90DF91CF911F910C945D
:100750002E02CF93DF93D82FC62F811102C06AE1FA
:1007600001C06FE04C2F83E10E942E026C2F81E1CB
:10077000DD2331F00E9455028F71682F606604C03E
:100780000E945502682F6F714C2F81E1DF91CF914C
:100790000C942E020F931F93CF93DF93FC012081C3
:1007A000261709F448C0C42FD62F8C01611112C03E
:1007B000108265E58AE50E942E024C2F60E78CE5E9
:1007C0000E942E026C2F84E0DF91CF911F910F9138
:1007D0000C9472036130A9F465E58AE50E942E024B
:1007E0004C2F60E78CE50E942E026C2F80E10E9466
:1007F00072034C2F60E485E20E942E026C2F80E091
:1008000016C06230C1F46DE58AE50E942E024C2FBD
:100810006CE78CE50E942E026C2F8CE00E94720324
:100820004C2F60E085E20E942E026C2F81E00E9436
:10083000A903F801D083DF91CF911F910F91089503
:10084000CF92DF92EF92FF920F931F93CF93DF939C
:100850007C01CB01D42FF89460E00E94CA0360E0D1
:100860008D2F0E94EE0080E00E94850180E00E94B2
:100870008501C82F882391F08701C82EDD24C7FC8D
:10088000D094C8018E199F098C159D053CF480E019
:100890000E948501F80181938F01F3CF61E08D2FD4
:1008A0000E94EE0078948C2FDF91CF911F910F91D1
:1008B000FF90EF90DF90CF900895AF92BF92CF92CC
:1008C000DF92EF92FF920F931F93CF93DF9300D0AD
:1008D000CDB7DEB74D33D4F5122FD42E5B01C92E20
:1008E000082FF894422F60E0C5010E94CA03612FCF
:1008F00087E20E94550287FFFACF60E0812F0E94B5
:10090000EE0080E88983DA8262E070E0CE01019631
:100910000E94A501E02EFC2C0D0D0E1531F0F70103
:1009200081917F010E948501F8CF61E0812F0E94B3
:10093000EE007894412F62E0C5010E94CA03612F46
:1009400081E00E9455028C718430C9F70F900F909E
:10095000DF91CF911F910F91FF90EF90DF90CF909B
:10096000BF90AF900895FF920F931F93CF93DF93A3
:100970001F92CDB7DEB78C01462FFC01F080F1E06D
:10098000FF120CC088E249830E945502498182FF10
:1009900005C080E091E00E94F8010CC0F801808160
:1009A000823039F460E0C8010E94CA03FF24F39446
:1009B00001C0F12C8F2D0F90DF91CF911F910F91DE
:1009C000FF900895CF93C82F482F61E083E20E94E3
:1009D0002E026C2F83E20E94550281FFFACF6C2F0A
:1009E00084E20E945502992781950CF49095959583
:1009F0008795CF9108950E9453008FE290E00E9466
:100A0000DA010E947E0188E180930A0110920B01B5
:100A10001092480110924A010E941C0280910A0122
:100A20000E941E0340910A0161E08BE091E00E9468
:100A3000CA03809149018823B9F01092490140917D
:100A40000A016BE071E08CE091E00E942004809349
:100A5000480140910A0161E08BE091E00E94CA03E5
:100A60008CE091E00E94F80186E69EE00197F1F7A4
:100A70000000DFCF0E944E050C94F2050E94EB05AA
:100A800058F00E94E40540F029F45F3F29F00C94EF
:100A9000DB0551110C9426060C94E1050E94030617
:100AA00068F39923B1F3552391F3951B550BBB279D
:100AB000AA2762177307840738F09F5F5F4F220FE2
:100AC000331F441FAA1FA9F335D00E2E3AF0E0E8D9
:100AD00032D091505040E695001CCAF72BD0FE2F23
:100AE00029D0660F771F881FBB1F261737074807B7
:100AF000AB07B0E809F0BB0B802DBF01FF2793586F
:100B00005F4F3AF09E3F510578F00C94DB050C9452
:100B100026065F3FE4F3983ED4F386957795679574
:100B2000B795F7959F5FC9F7880F911D96958795A3
:100B300097F90895E1E0660F771F881FBB1F6217C2
:100B400073078407BA0720F0621B730B840BBA0B80
:100B5000EE1F88F7E09508950E940B0688F09F57D6
:100B600098F0B92F9927B751B0F0E1F0660F771FD1
:100B7000881F991F1AF0BA95C9F714C0B13091F0C7
:100B80000E942506B1E008950C942506672F782F62
:100B90008827B85F39F0B93FCCF38695779567958C
:100BA000B395D9F73EF490958095709561957F4FF8
:100BB0008F4F9F4F089597F99F6780E870E060E03E
:100BC00008959FEF80EC089500240A9416161706E6
:100BD00018060906089500240A941216130614062E
:100BE00005060895092E0394000C11F4882352F091
:100BF000BB0F40F4BF2B11F460FF04C06F5F7F4F49
:100C00008F4F9F4F089557FD9058440F551F59F02F
:100C10005F3F71F04795880F97FB991F61F09F3FE9
:100C200079F087950895121613061406551FF2CF12
:100C30004695F1DF08C0161617061806991FF1CF62
:100C400086957105610508940895E894BB27662789
:100C50007727CB0197F908950E943F060C94F2057F
:100C60000E94E40538F00E94EB0520F0952311F076
:100C70000C94DB050C94E10511240C9426060E94CB
:100C8000030670F3959FC1F3950F50E0551F629FC7
:100C9000F001729FBB27F00DB11D639FAA27F00DD5
:100CA000B11DAA1F649F6627B00DA11D661F829FFC
:100CB0002227B00DA11D621F739FB00DA11D621FE1
:100CC000839FA00D611D221F749F3327A00D611DFE
:100CD000231F849F600D211D822F762F6A2F1124E0
:100CE0009F5750409AF0F1F088234AF0EE0FFF1F13
:100CF000BB1F661F771F881F91505040A9F79E3F6A
:100D0000510580F00C94DB050C9426065F3FE4F35C
:100D1000983ED4F3869577956795B795F795E795BF
:100D20009F5FC1F7FE2B880F911D9695879597F9C8
:060D30000895F894FFCFC6
:0A0D36006E6577206461746120008F
:00000001FF
