:100000000C9434000C9457000C9446000C94460059
:100010000C9446000C9446000C9446000C94460048
:100020000C9446000C9446000C9446000C94460038
:100030000C9446000C9446000C9446000C94460028
:100040000C9446000C9446000C9446000C94460018
:100050000C9446000C9446000C9446000C94460008
:100060000C9446000C94460011241FBECFEFD8E03C
:10007000DEBFCDBF11E0A0E0B1E001C01D92A13410
:10008000B107E1F70E94FB030C9486050C94000075
:1000900052985A9AE9E6F0E0808183608083E89A7A
:1000A0007894EBE6F0E080818068808308951F9269
:1000B0000F920FB60F9211248F9381E080933F012E
:1000C0008F910F900FBE0F901F901895813029F0DF
:1000D00039EE380F363038F015C0613011F43E9AE1
:1000E00008953E98089527B181E090E001C0880FFF
:1000F0003A95EAF7613011F4822B02C08095822391
:1001000087B908959EEF980F953030F095EF980FCE
:100110009330E0F4865001C0892F4AB121E030E0ED
:10012000613049F4B90102C0660F771F8A95E2F782
:10013000CB01842B09C0B90102C0660F771F8A95D5
:10014000E2F7CB01809584238AB9089597EF980F41
:10015000923020F08E50863010F00895835044B1D4
:1001600021E030E0613049F4B90102C0660F771F29
:100170008A95E2F7CB01842B09C0B90102C0660F52
:10018000771F8A95E2F7CB018095842384B908957F
:10019000CF93DF93C82FD62F61E00E946600C13055
:1001A00029F039EE3C0F363038F015C0D13011F45B
:1001B000469A42C0469840C028B181E090E001C014
:1001C000880F3A95EAF7D13011F4822B02C080955E
:1001D000822388B931C08EEF8C0F853030F085EFE7
:1001E0008C0F833090F4C65001C0C82F2BB181E032
:1001F00090E001C0880FCA95EAF7D13011F4822B44
:1002000002C0809582238BB917C087EF8C0F823094
:1002100020F0CE50C63010F00FC0C35025B181E0A1
:1002200090E001C0880FCA95EAF7D13011F4822B13
:1002300002C08095822385B9DF91CF910895CF9335
:10024000C82F60E00E946600C13061F029EE2C0FDB
:10025000263068F486B190E002C0959587952A957E
:10026000E2F723C086B186FB882780F91FC08EEF96
:100270008C0F853030F085EF8C0F833028F4C6501A
:1002800001C0C82F89B10BC087EF8C0F823028F0D6
:10029000CE50C63018F082E009C0C35083B190E060
:1002A00002C095958795CA95E2F78170CF91089520
:1002B000F8948CE284B981E58CBD789408958EBD64
:1002C00000000DB407FEFDCF8EB50895FC01611549
:1002D0007105A1F080818EBD6150710951F091814D
:1002E0000DB407FEFDCF8EB59EBD9081890F808332
:1002F000F3CF0DB407FEFDCF8EB580830895611551
:10030000710579F0FC0120812EBD6150710931F039
:10031000FC0121810DB407FEFDCFF6CF0DB407FE21
:10032000FDCF089560E00C94C80061E00C94C80013
:100330009CB5937F892B8CBD0895811103C08CB52A
:10034000806202C08CB58F7D8CBD08959CB5282F2E
:1003500023709C7F922B9CBD9DB582FB882780F9E2
:100360009E7F892B8DBD08959093C5008093C40016
:10037000E1ECF0E08081886080838081806180830F
:1003800086E08093C20008959091C00095FFFCCF55
:100390008093C60008958091C00087FFFCCF8091B4
:1003A000C60008951F93CF93DF93EC0110E0212F37
:1003B000332727FD3095FE0101900020E9F73197A2
:1003C000EC1BFD0BE217F30740F0FE01E20FF31FF9
:1003D00080810E94C4011F5FEACF8DE00E94C401AA
:1003E0008AE0DF91CF911F910C94C40161E088E114
:1003F0000E946600F89480E00E94980181E00E94CB
:100400009D0180E00E94A601789408950F931F93A8
:10041000CF93DF9300D0CDB7DEB7182F062FF89417
:1004200060E088E10E94C800106819830A8362E0D6
:1004300070E0CE0101960E947F0161E088E10E9498
:10044000C80078940F900F90DF91CF911F910F917A
:100450000895CF93C82FF89460E088E10E94C80007
:100460008C2F8F770E945F0180E00E945F01C82F70
:1004700061E088E10E94C80078948C2FCF910895A4
:10048000CF93DF93EC0168818FE20E9406026981BD
:1004900080E3DF91CF910C940602CF93C82F692F90
:1004A0008CE20E9406026C2F8DE2CF910C94060222
:1004B000CF92DF92EF92FF9220E034E244E759E4DA
:1004C0000E94190520E034E244E752E40E94270428
:1004D0000E9499046B017C01B7018827992787E066
:1004E0000E94060299278F2D7E2D6D2D88E00E9497
:1004F00006026C2D89E0FF90EF90DF90CF900C9476
:100500000602CF93DF9300D0CDB7DEB761E08BE07A
:100510000E94660061E089E10E94C8002FEF8FE32E
:1005200092E0215080409040E1F700C0000060E080
:100530008BE00E94C8002FEF8FE392E021508040B3
:100540009040E1F700C000006FE88CE30E940602D3
:1005500060E38FE60E94060265E58AE50E940602D6
:1005600060E78CE50E9406028DE289838DE48A8330
:10057000CE0101960E94400284E090E00E944D026C
:1005800060E070E089ED93E40E9458020F900F90B4
:10059000DF91CF910895CF93C82F81E00E94290267
:1005A000837ECC71682F6C2B81E0CF910C94060276
:1005B000CF93C82F80320CF0CFE181E10E94290255
:1005C000807E9C2FC7FD9F5F9595682F692B81E1E9
:1005D000CF910C940602CF93C82F811102C06AE11B
:1005E00001C06FE083E10E94060281E1CC2331F07B
:1005F0000E9429028F71682F606604C00E94290240
:10060000682F6F7181E1CF910C9406020F931F93B5
:10061000CF93FC0120812617E1F1C62F8C016111D7
:100620000FC0108265E58AE50E94060260E78CE54E
:100630000E94060284E0CF911F910F910C94CB028F
:10064000613089F465E58AE50E94060260E78CE581
:100650000E94060280E10E94CB0260E485E20E94D3
:10066000060280E012C06230A1F46DE58AE50E94C6
:1006700006026CE78CE50E9406028CE00E94CB0229
:1006800060E085E20E94060281E00E94EB02F80130
:10069000C083CF911F910F910895CF92DF92EF9277
:1006A000FF920F931F93CF937C01CB01F89460E0EE
:1006B0000E94060360E088E10E94C80080E00E947A
:1006C0005F0180E00E945F01C82F882391F08701BD
:1006D000C82EDD24C7FCD094C8018E199F098C1543
:1006E0009D053CF480E00E945F01F80181938F0139
:1006F000F3CF61E088E10E94C80078948C2FCF91FD
:100700001F910F91FF90EF90DF90CF9008950F937E
:100710001F93CF93DF93EC018C010F5F1F4F61E0BC
:10072000C8010E9406038FAD882349F01FAEB801AF
:10073000CE0102960E944D038EAF80E001C081E0A1
:10074000DF91CF911F910F910895EF92FF920F9338
:100750001F93CF93DF9300D0CDB7DEB77C018B0121
:10076000F89460E0C8010E94060387E20E94290213
:1007700087FFFBCF60E088E10E94C8001A821982DF
:1007800080E8898362E070E0CE0101960E947F01DB
:10079000F70180810E945F01F70181810E945F0162
:1007A00061E088E10E94C800789462E0C8010E947C
:1007B000060381E00E9429028C718430D1F70F90EA
:1007C0000F90DF91CF911F910F91FF90EF900895BF
:1007D00061E083E20E94060283E20E94290281FF17
:1007E000FBCF84E20E942902992781950CF4909511
:1007F0009595879508950E9448008FE290E00E94A9
:10080000B4010E94580188E1809300011092010117
:1008100010923E011092400188E190E00E94F601A2
:1008200080910001992787FD90950E94810280E0C8
:1008300091E00E948703811104C082E091E00E9450
:10084000D20186E69EE00197F1F70000F0CF0E940A
:100850003B040C94DF040E94D80458F00E94D10499
:1008600040F029F45F3F29F00C94C80451110C9416
:1008700013050C94CE040E94F00468F39923B1F39D
:10088000552391F3951B550BBB27AA2762177307B6
:10089000840738F09F5F5F4F220F331F441FAA1F4A
:1008A000A9F335D00E2E3AF0E0E832D09150504006
:1008B000E695001CCAF72BD0FE2F29D0660F771FB4
:1008C000881FBB1F261737074807AB07B0E809F09A
:1008D000BB0B802DBF01FF2793585F4F3AF09E3F1F
:1008E000510578F00C94C8040C9413055F3FE4F3B1
:1008F000983ED4F3869577956795B795F7959F5F62
:10090000C9F7880F911D9695879597F90895E1E0AD
:10091000660F771F881FBB1F621773078407BA070C
:1009200020F0621B730B840BBA0BEE1F88F7E09567
:1009300008950E94F80488F09F5798F0B92F9927DE
:10094000B751B0F0E1F0660F771F881F991F1AF0BA
:10095000BA95C9F714C0B13091F00E941205B1E008
:1009600008950C941205672F782F8827B85F39F007
:10097000B93FCCF3869577956795B395D9F73EF453
:1009800090958095709561957F4F8F4F9F4F0895FB
:1009900097F99F6780E870E060E008959FEF80EC32
:1009A000089500240A9416161706180609060895D5
:1009B00000240A9412161306140605060895092E3B
:1009C0000394000C11F4882352F0BB0F40F4BF2BAA
:1009D00011F460FF04C06F5F7F4F8F4F9F4F0895EA
:1009E00057FD9058440F551F59F05F3F71F04795E0
:1009F000880F97FB991F61F09F3F79F087950895C5
:100A0000121613061406551FF2CF4695F1DF08C0E3
:100A1000161617061806991FF1CF86957105610500
:100A200008940895E894BB2766277727CB0197F9A8
:100A300008950E942C050C94DF040E94D10438F024
:100A40000E94D80420F0952311F00C94C8040C9453
:100A5000CE0411240C9413050E94F00470F3959FAA
:100A6000C1F3950F50E0551F629FF001729FBB27A5
:100A7000F00DB11D639FAA27F00DB11DAA1F649F41
:100A80006627B00DA11D661F829F2227B00DA11DF4
:100A9000621F739FB00DA11D621F839FA00D611D7A
:100AA000221F749F3327A00D611D231F849F600D9B
:100AB000211D822F762F6A2F11249F5750409AF0C4
:100AC000F1F088234AF0EE0FFF1FBB1F661F771F50
:100AD000881F91505040A9F79E3F510580F00C941B
:100AE000C8040C9413055F3FE4F3983ED4F3869555
:100AF00077956795B795F795E7959F5FC1F7FE2BBB
:100B0000880F911D9695879597F90895F894FFCFD2
:00000001FF
