:100000000C9434000C9462000C9451000C94510038
:100010000C9451000C9451000C9451000C9451001C
:100020000C9451000C9451000C9451000C9451000C
:100030000C9451000C9451000C9451000C945100FC
:100040000C9451000C9451000C9451000C945100EC
:100050000C9451000C9451000C9451000C945100DC
:100060000C9451000C94510011241FBECFEFD8E026
:10007000DEBFCDBF11E0A0E0B1E0E0E7F0E102C0FB
:1000800005900D92A031B107D9F711E0A0E1B1E0E0
:1000900001C01D92A133B107E1F70E948A050C94BB
:1000A00036080C94000052985A9AE9E6F0E08081F4
:1000B00083608083E89A7894EBE6F0E08081806842
:1000C000808308951F920F920FB60F9211242F93E1
:1000D0003F934F935F936F937F938F939F93AF93D0
:1000E000BF93EF93FF938CE091E00E94FB0168E1E6
:1000F00080E191E00E94470580933001FF91EF91EC
:10010000BF91AF919F918F917F916F915F914F912F
:100110003F912F910F900FBE0F901F901895813037
:1001200029F039EE380F363038F015C0613011F44F
:100130003E9A08953E98089527B181E090E001C06D
:10014000880F3A95EAF7613011F4822B02C080954E
:10015000822387B908959EEF980F953030F095EF80
:10016000980F9330E0F4865001C0892F4AB121E006
:1001700030E0613049F4B90102C0660F771F8A95FB
:10018000E2F7CB01842B09C0B90102C0660F771FCB
:100190008A95E2F7CB01809584238AB9089597EF79
:1001A000980F923020F08E50863010F008958350D2
:1001B00044B121E030E0613049F4B90102C0660F7A
:1001C000771F8A95E2F7CB01842B09C0B90102C0E1
:1001D000660F771F8A95E2F7CB018095842384B957
:1001E0000895CF93DF93C82FD62F61E00E948F0030
:1001F000C13029F039EE3C0F363038F015C0D1301F
:1002000011F4469A42C0469840C028B181E090E07F
:1002100001C0880F3A95EAF7D13011F4822B02C061
:100220008095822388B931C08EEF8C0F853030F0F5
:1002300085EF8C0F833090F4C65001C0C82F2BB1CE
:1002400081E090E001C0880FCA95EAF7D13011F43F
:10025000822B02C0809582238BB917C087EF8C0F49
:10026000823020F0CE50C63010F00FC0C35025B100
:1002700081E090E001C0880FCA95EAF7D13011F40F
:10028000822B02C08095822385B9DF91CF9108959A
:10029000CF93C82F60E00E948F00C13061F029EE3B
:1002A0002C0F263068F486B190E002C095958795B2
:1002B0002A95E2F723C086B186FB882780F91FC004
:1002C0008EEF8C0F853030F085EF8C0F833028F463
:1002D000C65001C0C82F89B10BC087EF8C0F823088
:1002E00028F0CE50C63018F082E009C0C35083B168
:1002F00090E002C095958795CA95E2F78170CF91FD
:100300000895F8948CE284B981E58CBD78940895C1
:100310008EBD00000DB407FEFDCF8EB50895FC0123
:1003200061157105A1F080818EBD6150710951F098
:1003300091810DB407FEFDCF8EB59EBD9081890FD2
:100340008083F3CF0DB407FEFDCF8EB58083089573
:100350006115710579F0FC0120812EBD6150710994
:1003600031F0FC0121810DB407FEFDCFF6CF0DB4B5
:1003700007FEFDCF089560E00C94F10061E00C945D
:10038000F1009CB5937F892B8CBD0895811103C02A
:100390008CB5806202C08CB58F7D8CBD08959CB5F4
:1003A000282F23709C7F922B9CBD9DB582FB8827B4
:1003B00080F99E7F892B8DBD08959093C500809311
:1003C000C400E1ECF0E080818860808380818061FE
:1003D000808386E08093C20008959091C00095FFCD
:1003E000FCCF8093C60008958091C00087FFFCCFAA
:1003F0008091C60008951F93CF93DF93EC0110E026
:10040000812F992787FD9095FE0101900020E9F743
:100410003197EC1BFD0BE817F90740F0FE01E80FE0
:10042000F91F80810E94ED011F5FEACF8DE00E94DD
:10043000ED018AE0DF91CF911F910C94ED013F9285
:100440004F925F926F927F928F929F92AF92BF92E4
:10045000CF92DF92EF92FF920F931F93CF93DF9390
:10046000EC012A013B01B22ECB01BA010E94A10688
:100470006B017C018B014AE050E0BE01C6010E9485
:10048000F60720E030E0A901C301B2010E942A066C
:1004900087FF08C077FA709477F8709400271127C7
:1004A0000C191D09FE0101900020E9F73197EC1BA2
:1004B000FD0B332433943E0E8E2E992487FC9094AA
:1004C000FE01E80DF91D8EE28083E12CF12C8B0CEE
:1004D000911CB7FC9A94C32CCE0CDD24C7FCD0949D
:1004E000BFEFEB1AFB0A8C149D0444F1B801882776
:1004F00077FD8095982F0E94D9069B01AC01C3011E
:10050000B2010E94BD0520E030E040E251E40E94CB
:1005100089072B013C010E94A106DC01CB018C0163
:100520004AE050E0A12CB12CB5010E94F607FE0173
:10053000EC0DFD1DD5018C918083CDCFDF91CF9146
:100540001F910F91FF90EF90DF90CF90BF90AF90F1
:100550009F908F907F906F905F904F903F90089505
:1005600061E00E948F00F89480E00E94C10181E068
:100570000E94C60180E00E94CF017894089561E056
:100580000C94F1000F931F93CF93DF9300D01F9231
:10059000CDB7DEB7182F062FF89460E0842F4B8379
:1005A0000E94F100106819830A8362E070E0CE01B6
:1005B00001960E94A80161E04B81842F0E94F10006
:1005C00078940F900F900F90DF91CF911F910F9122
:1005D0000895CF93DF93D82FC62FF89460E08C2F27
:1005E0000E94F1008D2F8F770E94880180E00E9489
:1005F0008801D82F61E08C2F0E94F10078948D2F14
:10060000DF91CF910895EF92FF921F93CF93DF93E5
:1006100000D0CDB7DEB7182F7B01F89460E0822FB1
:100620002A8349830E94F100812F80680E948801FB
:100630004981642F772767FD7095C7010E948F015C
:1006400061E02A81822F0E94F10078940F900F9030
:10065000DF91CF911F91FF90EF900895EF92FF925D
:100660000F931F93CF93DF9300D0CDB7DEB7F82E53
:10067000162F022FF89460E0822F49837A830E941C
:10068000F1008F2D80680E948801E12E7A81F72E7B
:100690004981140F1E1539F080E00E948801F7018E
:1006A00081937F01F7CF61E0802F0E94F100789461
:1006B0000F900F90DF91CF911F910F91FF90EF90CE
:1006C00008951F93CF93DF93EC01162F462F688177
:1006D0008FE20E94C202412F698180E3DF91CF91B6
:1006E0001F910C94C202CF93DF93D82FC62F462FB1
:1006F000692F8CE20E94C2024C2F6D2F8DE2DF9198
:10070000CF910C94C202CF92DF92EF92FF92CF93DF
:10071000C42F20E034E244E759E40E94890720E036
:1007200034E244E752E40E942F060E94A8066B01BF
:100730007C01B701882799274C2F87E00E94C202CD
:1007400099278F2D7E2D6D2D4C2F88E00E94C2029F
:100750004C2F6C2D89E0CF91FF90EF90DF90CF90E0
:100760000C94C2021F93CF93DF9300D0CDB7DEB7B6
:10077000182F61E08BE00E948F0061E089E10E9408
:10078000F1002FEF8FE392E0215080409040E1F79D
:1007900000C0000060E08BE00E94F1002FEF8FE3CB
:1007A00092E0215080409040E1F700C00000412FCE
:1007B0006FE88CE30E94C202412F60E38FE60E9443
:1007C000C202412F65E58AE50E94C202412F60E71F
:1007D0008CE50E94C2028DE589838EE28A83612FB7
:1007E000CE0101960E946103612F84E090E00E9497
:1007F0007303412F60E070E089ED93E40E9483036E
:100800000F900F90DF91CF911F9108951F93CF9379
:10081000DF931F92CDB7DEB7182F462F81E04983B3
:100820000E94E902837E612F6C71682B498181E00F
:100830000F90DF91CF911F910C94C2021F93CF9321
:10084000DF931F92CDB7DEB7462F182F80320CF002
:100850001FE1642F81E149830E94E902807E912F8C
:10086000498117FD9F5F9595682F692B81E10F9056
:10087000DF91CF911F910C94C202CF93DF93D82FB9
:10088000C62F811102C06AE101C06FE04C2F83E1E5
:100890000E94C2026C2F81E1DD2331F00E94E90247
:1008A0008F71682F606604C00E94E902682F6F7123
:1008B0004C2F81E1DF91CF910C94C2020F931F93D3
:1008C000CF93DF93FC012081261709F448C0C42F81
:1008D000D62F8C01611112C0108265E58AE50E9455
:1008E000C2024C2F60E78CE50E94C2026C2F84E0AC
:1008F000DF91CF911F910F910C9406046130A9F400
:1009000065E58AE50E94C2024C2F60E78CE50E94F3
:10091000C2026C2F80E10E9406044C2F60E485E245
:100920000E94C2026C2F80E016C06230C1F46DE5F7
:100930008AE50E94C2024C2F6CE78CE50E94C2023D
:100940006C2F8CE00E9406044C2F60E085E20E9430
:10095000C2026C2F81E00E943D04F801D083DF9138
:10096000CF911F910F910895CF92DF92EF92FF9256
:100970000F931F93CF93DF937C01CB01D42FF89477
:1009800060E00E945E0460E08D2F0E94F10080E034
:100990000E94880180E00E948801C82F882391F07E
:1009A0008701C82EDD24C7FCD094C8018E199F0989
:1009B0008C159D053CF480E00E948801F80181932C
:1009C0008F01F3CF61E08D2F0E94F10078948C2F7E
:1009D000DF91CF911F910F91FF90EF90DF90CF901B
:1009E0000895AF92BF92CF92DF92EF92FF920F9352
:1009F0001F93CF93DF9300D0CDB7DEB74F31D4F53F
:100A0000122FD42E5B01C92E082FF894422F60E0DC
:100A1000C5010E945E04612F87E20E94E90287FF00
:100A2000FACF60E0812F0E94F10080E88983DA82AA
:100A300062E070E0CE0101960E94A801E02EFC2C3D
:100A40000D0D0E1531F0F70181917F010E94880193
:100A5000F8CF61E0812F0E94F1007894412F62E08D
:100A6000C5010E945E04612F81E00E94E9028C7141
:100A70008430C9F70F900F90DF91CF911F910F91A4
:100A8000FF90EF90DF90CF90BF90AF9008950F93BD
:100A90001F93CF93DF9300D0CDB7DEB78C01462FE5
:100AA000FC019081913031F0F8018081823061F059
:100AB00090E00FC088E24A8399830E94E9024A814C
:100AC000998182FFF1CF05C060E0C8010E945E04F9
:100AD00091E0892F0F900F90DF91CF911F910F918F
:100AE0000895CF93C82F482F61E083E20E94C2028D
:100AF0006C2F83E20E94E90281FFFACF6C2F84E21F
:100B00000E94E902992781950CF490959595879517
:100B1000CF910895CF93DF93CDB7DEB72C970FB663
:100B2000F894DEBF0FBECDBF0E9453008FE290E06D
:100B30000E94DD010E94810110921001109230018B
:100B400088E10E94B00288E10E94B20378948CE0B0
:100B5000E0E0F1E0DE01119601900D928A95E1F757
:100B600028E14CE060E171E0CE0101960E94F104C1
:100B700083E397E00197F1F7F3CF5058BB27AA27FB
:100B80000E94D5050C944F070E94410738F00E943F
:100B9000480720F039F49F3F19F426F40C943E07DF
:100BA0000EF4E095E7FB0C943807E92F0E946007EC
:100BB00058F3BA17620773078407950720F079F492
:100BC000A6F50C9482070EF4E0950B2EBA2FA02DFB
:100BD0000B01B90190010C01CA01A0011124FF27EA
:100BE000591B99F0593F50F4503E68F11A16F040E5
:100BF000A22F232F342F4427585FF3CF46953795E4
:100C00002795A795F0405395C9F77EF41F16BA0BA8
:100C1000620B730B840BBAF09150A1F0FF0FBB1F56
:100C2000661F771F881FC2F70EC0BA0F621F731F9F
:100C3000841F48F4879577956795B795F7959E3FFC
:100C400008F0B0CF9395880F08F09927EE0F97958D
:100C5000879508950E94140708F481E008950E9482
:100C600043060C944F070E94480758F00E94410722
:100C700040F029F45F3F29F00C94380751110C948F
:100C800083070C943E070E94600768F39923B1F331
:100C9000552391F3951B550BBB27AA2762177307A2
:100CA000840738F09F5F5F4F220F331F441FAA1F36
:100CB000A9F335D00E2E3AF0E0E832D091505040F2
:100CC000E695001CCAF72BD0FE2F29D0660F771FA0
:100CD000881FBB1F261737074807AB07B0E809F086
:100CE000BB0B802DBF01FF2793585F4F3AF09E3F0B
:100CF000510578F00C9438070C9483075F3FE4F3B8
:100D0000983ED4F3869577956795B795F7959F5F4D
:100D1000C9F7880F911D9695879597F90895E1E099
:100D2000660F771F881FBB1F621773078407BA07F8
:100D300020F0621B730B840BBA0BEE1F88F7E09553
:100D400008950E94A8066894B1110C948307089531
:100D50000E94680788F09F5798F0B92F9927B751DC
:100D6000B0F0E1F0660F771F881F991F1AF0BA954F
:100D7000C9F714C0B13091F00E948207B1E0089524
:100D80000C948207672F782F8827B85F39F0B93F16
:100D9000CCF3869577956795B395D9F73EF4909502
:100DA0008095709561957F4F8F4F9F4F0895E89480
:100DB00009C097FB3EF490958095709561957F4FA3
:100DC0008F4F9F4F9923A9F0F92F96E9BB27939551
:100DD000F695879577956795B795F111F8CFFAF461
:100DE000BB0F11F460FF1BC06F5F7F4F8F4F9F4F92
:100DF00016C0882311F096E911C0772321F09EE8F0
:100E0000872F762F05C0662371F096E8862F70E055
:100E100060E02AF09A95660F771F881FDAF7880F2F
:100E20009695879597F90895990F0008550FAA0B85
:100E3000E0E8FEEF16161706E807F907C0F01216ED
:100E40001306E407F50798F0621B730B840B950BF0
:100E500039F40A2661F0232B242B252B21F4089545
:100E60000A2609F4A140A6958FEF811D811D0895E2
:100E700097F99F6780E870E060E008959FEF80EC4D
:100E8000089500240A9416161706180609060895F0
:100E900000240A9412161306140605060895092E56
:100EA0000394000C11F4882352F0BB0F40F4BF2BC5
:100EB00011F460FF04C06F5F7F4F8F4F9F4F089505
:100EC00057FD9058440F551F59F05F3F71F04795FB
:100ED000880F97FB991F61F09F3F79F087950895E0
:100EE000121613061406551FF2CF4695F1DF08C0FF
:100EF000161617061806991FF1CF8695710561051C
:100F000008940895E894BB2766277727CB0197F9C3
:100F100008950E949C070C944F070E94410738F0E7
:100F20000E94480720F0952311F00C9438070C9488
:100F30003E0711240C9483070E94600770F3959F6D
:100F4000C1F3950F50E0551F629FF001729FBB27C0
:100F5000F00DB11D639FAA27F00DB11DAA1F649F5C
:100F60006627B00DA11D661F829F2227B00DA11D0F
:100F7000621F739FB00DA11D621F839FA00D611D95
:100F8000221F749F3327A00D611D231F849F600DB6
:100F9000211D822F762F6A2F11249F5750409AF0DF
:100FA000F1F088234AF0EE0FFF1FBB1F661F771F6B
:100FB000881F91505040A9F79E3F510580F00C9436
:100FC00038070C9483075F3FE4F3983ED4F386958B
:100FD00077956795B795F795E7959F5FC1F7FE2BD6
:100FE000880F911D9695879597F90895453251057B
:100FF00020F4423010F00C940108FB011082CB0168
:101000000895BB274A3031F4992322F4BDE290952C
:1010100081959F4F0C940D08BB27FB015527AA27EC
:10102000880F991FAA1FA41710F0A41B8395505175
:10103000B9F7A05DAA3308F0A95DA193009779F7ED
:10104000B111B1931192CB010C942608DC01FC0183
:10105000672F71917723E1F7329704C07C916D93EC
:1010600070836291AE17BF07C8F30895F894FFCF5D
:101070006865792C796F752C626F6F0049200000CC
:00000001FF
