:100000000C9434000C9462000C9451000C94510038
:100010000C9451000C9451000C9451000C9451001C
:100020000C9451000C9451000C9451000C9451000C
:100030000C9451000C9451000C9451000C945100FC
:100040000C9451000C9451000C9451000C945100EC
:100050000C9451000C9451000C9451000C945100DC
:100060000C9451000C94510011241FBECFEFD8E026
:10007000DEBFCDBF11E0A0E0B1E0E6EFFCE002C0E2
:1000800005900D92A234B107D9F711E0A2E4B1E0D6
:1000900001C01D92A338B107E1F70E94DE040C9461
:1000A00079060C94000052985A9AE9E6F0E08081B3
:1000B00083608083E89A7894EBE6F0E08081806842
:1000C000808308951F920F920FB60F9211242F93E1
:1000D0003F934F935F936F937F938F939F93AF93D0
:1000E000BF93EF93FF938EE091E00E94E601409171
:1000F000420160E083E491E00E94D703FF91EF9119
:10010000BF91AF919F918F917F916F915F914F912F
:100110003F912F910F900FBE0F901F901895813037
:1001200029F039EE380F363038F015C0613011F44F
:100130003E9A08953E98089527B181E090E001C06D
:10014000880F3A95EAF7613011F4822B02C080954E
:10015000822387B908959EEF980F953030F095EF80
:10016000980F9330E0F4865001C0892F4AB121E006
:1001700030E0613049F4B90102C0660F771F8A95FB
:10018000E2F7CB01842B09C0B90102C0660F771FCB
:100190008A95E2F7CB01809584238AB9089597EF79
:1001A000980F923020F08E50863010F008958350D2
:1001B00044B121E030E0613049F4B90102C0660F7A
:1001C000771F8A95E2F7CB01842B09C0B90102C0E1
:1001D000660F771F8A95E2F7CB018095842384B957
:1001E0000895CF93DF93C82FD62F61E00E948F0030
:1001F000C13029F039EE3C0F363038F015C0D1301F
:1002000011F4469A42C0469840C028B181E090E07F
:1002100001C0880F3A95EAF7D13011F4822B02C061
:100220008095822388B931C08EEF8C0F853030F0F5
:1002300085EF8C0F833090F4C65001C0C82F2BB1CE
:1002400081E090E001C0880FCA95EAF7D13011F43F
:10025000822B02C0809582238BB917C087EF8C0F49
:10026000823020F0CE50C63010F00FC0C35025B100
:1002700081E090E001C0880FCA95EAF7D13011F40F
:10028000822B02C08095822385B9DF91CF9108959A
:10029000CF93C82F60E00E948F00C13021F089EE1B
:1002A0008C0F863010F488B114C08EEF8C0F85301F
:1002B00020F085EF8C0F833010F48BB10AC087EFEC
:1002C0008C0F823018F0CE50C63010F485B101C0CA
:1002D00001C081E0CF910895F8948CE284B981E562
:1002E0008CBD789408958EBD00000DB407FEFDCF3F
:1002F0008EB50895FC0161157105A1F080818EBD58
:100300006150710951F091810DB407FEFDCF8EB59A
:100310009EBD9081890F8083F3CF0DB407FEFDCF82
:100320008EB5808308956115710579F0FC012081F7
:100330002EBD6150710931F0FC0121810DB407FE21
:10034000FDCFF6CF0DB407FEFDCF089560E00C940D
:10035000F10061E00C94F1009CB5937F892B8CBD7A
:100360000895811103C08CB5806202C08CB58F7D69
:100370008CBD08959CB5282F23709C7F922B9CBD2B
:100380009DB582FB882780F99E7F892B8DBD0895BE
:100390009093C5008093C400E1ECF0E08081886018
:1003A000808380818061808386E08093C20008958D
:1003B0009091C00095FFFCCF8093C6000895809176
:1003C000C00087FFFCCF8091C60008951F93CF9394
:1003D000DF93EC0110E0212F332727FD3095FE013C
:1003E00001900020E9F73197EC1BFD0BE217F307B2
:1003F00040F0FE01E20FF31F80810E94D8011F5FD1
:10040000EACFDF91CF911F91089561E00E948F00A4
:10041000F89480E00E94AC0181E00E94B10180E08C
:100420000E94BA017894089561E00C94F1000F9352
:100430001F93CF93DF9300D01F92CDB7DEB7182F55
:10044000062FF89460E0842F4B830E94F10010681F
:1004500019830A8362E070E0CE0101960E94930145
:1004600061E04B81842F0E94F10078940F900F90EF
:100470000F90DF91CF911F910F910895CF93DF934C
:10048000D82FC62FF89460E08C2F0E94F1008D2F9A
:100490008F770E94730180E00E947301D82F61E082
:1004A0008C2F0E94F10078948D2FDF91CF910895C9
:1004B0000F931F93CF93DF931F92CDB7DEB78C01BD
:1004C00081E191E069830E94E601F8011081698170
:1004D000113011F010E009C088E20E943E0282FF54
:1004E000F9CF84E291E00E94E601812F0F90DF9125
:1004F000CF911F910F910895EF92FF921F93CF9389
:10050000DF9300D0CDB7DEB7182F7B01F89460E001
:10051000822F2A8349830E94F100812F80680E94E4
:1005200073014981642F772767FD7095C7010E9489
:100530007A0161E02A81822F0E94F10078940F9065
:100540000F90DF91CF911F91FF90EF900895EF9260
:10055000FF920F931F93CF93DF9300D0CDB7DEB7F9
:10056000F82E162F022FF89460E0822F49837A83A9
:100570000E94F1008F2D80680E947301E12E7A8124
:10058000F72E4981140F1E1539F080E00E94730187
:10059000F70181937F01F7CF61E0802F0E94F10086
:1005A00078940F900F90DF91CF911F910F91FF9052
:1005B000EF9008951F93CF93DF93EC01162F462FF2
:1005C00068818FE20E941702412F698180E3DF91E9
:1005D000CF911F910C941702CF93DF93D82FC62F82
:1005E000462F692F8CE20E9417024C2F6D2F8DE24F
:1005F000DF91CF910C941702CF92DF92EF92FF928E
:10060000CF93C42F20E034E244E759E40E940C0663
:1006100020E034E244E752E40E941A050E948C056F
:100620006B017C01B701882799274C2F87E00E9436
:10063000170299278F2D7E2D6D2D4C2F88E00E945B
:1006400017024C2F6C2D89E0CF91FF90EF90DF9037
:10065000CF900C9417021F93CF93DF9300D0CDB7A8
:10066000DEB7182F61E08BE00E948F0061E089E126
:100670000E94F1002FEF8FE392E0215080409040E4
:10068000E1F700C0000060E08BE00E94F1002FEF76
:100690008FE392E0215080409040E1F700C00000DD
:1006A000412F6FE88CE30E941702412F60E38FE631
:1006B0000E941702412F65E58AE50E941702412F2B
:1006C00060E78CE50E9417028DE289838DE48A83BE
:1006D000612FCE0101960E94DA02612F84E090E042
:1006E0000E94EC02412F60E070E089ED93E40E94EB
:1006F000FC020F900F90DF91CF911F9108951F93EF
:10070000CF93DF931F92CDB7DEB7182F462F81E02E
:1007100049830E943E02837E612F6C71682B498160
:1007200081E00F90DF91CF911F910C9417021F93DE
:10073000CF93DF931F92CDB7DEB7462F182F8032AD
:100740000CF01FE1642F81E149830E943E02807E0C
:10075000912F498117FD9F5F9595682F692B81E146
:100760000F90DF91CF911F910C941702CF93DF93DD
:10077000D82FC62F811102C06AE101C06FE04C2F53
:1007800083E10E9417026C2F81E1DD2331F00E948A
:100790003E028F71682F606604C00E943E02682F7F
:1007A0006F714C2F81E1DF91CF910C9417020F9361
:1007B0001F93CF93DF93FC012081261709F448C0D3
:1007C000C42FD62F8C01611112C0108265E58AE515
:1007D0000E9417024C2F60E78CE50E9417026C2FD5
:1007E00084E0DF91CF911F910F910C947F036130D2
:1007F000A9F465E58AE50E9417024C2F60E78CE5B5
:100800000E9417026C2F80E10E947F034C2F60E44E
:1008100085E20E9417026C2F80E016C06230C1F49E
:100820006DE58AE50E9417024C2F6CE78CE50E946B
:1008300017026C2F8CE00E947F034C2F60E085E252
:100840000E9417026C2F81E00E94B603F801D0834A
:10085000DF91CF911F910F910895CF92DF92EF9288
:10086000FF920F931F93CF93DF937C01CB01D42F83
:10087000F89460E00E94D70360E08D2F0E94F100A1
:1008800080E00E94730180E00E947301C82F8823DA
:1008900091F08701C82EDD24C7FCD094C8018E19C1
:1008A0009F098C159D053CF480E00E947301F801BE
:1008B00081938F01F3CF61E08D2F0E94F100789436
:1008C0008C2FDF91CF911F910F91FF90EF90DF90D0
:1008D000CF900895AF92BF92CF92DF92EF92FF92A6
:1008E0000F931F93CF93DF9300D0CDB7DEB74D3377
:1008F0000CF03EC0122FD42E5B01C92E082FF894A5
:10090000422F60E0C5010E94D703612F87E20E9459
:100910003E0287FFFACF60E0812F0E94F10080E85D
:100920008983DA8262E070E0CE0101960E94930131
:10093000E02EFC2C0D0D0E1531F0F70181917F0199
:100940000E947301F8CF61E0812F0E94F10078943A
:10095000412F62E0C5010E94D703612F81E00E9410
:100960003E028C718430C9F78EE291E00E94E6016C
:100970000F900F90DF91CF911F910F91FF90EF900B
:10098000DF90CF90BF90AF900895CF93C82F482F9E
:1009900061E083E20E9417026C2F83E20E943E0214
:1009A00081FFFACF6C2F84E20E943E029927819545
:1009B0000CF4909595958795CF910895CF93DF93FB
:1009C000CDB7DEB72E970FB6F894DEBF0FBECDBF02
:1009D00088E18093420110924301109280011092AD
:1009E00082010E9453008FE290E00E94C8010E94A1
:1009F0006C01809142010E940502809142010E9497
:100A00002B038EE0E0E0F1E0DE01119601900D9203
:100A10008A95E1F702E811E0209142014EE063E49B
:100A200071E0CE0101960E946A0483E397E001978A
:100A3000F1F7F0CF0E942E050C94D2050E94CB0551
:100A400058F00E94C40540F029F45F3F29F00C944F
:100A5000BB0551110C9406060C94C1050E94E305D8
:100A600068F39923B1F3552391F3951B550BBB27DD
:100A7000AA2762177307840738F09F5F5F4F220F22
:100A8000331F441FAA1FA9F335D00E2E3AF0E0E819
:100A900032D091505040E695001CCAF72BD0FE2F63
:100AA00029D0660F771F881FBB1F261737074807F7
:100AB000AB07B0E809F0BB0B802DBF01FF279358AF
:100AC0005F4F3AF09E3F510578F00C94BB050C94B3
:100AD00006065F3FE4F3983ED4F3869577956795D5
:100AE000B795F7959F5FC9F7880F911D96958795E4
:100AF00097F90895E1E0660F771F881FBB1F621703
:100B000073078407BA0720F0621B730B840BBA0BC0
:100B1000EE1F88F7E09508950E94EB0588F09F5737
:100B200098F0B92F9927B751B0F0E1F0660F771F11
:100B3000881F991F1AF0BA95C9F714C0B13091F007
:100B40000E940506B1E008950C940506672F782FE2
:100B50008827B85F39F0B93FCCF3869577956795CC
:100B6000B395D9F73EF490958095709561957F4F38
:100B70008F4F9F4F089597F99F6780E870E060E07E
:100B800008959FEF80EC089500240A941616170626
:100B900018060906089500240A941216130614066E
:100BA00005060895092E0394000C11F4882352F0D1
:100BB000BB0F40F4BF2B11F460FF04C06F5F7F4F89
:100BC0008F4F9F4F089557FD9058440F551F59F070
:100BD0005F3F71F04795880F97FB991F61F09F3F2A
:100BE00079F087950895121613061406551FF2CF53
:100BF0004695F1DF08C0161617061806991FF1CFA3
:100C000086957105610508940895E894BB276627C9
:100C10007727CB0197F908950E941F060C94D205FF
:100C20000E94C40538F00E94CB0520F0952311F0F6
:100C30000C94BB050C94C10511240C9406060E946B
:100C4000E30570F3959FC1F3950F50E0551F629F28
:100C5000F001729FBB27F00DB11D639FAA27F00D15
:100C6000B11DAA1F649F6627B00DA11D661F829F3C
:100C70002227B00DA11D621F739FB00DA11D621F21
:100C8000839FA00D611D221F749F3327A00D611D3E
:100C9000231F849F600D211D822F762F6A2F112420
:100CA0009F5750409AF0F1F088234AF0EE0FFF1F53
:100CB000BB1F661F771F881F91505040A9F79E3FAA
:100CC000510580F00C94BB050C9406065F3FE4F3DD
:100CD000983ED4F3869577956795B795F795E79500
:100CE0009F5FC1F7FE2B880F911D9695879597F909
:060CF0000895F894FFCF07
:100CF60068657920796F752074686572650049208A
:100D060000696E746572727570742068616E6465D0
:100D16006C6572006E657720646174612000202125
:100D260021215061636B65742053656E7421212106
:020D360020009B
:00000001FF
